{
  "_format": "hh-sol-artifact-1",
  "contractName": "MetaNodeStake",
  "sourceName": "contracts/MetaNodeStake.sol",
  "abi": [
    {
      "inputs": [],
      "name": "AccessControlBadConfirmation",
      "type": "error"
    },
    {
      "inputs": [
        {
          "internalType": "address",
          "name": "account",
          "type": "address"
        },
        {
          "internalType": "bytes32",
          "name": "neededRole",
          "type": "bytes32"
        }
      ],
      "name": "AccessControlUnauthorizedAccount",
      "type": "error"
    },
    {
      "inputs": [
        {
          "internalType": "address",
          "name": "target",
          "type": "address"
        }
      ],
      "name": "AddressEmptyCode",
      "type": "error"
    },
    {
      "inputs": [
        {
          "internalType": "address",
          "name": "implementation",
          "type": "address"
        }
      ],
      "name": "ERC1967InvalidImplementation",
      "type": "error"
    },
    {
      "inputs": [],
      "name": "ERC1967NonPayable",
      "type": "error"
    },
    {
      "inputs": [],
      "name": "EnforcedPause",
      "type": "error"
    },
    {
      "inputs": [],
      "name": "ExpectedPause",
      "type": "error"
    },
    {
      "inputs": [],
      "name": "FailedCall",
      "type": "error"
    },
    {
      "inputs": [],
      "name": "InvalidInitialization",
      "type": "error"
    },
    {
      "inputs": [],
      "name": "NotInitializing",
      "type": "error"
    },
    {
      "inputs": [
        {
          "internalType": "address",
          "name": "token",
          "type": "address"
        }
      ],
      "name": "SafeERC20FailedOperation",
      "type": "error"
    },
    {
      "inputs": [],
      "name": "UUPSUnauthorizedCallContext",
      "type": "error"
    },
    {
      "inputs": [
        {
          "internalType": "bytes32",
          "name": "slot",
          "type": "bytes32"
        }
      ],
      "name": "UUPSUnsupportedProxiableUUID",
      "type": "error"
    },
    {
      "anonymous": false,
      "inputs": [
        {
          "indexed": true,
          "internalType": "address",
          "name": "stTokenAddress",
          "type": "address"
        },
        {
          "indexed": true,
          "internalType": "uint256",
          "name": "poolWeight",
          "type": "uint256"
        },
        {
          "indexed": true,
          "internalType": "uint256",
          "name": "lastRewardBlock",
          "type": "uint256"
        },
        {
          "indexed": false,
          "internalType": "uint256",
          "name": "minDepositAmount",
          "type": "uint256"
        },
        {
          "indexed": false,
          "internalType": "uint256",
          "name": "unstakeLockedBlocks",
          "type": "uint256"
        }
      ],
      "name": "AddPool",
      "type": "event"
    },
    {
      "anonymous": false,
      "inputs": [
        {
          "indexed": true,
          "internalType": "address",
          "name": "user",
          "type": "address"
        },
        {
          "indexed": true,
          "internalType": "uint256",
          "name": "poolId",
          "type": "uint256"
        },
        {
          "indexed": false,
          "internalType": "uint256",
          "name": "MetaNodeReward",
          "type": "uint256"
        }
      ],
      "name": "Claim",
      "type": "event"
    },
    {
      "anonymous": false,
      "inputs": [
        {
          "indexed": true,
          "internalType": "address",
          "name": "user",
          "type": "address"
        },
        {
          "indexed": true,
          "internalType": "uint256",
          "name": "poolId",
          "type": "uint256"
        },
        {
          "indexed": false,
          "internalType": "uint256",
          "name": "amount",
          "type": "uint256"
        }
      ],
      "name": "Deposit",
      "type": "event"
    },
    {
      "anonymous": false,
      "inputs": [
        {
          "indexed": false,
          "internalType": "uint64",
          "name": "version",
          "type": "uint64"
        }
      ],
      "name": "Initialized",
      "type": "event"
    },
    {
      "anonymous": false,
      "inputs": [],
      "name": "PauseClaim",
      "type": "event"
    },
    {
      "anonymous": false,
      "inputs": [],
      "name": "PauseWithdraw",
      "type": "event"
    },
    {
      "anonymous": false,
      "inputs": [
        {
          "indexed": false,
          "internalType": "address",
          "name": "account",
          "type": "address"
        }
      ],
      "name": "Paused",
      "type": "event"
    },
    {
      "anonymous": false,
      "inputs": [
        {
          "indexed": true,
          "internalType": "address",
          "name": "user",
          "type": "address"
        },
        {
          "indexed": true,
          "internalType": "uint256",
          "name": "poolId",
          "type": "uint256"
        },
        {
          "indexed": false,
          "internalType": "uint256",
          "name": "amount",
          "type": "uint256"
        }
      ],
      "name": "RequestUnstake",
      "type": "event"
    },
    {
      "anonymous": false,
      "inputs": [
        {
          "indexed": true,
          "internalType": "bytes32",
          "name": "role",
          "type": "bytes32"
        },
        {
          "indexed": true,
          "internalType": "bytes32",
          "name": "previousAdminRole",
          "type": "bytes32"
        },
        {
          "indexed": true,
          "internalType": "bytes32",
          "name": "newAdminRole",
          "type": "bytes32"
        }
      ],
      "name": "RoleAdminChanged",
      "type": "event"
    },
    {
      "anonymous": false,
      "inputs": [
        {
          "indexed": true,
          "internalType": "bytes32",
          "name": "role",
          "type": "bytes32"
        },
        {
          "indexed": true,
          "internalType": "address",
          "name": "account",
          "type": "address"
        },
        {
          "indexed": true,
          "internalType": "address",
          "name": "sender",
          "type": "address"
        }
      ],
      "name": "RoleGranted",
      "type": "event"
    },
    {
      "anonymous": false,
      "inputs": [
        {
          "indexed": true,
          "internalType": "bytes32",
          "name": "role",
          "type": "bytes32"
        },
        {
          "indexed": true,
          "internalType": "address",
          "name": "account",
          "type": "address"
        },
        {
          "indexed": true,
          "internalType": "address",
          "name": "sender",
          "type": "address"
        }
      ],
      "name": "RoleRevoked",
      "type": "event"
    },
    {
      "anonymous": false,
      "inputs": [
        {
          "indexed": true,
          "internalType": "uint256",
          "name": "endBlock",
          "type": "uint256"
        }
      ],
      "name": "SetEndBlock",
      "type": "event"
    },
    {
      "anonymous": false,
      "inputs": [
        {
          "indexed": true,
          "internalType": "contract IERC20",
          "name": "MetaNode",
          "type": "address"
        }
      ],
      "name": "SetMetaNode",
      "type": "event"
    },
    {
      "anonymous": false,
      "inputs": [
        {
          "indexed": true,
          "internalType": "uint256",
          "name": "MetaNodePerBlock",
          "type": "uint256"
        }
      ],
      "name": "SetMetaNodePerBlock",
      "type": "event"
    },
    {
      "anonymous": false,
      "inputs": [
        {
          "indexed": true,
          "internalType": "uint256",
          "name": "poolId",
          "type": "uint256"
        },
        {
          "indexed": true,
          "internalType": "uint256",
          "name": "poolWeight",
          "type": "uint256"
        },
        {
          "indexed": false,
          "internalType": "uint256",
          "name": "totalPoolWeight",
          "type": "uint256"
        }
      ],
      "name": "SetPoolWeight",
      "type": "event"
    },
    {
      "anonymous": false,
      "inputs": [
        {
          "indexed": true,
          "internalType": "uint256",
          "name": "startBlock",
          "type": "uint256"
        }
      ],
      "name": "SetStartBlock",
      "type": "event"
    },
    {
      "anonymous": false,
      "inputs": [],
      "name": "UnpauseClaim",
      "type": "event"
    },
    {
      "anonymous": false,
      "inputs": [],
      "name": "UnpauseWithdraw",
      "type": "event"
    },
    {
      "anonymous": false,
      "inputs": [
        {
          "indexed": false,
          "internalType": "address",
          "name": "account",
          "type": "address"
        }
      ],
      "name": "Unpaused",
      "type": "event"
    },
    {
      "anonymous": false,
      "inputs": [
        {
          "indexed": true,
          "internalType": "uint256",
          "name": "poolId",
          "type": "uint256"
        },
        {
          "indexed": true,
          "internalType": "uint256",
          "name": "lastRewardBlock",
          "type": "uint256"
        },
        {
          "indexed": false,
          "internalType": "uint256",
          "name": "totalMetaNode",
          "type": "uint256"
        }
      ],
      "name": "UpdatePool",
      "type": "event"
    },
    {
      "anonymous": false,
      "inputs": [
        {
          "indexed": true,
          "internalType": "uint256",
          "name": "poolId",
          "type": "uint256"
        },
        {
          "indexed": true,
          "internalType": "uint256",
          "name": "minDepositAmount",
          "type": "uint256"
        },
        {
          "indexed": true,
          "internalType": "uint256",
          "name": "unstakeLockedBlocks",
          "type": "uint256"
        }
      ],
      "name": "UpdatePoolInfo",
      "type": "event"
    },
    {
      "anonymous": false,
      "inputs": [
        {
          "indexed": true,
          "internalType": "address",
          "name": "implementation",
          "type": "address"
        }
      ],
      "name": "Upgraded",
      "type": "event"
    },
    {
      "anonymous": false,
      "inputs": [
        {
          "indexed": true,
          "internalType": "address",
          "name": "user",
          "type": "address"
        },
        {
          "indexed": true,
          "internalType": "uint256",
          "name": "poolId",
          "type": "uint256"
        },
        {
          "indexed": false,
          "internalType": "uint256",
          "name": "amount",
          "type": "uint256"
        },
        {
          "indexed": true,
          "internalType": "uint256",
          "name": "blockNumber",
          "type": "uint256"
        }
      ],
      "name": "Withdraw",
      "type": "event"
    },
    {
      "inputs": [],
      "name": "ADMIN_ROLE",
      "outputs": [
        {
          "internalType": "bytes32",
          "name": "",
          "type": "bytes32"
        }
      ],
      "stateMutability": "view",
      "type": "function"
    },
    {
      "inputs": [],
      "name": "DEFAULT_ADMIN_ROLE",
      "outputs": [
        {
          "internalType": "bytes32",
          "name": "",
          "type": "bytes32"
        }
      ],
      "stateMutability": "view",
      "type": "function"
    },
    {
      "inputs": [],
      "name": "ETH_PID",
      "outputs": [
        {
          "internalType": "uint256",
          "name": "",
          "type": "uint256"
        }
      ],
      "stateMutability": "view",
      "type": "function"
    },
    {
      "inputs": [],
      "name": "MetaNode",
      "outputs": [
        {
          "internalType": "contract IERC20",
          "name": "",
          "type": "address"
        }
      ],
      "stateMutability": "view",
      "type": "function"
    },
    {
      "inputs": [],
      "name": "MetaNodePerBlock",
      "outputs": [
        {
          "internalType": "uint256",
          "name": "",
          "type": "uint256"
        }
      ],
      "stateMutability": "view",
      "type": "function"
    },
    {
      "inputs": [],
      "name": "UPGRADE_INTERFACE_VERSION",
      "outputs": [
        {
          "internalType": "string",
          "name": "",
          "type": "string"
        }
      ],
      "stateMutability": "view",
      "type": "function"
    },
    {
      "inputs": [],
      "name": "UPGRADE_ROLE",
      "outputs": [
        {
          "internalType": "bytes32",
          "name": "",
          "type": "bytes32"
        }
      ],
      "stateMutability": "view",
      "type": "function"
    },
    {
      "inputs": [
        {
          "internalType": "address",
          "name": "_stTokenAddress",
          "type": "address"
        },
        {
          "internalType": "uint256",
          "name": "_poolWeight",
          "type": "uint256"
        },
        {
          "internalType": "uint256",
          "name": "_minDepositAmount",
          "type": "uint256"
        },
        {
          "internalType": "uint256",
          "name": "_unstakeLockedBlocks",
          "type": "uint256"
        },
        {
          "internalType": "bool",
          "name": "_withUpdate",
          "type": "bool"
        }
      ],
      "name": "addPool",
      "outputs": [],
      "stateMutability": "nonpayable",
      "type": "function"
    },
    {
      "inputs": [
        {
          "internalType": "uint256",
          "name": "_pid",
          "type": "uint256"
        }
      ],
      "name": "claim",
      "outputs": [],
      "stateMutability": "nonpayable",
      "type": "function"
    },
    {
      "inputs": [],
      "name": "claimPaused",
      "outputs": [
        {
          "internalType": "bool",
          "name": "",
          "type": "bool"
        }
      ],
      "stateMutability": "view",
      "type": "function"
    },
    {
      "inputs": [
        {
          "internalType": "uint256",
          "name": "_pid",
          "type": "uint256"
        },
        {
          "internalType": "uint256",
          "name": "_amount",
          "type": "uint256"
        }
      ],
      "name": "deposit",
      "outputs": [],
      "stateMutability": "nonpayable",
      "type": "function"
    },
    {
      "inputs": [],
      "name": "depositETH",
      "outputs": [],
      "stateMutability": "payable",
      "type": "function"
    },
    {
      "inputs": [],
      "name": "endBlock",
      "outputs": [
        {
          "internalType": "uint256",
          "name": "",
          "type": "uint256"
        }
      ],
      "stateMutability": "view",
      "type": "function"
    },
    {
      "inputs": [
        {
          "internalType": "uint256",
          "name": "_from",
          "type": "uint256"
        },
        {
          "internalType": "uint256",
          "name": "_to",
          "type": "uint256"
        }
      ],
      "name": "getMultiplier",
      "outputs": [
        {
          "internalType": "uint256",
          "name": "multiplier",
          "type": "uint256"
        }
      ],
      "stateMutability": "view",
      "type": "function"
    },
    {
      "inputs": [
        {
          "internalType": "bytes32",
          "name": "role",
          "type": "bytes32"
        }
      ],
      "name": "getRoleAdmin",
      "outputs": [
        {
          "internalType": "bytes32",
          "name": "",
          "type": "bytes32"
        }
      ],
      "stateMutability": "view",
      "type": "function"
    },
    {
      "inputs": [
        {
          "internalType": "bytes32",
          "name": "role",
          "type": "bytes32"
        },
        {
          "internalType": "address",
          "name": "account",
          "type": "address"
        }
      ],
      "name": "grantRole",
      "outputs": [],
      "stateMutability": "nonpayable",
      "type": "function"
    },
    {
      "inputs": [
        {
          "internalType": "bytes32",
          "name": "role",
          "type": "bytes32"
        },
        {
          "internalType": "address",
          "name": "account",
          "type": "address"
        }
      ],
      "name": "hasRole",
      "outputs": [
        {
          "internalType": "bool",
          "name": "",
          "type": "bool"
        }
      ],
      "stateMutability": "view",
      "type": "function"
    },
    {
      "inputs": [
        {
          "internalType": "contract IERC20",
          "name": "_MetaNode",
          "type": "address"
        },
        {
          "internalType": "uint256",
          "name": "_startBlock",
          "type": "uint256"
        },
        {
          "internalType": "uint256",
          "name": "_endBlock",
          "type": "uint256"
        },
        {
          "internalType": "uint256",
          "name": "_MetaNodePerBlock",
          "type": "uint256"
        }
      ],
      "name": "initialize",
      "outputs": [],
      "stateMutability": "nonpayable",
      "type": "function"
    },
    {
      "inputs": [],
      "name": "massUpdatePools",
      "outputs": [],
      "stateMutability": "nonpayable",
      "type": "function"
    },
    {
      "inputs": [],
      "name": "pauseClaim",
      "outputs": [],
      "stateMutability": "nonpayable",
      "type": "function"
    },
    {
      "inputs": [],
      "name": "pauseWithdraw",
      "outputs": [],
      "stateMutability": "nonpayable",
      "type": "function"
    },
    {
      "inputs": [],
      "name": "paused",
      "outputs": [
        {
          "internalType": "bool",
          "name": "",
          "type": "bool"
        }
      ],
      "stateMutability": "view",
      "type": "function"
    },
    {
      "inputs": [
        {
          "internalType": "uint256",
          "name": "_pid",
          "type": "uint256"
        },
        {
          "internalType": "address",
          "name": "_user",
          "type": "address"
        }
      ],
      "name": "pendingMetaNode",
      "outputs": [
        {
          "internalType": "uint256",
          "name": "",
          "type": "uint256"
        }
      ],
      "stateMutability": "view",
      "type": "function"
    },
    {
      "inputs": [
        {
          "internalType": "uint256",
          "name": "_pid",
          "type": "uint256"
        },
        {
          "internalType": "address",
          "name": "_user",
          "type": "address"
        },
        {
          "internalType": "uint256",
          "name": "_blockNumber",
          "type": "uint256"
        }
      ],
      "name": "pendingMetaNodeByBlockNumber",
      "outputs": [
        {
          "internalType": "uint256",
          "name": "",
          "type": "uint256"
        }
      ],
      "stateMutability": "view",
      "type": "function"
    },
    {
      "inputs": [
        {
          "internalType": "uint256",
          "name": "",
          "type": "uint256"
        }
      ],
      "name": "pool",
      "outputs": [
        {
          "internalType": "address",
          "name": "stTokenAddress",
          "type": "address"
        },
        {
          "internalType": "uint256",
          "name": "poolWeight",
          "type": "uint256"
        },
        {
          "internalType": "uint256",
          "name": "lastRewardBlock",
          "type": "uint256"
        },
        {
          "internalType": "uint256",
          "name": "accMetaNodePerST",
          "type": "uint256"
        },
        {
          "internalType": "uint256",
          "name": "stTokenAmount",
          "type": "uint256"
        },
        {
          "internalType": "uint256",
          "name": "minDepositAmount",
          "type": "uint256"
        },
        {
          "internalType": "uint256",
          "name": "unstakeLockedBlocks",
          "type": "uint256"
        }
      ],
      "stateMutability": "view",
      "type": "function"
    },
    {
      "inputs": [],
      "name": "poolLength",
      "outputs": [
        {
          "internalType": "uint256",
          "name": "",
          "type": "uint256"
        }
      ],
      "stateMutability": "view",
      "type": "function"
    },
    {
      "inputs": [],
      "name": "proxiableUUID",
      "outputs": [
        {
          "internalType": "bytes32",
          "name": "",
          "type": "bytes32"
        }
      ],
      "stateMutability": "view",
      "type": "function"
    },
    {
      "inputs": [
        {
          "internalType": "bytes32",
          "name": "role",
          "type": "bytes32"
        },
        {
          "internalType": "address",
          "name": "callerConfirmation",
          "type": "address"
        }
      ],
      "name": "renounceRole",
      "outputs": [],
      "stateMutability": "nonpayable",
      "type": "function"
    },
    {
      "inputs": [
        {
          "internalType": "bytes32",
          "name": "role",
          "type": "bytes32"
        },
        {
          "internalType": "address",
          "name": "account",
          "type": "address"
        }
      ],
      "name": "revokeRole",
      "outputs": [],
      "stateMutability": "nonpayable",
      "type": "function"
    },
    {
      "inputs": [
        {
          "internalType": "uint256",
          "name": "_endBlock",
          "type": "uint256"
        }
      ],
      "name": "setEndBlock",
      "outputs": [],
      "stateMutability": "nonpayable",
      "type": "function"
    },
    {
      "inputs": [
        {
          "internalType": "contract IERC20",
          "name": "_MetaNode",
          "type": "address"
        }
      ],
      "name": "setMetaNode",
      "outputs": [],
      "stateMutability": "nonpayable",
      "type": "function"
    },
    {
      "inputs": [
        {
          "internalType": "uint256",
          "name": "_MetaNodePerBlock",
          "type": "uint256"
        }
      ],
      "name": "setMetaNodePerBlock",
      "outputs": [],
      "stateMutability": "nonpayable",
      "type": "function"
    },
    {
      "inputs": [
        {
          "internalType": "uint256",
          "name": "_pid",
          "type": "uint256"
        },
        {
          "internalType": "uint256",
          "name": "_poolWeight",
          "type": "uint256"
        },
        {
          "internalType": "bool",
          "name": "_withUpdate",
          "type": "bool"
        }
      ],
      "name": "setPoolWeight",
      "outputs": [],
      "stateMutability": "nonpayable",
      "type": "function"
    },
    {
      "inputs": [
        {
          "internalType": "uint256",
          "name": "_startBlock",
          "type": "uint256"
        }
      ],
      "name": "setStartBlock",
      "outputs": [],
      "stateMutability": "nonpayable",
      "type": "function"
    },
    {
      "inputs": [
        {
          "internalType": "uint256",
          "name": "_pid",
          "type": "uint256"
        },
        {
          "internalType": "address",
          "name": "_user",
          "type": "address"
        }
      ],
      "name": "stakingBalance",
      "outputs": [
        {
          "internalType": "uint256",
          "name": "",
          "type": "uint256"
        }
      ],
      "stateMutability": "view",
      "type": "function"
    },
    {
      "inputs": [],
      "name": "startBlock",
      "outputs": [
        {
          "internalType": "uint256",
          "name": "",
          "type": "uint256"
        }
      ],
      "stateMutability": "view",
      "type": "function"
    },
    {
      "inputs": [
        {
          "internalType": "bytes4",
          "name": "interfaceId",
          "type": "bytes4"
        }
      ],
      "name": "supportsInterface",
      "outputs": [
        {
          "internalType": "bool",
          "name": "",
          "type": "bool"
        }
      ],
      "stateMutability": "view",
      "type": "function"
    },
    {
      "inputs": [],
      "name": "totalPoolWeight",
      "outputs": [
        {
          "internalType": "uint256",
          "name": "",
          "type": "uint256"
        }
      ],
      "stateMutability": "view",
      "type": "function"
    },
    {
      "inputs": [],
      "name": "unpauseClaim",
      "outputs": [],
      "stateMutability": "nonpayable",
      "type": "function"
    },
    {
      "inputs": [],
      "name": "unpauseWithdraw",
      "outputs": [],
      "stateMutability": "nonpayable",
      "type": "function"
    },
    {
      "inputs": [
        {
          "internalType": "uint256",
          "name": "_pid",
          "type": "uint256"
        },
        {
          "internalType": "uint256",
          "name": "_amount",
          "type": "uint256"
        }
      ],
      "name": "unstake",
      "outputs": [],
      "stateMutability": "nonpayable",
      "type": "function"
    },
    {
      "inputs": [
        {
          "internalType": "uint256",
          "name": "_pid",
          "type": "uint256"
        }
      ],
      "name": "updatePool",
      "outputs": [],
      "stateMutability": "nonpayable",
      "type": "function"
    },
    {
      "inputs": [
        {
          "internalType": "uint256",
          "name": "_pid",
          "type": "uint256"
        },
        {
          "internalType": "uint256",
          "name": "_minDepositAmount",
          "type": "uint256"
        },
        {
          "internalType": "uint256",
          "name": "_unstakeLockedBlocks",
          "type": "uint256"
        }
      ],
      "name": "updatePool",
      "outputs": [],
      "stateMutability": "nonpayable",
      "type": "function"
    },
    {
      "inputs": [
        {
          "internalType": "address",
          "name": "newImplementation",
          "type": "address"
        },
        {
          "internalType": "bytes",
          "name": "data",
          "type": "bytes"
        }
      ],
      "name": "upgradeToAndCall",
      "outputs": [],
      "stateMutability": "payable",
      "type": "function"
    },
    {
      "inputs": [
        {
          "internalType": "uint256",
          "name": "",
          "type": "uint256"
        },
        {
          "internalType": "address",
          "name": "",
          "type": "address"
        }
      ],
      "name": "user",
      "outputs": [
        {
          "internalType": "uint256",
          "name": "stAmount",
          "type": "uint256"
        },
        {
          "internalType": "uint256",
          "name": "finishedMetaNode",
          "type": "uint256"
        },
        {
          "internalType": "uint256",
          "name": "pendingMetaNode",
          "type": "uint256"
        }
      ],
      "stateMutability": "view",
      "type": "function"
    },
    {
      "inputs": [
        {
          "internalType": "uint256",
          "name": "_pid",
          "type": "uint256"
        }
      ],
      "name": "withdraw",
      "outputs": [],
      "stateMutability": "nonpayable",
      "type": "function"
    },
    {
      "inputs": [
        {
          "internalType": "uint256",
          "name": "_pid",
          "type": "uint256"
        },
        {
          "internalType": "address",
          "name": "_user",
          "type": "address"
        }
      ],
      "name": "withdrawAmount",
      "outputs": [
        {
          "internalType": "uint256",
          "name": "requestAmount",
          "type": "uint256"
        },
        {
          "internalType": "uint256",
          "name": "pendingWithdrawAmount",
          "type": "uint256"
        }
      ],
      "stateMutability": "view",
      "type": "function"
    },
    {
      "inputs": [],
      "name": "withdrawPaused",
      "outputs": [
        {
          "internalType": "bool",
          "name": "",
          "type": "bool"
        }
      ],
      "stateMutability": "view",
      "type": "function"
    }
  ],
  "bytecode": "0x60a06040523073ffffffffffffffffffffffffffffffffffffffff1660809073ffffffffffffffffffffffffffffffffffffffff1681525034801561004357600080fd5b50608051615dd76200006e600039600081816136480152818161369d01526138de0152615dd76000f3fe6080604052600436106102935760003560e01c80638dbb1e3a1161015a578063d22f1d80116100c1578063ea5c219d1161007a578063ea5c219d14610997578063f35e4a6e146109d4578063f6326fb3146109fd578063fad07ece14610a07578063fe31311214610a30578063ff42335714610a7357610293565b8063d22f1d80146108b1578063d547741f146108dc578063d7bc176914610905578063d86c04441461092e578063de065caa14610957578063e2bbb1581461096e57610293565b8063ab5e124a11610113578063ab5e124a146107b3578063ad3cb1cc146107de578063b6d9d91914610809578063b908afa814610832578063bfc3ebba1461085d578063c713aa941461088857610293565b80638dbb1e3a146106a35780638ff095f9146106e057806391d14854146106f75780639e2c8a5b146107345780639ea96e661461075d578063a217fddf1461078857610293565b806348cd4cb1116101fe5780635c975abb116101b75780635c975abb146105b95780636155e3de146105e457806361a9a03d146105fb578063630b5ba1146106245780636325d5bc1461063b57806375b238fc1461067857610293565b806348cd4cb1146104de5780634ec81af1146105095780634f1ef2861461053257806351eb05a61461054e57806352d1902d146105775780635bb6d007146105a257610293565b80632e1a7d4d116102505780632e1a7d4d146103d05780632f2ff15d146103f95780632f3ffb9f1461042257806336568abe1461044d57806337849b3c14610476578063379607f5146104b557610293565b806301ffc9a71461029857806302559004146102d5578063081e3eda14610300578063083c63231461032b5780631154823414610356578063248a9ca314610393575b600080fd5b3480156102a457600080fd5b506102bf60048036038101906102ba9190614385565b610ab1565b6040516102cc91906143cd565b60405180910390f35b3480156102e157600080fd5b506102ea610b2b565b6040516102f79190614401565b60405180910390f35b34801561030c57600080fd5b50610315610b31565b6040516103229190614401565b60405180910390f35b34801561033757600080fd5b50610340610b3e565b60405161034d9190614401565b60405180910390f35b34801561036257600080fd5b5061037d600480360381019061037891906144a6565b610b44565b60405161038a9190614401565b60405180910390f35b34801561039f57600080fd5b506103ba60048036038101906103b5919061451c565b610beb565b6040516103c79190614558565b60405180910390f35b3480156103dc57600080fd5b506103f760048036038101906103f29190614573565b610c19565b005b34801561040557600080fd5b50610420600480360381019061041b91906145a0565b610fcb565b005b34801561042e57600080fd5b50610437610fed565b60405161044491906143cd565b60405180910390f35b34801561045957600080fd5b50610474600480360381019061046f91906145a0565b611000565b005b34801561048257600080fd5b5061049d600480360381019061049891906144a6565b61107b565b6040516104ac939291906145e0565b60405180910390f35b3480156104c157600080fd5b506104dc60048036038101906104d79190614573565b6110b2565b005b3480156104ea57600080fd5b506104f36112c1565b6040516105009190614401565b60405180910390f35b34801561051557600080fd5b50610530600480360381019061052b9190614655565b6112c7565b005b61054c60048036038101906105479190614802565b611529565b005b34801561055a57600080fd5b5061057560048036038101906105709190614573565b611548565b005b34801561058357600080fd5b5061058c611819565b6040516105999190614558565b60405180910390f35b3480156105ae57600080fd5b506105b761184c565b005b3480156105c557600080fd5b506105ce61190f565b6040516105db91906143cd565b60405180910390f35b3480156105f057600080fd5b506105f9611934565b005b34801561060757600080fd5b50610622600480360381019061061d919061485e565b6119f8565b005b34801561063057600080fd5b50610639611acc565b005b34801561064757600080fd5b50610662600480360381019061065d919061488b565b611afb565b60405161066f9190614401565b60405180910390f35b34801561068457600080fd5b5061068d611c9b565b60405161069a9190614558565b60405180910390f35b3480156106af57600080fd5b506106ca60048036038101906106c591906148de565b611cbf565b6040516106d79190614401565b60405180910390f35b3480156106ec57600080fd5b506106f5611dd8565b005b34801561070357600080fd5b5061071e600480360381019061071991906145a0565b611e9c565b60405161072b91906143cd565b60405180910390f35b34801561074057600080fd5b5061075b600480360381019061075691906148de565b611f15565b005b34801561076957600080fd5b50610772612202565b60405161077f9190614401565b60405180910390f35b34801561079457600080fd5b5061079d612208565b6040516107aa9190614558565b60405180910390f35b3480156107bf57600080fd5b506107c861220f565b6040516107d591906143cd565b60405180910390f35b3480156107ea57600080fd5b506107f3612222565b604051610800919061499d565b60405180910390f35b34801561081557600080fd5b50610830600480360381019061082b91906149eb565b61225b565b005b34801561083e57600080fd5b5061084761258d565b6040516108549190614558565b60405180910390f35b34801561086957600080fd5b506108726125b1565b60405161087f9190614401565b60405180910390f35b34801561089457600080fd5b506108af60048036038101906108aa9190614573565b6125b6565b005b3480156108bd57600080fd5b506108c661265d565b6040516108d39190614ac5565b60405180910390f35b3480156108e857600080fd5b5061090360048036038101906108fe91906145a0565b612683565b005b34801561091157600080fd5b5061092c60048036038101906109279190614573565b6126a5565b005b34801561093a57600080fd5b5061095560048036038101906109509190614ae0565b61274a565b005b34801561096357600080fd5b5061096c612846565b005b34801561097a57600080fd5b50610995600480360381019061099091906148de565b612909565b005b3480156109a357600080fd5b506109be60048036038101906109b991906144a6565b612a73565b6040516109cb9190614401565b60405180910390f35b3480156109e057600080fd5b506109fb60048036038101906109f69190614573565b612ad1565b005b610a05612b78565b005b348015610a1357600080fd5b50610a2e6004803603810190610a299190614b33565b612c95565b005b348015610a3c57600080fd5b50610a576004803603810190610a529190614573565b612e09565b604051610a6a9796959493929190614b95565b60405180910390f35b348015610a7f57600080fd5b50610a9a6004803603810190610a9591906144a6565b612e7b565b604051610aa8929190614c04565b60405180910390f35b60007f7965db0b000000000000000000000000000000000000000000000000000000007bffffffffffffffffffffffffffffffffffffffffffffffffffffffff1916827bffffffffffffffffffffffffffffffffffffffffffffffffffffffff19161480610b245750610b2382612fdc565b5b9050919050565b60045481565b6000600580549050905090565b60015481565b6000826005805490508110610b8e576040517f08c379a0000000000000000000000000000000000000000000000000000000008152600401610b8590614c79565b60405180910390fd5b6006600085815260200190815260200160002060008473ffffffffffffffffffffffffffffffffffffffff1673ffffffffffffffffffffffffffffffffffffffff1681526020019081526020016000206000015491505092915050565b600080610bf6613046565b905080600001600084815260200190815260200160002060010154915050919050565b610c2161306e565b806005805490508110610c69576040517f08c379a0000000000000000000000000000000000000000000000000000000008152600401610c6090614c79565b60405180910390fd5b600360009054906101000a900460ff1615610cb9576040517f08c379a0000000000000000000000000000000000000000000000000000000008152600401610cb090614ce5565b60405180910390fd5b600060058381548110610ccf57610cce614d05565b5b9060005260206000209060070201905060006006600085815260200190815260200160002060003373ffffffffffffffffffffffffffffffffffffffff1673ffffffffffffffffffffffffffffffffffffffff168152602001908152602001600020905060008060005b8360030180549050811015610dc65743846003018281548110610d5f57610d5e614d05565b5b90600052602060002090600202016001015411610dc657836003018181548110610d8c57610d8b614d05565b5b90600052602060002090600202016000015483610da99190614d63565b92508180610db690614d97565b9250508080600101915050610d39565b5060005b818460030180549050610ddd9190614ddf565b811015610e5b57836003018282610df49190614d63565b81548110610e0557610e04614d05565b5b9060005260206000209060020201846003018281548110610e2957610e28614d05565b5b906000526020600020906002020160008201548160000155600182015481600101559050508080600101915050610dca565b5060005b81811015610eb15783600301805480610e7b57610e7a614e13565b5b60019003818190600052602060002090600202016000808201600090556001820160009055505090558080600101915050610e5f565b506000821115610f7357600073ffffffffffffffffffffffffffffffffffffffff168460000160009054906101000a900473ffffffffffffffffffffffffffffffffffffffff1673ffffffffffffffffffffffffffffffffffffffff1603610f2257610f1d33836130af565b610f72565b610f7133838660000160009054906101000a900473ffffffffffffffffffffffffffffffffffffffff1673ffffffffffffffffffffffffffffffffffffffff166131c19092919063ffffffff16565b5b5b43863373ffffffffffffffffffffffffffffffffffffffff167f02f25270a4d87bea75db541cdfe559334a275b4a233520ed6c0a2429667cca9485604051610fbb9190614401565b60405180910390a4505050505050565b610fd482610beb565b610fdd81613214565b610fe78383613228565b50505050565b600360009054906101000a900460ff1681565b611008613329565b73ffffffffffffffffffffffffffffffffffffffff168173ffffffffffffffffffffffffffffffffffffffff161461106c576040517f6697b23200000000000000000000000000000000000000000000000000000000815260040160405180910390fd5b6110768282613331565b505050565b6006602052816000526040600020602052806000526040600020600091509150508060000154908060010154908060020154905083565b6110ba61306e565b806005805490508110611102576040517f08c379a00000000000000000000000000000000000000000000000000000000081526004016110f990614c79565b60405180910390fd5b600360019054906101000a900460ff1615611152576040517f08c379a000000000000000000000000000000000000000000000000000000000815260040161114990614e8e565b60405180910390fd5b60006005838154811061116857611167614d05565b5b9060005260206000209060070201905060006006600085815260200190815260200160002060003373ffffffffffffffffffffffffffffffffffffffff1673ffffffffffffffffffffffffffffffffffffffff16815260200190815260200160002090506111d584611548565b600081600201548260010154670de0b6b3a7640000856003015485600001546111fe9190614eae565b6112089190614f1f565b6112129190614ddf565b61121c9190614d63565b9050600081111561123c576000826002018190555061123b3382613433565b5b670de0b6b3a7640000836003015483600001546112599190614eae565b6112639190614f1f565b8260010181905550843373ffffffffffffffffffffffffffffffffffffffff167f34fcbac0073d7c3d388e51312faf357774904998eeb8fca628b9e6f65ee1cbf7836040516112b29190614401565b60405180910390a35050505050565b60005481565b60006112d1613628565b905060008160000160089054906101000a900460ff1615905060008260000160009054906101000a900467ffffffffffffffff1690506000808267ffffffffffffffff1614801561131f5750825b9050600060018367ffffffffffffffff16148015611354575060003073ffffffffffffffffffffffffffffffffffffffff163b145b905081158015611362575080155b15611399576040517ff92ee8a900000000000000000000000000000000000000000000000000000000815260040160405180910390fd5b60018560000160006101000a81548167ffffffffffffffff021916908367ffffffffffffffff16021790555083156113e95760018560000160086101000a81548160ff0219169083151502179055505b8688111580156113f95750600086115b611438576040517f08c379a000000000000000000000000000000000000000000000000000000000815260040161142f90614f9c565b60405180910390fd5b61144061363c565b61144d6000801b33613228565b506114787fcab03bc4dbcc648cd59d6bbe9f848d1e9092f914016aa290ee92e18700d1e6f933613228565b506114a37f589d473ba17c0f47d494622893831497bad25919b9afb8e33e9521b8963fccde33613228565b506114ad896119f8565b876000819055508660018190555085600281905550831561151e5760008560000160086101000a81548160ff0219169083151502179055507fc7f505b2f371ae2175ee4913f4499e1f2633a7b5936321eed1cdaeb6115181d26001604051611515919061500b565b60405180910390a15b505050505050505050565b611531613646565b61153a8261372c565b611544828261375a565b5050565b806005805490508110611590576040517f08c379a000000000000000000000000000000000000000000000000000000000815260040161158790614c79565b60405180910390fd5b6000600583815481106115a6576115a5614d05565b5b90600052602060002090600702019050806002015443116115c75750611815565b6000806115ee83600101546115e0856002015443611cbf565b61387990919063ffffffff16565b9150915081611632576040517f08c379a000000000000000000000000000000000000000000000000000000000815260040161162990615072565b60405180910390fd5b611647600454826138a290919063ffffffff16565b80925081935050508161168f576040517f08c379a000000000000000000000000000000000000000000000000000000000815260040161168690615072565b60405180910390fd5b60008360040154905060008111156117ca576000806116bf670de0b6b3a76400008561387990919063ffffffff16565b9150915081611703576040517f08c379a00000000000000000000000000000000000000000000000000000000081526004016116fa90615072565b60405180910390fd5b61171683826138a290919063ffffffff16565b80925081935050508161175e576040517f08c379a000000000000000000000000000000000000000000000000000000000815260040161175590615072565b60405180910390fd5b6000806117788389600301546138b790919063ffffffff16565b91509150816117bc576040517f08c379a00000000000000000000000000000000000000000000000000000000081526004016117b390615072565b60405180910390fd5b808860030181905550505050505b4384600201819055508360020154867ff5d2d72d9b25d6853afd7d0554a113b705234b6a68bb36b7f143662994632411846040516118089190614401565b60405180910390a3505050505b5050565b60006118236138dc565b7f360894a13ba1a3210667c828492db98dca3e2076cc3735a920a3ca505d382bbc60001b905090565b7f589d473ba17c0f47d494622893831497bad25919b9afb8e33e9521b8963fccde61187681613214565b600360009054906101000a900460ff166118c5576040517f08c379a00000000000000000000000000000000000000000000000000000000081526004016118bc90615104565b60405180910390fd5b6000600360006101000a81548160ff0219169083151502179055507f1c84bcaead48b692cc46b9b12e9a068951a59c99a2e2bf10b00b60b403cf12e260405160405180910390a150565b60008061191a613963565b90508060000160009054906101000a900460ff1691505090565b7f589d473ba17c0f47d494622893831497bad25919b9afb8e33e9521b8963fccde61195e81613214565b600360009054906101000a900460ff16156119ae576040517f08c379a00000000000000000000000000000000000000000000000000000000081526004016119a590615170565b60405180910390fd5b6001600360006101000a81548160ff0219169083151502179055507f8099f593a6aaecd68b6494933cd71f703376ac3975be83692e1b7d800abf683760405160405180910390a150565b7f589d473ba17c0f47d494622893831497bad25919b9afb8e33e9521b8963fccde611a2281613214565b81600360026101000a81548173ffffffffffffffffffffffffffffffffffffffff021916908373ffffffffffffffffffffffffffffffffffffffff160217905550600360029054906101000a900473ffffffffffffffffffffffffffffffffffffffff1673ffffffffffffffffffffffffffffffffffffffff167fafef10ff40345dd21fc1cac02d8ec620a709c9b0983e9c6454d2bef77f077df360405160405180910390a25050565b6000600580549050905060005b81811015611af757611aea81611548565b8080600101915050611ad9565b5050565b6000836005805490508110611b45576040517f08c379a0000000000000000000000000000000000000000000000000000000008152600401611b3c90614c79565b60405180910390fd5b600060058681548110611b5b57611b5a614d05565b5b9060005260206000209060070201905060006006600088815260200190815260200160002060008773ffffffffffffffffffffffffffffffffffffffff1673ffffffffffffffffffffffffffffffffffffffff1681526020019081526020016000209050600082600301549050600083600401549050836002015487118015611be5575060008114155b15611c4c576000611bfa856002015489611cbf565b90506000600454866001015483611c119190614eae565b611c1b9190614f1f565b905082670de0b6b3a764000082611c329190614eae565b611c3c9190614f1f565b84611c479190614d63565b935050505b82600201548360010154670de0b6b3a7640000848660000154611c6f9190614eae565b611c799190614f1f565b611c839190614ddf565b611c8d9190614d63565b955050505050509392505050565b7f589d473ba17c0f47d494622893831497bad25919b9afb8e33e9521b8963fccde81565b600081831115611d04576040517f08c379a0000000000000000000000000000000000000000000000000000000008152600401611cfb906151dc565b60405180910390fd5b600054831015611d145760005492505b600154821115611d245760015491505b81831115611d67576040517f08c379a0000000000000000000000000000000000000000000000000000000008152600401611d5e9061526e565b60405180910390fd5b6000611d896002548585611d7b9190614ddf565b61387990919063ffffffff16565b809350819250505080611dd1576040517f08c379a0000000000000000000000000000000000000000000000000000000008152600401611dc8906152da565b60405180910390fd5b5092915050565b7f589d473ba17c0f47d494622893831497bad25919b9afb8e33e9521b8963fccde611e0281613214565b600360019054906101000a900460ff1615611e52576040517f08c379a0000000000000000000000000000000000000000000000000000000008152600401611e4990615346565b60405180910390fd5b6001600360016101000a81548160ff0219169083151502179055507f6d73d6b34c378ab3bf6630206d60b7882801b91d03ee20d016ff0d5054db81e160405160405180910390a150565b600080611ea7613046565b905080600001600085815260200190815260200160002060000160008473ffffffffffffffffffffffffffffffffffffffff1673ffffffffffffffffffffffffffffffffffffffff16815260200190815260200160002060009054906101000a900460ff1691505092915050565b611f1d61306e565b816005805490508110611f65576040517f08c379a0000000000000000000000000000000000000000000000000000000008152600401611f5c90614c79565b60405180910390fd5b600360009054906101000a900460ff1615611fb5576040517f08c379a0000000000000000000000000000000000000000000000000000000008152600401611fac90614ce5565b60405180910390fd5b600060058481548110611fcb57611fca614d05565b5b9060005260206000209060070201905060006006600086815260200190815260200160002060003373ffffffffffffffffffffffffffffffffffffffff1673ffffffffffffffffffffffffffffffffffffffff16815260200190815260200160002090508381600001541015612076576040517f08c379a000000000000000000000000000000000000000000000000000000000815260040161206d906153b2565b60405180910390fd5b61207f85611548565b60008160010154670de0b6b3a7640000846003015484600001546120a39190614eae565b6120ad9190614f1f565b6120b79190614ddf565b905060008111156120db578082600201546120d29190614d63565b82600201819055505b6000851115612164578482600001546120f49190614ddf565b82600001819055508160030160405180604001604052808781526020018560060154436121219190614d63565b8152509080600181540180825580915050600190039060005260206000209060020201600090919091909150600082015181600001556020820151816001015550505b8483600401546121749190614ddf565b8360040181905550670de0b6b3a7640000836003015483600001546121999190614eae565b6121a39190614f1f565b8260010181905550853373ffffffffffffffffffffffffffffffffffffffff167fc80277265097707f6f12a4ac4c09d46c9926e2eea2536f63616cb04d9fcad7d6876040516121f29190614401565b60405180910390a3505050505050565b60025481565b6000801b81565b600360019054906101000a900460ff1681565b6040518060400160405280600581526020017f352e302e3000000000000000000000000000000000000000000000000000000081525081565b7f589d473ba17c0f47d494622893831497bad25919b9afb8e33e9521b8963fccde61228581613214565b6000600580549050111561230757600073ffffffffffffffffffffffffffffffffffffffff168673ffffffffffffffffffffffffffffffffffffffff1603612302576040517f08c379a00000000000000000000000000000000000000000000000000000000081526004016122f99061541e565b60405180910390fd5b612377565b600073ffffffffffffffffffffffffffffffffffffffff168673ffffffffffffffffffffffffffffffffffffffff1614612376576040517f08c379a000000000000000000000000000000000000000000000000000000000815260040161236d9061541e565b60405180910390fd5b5b600083116123ba576040517f08c379a00000000000000000000000000000000000000000000000000000000081526004016123b19061548a565b60405180910390fd5b60015443106123fe576040517f08c379a00000000000000000000000000000000000000000000000000000000081526004016123f5906154f6565b60405180910390fd5b811561240d5761240c611acc565b5b60008054431161241f57600054612421565b435b9050856004546124319190614d63565b60048190555060056040518060e001604052808973ffffffffffffffffffffffffffffffffffffffff168152602001888152602001838152602001600081526020016000815260200187815260200186815250908060018154018082558091505060019003906000526020600020906007020160009091909190915060008201518160000160006101000a81548173ffffffffffffffffffffffffffffffffffffffff021916908373ffffffffffffffffffffffffffffffffffffffff1602179055506020820151816001015560408201518160020155606082015181600301556080820151816004015560a0820151816005015560c08201518160060155505080868873ffffffffffffffffffffffffffffffffffffffff167f0fa296fce13e7a0e622b3a892e66220c248337289483a3cfa4130cde0caa1346888860405161257c929190614c04565b60405180910390a450505050505050565b7fcab03bc4dbcc648cd59d6bbe9f848d1e9092f914016aa290ee92e18700d1e6f981565b600081565b7f589d473ba17c0f47d494622893831497bad25919b9afb8e33e9521b8963fccde6125e081613214565b816000541115612625576040517f08c379a000000000000000000000000000000000000000000000000000000000815260040161261c90615588565b60405180910390fd5b81600181905550817f1132c5baccb51da3d049fabc819697dc845fa224ad59d9b555507d6446b4085060405160405180910390a25050565b600360029054906101000a900473ffffffffffffffffffffffffffffffffffffffff1681565b61268c82610beb565b61269581613214565b61269f8383613331565b50505050565b7f589d473ba17c0f47d494622893831497bad25919b9afb8e33e9521b8963fccde6126cf81613214565b60008211612712576040517f08c379a0000000000000000000000000000000000000000000000000000000008152600401612709906155f4565b60405180910390fd5b81600281905550817fa0b1720fac15ab5b6e184fa4d22f43e0e2594ae0373a61a3fc48aefb84ab92f760405160405180910390a25050565b7f589d473ba17c0f47d494622893831497bad25919b9afb8e33e9521b8963fccde61277481613214565b8360058054905081106127bc576040517f08c379a00000000000000000000000000000000000000000000000000000000081526004016127b390614c79565b60405180910390fd5b83600586815481106127d1576127d0614d05565b5b90600052602060002090600702016005018190555082600586815481106127fb576127fa614d05565b5b9060005260206000209060070201600601819055508284867f30dffdedaa3e3b4849298233f7cd71d229956e875ab09270498c96b7cf9181fd60405160405180910390a45050505050565b7f589d473ba17c0f47d494622893831497bad25919b9afb8e33e9521b8963fccde61287081613214565b600360019054906101000a900460ff166128bf576040517f08c379a00000000000000000000000000000000000000000000000000000000081526004016128b690615660565b60405180910390fd5b6000600360016101000a81548160ff0219169083151502179055507fe72cb12952f056e3e7496019725f20a13108ca420f67f1ee9c9cdab73fb8ce8560405160405180910390a150565b61291161306e565b816005805490508110612959576040517f08c379a000000000000000000000000000000000000000000000000000000000815260040161295090614c79565b60405180910390fd5b6000830361299c576040517f08c379a0000000000000000000000000000000000000000000000000000000008152600401612993906156cc565b60405180910390fd5b6000600584815481106129b2576129b1614d05565b5b9060005260206000209060070201905080600501548311612a08576040517f08c379a00000000000000000000000000000000000000000000000000000000081526004016129ff90615738565b60405180910390fd5b6000831115612a6357612a623330858460000160009054906101000a900473ffffffffffffffffffffffffffffffffffffffff1673ffffffffffffffffffffffffffffffffffffffff1661398b909392919063ffffffff16565b5b612a6d84846139e0565b50505050565b6000826005805490508110612abd576040517f08c379a0000000000000000000000000000000000000000000000000000000008152600401612ab490614c79565b60405180910390fd5b612ac8848443611afb565b91505092915050565b7f589d473ba17c0f47d494622893831497bad25919b9afb8e33e9521b8963fccde612afb81613214565b600154821115612b40576040517f08c379a0000000000000000000000000000000000000000000000000000000008152600401612b3790615588565b60405180910390fd5b81600081905550817f63b90b79f11a0f132bcb2c4a4ddd44abda45c1308a83b2919318df7f5f8b7be460405160405180910390a25050565b612b8061306e565b60006005600081548110612b9757612b96614d05565b5b90600052602060002090600702019050600073ffffffffffffffffffffffffffffffffffffffff168160000160009054906101000a900473ffffffffffffffffffffffffffffffffffffffff1673ffffffffffffffffffffffffffffffffffffffff1614612c3a576040517f08c379a0000000000000000000000000000000000000000000000000000000008152600401612c319061541e565b60405180910390fd5b60003490508160050154811015612c86576040517f08c379a0000000000000000000000000000000000000000000000000000000008152600401612c7d90615738565b60405180910390fd5b612c916000826139e0565b5050565b7f589d473ba17c0f47d494622893831497bad25919b9afb8e33e9521b8963fccde612cbf81613214565b836005805490508110612d07576040517f08c379a0000000000000000000000000000000000000000000000000000000008152600401612cfe90614c79565b60405180910390fd5b60008411612d4a576040517f08c379a0000000000000000000000000000000000000000000000000000000008152600401612d41906157a4565b60405180910390fd5b8215612d5957612d58611acc565b5b8360058681548110612d6e57612d6d614d05565b5b906000526020600020906007020160010154600454612d8d9190614ddf565b612d979190614d63565b6004819055508360058681548110612db257612db1614d05565b5b90600052602060002090600702016001018190555083857f4b8fa3d6a87cb21d1bf4978bf60628ae358a28ac7f39de1751a481c6dd957617600454604051612dfa9190614401565b60405180910390a35050505050565b60058181548110612e1957600080fd5b90600052602060002090600702016000915090508060000160009054906101000a900473ffffffffffffffffffffffffffffffffffffffff16908060010154908060020154908060030154908060040154908060050154908060060154905087565b600080836005805490508110612ec6576040517f08c379a0000000000000000000000000000000000000000000000000000000008152600401612ebd90614c79565b60405180910390fd5b60006006600087815260200190815260200160002060008673ffffffffffffffffffffffffffffffffffffffff1673ffffffffffffffffffffffffffffffffffffffff168152602001908152602001600020905060005b8160030180549050811015612fd25743826003018281548110612f4357612f42614d05565b5b90600052602060002090600202016001015411612f9057816003018181548110612f7057612f6f614d05565b5b90600052602060002090600202016000015484612f8d9190614d63565b93505b816003018181548110612fa657612fa5614d05565b5b90600052602060002090600202016000015485612fc39190614d63565b94508080600101915050612f1d565b5050509250929050565b60007f01ffc9a7000000000000000000000000000000000000000000000000000000007bffffffffffffffffffffffffffffffffffffffffffffffffffffffff1916827bffffffffffffffffffffffffffffffffffffffffffffffffffffffff1916149050919050565b60007f02dd7bc7dec4dceedda775e58dd541e08a116c6c53815c0bd028192f7b626800905090565b61307661190f565b156130ad576040517fd93c066500000000000000000000000000000000000000000000000000000000815260040160405180910390fd5b565b6000808373ffffffffffffffffffffffffffffffffffffffff16836040516130d6906157f5565b60006040518083038185875af1925050503d8060008114613113576040519150601f19603f3d011682016040523d82523d6000602084013e613118565b606091505b50915091508161315d576040517f08c379a000000000000000000000000000000000000000000000000000000000815260040161315490615856565b60405180910390fd5b6000815111156131bb578080602001905181019061317b919061588b565b6131ba576040517f08c379a00000000000000000000000000000000000000000000000000000000081526004016131b19061592a565b60405180910390fd5b5b50505050565b6131ce8383836001613e0c565b61320f57826040517f5274afe7000000000000000000000000000000000000000000000000000000008152600401613206919061594a565b60405180910390fd5b505050565b61322581613220613329565b613e76565b50565b600080613233613046565b905061323f8484611e9c565b61331d57600181600001600086815260200190815260200160002060000160008573ffffffffffffffffffffffffffffffffffffffff1673ffffffffffffffffffffffffffffffffffffffff16815260200190815260200160002060006101000a81548160ff0219169083151502179055506132b9613329565b73ffffffffffffffffffffffffffffffffffffffff168373ffffffffffffffffffffffffffffffffffffffff16857f2f8788117e7eff1d82e926ec794901d17c78024a50270940304540a733656f0d60405160405180910390a46001915050613323565b60009150505b92915050565b600033905090565b60008061333c613046565b90506133488484611e9c565b1561342757600081600001600086815260200190815260200160002060000160008573ffffffffffffffffffffffffffffffffffffffff1673ffffffffffffffffffffffffffffffffffffffff16815260200190815260200160002060006101000a81548160ff0219169083151502179055506133c3613329565b73ffffffffffffffffffffffffffffffffffffffff168373ffffffffffffffffffffffffffffffffffffffff16857ff6391f5c32d9c69d2a47ea670b442974b53935d1edc7fd64eb21e047a839171b60405160405180910390a4600191505061342d565b60009150505b92915050565b6000600360029054906101000a900473ffffffffffffffffffffffffffffffffffffffff1673ffffffffffffffffffffffffffffffffffffffff166370a08231306040518263ffffffff1660e01b8152600401613490919061594a565b602060405180830381865afa1580156134ad573d6000803e3d6000fd5b505050506040513d601f19601f820116820180604052508101906134d1919061597a565b90508082111561358157600360029054906101000a900473ffffffffffffffffffffffffffffffffffffffff1673ffffffffffffffffffffffffffffffffffffffff1663a9059cbb84836040518363ffffffff1660e01b81526004016135389291906159a7565b6020604051808303816000875af1158015613557573d6000803e3d6000fd5b505050506040513d601f19601f8201168201806040525081019061357b919061588b565b50613623565b600360029054906101000a900473ffffffffffffffffffffffffffffffffffffffff1673ffffffffffffffffffffffffffffffffffffffff1663a9059cbb84846040518363ffffffff1660e01b81526004016135de9291906159a7565b6020604051808303816000875af11580156135fd573d6000803e3d6000fd5b505050506040513d601f19601f82011682018060405250810190613621919061588b565b505b505050565b600080613633613ec7565b90508091505090565b613644613ef2565b565b7f000000000000000000000000000000000000000000000000000000000000000073ffffffffffffffffffffffffffffffffffffffff163073ffffffffffffffffffffffffffffffffffffffff1614806136f357507f000000000000000000000000000000000000000000000000000000000000000073ffffffffffffffffffffffffffffffffffffffff166136da613f32565b73ffffffffffffffffffffffffffffffffffffffff1614155b1561372a576040517fe07c8dba00000000000000000000000000000000000000000000000000000000815260040160405180910390fd5b565b7fcab03bc4dbcc648cd59d6bbe9f848d1e9092f914016aa290ee92e18700d1e6f961375681613214565b5050565b8173ffffffffffffffffffffffffffffffffffffffff166352d1902d6040518163ffffffff1660e01b8152600401602060405180830381865afa9250505080156137c257506040513d601f19601f820116820180604052508101906137bf91906159e5565b60015b61380357816040517f4c9c8ce30000000000000000000000000000000000000000000000000000000081526004016137fa919061594a565b60405180910390fd5b7f360894a13ba1a3210667c828492db98dca3e2076cc3735a920a3ca505d382bbc60001b811461386a57806040517faa1d49a40000000000000000000000000000000000000000000000000000000081526004016138619190614558565b60405180910390fd5b6138748383613f89565b505050565b600080600083850290508415848683041417925061389683613ffc565b81029150509250929050565b60008060008311915082840490509250929050565b600080600083850190508481101592506138d083613ffc565b81029150509250929050565b7f000000000000000000000000000000000000000000000000000000000000000073ffffffffffffffffffffffffffffffffffffffff163073ffffffffffffffffffffffffffffffffffffffff1614613961576040517fe07c8dba00000000000000000000000000000000000000000000000000000000815260040160405180910390fd5b565b60007fcd5ed15c6e187e77e9aee88184c21f4f2182ab5827cb3b7e07fbedcd63f03300905090565b613999848484846001614008565b6139da57836040517f5274afe70000000000000000000000000000000000000000000000000000000081526004016139d1919061594a565b60405180910390fd5b50505050565b6000600583815481106139f6576139f5614d05565b5b9060005260206000209060070201905060006006600085815260200190815260200160002060003373ffffffffffffffffffffffffffffffffffffffff1673ffffffffffffffffffffffffffffffffffffffff1681526020019081526020016000209050613a6384611548565b600081600001541115613c0b57600080613a8e8460030154846000015461387990919063ffffffff16565b9150915081613ad2576040517f08c379a0000000000000000000000000000000000000000000000000000000008152600401613ac990615a84565b60405180910390fd5b613aed670de0b6b3a7640000826138a290919063ffffffff16565b809250819350505081613b35576040517f08c379a0000000000000000000000000000000000000000000000000000000008152600401613b2c90615af0565b60405180910390fd5b600080613b4f85600101548461408390919063ffffffff16565b9150915081613b93576040517f08c379a0000000000000000000000000000000000000000000000000000000008152600401613b8a90615b82565b60405180910390fd5b6000811115613c0657600080613bb68388600201546138b790919063ffffffff16565b9150915081613bfa576040517f08c379a0000000000000000000000000000000000000000000000000000000008152600401613bf190615bee565b60405180910390fd5b80876002018190555050505b505050505b6000831115613c7e57600080613c2e8584600001546138b790919063ffffffff16565b9150915081613c72576040517f08c379a0000000000000000000000000000000000000000000000000000000008152600401613c6990615c5a565b60405180910390fd5b80836000018190555050505b600080613c988585600401546138b790919063ffffffff16565b9150915081613cdc576040517f08c379a0000000000000000000000000000000000000000000000000000000008152600401613cd390615cc6565b60405180910390fd5b808460040181905550600080613d038660030154866000015461387990919063ffffffff16565b9150915081613d47576040517f08c379a0000000000000000000000000000000000000000000000000000000008152600401613d3e90615a84565b60405180910390fd5b613d62670de0b6b3a7640000826138a290919063ffffffff16565b809250819350505081613daa576040517f08c379a0000000000000000000000000000000000000000000000000000000008152600401613da190615d58565b60405180910390fd5b808560010181905550873373ffffffffffffffffffffffffffffffffffffffff167f90890809c654f11d6e72a28fa60149770a0d11ec6c92319d6ceb2bb0a4ea1a1589604051613dfa9190614401565b60405180910390a35050505050505050565b60008063a9059cbb60e01b90506040518160005260001960601c8616600452846024526020600060446000808b5af192506001600051148316613e68578383151615613e5b573d6000823e3d81fd5b6000873b113d1516831692505b806040525050949350505050565b613e808282611e9c565b613ec35780826040517fe2517d3f000000000000000000000000000000000000000000000000000000008152600401613eba929190615d78565b60405180910390fd5b5050565b60007ff0c57e16840df040f15088dc2f81fe391c3923bec73e23a9662efc9c229c6a0060001b905090565b613efa6140a8565b613f30576040517fd7e6bcf800000000000000000000000000000000000000000000000000000000815260040160405180910390fd5b565b6000613f607f360894a13ba1a3210667c828492db98dca3e2076cc3735a920a3ca505d382bbc60001b6140c8565b60000160009054906101000a900473ffffffffffffffffffffffffffffffffffffffff16905090565b613f92826140d2565b8173ffffffffffffffffffffffffffffffffffffffff167fbc7cd75a20ee27fd9adebab32041f755214dbc6bffa90cc0225b39da2e5c2d3b60405160405180910390a2600081511115613fef57613fe9828261419f565b50613ff8565b613ff7614294565b5b5050565b60008115159050919050565b6000806323b872dd60e01b90506040518160005260001960601c871660045260001960601c8616602452846044526020600060646000808c5af19250600160005114831661406f578383151615614062573d6000823e3d81fd5b6000883b113d1516831692505b806040526000606052505095945050505050565b6000806000838503905084811115925061409c83613ffc565b81029150509250929050565b60006140b2613628565b60000160089054906101000a900460ff16905090565b6000819050919050565b60008173ffffffffffffffffffffffffffffffffffffffff163b0361412e57806040517f4c9c8ce3000000000000000000000000000000000000000000000000000000008152600401614125919061594a565b60405180910390fd5b8061415b7f360894a13ba1a3210667c828492db98dca3e2076cc3735a920a3ca505d382bbc60001b6140c8565b60000160006101000a81548173ffffffffffffffffffffffffffffffffffffffff021916908373ffffffffffffffffffffffffffffffffffffffff16021790555050565b606060006141ad84846142d1565b90508080156141e5575060006141c16142e7565b11806141e4575060008473ffffffffffffffffffffffffffffffffffffffff163b115b5b156141fa576141f26142ef565b91505061428e565b801561423d57836040517f9996b315000000000000000000000000000000000000000000000000000000008152600401614234919061594a565b60405180910390fd5b60006142476142e7565b111561425a5761425561430d565b61428c565b6040517fd6bda27500000000000000000000000000000000000000000000000000000000815260040160405180910390fd5b505b92915050565b60003411156142cf576040517fb398979f00000000000000000000000000000000000000000000000000000000815260040160405180910390fd5b565b6000806000835160208501865af4905092915050565b60003d905090565b606060405190503d81523d6000602083013e3d602001810160405290565b6040513d6000823e3d81fd5b6000604051905090565b600080fd5b600080fd5b60007fffffffff0000000000000000000000000000000000000000000000000000000082169050919050565b6143628161432d565b811461436d57600080fd5b50565b60008135905061437f81614359565b92915050565b60006020828403121561439b5761439a614323565b5b60006143a984828501614370565b91505092915050565b60008115159050919050565b6143c7816143b2565b82525050565b60006020820190506143e260008301846143be565b92915050565b6000819050919050565b6143fb816143e8565b82525050565b600060208201905061441660008301846143f2565b92915050565b614425816143e8565b811461443057600080fd5b50565b6000813590506144428161441c565b92915050565b600073ffffffffffffffffffffffffffffffffffffffff82169050919050565b600061447382614448565b9050919050565b61448381614468565b811461448e57600080fd5b50565b6000813590506144a08161447a565b92915050565b600080604083850312156144bd576144bc614323565b5b60006144cb85828601614433565b92505060206144dc85828601614491565b9150509250929050565b6000819050919050565b6144f9816144e6565b811461450457600080fd5b50565b600081359050614516816144f0565b92915050565b60006020828403121561453257614531614323565b5b600061454084828501614507565b91505092915050565b614552816144e6565b82525050565b600060208201905061456d6000830184614549565b92915050565b60006020828403121561458957614588614323565b5b600061459784828501614433565b91505092915050565b600080604083850312156145b7576145b6614323565b5b60006145c585828601614507565b92505060206145d685828601614491565b9150509250929050565b60006060820190506145f560008301866143f2565b61460260208301856143f2565b61460f60408301846143f2565b949350505050565b600061462282614468565b9050919050565b61463281614617565b811461463d57600080fd5b50565b60008135905061464f81614629565b92915050565b6000806000806080858703121561466f5761466e614323565b5b600061467d87828801614640565b945050602061468e87828801614433565b935050604061469f87828801614433565b92505060606146b087828801614433565b91505092959194509250565b600080fd5b600080fd5b6000601f19601f8301169050919050565b7f4e487b7100000000000000000000000000000000000000000000000000000000600052604160045260246000fd5b61470f826146c6565b810181811067ffffffffffffffff8211171561472e5761472d6146d7565b5b80604052505050565b6000614741614319565b905061474d8282614706565b919050565b600067ffffffffffffffff82111561476d5761476c6146d7565b5b614776826146c6565b9050602081019050919050565b82818337600083830152505050565b60006147a56147a084614752565b614737565b9050828152602081018484840111156147c1576147c06146c1565b5b6147cc848285614783565b509392505050565b600082601f8301126147e9576147e86146bc565b5b81356147f9848260208601614792565b91505092915050565b6000806040838503121561481957614818614323565b5b600061482785828601614491565b925050602083013567ffffffffffffffff81111561484857614847614328565b5b614854858286016147d4565b9150509250929050565b60006020828403121561487457614873614323565b5b600061488284828501614640565b91505092915050565b6000806000606084860312156148a4576148a3614323565b5b60006148b286828701614433565b93505060206148c386828701614491565b92505060406148d486828701614433565b9150509250925092565b600080604083850312156148f5576148f4614323565b5b600061490385828601614433565b925050602061491485828601614433565b9150509250929050565b600081519050919050565b600082825260208201905092915050565b60005b8381101561495857808201518184015260208101905061493d565b60008484015250505050565b600061496f8261491e565b6149798185614929565b935061498981856020860161493a565b614992816146c6565b840191505092915050565b600060208201905081810360008301526149b78184614964565b905092915050565b6149c8816143b2565b81146149d357600080fd5b50565b6000813590506149e5816149bf565b92915050565b600080600080600060a08688031215614a0757614a06614323565b5b6000614a1588828901614491565b9550506020614a2688828901614433565b9450506040614a3788828901614433565b9350506060614a4888828901614433565b9250506080614a59888289016149d6565b9150509295509295909350565b6000819050919050565b6000614a8b614a86614a8184614448565b614a66565b614448565b9050919050565b6000614a9d82614a70565b9050919050565b6000614aaf82614a92565b9050919050565b614abf81614aa4565b82525050565b6000602082019050614ada6000830184614ab6565b92915050565b600080600060608486031215614af957614af8614323565b5b6000614b0786828701614433565b9350506020614b1886828701614433565b9250506040614b2986828701614433565b9150509250925092565b600080600060608486031215614b4c57614b4b614323565b5b6000614b5a86828701614433565b9350506020614b6b86828701614433565b9250506040614b7c868287016149d6565b9150509250925092565b614b8f81614468565b82525050565b600060e082019050614baa600083018a614b86565b614bb760208301896143f2565b614bc460408301886143f2565b614bd160608301876143f2565b614bde60808301866143f2565b614beb60a08301856143f2565b614bf860c08301846143f2565b98975050505050505050565b6000604082019050614c1960008301856143f2565b614c2660208301846143f2565b9392505050565b7f696e76616c696420706964000000000000000000000000000000000000000000600082015250565b6000614c63600b83614929565b9150614c6e82614c2d565b602082019050919050565b60006020820190508181036000830152614c9281614c56565b9050919050565b7f7769746864726177206973207061757365640000000000000000000000000000600082015250565b6000614ccf601283614929565b9150614cda82614c99565b602082019050919050565b60006020820190508181036000830152614cfe81614cc2565b9050919050565b7f4e487b7100000000000000000000000000000000000000000000000000000000600052603260045260246000fd5b7f4e487b7100000000000000000000000000000000000000000000000000000000600052601160045260246000fd5b6000614d6e826143e8565b9150614d79836143e8565b9250828201905080821115614d9157614d90614d34565b5b92915050565b6000614da2826143e8565b91507fffffffffffffffffffffffffffffffffffffffffffffffffffffffffffffffff8203614dd457614dd3614d34565b5b600182019050919050565b6000614dea826143e8565b9150614df5836143e8565b9250828203905081811115614e0d57614e0c614d34565b5b92915050565b7f4e487b7100000000000000000000000000000000000000000000000000000000600052603160045260246000fd5b7f636c61696d206973207061757365640000000000000000000000000000000000600082015250565b6000614e78600f83614929565b9150614e8382614e42565b602082019050919050565b60006020820190508181036000830152614ea781614e6b565b9050919050565b6000614eb9826143e8565b9150614ec4836143e8565b9250828202614ed2816143e8565b91508282048414831517614ee957614ee8614d34565b5b5092915050565b7f4e487b7100000000000000000000000000000000000000000000000000000000600052601260045260246000fd5b6000614f2a826143e8565b9150614f35836143e8565b925082614f4557614f44614ef0565b5b828204905092915050565b7f696e76616c696420706172616d65746572730000000000000000000000000000600082015250565b6000614f86601283614929565b9150614f9182614f50565b602082019050919050565b60006020820190508181036000830152614fb581614f79565b9050919050565b6000819050919050565b600067ffffffffffffffff82169050919050565b6000614ff5614ff0614feb84614fbc565b614a66565b614fc6565b9050919050565b61500581614fda565b82525050565b60006020820190506150206000830184614ffc565b92915050565b7f6f766572666c6f77000000000000000000000000000000000000000000000000600082015250565b600061505c600883614929565b915061506782615026565b602082019050919050565b6000602082019050818103600083015261508b8161504f565b9050919050565b7f776974686472617720686173206265656e20616c726561647920756e7061757360008201527f6564000000000000000000000000000000000000000000000000000000000000602082015250565b60006150ee602283614929565b91506150f982615092565b604082019050919050565b6000602082019050818103600083015261511d816150e1565b9050919050565b7f776974686472617720686173206265656e20616c726561647920706175736564600082015250565b600061515a602083614929565b915061516582615124565b602082019050919050565b600060208201905081810360008301526151898161514d565b9050919050565b7f696e76616c696420626c6f636b00000000000000000000000000000000000000600082015250565b60006151c6600d83614929565b91506151d182615190565b602082019050919050565b600060208201905081810360008301526151f5816151b9565b9050919050565b7f656e6420626c6f636b206d7573742062652067726561746572207468616e207360008201527f7461727420626c6f636b00000000000000000000000000000000000000000000602082015250565b6000615258602a83614929565b9150615263826151fc565b604082019050919050565b600060208201905081810360008301526152878161524b565b9050919050565b7f6d756c7469706c696572206f766572666c6f7700000000000000000000000000600082015250565b60006152c4601383614929565b91506152cf8261528e565b602082019050919050565b600060208201905081810360008301526152f3816152b7565b9050919050565b7f636c61696d20686173206265656e20616c726561647920706175736564000000600082015250565b6000615330601d83614929565b915061533b826152fa565b602082019050919050565b6000602082019050818103600083015261535f81615323565b9050919050565b7f4e6f7420656e6f756768207374616b696e6720746f6b656e2062616c616e6365600082015250565b600061539c602083614929565b91506153a782615366565b602082019050919050565b600060208201905081810360008301526153cb8161538f565b9050919050565b7f696e76616c6964207374616b696e6720746f6b656e2061646472657373000000600082015250565b6000615408601d83614929565b9150615413826153d2565b602082019050919050565b60006020820190508181036000830152615437816153fb565b9050919050565b7f696e76616c6964207769746864726177206c6f636b656420626c6f636b730000600082015250565b6000615474601e83614929565b915061547f8261543e565b602082019050919050565b600060208201905081810360008301526154a381615467565b9050919050565b7f416c726561647920656e64656400000000000000000000000000000000000000600082015250565b60006154e0600d83614929565b91506154eb826154aa565b602082019050919050565b6000602082019050818103600083015261550f816154d3565b9050919050565b7f737461727420626c6f636b206d75737420626520736d616c6c6572207468616e60008201527f20656e6420626c6f636b00000000000000000000000000000000000000000000602082015250565b6000615572602a83614929565b915061557d82615516565b604082019050919050565b600060208201905081810360008301526155a181615565565b9050919050565b7f696e76616c696420706172616d65746572000000000000000000000000000000600082015250565b60006155de601183614929565b91506155e9826155a8565b602082019050919050565b6000602082019050818103600083015261560d816155d1565b9050919050565b7f636c61696d20686173206265656e20616c726561647920756e70617573656400600082015250565b600061564a601f83614929565b915061565582615614565b602082019050919050565b600060208201905081810360008301526156798161563d565b9050919050565b7f6465706f736974206e6f7420737570706f727420455448207374616b696e6700600082015250565b60006156b6601f83614929565b91506156c182615680565b602082019050919050565b600060208201905081810360008301526156e5816156a9565b9050919050565b7f6465706f73697420616d6f756e7420697320746f6f20736d616c6c0000000000600082015250565b6000615722601b83614929565b915061572d826156ec565b602082019050919050565b6000602082019050818103600083015261575181615715565b9050919050565b7f696e76616c696420706f6f6c2077656967687400000000000000000000000000600082015250565b600061578e601383614929565b915061579982615758565b602082019050919050565b600060208201905081810360008301526157bd81615781565b9050919050565b600081905092915050565b50565b60006157df6000836157c4565b91506157ea826157cf565b600082019050919050565b6000615800826157d2565b9150819050919050565b7f455448207472616e736665722063616c6c206661696c65640000000000000000600082015250565b6000615840601883614929565b915061584b8261580a565b602082019050919050565b6000602082019050818103600083015261586f81615833565b9050919050565b600081519050615885816149bf565b92915050565b6000602082840312156158a1576158a0614323565b5b60006158af84828501615876565b91505092915050565b7f455448207472616e73666572206f7065726174696f6e20646964206e6f74207360008201527f7563636565640000000000000000000000000000000000000000000000000000602082015250565b6000615914602683614929565b915061591f826158b8565b604082019050919050565b6000602082019050818103600083015261594381615907565b9050919050565b600060208201905061595f6000830184614b86565b92915050565b6000815190506159748161441c565b92915050565b6000602082840312156159905761598f614323565b5b600061599e84828501615965565b91505092915050565b60006040820190506159bc6000830185614b86565b6159c960208301846143f2565b9392505050565b6000815190506159df816144f0565b92915050565b6000602082840312156159fb576159fa614323565b5b6000615a09848285016159d0565b91505092915050565b7f75736572207374416d6f756e74206d756c206163634d6574614e6f646550657260008201527f5354206f766572666c6f77000000000000000000000000000000000000000000602082015250565b6000615a6e602b83614929565b9150615a7982615a12565b604082019050919050565b60006020820190508181036000830152615a9d81615a61565b9050919050565b7f6163635354206469762031206574686572206f766572666c6f77000000000000600082015250565b6000615ada601a83614929565b9150615ae582615aa4565b602082019050919050565b60006020820190508181036000830152615b0981615acd565b9050919050565b7f6163635354207375622066696e69736865644d6574614e6f6465206f7665726660008201527f6c6f770000000000000000000000000000000000000000000000000000000000602082015250565b6000615b6c602383614929565b9150615b7782615b10565b604082019050919050565b60006020820190508181036000830152615b9b81615b5f565b9050919050565b7f757365722070656e64696e674d6574614e6f6465206f766572666c6f77000000600082015250565b6000615bd8601d83614929565b9150615be382615ba2565b602082019050919050565b60006020820190508181036000830152615c0781615bcb565b9050919050565b7f75736572207374416d6f756e74206f766572666c6f7700000000000000000000600082015250565b6000615c44601683614929565b9150615c4f82615c0e565b602082019050919050565b60006020820190508181036000830152615c7381615c37565b9050919050565b7f706f6f6c207374546f6b656e416d6f756e74206f766572666c6f770000000000600082015250565b6000615cb0601b83614929565b9150615cbb82615c7a565b602082019050919050565b60006020820190508181036000830152615cdf81615ca3565b9050919050565b7f66696e69736865644d6574614e6f6465206469762031206574686572206f766560008201527f72666c6f77000000000000000000000000000000000000000000000000000000602082015250565b6000615d42602583614929565b9150615d4d82615ce6565b604082019050919050565b60006020820190508181036000830152615d7181615d35565b9050919050565b6000604082019050615d8d6000830185614b86565b615d9a6020830184614549565b939250505056fea2646970667358221220782aeff3f1288184288a4df9af69d792dbca9b997b1678d6ba4248cc71211c6564736f6c63430008160033",
  "linkReferences": {},
  "deployedLinkReferences": {}
}