{
  "_format": "hh-sol-artifact-1",
  "contractName": "MetaNodeStake",
  "sourceName": "contracts/MetaNodeStake.sol",
  "abi": [
    {
      "inputs": [],
      "name": "AccessControlBadConfirmation",
      "type": "error"
    },
    {
      "inputs": [
        {
          "internalType": "address",
          "name": "account",
          "type": "address"
        },
        {
          "internalType": "bytes32",
          "name": "neededRole",
          "type": "bytes32"
        }
      ],
      "name": "AccessControlUnauthorizedAccount",
      "type": "error"
    },
    {
      "inputs": [
        {
          "internalType": "address",
          "name": "target",
          "type": "address"
        }
      ],
      "name": "AddressEmptyCode",
      "type": "error"
    },
    {
      "inputs": [
        {
          "internalType": "address",
          "name": "implementation",
          "type": "address"
        }
      ],
      "name": "ERC1967InvalidImplementation",
      "type": "error"
    },
    {
      "inputs": [],
      "name": "ERC1967NonPayable",
      "type": "error"
    },
    {
      "inputs": [],
      "name": "EnforcedPause",
      "type": "error"
    },
    {
      "inputs": [],
      "name": "ExpectedPause",
      "type": "error"
    },
    {
      "inputs": [],
      "name": "FailedCall",
      "type": "error"
    },
    {
      "inputs": [],
      "name": "InvalidInitialization",
      "type": "error"
    },
    {
      "inputs": [],
      "name": "NotInitializing",
      "type": "error"
    },
    {
      "inputs": [
        {
          "internalType": "address",
          "name": "token",
          "type": "address"
        }
      ],
      "name": "SafeERC20FailedOperation",
      "type": "error"
    },
    {
      "inputs": [],
      "name": "UUPSUnauthorizedCallContext",
      "type": "error"
    },
    {
      "inputs": [
        {
          "internalType": "bytes32",
          "name": "slot",
          "type": "bytes32"
        }
      ],
      "name": "UUPSUnsupportedProxiableUUID",
      "type": "error"
    },
    {
      "anonymous": false,
      "inputs": [
        {
          "indexed": true,
          "internalType": "address",
          "name": "stTokenAddress",
          "type": "address"
        },
        {
          "indexed": true,
          "internalType": "uint256",
          "name": "poolWeight",
          "type": "uint256"
        },
        {
          "indexed": true,
          "internalType": "uint256",
          "name": "lastRewardBlock",
          "type": "uint256"
        },
        {
          "indexed": false,
          "internalType": "uint256",
          "name": "minDepositAmount",
          "type": "uint256"
        },
        {
          "indexed": false,
          "internalType": "uint256",
          "name": "unstakeLockedBlocks",
          "type": "uint256"
        }
      ],
      "name": "AddPool",
      "type": "event"
    },
    {
      "anonymous": false,
      "inputs": [
        {
          "indexed": true,
          "internalType": "address",
          "name": "user",
          "type": "address"
        },
        {
          "indexed": true,
          "internalType": "uint256",
          "name": "poolId",
          "type": "uint256"
        },
        {
          "indexed": false,
          "internalType": "uint256",
          "name": "MetaNodeReward",
          "type": "uint256"
        }
      ],
      "name": "Claim",
      "type": "event"
    },
    {
      "anonymous": false,
      "inputs": [
        {
          "indexed": true,
          "internalType": "address",
          "name": "user",
          "type": "address"
        },
        {
          "indexed": true,
          "internalType": "uint256",
          "name": "poolId",
          "type": "uint256"
        },
        {
          "indexed": false,
          "internalType": "uint256",
          "name": "amount",
          "type": "uint256"
        }
      ],
      "name": "Deposit",
      "type": "event"
    },
    {
      "anonymous": false,
      "inputs": [
        {
          "indexed": false,
          "internalType": "uint64",
          "name": "version",
          "type": "uint64"
        }
      ],
      "name": "Initialized",
      "type": "event"
    },
    {
      "anonymous": false,
      "inputs": [],
      "name": "PauseClaim",
      "type": "event"
    },
    {
      "anonymous": false,
      "inputs": [],
      "name": "PauseWithdraw",
      "type": "event"
    },
    {
      "anonymous": false,
      "inputs": [
        {
          "indexed": false,
          "internalType": "address",
          "name": "account",
          "type": "address"
        }
      ],
      "name": "Paused",
      "type": "event"
    },
    {
      "anonymous": false,
      "inputs": [
        {
          "indexed": true,
          "internalType": "address",
          "name": "user",
          "type": "address"
        },
        {
          "indexed": true,
          "internalType": "uint256",
          "name": "poolId",
          "type": "uint256"
        },
        {
          "indexed": false,
          "internalType": "uint256",
          "name": "amount",
          "type": "uint256"
        }
      ],
      "name": "RequestUnstake",
      "type": "event"
    },
    {
      "anonymous": false,
      "inputs": [
        {
          "indexed": true,
          "internalType": "bytes32",
          "name": "role",
          "type": "bytes32"
        },
        {
          "indexed": true,
          "internalType": "bytes32",
          "name": "previousAdminRole",
          "type": "bytes32"
        },
        {
          "indexed": true,
          "internalType": "bytes32",
          "name": "newAdminRole",
          "type": "bytes32"
        }
      ],
      "name": "RoleAdminChanged",
      "type": "event"
    },
    {
      "anonymous": false,
      "inputs": [
        {
          "indexed": true,
          "internalType": "bytes32",
          "name": "role",
          "type": "bytes32"
        },
        {
          "indexed": true,
          "internalType": "address",
          "name": "account",
          "type": "address"
        },
        {
          "indexed": true,
          "internalType": "address",
          "name": "sender",
          "type": "address"
        }
      ],
      "name": "RoleGranted",
      "type": "event"
    },
    {
      "anonymous": false,
      "inputs": [
        {
          "indexed": true,
          "internalType": "bytes32",
          "name": "role",
          "type": "bytes32"
        },
        {
          "indexed": true,
          "internalType": "address",
          "name": "account",
          "type": "address"
        },
        {
          "indexed": true,
          "internalType": "address",
          "name": "sender",
          "type": "address"
        }
      ],
      "name": "RoleRevoked",
      "type": "event"
    },
    {
      "anonymous": false,
      "inputs": [
        {
          "indexed": true,
          "internalType": "uint256",
          "name": "endBlock",
          "type": "uint256"
        }
      ],
      "name": "SetEndBlock",
      "type": "event"
    },
    {
      "anonymous": false,
      "inputs": [
        {
          "indexed": true,
          "internalType": "contract IERC20",
          "name": "MetaNode",
          "type": "address"
        }
      ],
      "name": "SetMetaNode",
      "type": "event"
    },
    {
      "anonymous": false,
      "inputs": [
        {
          "indexed": true,
          "internalType": "uint256",
          "name": "MetaNodePerBlock",
          "type": "uint256"
        }
      ],
      "name": "SetMetaNodePerBlock",
      "type": "event"
    },
    {
      "anonymous": false,
      "inputs": [
        {
          "indexed": true,
          "internalType": "uint256",
          "name": "poolId",
          "type": "uint256"
        },
        {
          "indexed": true,
          "internalType": "uint256",
          "name": "poolWeight",
          "type": "uint256"
        },
        {
          "indexed": false,
          "internalType": "uint256",
          "name": "totalPoolWeight",
          "type": "uint256"
        }
      ],
      "name": "SetPoolWeight",
      "type": "event"
    },
    {
      "anonymous": false,
      "inputs": [
        {
          "indexed": true,
          "internalType": "uint256",
          "name": "startBlock",
          "type": "uint256"
        }
      ],
      "name": "SetStartBlock",
      "type": "event"
    },
    {
      "anonymous": false,
      "inputs": [],
      "name": "UnpauseClaim",
      "type": "event"
    },
    {
      "anonymous": false,
      "inputs": [],
      "name": "UnpauseWithdraw",
      "type": "event"
    },
    {
      "anonymous": false,
      "inputs": [
        {
          "indexed": false,
          "internalType": "address",
          "name": "account",
          "type": "address"
        }
      ],
      "name": "Unpaused",
      "type": "event"
    },
    {
      "anonymous": false,
      "inputs": [
        {
          "indexed": true,
          "internalType": "uint256",
          "name": "poolId",
          "type": "uint256"
        },
        {
          "indexed": true,
          "internalType": "uint256",
          "name": "lastRewardBlock",
          "type": "uint256"
        },
        {
          "indexed": false,
          "internalType": "uint256",
          "name": "totalMetaNode",
          "type": "uint256"
        }
      ],
      "name": "UpdatePool",
      "type": "event"
    },
    {
      "anonymous": false,
      "inputs": [
        {
          "indexed": true,
          "internalType": "uint256",
          "name": "poolId",
          "type": "uint256"
        },
        {
          "indexed": true,
          "internalType": "uint256",
          "name": "minDepositAmount",
          "type": "uint256"
        },
        {
          "indexed": true,
          "internalType": "uint256",
          "name": "unstakeLockedBlocks",
          "type": "uint256"
        }
      ],
      "name": "UpdatePoolInfo",
      "type": "event"
    },
    {
      "anonymous": false,
      "inputs": [
        {
          "indexed": true,
          "internalType": "address",
          "name": "implementation",
          "type": "address"
        }
      ],
      "name": "Upgraded",
      "type": "event"
    },
    {
      "anonymous": false,
      "inputs": [
        {
          "indexed": true,
          "internalType": "address",
          "name": "user",
          "type": "address"
        },
        {
          "indexed": true,
          "internalType": "uint256",
          "name": "poolId",
          "type": "uint256"
        },
        {
          "indexed": false,
          "internalType": "uint256",
          "name": "amount",
          "type": "uint256"
        },
        {
          "indexed": true,
          "internalType": "uint256",
          "name": "blockNumber",
          "type": "uint256"
        }
      ],
      "name": "Withdraw",
      "type": "event"
    },
    {
      "inputs": [],
      "name": "ADMIN_ROLE",
      "outputs": [
        {
          "internalType": "bytes32",
          "name": "",
          "type": "bytes32"
        }
      ],
      "stateMutability": "view",
      "type": "function"
    },
    {
      "inputs": [],
      "name": "DEFAULT_ADMIN_ROLE",
      "outputs": [
        {
          "internalType": "bytes32",
          "name": "",
          "type": "bytes32"
        }
      ],
      "stateMutability": "view",
      "type": "function"
    },
    {
      "inputs": [],
      "name": "ETH_PID",
      "outputs": [
        {
          "internalType": "uint256",
          "name": "",
          "type": "uint256"
        }
      ],
      "stateMutability": "view",
      "type": "function"
    },
    {
      "inputs": [],
      "name": "MetaNode",
      "outputs": [
        {
          "internalType": "contract IERC20",
          "name": "",
          "type": "address"
        }
      ],
      "stateMutability": "view",
      "type": "function"
    },
    {
      "inputs": [],
      "name": "MetaNodePerBlock",
      "outputs": [
        {
          "internalType": "uint256",
          "name": "",
          "type": "uint256"
        }
      ],
      "stateMutability": "view",
      "type": "function"
    },
    {
      "inputs": [],
      "name": "UPGRADE_INTERFACE_VERSION",
      "outputs": [
        {
          "internalType": "string",
          "name": "",
          "type": "string"
        }
      ],
      "stateMutability": "view",
      "type": "function"
    },
    {
      "inputs": [],
      "name": "UPGRADE_ROLE",
      "outputs": [
        {
          "internalType": "bytes32",
          "name": "",
          "type": "bytes32"
        }
      ],
      "stateMutability": "view",
      "type": "function"
    },
    {
      "inputs": [
        {
          "internalType": "address",
          "name": "_stTokenAddress",
          "type": "address"
        },
        {
          "internalType": "uint256",
          "name": "_poolWeight",
          "type": "uint256"
        },
        {
          "internalType": "uint256",
          "name": "_minDepositAmount",
          "type": "uint256"
        },
        {
          "internalType": "uint256",
          "name": "_unstakeLockedBlocks",
          "type": "uint256"
        },
        {
          "internalType": "bool",
          "name": "_withUpdate",
          "type": "bool"
        }
      ],
      "name": "addPool",
      "outputs": [],
      "stateMutability": "nonpayable",
      "type": "function"
    },
    {
      "inputs": [
        {
          "internalType": "uint256",
          "name": "_pid",
          "type": "uint256"
        }
      ],
      "name": "claim",
      "outputs": [],
      "stateMutability": "nonpayable",
      "type": "function"
    },
    {
      "inputs": [],
      "name": "claimPaused",
      "outputs": [
        {
          "internalType": "bool",
          "name": "",
          "type": "bool"
        }
      ],
      "stateMutability": "view",
      "type": "function"
    },
    {
      "inputs": [
        {
          "internalType": "uint256",
          "name": "_pid",
          "type": "uint256"
        },
        {
          "internalType": "uint256",
          "name": "_amount",
          "type": "uint256"
        }
      ],
      "name": "deposit",
      "outputs": [],
      "stateMutability": "nonpayable",
      "type": "function"
    },
    {
      "inputs": [],
      "name": "depositETH",
      "outputs": [],
      "stateMutability": "payable",
      "type": "function"
    },
    {
      "inputs": [],
      "name": "endBlock",
      "outputs": [
        {
          "internalType": "uint256",
          "name": "",
          "type": "uint256"
        }
      ],
      "stateMutability": "view",
      "type": "function"
    },
    {
      "inputs": [
        {
          "internalType": "uint256",
          "name": "_from",
          "type": "uint256"
        },
        {
          "internalType": "uint256",
          "name": "_to",
          "type": "uint256"
        }
      ],
      "name": "getMultiplier",
      "outputs": [
        {
          "internalType": "uint256",
          "name": "multiplier",
          "type": "uint256"
        }
      ],
      "stateMutability": "view",
      "type": "function"
    },
    {
      "inputs": [
        {
          "internalType": "bytes32",
          "name": "role",
          "type": "bytes32"
        }
      ],
      "name": "getRoleAdmin",
      "outputs": [
        {
          "internalType": "bytes32",
          "name": "",
          "type": "bytes32"
        }
      ],
      "stateMutability": "view",
      "type": "function"
    },
    {
      "inputs": [
        {
          "internalType": "bytes32",
          "name": "role",
          "type": "bytes32"
        },
        {
          "internalType": "address",
          "name": "account",
          "type": "address"
        }
      ],
      "name": "grantRole",
      "outputs": [],
      "stateMutability": "nonpayable",
      "type": "function"
    },
    {
      "inputs": [
        {
          "internalType": "bytes32",
          "name": "role",
          "type": "bytes32"
        },
        {
          "internalType": "address",
          "name": "account",
          "type": "address"
        }
      ],
      "name": "hasRole",
      "outputs": [
        {
          "internalType": "bool",
          "name": "",
          "type": "bool"
        }
      ],
      "stateMutability": "view",
      "type": "function"
    },
    {
      "inputs": [
        {
          "internalType": "contract IERC20",
          "name": "_MetaNode",
          "type": "address"
        },
        {
          "internalType": "uint256",
          "name": "_startBlock",
          "type": "uint256"
        },
        {
          "internalType": "uint256",
          "name": "_endBlock",
          "type": "uint256"
        },
        {
          "internalType": "uint256",
          "name": "_MetaNodePerBlock",
          "type": "uint256"
        }
      ],
      "name": "initialize",
      "outputs": [],
      "stateMutability": "nonpayable",
      "type": "function"
    },
    {
      "inputs": [],
      "name": "massUpdatePools",
      "outputs": [],
      "stateMutability": "nonpayable",
      "type": "function"
    },
    {
      "inputs": [],
      "name": "pauseClaim",
      "outputs": [],
      "stateMutability": "nonpayable",
      "type": "function"
    },
    {
      "inputs": [],
      "name": "pauseWithdraw",
      "outputs": [],
      "stateMutability": "nonpayable",
      "type": "function"
    },
    {
      "inputs": [],
      "name": "paused",
      "outputs": [
        {
          "internalType": "bool",
          "name": "",
          "type": "bool"
        }
      ],
      "stateMutability": "view",
      "type": "function"
    },
    {
      "inputs": [
        {
          "internalType": "uint256",
          "name": "_pid",
          "type": "uint256"
        },
        {
          "internalType": "address",
          "name": "_user",
          "type": "address"
        }
      ],
      "name": "pendingMetaNode",
      "outputs": [
        {
          "internalType": "uint256",
          "name": "",
          "type": "uint256"
        }
      ],
      "stateMutability": "view",
      "type": "function"
    },
    {
      "inputs": [
        {
          "internalType": "uint256",
          "name": "_pid",
          "type": "uint256"
        },
        {
          "internalType": "address",
          "name": "_user",
          "type": "address"
        },
        {
          "internalType": "uint256",
          "name": "_blockNumber",
          "type": "uint256"
        }
      ],
      "name": "pendingMetaNodeByBlockNumber",
      "outputs": [
        {
          "internalType": "uint256",
          "name": "",
          "type": "uint256"
        }
      ],
      "stateMutability": "view",
      "type": "function"
    },
    {
      "inputs": [
        {
          "internalType": "uint256",
          "name": "",
          "type": "uint256"
        }
      ],
      "name": "pool",
      "outputs": [
        {
          "internalType": "address",
          "name": "stTokenAddress",
          "type": "address"
        },
        {
          "internalType": "uint256",
          "name": "poolWeight",
          "type": "uint256"
        },
        {
          "internalType": "uint256",
          "name": "lastRewardBlock",
          "type": "uint256"
        },
        {
          "internalType": "uint256",
          "name": "accMetaNodePerST",
          "type": "uint256"
        },
        {
          "internalType": "uint256",
          "name": "stTokenAmount",
          "type": "uint256"
        },
        {
          "internalType": "uint256",
          "name": "minDepositAmount",
          "type": "uint256"
        },
        {
          "internalType": "uint256",
          "name": "unstakeLockedBlocks",
          "type": "uint256"
        }
      ],
      "stateMutability": "view",
      "type": "function"
    },
    {
      "inputs": [],
      "name": "poolLength",
      "outputs": [
        {
          "internalType": "uint256",
          "name": "",
          "type": "uint256"
        }
      ],
      "stateMutability": "view",
      "type": "function"
    },
    {
      "inputs": [],
      "name": "proxiableUUID",
      "outputs": [
        {
          "internalType": "bytes32",
          "name": "",
          "type": "bytes32"
        }
      ],
      "stateMutability": "view",
      "type": "function"
    },
    {
      "inputs": [
        {
          "internalType": "bytes32",
          "name": "role",
          "type": "bytes32"
        },
        {
          "internalType": "address",
          "name": "callerConfirmation",
          "type": "address"
        }
      ],
      "name": "renounceRole",
      "outputs": [],
      "stateMutability": "nonpayable",
      "type": "function"
    },
    {
      "inputs": [
        {
          "internalType": "bytes32",
          "name": "role",
          "type": "bytes32"
        },
        {
          "internalType": "address",
          "name": "account",
          "type": "address"
        }
      ],
      "name": "revokeRole",
      "outputs": [],
      "stateMutability": "nonpayable",
      "type": "function"
    },
    {
      "inputs": [
        {
          "internalType": "uint256",
          "name": "_endBlock",
          "type": "uint256"
        }
      ],
      "name": "setEndBlock",
      "outputs": [],
      "stateMutability": "nonpayable",
      "type": "function"
    },
    {
      "inputs": [
        {
          "internalType": "contract IERC20",
          "name": "_MetaNode",
          "type": "address"
        }
      ],
      "name": "setMetaNode",
      "outputs": [],
      "stateMutability": "nonpayable",
      "type": "function"
    },
    {
      "inputs": [
        {
          "internalType": "uint256",
          "name": "_MetaNodePerBlock",
          "type": "uint256"
        }
      ],
      "name": "setMetaNodePerBlock",
      "outputs": [],
      "stateMutability": "nonpayable",
      "type": "function"
    },
    {
      "inputs": [
        {
          "internalType": "uint256",
          "name": "_pid",
          "type": "uint256"
        },
        {
          "internalType": "uint256",
          "name": "_poolWeight",
          "type": "uint256"
        },
        {
          "internalType": "bool",
          "name": "_withUpdate",
          "type": "bool"
        }
      ],
      "name": "setPoolWeight",
      "outputs": [],
      "stateMutability": "nonpayable",
      "type": "function"
    },
    {
      "inputs": [
        {
          "internalType": "uint256",
          "name": "_startBlock",
          "type": "uint256"
        }
      ],
      "name": "setStartBlock",
      "outputs": [],
      "stateMutability": "nonpayable",
      "type": "function"
    },
    {
      "inputs": [
        {
          "internalType": "uint256",
          "name": "_pid",
          "type": "uint256"
        },
        {
          "internalType": "address",
          "name": "_user",
          "type": "address"
        }
      ],
      "name": "stakingBalance",
      "outputs": [
        {
          "internalType": "uint256",
          "name": "",
          "type": "uint256"
        }
      ],
      "stateMutability": "view",
      "type": "function"
    },
    {
      "inputs": [],
      "name": "startBlock",
      "outputs": [
        {
          "internalType": "uint256",
          "name": "",
          "type": "uint256"
        }
      ],
      "stateMutability": "view",
      "type": "function"
    },
    {
      "inputs": [
        {
          "internalType": "bytes4",
          "name": "interfaceId",
          "type": "bytes4"
        }
      ],
      "name": "supportsInterface",
      "outputs": [
        {
          "internalType": "bool",
          "name": "",
          "type": "bool"
        }
      ],
      "stateMutability": "view",
      "type": "function"
    },
    {
      "inputs": [],
      "name": "totalPoolWeight",
      "outputs": [
        {
          "internalType": "uint256",
          "name": "",
          "type": "uint256"
        }
      ],
      "stateMutability": "view",
      "type": "function"
    },
    {
      "inputs": [],
      "name": "unpauseClaim",
      "outputs": [],
      "stateMutability": "nonpayable",
      "type": "function"
    },
    {
      "inputs": [],
      "name": "unpauseWithdraw",
      "outputs": [],
      "stateMutability": "nonpayable",
      "type": "function"
    },
    {
      "inputs": [
        {
          "internalType": "uint256",
          "name": "_pid",
          "type": "uint256"
        },
        {
          "internalType": "uint256",
          "name": "_amount",
          "type": "uint256"
        }
      ],
      "name": "unstake",
      "outputs": [],
      "stateMutability": "nonpayable",
      "type": "function"
    },
    {
      "inputs": [
        {
          "internalType": "uint256",
          "name": "_pid",
          "type": "uint256"
        }
      ],
      "name": "updatePool",
      "outputs": [],
      "stateMutability": "nonpayable",
      "type": "function"
    },
    {
      "inputs": [
        {
          "internalType": "uint256",
          "name": "_pid",
          "type": "uint256"
        },
        {
          "internalType": "uint256",
          "name": "_minDepositAmount",
          "type": "uint256"
        },
        {
          "internalType": "uint256",
          "name": "_unstakeLockedBlocks",
          "type": "uint256"
        }
      ],
      "name": "updatePool",
      "outputs": [],
      "stateMutability": "nonpayable",
      "type": "function"
    },
    {
      "inputs": [
        {
          "internalType": "address",
          "name": "newImplementation",
          "type": "address"
        },
        {
          "internalType": "bytes",
          "name": "data",
          "type": "bytes"
        }
      ],
      "name": "upgradeToAndCall",
      "outputs": [],
      "stateMutability": "payable",
      "type": "function"
    },
    {
      "inputs": [
        {
          "internalType": "uint256",
          "name": "",
          "type": "uint256"
        },
        {
          "internalType": "address",
          "name": "",
          "type": "address"
        }
      ],
      "name": "user",
      "outputs": [
        {
          "internalType": "uint256",
          "name": "stAmount",
          "type": "uint256"
        },
        {
          "internalType": "uint256",
          "name": "finishedMetaNode",
          "type": "uint256"
        },
        {
          "internalType": "uint256",
          "name": "pendingMetaNode",
          "type": "uint256"
        }
      ],
      "stateMutability": "view",
      "type": "function"
    },
    {
      "inputs": [
        {
          "internalType": "uint256",
          "name": "_pid",
          "type": "uint256"
        }
      ],
      "name": "withdraw",
      "outputs": [],
      "stateMutability": "nonpayable",
      "type": "function"
    },
    {
      "inputs": [
        {
          "internalType": "uint256",
          "name": "_pid",
          "type": "uint256"
        },
        {
          "internalType": "address",
          "name": "_user",
          "type": "address"
        }
      ],
      "name": "withdrawAmount",
      "outputs": [
        {
          "internalType": "uint256",
          "name": "requestAmount",
          "type": "uint256"
        },
        {
          "internalType": "uint256",
          "name": "pendingWithdrawAmount",
          "type": "uint256"
        }
      ],
      "stateMutability": "view",
      "type": "function"
    },
    {
      "inputs": [],
      "name": "withdrawPaused",
      "outputs": [
        {
          "internalType": "bool",
          "name": "",
          "type": "bool"
        }
      ],
      "stateMutability": "view",
      "type": "function"
    }
  ],
  "bytecode": "0x60a06040523073ffffffffffffffffffffffffffffffffffffffff1660809073ffffffffffffffffffffffffffffffffffffffff168152503480156200004457600080fd5b50608051618ed66200006f6000396000818161615e015281816161b301526164300152618ed66000f3fe6080604052600436106102935760003560e01c80638dbb1e3a1161015a578063d22f1d80116100c1578063ea5c219d1161007a578063ea5c219d14610997578063f35e4a6e146109d4578063f6326fb3146109fd578063fad07ece14610a07578063fe31311214610a30578063ff42335714610a7357610293565b8063d22f1d80146108b1578063d547741f146108dc578063d7bc176914610905578063d86c04441461092e578063de065caa14610957578063e2bbb1581461096e57610293565b8063ab5e124a11610113578063ab5e124a146107b3578063ad3cb1cc146107de578063b6d9d91914610809578063b908afa814610832578063bfc3ebba1461085d578063c713aa941461088857610293565b80638dbb1e3a146106a35780638ff095f9146106e057806391d14854146106f75780639e2c8a5b146107345780639ea96e661461075d578063a217fddf1461078857610293565b806348cd4cb1116101fe5780635c975abb116101b75780635c975abb146105b95780636155e3de146105e457806361a9a03d146105fb578063630b5ba1146106245780636325d5bc1461063b57806375b238fc1461067857610293565b806348cd4cb1146104de5780634ec81af1146105095780634f1ef2861461053257806351eb05a61461054e57806352d1902d146105775780635bb6d007146105a257610293565b80632e1a7d4d116102505780632e1a7d4d146103d05780632f2ff15d146103f95780632f3ffb9f1461042257806336568abe1461044d57806337849b3c14610476578063379607f5146104b557610293565b806301ffc9a71461029857806302559004146102d5578063081e3eda14610300578063083c63231461032b5780631154823414610356578063248a9ca314610393575b600080fd5b3480156102a457600080fd5b506102bf60048036038101906102ba9190617484565b610ab1565b6040516102cc91906174cc565b60405180910390f35b3480156102e157600080fd5b506102ea610b2b565b6040516102f79190617500565b60405180910390f35b34801561030c57600080fd5b50610315610b31565b6040516103229190617500565b60405180910390f35b34801561033757600080fd5b50610340610b7a565b60405161034d9190617500565b60405180910390f35b34801561036257600080fd5b5061037d600480360381019061037891906175a5565b610b80565b60405161038a9190617500565b60405180910390f35b34801561039f57600080fd5b506103ba60048036038101906103b5919061761b565b610d03565b6040516103c79190617657565b60405180910390f35b3480156103dc57600080fd5b506103f760048036038101906103f29190617672565b610d31565b005b34801561040557600080fd5b50610420600480360381019061041b919061769f565b611563565b005b34801561042e57600080fd5b50610437611585565b60405161044491906174cc565b60405180910390f35b34801561045957600080fd5b50610474600480360381019061046f919061769f565b611598565b005b34801561048257600080fd5b5061049d600480360381019061049891906175a5565b611613565b6040516104ac939291906176df565b60405180910390f35b3480156104c157600080fd5b506104dc60048036038101906104d79190617672565b61164a565b005b3480156104ea57600080fd5b506104f3611b42565b6040516105009190617500565b60405180910390f35b34801561051557600080fd5b50610530600480360381019061052b9190617754565b611b48565b005b61054c60048036038101906105479190617901565b611f3a565b005b34801561055a57600080fd5b5061057560048036038101906105709190617672565b611f59565b005b34801561058357600080fd5b5061058c61267b565b6040516105999190617657565b60405180910390f35b3480156105ae57600080fd5b506105b76126ae565b005b3480156105c557600080fd5b506105ce612839565b6040516105db91906174cc565b60405180910390f35b3480156105f057600080fd5b506105f961285e565b005b34801561060757600080fd5b50610622600480360381019061061d919061795d565b6129ea565b005b34801561063057600080fd5b50610639612b36565b005b34801561064757600080fd5b50610662600480360381019061065d919061798a565b612bf1565b60405161066f9190617500565b60405180910390f35b34801561068457600080fd5b5061068d612fc6565b60405161069a9190617657565b60405180910390f35b3480156106af57600080fd5b506106ca60048036038101906106c591906179dd565b612fea565b6040516106d79190617500565b60405180910390f35b3480156106ec57600080fd5b506106f5613315565b005b34801561070357600080fd5b5061071e6004803603810190610719919061769f565b6134a1565b60405161072b91906174cc565b60405180910390f35b34801561074057600080fd5b5061075b600480360381019061075691906179dd565b61351a565b005b34801561076957600080fd5b50610772613bbd565b60405161077f9190617500565b60405180910390f35b34801561079457600080fd5b5061079d613bc3565b6040516107aa9190617657565b60405180910390f35b3480156107bf57600080fd5b506107c8613bca565b6040516107d591906174cc565b60405180910390f35b3480156107ea57600080fd5b506107f3613bdd565b6040516108009190617a9c565b60405180910390f35b34801561081557600080fd5b50610830600480360381019061082b9190617aea565b613c16565b005b34801561083e57600080fd5b50610847614254565b6040516108549190617657565b60405180910390f35b34801561086957600080fd5b50610872614278565b60405161087f9190617500565b60405180910390f35b34801561089457600080fd5b506108af60048036038101906108aa9190617672565b61427d565b005b3480156108bd57600080fd5b506108c66143ec565b6040516108d39190617bc4565b60405180910390f35b3480156108e857600080fd5b5061090360048036038101906108fe919061769f565b614412565b005b34801561091157600080fd5b5061092c60048036038101906109279190617672565b614434565b005b34801561093a57600080fd5b5061095560048036038101906109509190617bdf565b6145a1565b005b34801561096357600080fd5b5061096c6147c9565b005b34801561097a57600080fd5b50610995600480360381019061099091906179dd565b614954565b005b3480156109a357600080fd5b506109be60048036038101906109b991906175a5565b614d07565b6040516109cb9190617500565b60405180910390f35b3480156109e057600080fd5b506109fb60048036038101906109f69190617672565b614e41565b005b610a05614fb0565b005b348015610a1357600080fd5b50610a2e6004803603810190610a299190617c32565b615221565b005b348015610a3c57600080fd5b50610a576004803603810190610a529190617672565b61558e565b604051610a6a9796959493929190617c94565b60405180910390f35b348015610a7f57600080fd5b50610a9a6004803603810190610a9591906175a5565b615600565b604051610aa8929190617d03565b60405180910390f35b60007f7965db0b000000000000000000000000000000000000000000000000000000007bffffffffffffffffffffffffffffffffffffffffffffffffffffffff1916827bffffffffffffffffffffffffffffffffffffffffffffffffffffffff19161480610b245750610b23826158e2565b5b9050919050565b60045481565b6000610b47675c53852e2b17d78960c01b61594c565b610b5b67840a1144e55d162260c01b61594c565b610b6f67ecc83f880e136f2060c01b61594c565b600580549050905090565b60015481565b6000610b96670c2b3efcdf0eee0560c01b61594c565b82610bab672e85e28cc5f4596d60c01b61594c565b610bbf671a82d0e442f32a0f60c01b61594c565b610bd367026c270049f1c1fa60c01b61594c565b610be7678bb7535075f3dc9760c01b61594c565b6005805490508110610c2e576040517f08c379a0000000000000000000000000000000000000000000000000000000008152600401610c2590617d78565b60405180910390fd5b610c426723858f71f2e63b0860c01b61594c565b610c56676bfb6f57bde52c7860c01b61594c565b610c6a673d350865fc2a2c0e60c01b61594c565b610c7e6703ad99f27e69c3b660c01b61594c565b610c9267d9cd871fe18270a960c01b61594c565b610ca667d03dab057a797e2260c01b61594c565b6006600085815260200190815260200160002060008473ffffffffffffffffffffffffffffffffffffffff1673ffffffffffffffffffffffffffffffffffffffff1681526020019081526020016000206000015491505092915050565b600080610d0e61594f565b905080600001600084815260200190815260200160002060010154915050919050565b610d45675170d4dc92e85d3f60c01b61594c565b610d4d615977565b610d6167bb7404f199eaa59460c01b61594c565b610d75677a3ae8d9a8a2cc7b60c01b61594c565b80610d8a672e85e28cc5f4596d60c01b61594c565b610d9e671a82d0e442f32a0f60c01b61594c565b610db267026c270049f1c1fa60c01b61594c565b610dc6678bb7535075f3dc9760c01b61594c565b6005805490508110610e0d576040517f08c379a0000000000000000000000000000000000000000000000000000000008152600401610e0490617d78565b60405180910390fd5b610e216723858f71f2e63b0860c01b61594c565b610e35676bfb6f57bde52c7860c01b61594c565b610e4967ae585022d5a4345160c01b61594c565b610e5d67715356b48fa5446060c01b61594c565b610e7167a0f03387ecc0310760c01b61594c565b610e856767dae3eda0a8198660c01b61594c565b610e9967f5609018526b33cb60c01b61594c565b610ead6789a9ef6b24041e2460c01b61594c565b600360009054906101000a900460ff1615610efd576040517f08c379a0000000000000000000000000000000000000000000000000000000008152600401610ef490617de4565b60405180910390fd5b610f1167e390e647d92cccc860c01b61594c565b610f25675d5f0b4e038d16a260c01b61594c565b610f39676e282da08989201560c01b61594c565b610f4d67be61d540ffd3860a60c01b61594c565b610f61673d4688dc710a40bb60c01b61594c565b610f7567ed0aeef52868f89360c01b61594c565b600060058381548110610f8b57610f8a617e04565b5b90600052602060002090600702019050610faf6728a9bbb1f25547ac60c01b61594c565b610fc36778699d9b5b4ae41f60c01b61594c565b60006006600085815260200190815260200160002060003373ffffffffffffffffffffffffffffffffffffffff1673ffffffffffffffffffffffffffffffffffffffff168152602001908152602001600020905061102b67cf8b5210e85e419260c01b61594c565b61103f6774608947d9c867a860c01b61594c565b6000611055678427bf60465a4d7060c01b61594c565b6110696727a41a750a6dd9f760c01b61594c565b600061107f67a7c9765f3dd383e160c01b61594c565b61109367ffc865bb85275a4c60c01b61594c565b60005b83600301805490508110156111b5576110b967c6e532325cc2e27160c01b61594c565b6110cd67fdba8427686693b560c01b61594c565b438460030182815481106110e4576110e3617e04565b5b9060005260206000209060020201600101541115611129576111106734d708715604ecfe60c01b61594c565b6111246750a1a76b2d3e7a4a60c01b61594c565b6111b5565b61113d679e90918437537bd160c01b61594c565b61115167990136cba8e499d160c01b61594c565b83600301818154811061116757611166617e04565b5b906000526020600020906002020160000154836111849190617e62565b925061119a678f9a794762cde11760c01b61594c565b81806111a590617e96565b9250508080600101915050611096565b506111ca670e4c6c659f7c411160c01b61594c565b6111de6702b1bbf92350038c60c01b61594c565b60005b8184600301805490506111f49190617ede565b8110156112865761120f6743616cbc89e3e15b60c01b61594c565b83600301828261121f9190617e62565b815481106112305761122f617e04565b5b906000526020600020906002020184600301828154811061125457611253617e04565b5b9060005260206000209060020201600082015481600001556001820154816001015590505080806001019150506111e1565b5061129b67dfb99fdc4d331e8260c01b61594c565b6112af6794690e5f6bdd85c660c01b61594c565b60005b8181101561132c576112ce67606534329507bd5960c01b61594c565b6112e267e39036636481580760c01b61594c565b836003018054806112f6576112f5617f12565b5b600190038181906000526020600020906002020160008082016000905560018201600090555050905580806001019150506112b2565b5061134167662c9873eacd911260c01b61594c565b611355674d8f0f07d161dab560c01b61594c565b60008211156114ce57611372671e7d4e67de3d61eb60c01b61594c565b61138667984b69c8abb715be60c01b61594c565b61139a67f8e7deb51e0ef5ab60c01b61594c565b600073ffffffffffffffffffffffffffffffffffffffff168460000160009054906101000a900473ffffffffffffffffffffffffffffffffffffffff1673ffffffffffffffffffffffffffffffffffffffff160361143d5761140667321f3807c0e5b99060c01b61594c565b61141a676cf02877519fb77660c01b61594c565b61142e67dfcc172642f36f2560c01b61594c565b61143833836159b8565b6114c9565b61145167f43eebebafb7ed8960c01b61594c565b61146567b0b514d520804bae60c01b61594c565b611479673a54073d8e699dd660c01b61594c565b6114c833838660000160009054906101000a900473ffffffffffffffffffffffffffffffffffffffff1673ffffffffffffffffffffffffffffffffffffffff16615bfb9092919063ffffffff16565b5b6114e3565b6114e26743d3738209613a1f60c01b61594c565b5b6114f767ee1480c3befd98a760c01b61594c565b61150b67a1931a1caedfc3dc60c01b61594c565b43863373ffffffffffffffffffffffffffffffffffffffff167f02f25270a4d87bea75db541cdfe559334a275b4a233520ed6c0a2429667cca94856040516115539190617500565b60405180910390a4505050505050565b61156c82610d03565b61157581615c4e565b61157f8383615c62565b50505050565b600360009054906101000a900460ff1681565b6115a0615d63565b73ffffffffffffffffffffffffffffffffffffffff168173ffffffffffffffffffffffffffffffffffffffff1614611604576040517f6697b23200000000000000000000000000000000000000000000000000000000815260040160405180910390fd5b61160e8282615d6b565b505050565b6006602052816000526040600020602052806000526040600020600091509150508060000154908060010154908060020154905083565b61165e677ab2cdc29181d0ce60c01b61594c565b611666615977565b61167a67069844864c7b10e060c01b61594c565b61168e67b133887c7aa9419e60c01b61594c565b806116a3672e85e28cc5f4596d60c01b61594c565b6116b7671a82d0e442f32a0f60c01b61594c565b6116cb67026c270049f1c1fa60c01b61594c565b6116df678bb7535075f3dc9760c01b61594c565b6005805490508110611726576040517f08c379a000000000000000000000000000000000000000000000000000000000815260040161171d90617d78565b60405180910390fd5b61173a6723858f71f2e63b0860c01b61594c565b61174e676bfb6f57bde52c7860c01b61594c565b61176267b4ccd842d5dca27960c01b61594c565b611776676b7ae40bb8e1ddaa60c01b61594c565b61178a67e543e1bb77c0f20260c01b61594c565b61179e675359fc14635fe7ed60c01b61594c565b6117b2677532e8cb938decd160c01b61594c565b6117c667e50e1a0d50c3266b60c01b61594c565b600360019054906101000a900460ff1615611816576040517f08c379a000000000000000000000000000000000000000000000000000000000815260040161180d90617f8d565b60405180910390fd5b61182a6712b294742e91932860c01b61594c565b61183e67b1a5939bc34f892b60c01b61594c565b611852679b3719c2e5123cb060c01b61594c565b611866673b80fa5cf53e6be060c01b61594c565b61187a6731e13b5bd0bfca7760c01b61594c565b61188e670fcdf6b1f0df76b360c01b61594c565b6000600583815481106118a4576118a3617e04565b5b906000526020600020906007020190506118c867d1449bcc68b27e9d60c01b61594c565b6118dc67fa9967680e247d8960c01b61594c565b60006006600085815260200190815260200160002060003373ffffffffffffffffffffffffffffffffffffffff1673ffffffffffffffffffffffffffffffffffffffff16815260200190815260200160002090506119446796a4d05d1735db9f60c01b61594c565b61195867ea2dc556ca9959df60c01b61594c565b61196184611f59565b611975679b98a77663d77a9660c01b61594c565b61198967383dcc3db3809a6960c01b61594c565b600081600201548260010154670de0b6b3a7640000856003015485600001546119b29190617fad565b6119bc919061801e565b6119c69190617ede565b6119d09190617e62565b90506119e66716775778e4123ce760c01b61594c565b6119fa6725da11479ff20ec260c01b61594c565b6000811115611a6c57611a176748142ce5c7d95ba360c01b61594c565b611a2b67bb483a638eedd06f60c01b61594c565b60008260020181905550611a4967c5499cfcbd24cd8760c01b61594c565b611a5d67987b624590da280060c01b61594c565b611a673382615e6d565b611a81565b611a8067876d2849c9b6fe0760c01b61594c565b5b611a9567697db5bb41d2171560c01b61594c565b670de0b6b3a764000083600301548360000154611ab29190617fad565b611abc919061801e565b8260010181905550611ad867b7533ba2e88d7adc60c01b61594c565b611aec67532b7e94e9eb02cd60c01b61594c565b843373ffffffffffffffffffffffffffffffffffffffff167f34fcbac0073d7c3d388e51312faf357774904998eeb8fca628b9e6f65ee1cbf783604051611b339190617500565b60405180910390a35050505050565b60005481565b611b5c67c3fee95bdb41503860c01b61594c565b6000611b6661613e565b905060008160000160089054906101000a900460ff1615905060008260000160009054906101000a900467ffffffffffffffff1690506000808267ffffffffffffffff16148015611bb45750825b9050600060018367ffffffffffffffff16148015611be9575060003073ffffffffffffffffffffffffffffffffffffffff163b145b905081158015611bf7575080155b15611c2e576040517ff92ee8a900000000000000000000000000000000000000000000000000000000815260040160405180910390fd5b60018560000160006101000a81548167ffffffffffffffff021916908367ffffffffffffffff1602179055508315611c7e5760018560000160086101000a81548160ff0219169083151502179055505b611c9267b5a1ee5720f594c360c01b61594c565b611ca667917c4819a03ca6ec60c01b61594c565b611cba67df8f14bc4b65f69a60c01b61594c565b611cce67f1212cd2d04ae33e60c01b61594c565b611ce26702aec90e8f868e5960c01b61594c565b868811158015611cf25750600086115b611d31576040517f08c379a0000000000000000000000000000000000000000000000000000000008152600401611d289061809b565b60405180910390fd5b611d4567d0d80f7ecee0cc5360c01b61594c565b611d5967cc66ebe89104691e60c01b61594c565b611d6d674cb69c0e4194a45160c01b61594c565b611d75616152565b611d8967d89822ac620b68d760c01b61594c565b611d9d674abee42fee7db98460c01b61594c565b611daa6000801b33615c62565b50611dbf67edbc98384ac2ba4d60c01b61594c565b611dd36794e5b4d32a3293a260c01b61594c565b611dfd7fcab03bc4dbcc648cd59d6bbe9f848d1e9092f914016aa290ee92e18700d1e6f933615c62565b50611e126705a9febfd7db079f60c01b61594c565b611e26671f0d8859ac96dafe60c01b61594c565b611e507f589d473ba17c0f47d494622893831497bad25919b9afb8e33e9521b8963fccde33615c62565b50611e6567a75cadd4ee0b742d60c01b61594c565b611e7967222cd4fc2499503e60c01b61594c565b611e82896129ea565b611e9667b1437f347616719660c01b61594c565b87600081905550611eb1677448a6dc66b08fb960c01b61594c565b86600181905550611ecc67288d87b3f4e744bc60c01b61594c565b856002819055508315611f2f5760008560000160086101000a81548160ff0219169083151502179055507fc7f505b2f371ae2175ee4913f4499e1f2633a7b5936321eed1cdaeb6115181d26001604051611f26919061810a565b60405180910390a15b505050505050505050565b611f4261615c565b611f4b82616242565b611f5582826162ac565b5050565b611f6d67cbea153060ba4c4660c01b61594c565b80611f82672e85e28cc5f4596d60c01b61594c565b611f96671a82d0e442f32a0f60c01b61594c565b611faa67026c270049f1c1fa60c01b61594c565b611fbe678bb7535075f3dc9760c01b61594c565b6005805490508110612005576040517f08c379a0000000000000000000000000000000000000000000000000000000008152600401611ffc90617d78565b60405180910390fd5b6120196723858f71f2e63b0860c01b61594c565b61202d676bfb6f57bde52c7860c01b61594c565b61204167609fc9b19a41744760c01b61594c565b612055679e0c6e649b0c5c3260c01b61594c565b61206967d9005d1f2d839bae60c01b61594c565b61207d67fb077c3cf64441eb60c01b61594c565b60006005838154811061209357612092617e04565b5b906000526020600020906007020190506120b7677493396f4bfbb19860c01b61594c565b6120cb675190ef8b1522f8e860c01b61594c565b80600201544311612118576120ea67bbe84a0cc1636b0260c01b61594c565b6120fe67e08f94d14143f9fd60c01b61594c565b612112679d61b92401f4dfc760c01b61594c565b50612677565b61212c67d828e708646432d460c01b61594c565b612140675216744986a192c960c01b61594c565b61215467777e9a3661e70fa360c01b61594c565b60008061217b836001015461216d856002015443612fea565b6163cb90919063ffffffff16565b91509150612193676e159dea37f6b0f760c01b61594c565b6121a767e661b921b64065bb60c01b61594c565b6121bb67e81028f4bfc45aa660c01b61594c565b816121fb576040517f08c379a00000000000000000000000000000000000000000000000000000000081526004016121f290618171565b60405180910390fd5b61220f675c573b6246a0b88960c01b61594c565b61222367afa413ea324a395760c01b61594c565b612238600454826163f490919063ffffffff16565b809250819350505061225467a47511ee594348a160c01b61594c565b61226867143fa6f32b79ce7460c01b61594c565b61227c6780d862cbcbb4cc7560c01b61594c565b816122bc576040517f08c379a00000000000000000000000000000000000000000000000000000000081526004016122b390618171565b60405180910390fd5b6122d067fa8dc0157c2bd46260c01b61594c565b6122e467b7cbff24e201731c60c01b61594c565b6122f8675a98688d244c1ee060c01b61594c565b600083600401549050612315678507e5e9a40c0e7c60c01b61594c565b61232967169631fef30cf3af60c01b61594c565b60008111156125db5761234667f709a211b9a51b1f60c01b61594c565b61235a6730bac79522df6b5760c01b61594c565b61236e670b620cfedd9a8bc460c01b61594c565b60008061238c670de0b6b3a7640000856163cb90919063ffffffff16565b915091506123a467c962e54f329bcb5360c01b61594c565b6123b867e81de5d3d80d007260c01b61594c565b6123cc676689e536eb548a7460c01b61594c565b8161240c576040517f08c379a000000000000000000000000000000000000000000000000000000000815260040161240390618171565b60405180910390fd5b6124206723a513a15fee4fda60c01b61594c565b6124346722c238e8c86597e160c01b61594c565b61244783826163f490919063ffffffff16565b809250819350505061246367832212f7efe20ed660c01b61594c565b61247767efe3877faab1e82e60c01b61594c565b61248b67d51948a498da257460c01b61594c565b816124cb576040517f08c379a00000000000000000000000000000000000000000000000000000000081526004016124c290618171565b60405180910390fd5b6124df6784df5e711234fc4d60c01b61594c565b6124f367eb07acc83b47b4f060c01b61594c565b61250767308cf81ee1086fa360c01b61594c565b60008061252183896003015461640990919063ffffffff16565b91509150612539670f18457fc5c5862760c01b61594c565b61254d675d9a21802ca5ed6160c01b61594c565b6125616731c505e6449e24ed60c01b61594c565b816125a1576040517f08c379a000000000000000000000000000000000000000000000000000000000815260040161259890618171565b60405180910390fd5b6125b56719529554df72e35a60c01b61594c565b6125c96771cc536f5f25286560c01b61594c565b808860030181905550505050506125f0565b6125ef672b345160f025ac0d60c01b61594c565b5b61260467ce96b54ad8472b8e60c01b61594c565b438460020181905550612621678e541c8fcf8658d260c01b61594c565b6126356707457504989a272060c01b61594c565b8360020154867ff5d2d72d9b25d6853afd7d0554a113b705234b6a68bb36b7f1436629946324118460405161266a9190617500565b60405180910390a3505050505b5050565b600061268561642e565b7f360894a13ba1a3210667c828492db98dca3e2076cc3735a920a3ca505d382bbc60001b905090565b6126c267b07c4f14617387cc60c01b61594c565b7f589d473ba17c0f47d494622893831497bad25919b9afb8e33e9521b8963fccde6126ec81615c4e565b612700672caefd3466834f4760c01b61594c565b612714676744f406785efc2360c01b61594c565b61272867edb36d1d471b08e660c01b61594c565b61273c67ef6800bb27a9e7b360c01b61594c565b6127506739190930c343d8ea60c01b61594c565b600360009054906101000a900460ff1661279f576040517f08c379a000000000000000000000000000000000000000000000000000000000815260040161279690618203565b60405180910390fd5b6127b3672f82fb52cff2f35b60c01b61594c565b6127c76722b50e38fa4a18c160c01b61594c565b6000600360006101000a81548160ff0219169083151502179055506127f667d9260a4f6005ee0b60c01b61594c565b61280a6788be240c6b63d43b60c01b61594c565b7f1c84bcaead48b692cc46b9b12e9a068951a59c99a2e2bf10b00b60b403cf12e260405160405180910390a150565b6000806128446164b5565b90508060000160009054906101000a900460ff1691505090565b6128726789fb5f20d65960af60c01b61594c565b7f589d473ba17c0f47d494622893831497bad25919b9afb8e33e9521b8963fccde61289c81615c4e565b6128b06783cfc4448c69e44360c01b61594c565b6128c467426a5f107a7b04a260c01b61594c565b6128d86723cd268da9f0278860c01b61594c565b6128ec676e65f44def1562f760c01b61594c565b61290067ce56bebf030c1df360c01b61594c565b600360009054906101000a900460ff1615612950576040517f08c379a00000000000000000000000000000000000000000000000000000000081526004016129479061826f565b60405180910390fd5b612964670e0d651cd60de97760c01b61594c565b612978673fcfe3b1fb9a440160c01b61594c565b6001600360006101000a81548160ff0219169083151502179055506129a7672f2346e4c72f3d5060c01b61594c565b6129bb679addf9af7bec6de460c01b61594c565b7f8099f593a6aaecd68b6494933cd71f703376ac3975be83692e1b7d800abf683760405160405180910390a150565b6129fe6765358187713645bc60c01b61594c565b7f589d473ba17c0f47d494622893831497bad25919b9afb8e33e9521b8963fccde612a2881615c4e565b612a3c67ec8d930d4baa2e8960c01b61594c565b612a50675ad1f2e64bf5546d60c01b61594c565b612a646763c3a5a90d1f4b1d60c01b61594c565b81600360026101000a81548173ffffffffffffffffffffffffffffffffffffffff021916908373ffffffffffffffffffffffffffffffffffffffff160217905550612ab9670fb61ef88212f7c160c01b61594c565b612acd67311b8b1e4c0218b060c01b61594c565b600360029054906101000a900473ffffffffffffffffffffffffffffffffffffffff1673ffffffffffffffffffffffffffffffffffffffff167fafef10ff40345dd21fc1cac02d8ec620a709c9b0983e9c6454d2bef77f077df360405160405180910390a25050565b612b4a67bdbd12823421445d60c01b61594c565b612b5e67e42f8db0c5ef914e60c01b61594c565b612b7267c87056f11afeabd960c01b61594c565b60006005805490509050612b9067761f08c3e3535ad860c01b61594c565b612ba46794aea4f51501549e60c01b61594c565b60005b81811015612bed57612bc3672dce58a4dfd3e19e60c01b61594c565b612bd7677a2fef269481958b60c01b61594c565b612be081611f59565b8080600101915050612ba7565b5050565b6000612c0767b51517737b4c065b60c01b61594c565b83612c1c672e85e28cc5f4596d60c01b61594c565b612c30671a82d0e442f32a0f60c01b61594c565b612c4467026c270049f1c1fa60c01b61594c565b612c58678bb7535075f3dc9760c01b61594c565b6005805490508110612c9f576040517f08c379a0000000000000000000000000000000000000000000000000000000008152600401612c9690617d78565b60405180910390fd5b612cb36723858f71f2e63b0860c01b61594c565b612cc7676bfb6f57bde52c7860c01b61594c565b612cdb67a2a1443f9a0c234160c01b61594c565b612cef678fe41e1b1b600d5060c01b61594c565b612d0367612280ff527ed29960c01b61594c565b612d17670d4913be433a3f4f60c01b61594c565b600060058681548110612d2d57612d2c617e04565b5b90600052602060002090600702019050612d5167b60a7552e856803c60c01b61594c565b612d65673bc73077b1543f2d60c01b61594c565b60006006600088815260200190815260200160002060008773ffffffffffffffffffffffffffffffffffffffff1673ffffffffffffffffffffffffffffffffffffffff1681526020019081526020016000209050612dcd67ed442cc3b86c0e7860c01b61594c565b612de167dc5757f564b7b51f60c01b61594c565b600082600301549050612dfe6731c8484ef1a4ca8a60c01b61594c565b612e126728c6d651583544c860c01b61594c565b600083600401549050612e2f67b63e011ce7c954c360c01b61594c565b612e436747138d14ab91b3f960c01b61594c565b836002015487118015612e57575060008114155b15612f3a57612e7067829c3ef5f226b9e160c01b61594c565b612e8467cf8e8d9ed33017c960c01b61594c565b612e986774e4712a38d2b15360c01b61594c565b6000612ea8856002015489612fea565b9050612ebe6730f812c3ae10243160c01b61594c565b612ed267d0c612ab69578d6860c01b61594c565b6000600454866001015483612ee79190617fad565b612ef1919061801e565b9050612f076794e268ae39ab129c60c01b61594c565b82670de0b6b3a764000082612f1c9190617fad565b612f26919061801e565b84612f319190617e62565b93505050612f4f565b612f4e67cf9d3cd2aade41cd60c01b61594c565b5b612f6367acb66134efda19dd60c01b61594c565b612f7767c375b9e4c23275e260c01b61594c565b82600201548360010154670de0b6b3a7640000848660000154612f9a9190617fad565b612fa4919061801e565b612fae9190617ede565b612fb89190617e62565b955050505050509392505050565b7f589d473ba17c0f47d494622893831497bad25919b9afb8e33e9521b8963fccde81565b600061300067d8e067327ccd5e2360c01b61594c565b6130146786ee4aa8f1bef91260c01b61594c565b613028670d9b615e87304cd060c01b61594c565b61303c6780250101030f56ad60c01b61594c565b8183111561307f576040517f08c379a0000000000000000000000000000000000000000000000000000000008152600401613076906182db565b60405180910390fd5b6130936782fc32a0dae2ca2360c01b61594c565b6130a767d4ca13498426bbf160c01b61594c565b6130bb673fda91948be229ee60c01b61594c565b6000548310156130f7576130d96739e0577454887f5460c01b61594c565b6130ed672df2439e8bc08dd560c01b61594c565b600054925061310c565b61310b671c9d311d2656deab60c01b61594c565b5b613120670306cf7d432218b160c01b61594c565b61313467d4ac71ec05589e0d60c01b61594c565b600154821115613170576131526750c10cc698d10c0e60c01b61594c565b61316667c9a127cb7a441f3960c01b61594c565b6001549150613185565b61318467dfccc9bd93a72fe360c01b61594c565b5b61319967ae7fc842f809c19060c01b61594c565b6131ad67c9af938dc7a6c9cd60c01b61594c565b6131c167446b8cf56bb1ca8e60c01b61594c565b81831115613204576040517f08c379a00000000000000000000000000000000000000000000000000000000081526004016131fb9061836d565b60405180910390fd5b613218677d94d9d1e6aebf8960c01b61594c565b61322c67c109a1869dbb60ee60c01b61594c565b61324067dfb37645e661462560c01b61594c565b600061325667edec915cbdb6733460c01b61594c565b61327660025485856132689190617ede565b6163cb90919063ffffffff16565b809350819250505061329267c27169f0a9fe898a60c01b61594c565b6132a667895a3a62a25880d060c01b61594c565b6132ba678897f8e6a3561b5760c01b61594c565b806132fa576040517f08c379a00000000000000000000000000000000000000000000000000000000081526004016132f1906183d9565b60405180910390fd5b61330e67a82ad7a06aeaafac60c01b61594c565b5092915050565b61332967bb1dff68063a619a60c01b61594c565b7f589d473ba17c0f47d494622893831497bad25919b9afb8e33e9521b8963fccde61335381615c4e565b613367671bfae1a6efa845c860c01b61594c565b61337b670e346ccfdd86abe160c01b61594c565b61338f67e906ce877165b52c60c01b61594c565b6133a367d173c7d0e5e3c5f960c01b61594c565b6133b767f33e4a1693dfd70460c01b61594c565b600360019054906101000a900460ff1615613407576040517f08c379a00000000000000000000000000000000000000000000000000000000081526004016133fe90618445565b60405180910390fd5b61341b67df22988c7b59e65f60c01b61594c565b61342f6797557c862808d25160c01b61594c565b6001600360016101000a81548160ff02191690831515021790555061345e678a5f39757a2e19e460c01b61594c565b6134726728f8b95aa570363760c01b61594c565b7f6d73d6b34c378ab3bf6630206d60b7882801b91d03ee20d016ff0d5054db81e160405160405180910390a150565b6000806134ac61594f565b905080600001600085815260200190815260200160002060000160008473ffffffffffffffffffffffffffffffffffffffff1673ffffffffffffffffffffffffffffffffffffffff16815260200190815260200160002060009054906101000a900460ff1691505092915050565b61352e6789ab68f66e33117960c01b61594c565b613536615977565b61354a67bb9d38f886a06c9d60c01b61594c565b61355e67a60a9eee1c398c3b60c01b61594c565b81613573672e85e28cc5f4596d60c01b61594c565b613587671a82d0e442f32a0f60c01b61594c565b61359b67026c270049f1c1fa60c01b61594c565b6135af678bb7535075f3dc9760c01b61594c565b60058054905081106135f6576040517f08c379a00000000000000000000000000000000000000000000000000000000081526004016135ed90617d78565b60405180910390fd5b61360a6723858f71f2e63b0860c01b61594c565b61361e676bfb6f57bde52c7860c01b61594c565b613632673d86ff946b390b8b60c01b61594c565b61364667b9ee2db3f0367df660c01b61594c565b61365a67a0f03387ecc0310760c01b61594c565b61366e6767dae3eda0a8198660c01b61594c565b61368267f5609018526b33cb60c01b61594c565b6136966789a9ef6b24041e2460c01b61594c565b600360009054906101000a900460ff16156136e6576040517f08c379a00000000000000000000000000000000000000000000000000000000081526004016136dd90617de4565b60405180910390fd5b6136fa67e390e647d92cccc860c01b61594c565b61370e675d5f0b4e038d16a260c01b61594c565b61372267ec19279a95a606e960c01b61594c565b61373667ed862f7d6c5426f360c01b61594c565b61374a67268a5e526b4b2f9b60c01b61594c565b61375e67857f9d5ea5a9e8a360c01b61594c565b60006005848154811061377457613773617e04565b5b90600052602060002090600702019050613798677b2b4efb5afdc4a960c01b61594c565b6137ac673baba7e2e01d76b060c01b61594c565b60006006600086815260200190815260200160002060003373ffffffffffffffffffffffffffffffffffffffff1673ffffffffffffffffffffffffffffffffffffffff1681526020019081526020016000209050613814672d88062a00692d3460c01b61594c565b613828678f90d6c66223634660c01b61594c565b61383c6714f760eca66e2b3b60c01b61594c565b8381600001541015613883576040517f08c379a000000000000000000000000000000000000000000000000000000000815260040161387a906184b1565b60405180910390fd5b61389767f22caf06a5dc663660c01b61594c565b6138ab67ff5d28b97ab13f7160c01b61594c565b6138bf673b0711a4ca62222360c01b61594c565b6138c885611f59565b6138dc67fcbcaf3303e44a9860c01b61594c565b6138f06755a33c9d95342ffd60c01b61594c565b60008160010154670de0b6b3a7640000846003015484600001546139149190617fad565b61391e919061801e565b6139289190617ede565b905061393e67ed20496df399fc2460c01b61594c565b61395267d209f064082f38ba60c01b61594c565b60008111156139a05761396f674ca6ecff322ae83860c01b61594c565b61398367b3530cd775230eab60c01b61594c565b8082600201546139939190617e62565b82600201819055506139b5565b6139b4672025bf5760bd1d6360c01b61594c565b5b6139c9675d2bce61b86cf3c160c01b61594c565b6139dd67a50d19191db2a74e60c01b61594c565b6000851115613aba576139fa673daa8123ccf917ae60c01b61594c565b613a0e67b2e934e941cde2fb60c01b61594c565b848260000154613a1e9190617ede565b8260000181905550613a3a67b1add1d91f70af3360c01b61594c565b613a4e67cf0a8157cdca6b5160c01b61594c565b816003016040518060400160405280878152602001856006015443613a739190617e62565b815250908060018154018082558091505060019003906000526020600020906002020160009091909190915060008201518160000155602082015181600101555050613acf565b613ace67b32d421fbfaa189660c01b61594c565b5b613ae36717d0e50c9b6aab4e60c01b61594c565b848360040154613af39190617ede565b8360040181905550613b0f672b01810f87b00ced60c01b61594c565b670de0b6b3a764000083600301548360000154613b2c9190617fad565b613b36919061801e565b8260010181905550613b52673d0acfc3733706c960c01b61594c565b613b6667fc43e408ae22af8a60c01b61594c565b853373ffffffffffffffffffffffffffffffffffffffff167fc80277265097707f6f12a4ac4c09d46c9926e2eea2536f63616cb04d9fcad7d687604051613bad9190617500565b60405180910390a3505050505050565b60025481565b6000801b81565b600360019054906101000a900460ff1681565b6040518060400160405280600581526020017f352e302e3000000000000000000000000000000000000000000000000000000081525081565b613c2a675d9ff03a556fb38a60c01b61594c565b7f589d473ba17c0f47d494622893831497bad25919b9afb8e33e9521b8963fccde613c5481615c4e565b613c68677d63b66154726a0d60c01b61594c565b613c7c67ca09698a9655a34260c01b61594c565b613c906731cd74ef5537006d60c01b61594c565b613ca46767dd4956f6a415c460c01b61594c565b60006005805490501115613d8a57613cc6678e87f2e003dce63a60c01b61594c565b613cda678897b574ee3e2e4160c01b61594c565b613cee67a2bc9601c33eb0f360c01b61594c565b613d026740cfef1ad96cca2c60c01b61594c565b600073ffffffffffffffffffffffffffffffffffffffff168673ffffffffffffffffffffffffffffffffffffffff1603613d71576040517f08c379a0000000000000000000000000000000000000000000000000000000008152600401613d689061851d565b60405180910390fd5b613d8567a124ceb3315c1e7560c01b61594c565b613e5e565b613d9e676bb4ab5c681228fb60c01b61594c565b613db2675e9f51a45aa0490c60c01b61594c565b613dc6676e06496fab05239660c01b61594c565b613dda67351619c0fa795eae60c01b61594c565b600073ffffffffffffffffffffffffffffffffffffffff168673ffffffffffffffffffffffffffffffffffffffff1614613e49576040517f08c379a0000000000000000000000000000000000000000000000000000000008152600401613e409061851d565b60405180910390fd5b613e5d67eace86d5eb96623860c01b61594c565b5b613e726715096dbf7935656b60c01b61594c565b613e8667526f185ddf81cb8560c01b61594c565b613e9a67bc286be22466d47f60c01b61594c565b60008311613edd576040517f08c379a0000000000000000000000000000000000000000000000000000000008152600401613ed490618589565b60405180910390fd5b613ef167e77f9ba4a0a50d3160c01b61594c565b613f0567fe33d89bdcf826a560c01b61594c565b613f19675d8c85720708a28f60c01b61594c565b613f2d679149a7ea094f927560c01b61594c565b6001544310613f71576040517f08c379a0000000000000000000000000000000000000000000000000000000008152600401613f68906185f5565b60405180910390fd5b613f85678bc84de263d38a5c60c01b61594c565b613f9967958b4d8ba7e05cad60c01b61594c565b613fad671302d8f05f9a378360c01b61594c565b8115613ffc57613fc767f24d36698b46177a60c01b61594c565b613fdb67d8381eb05e3b24c160c01b61594c565b613fef677456faafd8d03ca060c01b61594c565b613ff7612b36565b614011565b614010670ed07370bc14349760c01b61594c565b5b6140256761b2ddfc87b8387760c01b61594c565b61403967f1c5ac188fe94b6c60c01b61594c565b6000805443118061405a575061405967d6d061a89c6683c660c01b6164dd565b5b80156140765750614075670bf5b2908317d91f60c01b6164e4565b5b61408257600054614084565b435b905061409a670451b8e5e4a62c6e60c01b61594c565b856004546140a89190617e62565b6004819055506140c267a1d709ec6013ec2160c01b61594c565b6140d667ef585a8dbadc283460c01b61594c565b60056040518060e001604052808973ffffffffffffffffffffffffffffffffffffffff168152602001888152602001838152602001600081526020016000815260200187815260200186815250908060018154018082558091505060019003906000526020600020906007020160009091909190915060008201518160000160006101000a81548173ffffffffffffffffffffffffffffffffffffffff021916908373ffffffffffffffffffffffffffffffffffffffff1602179055506020820151816001015560408201518160020155606082015181600301556080820151816004015560a0820151816005015560c0820151816006015550506141e567d6104c40665b51f760c01b61594c565b6141f967180ea471e1eb00e560c01b61594c565b80868873ffffffffffffffffffffffffffffffffffffffff167f0fa296fce13e7a0e622b3a892e66220c248337289483a3cfa4130cde0caa13468888604051614243929190617d03565b60405180910390a450505050505050565b7fcab03bc4dbcc648cd59d6bbe9f848d1e9092f914016aa290ee92e18700d1e6f981565b600081565b6142916766c71ce755a21a9d60c01b61594c565b7f589d473ba17c0f47d494622893831497bad25919b9afb8e33e9521b8963fccde6142bb81615c4e565b6142cf678397f28f8e49f72960c01b61594c565b6142e3675b4bc0dbbdb1795560c01b61594c565b6142f767d7865f428693995760c01b61594c565b61430b67af073f7897be490260c01b61594c565b61431f67591c3c4b99ff40a160c01b61594c565b816000541115614364576040517f08c379a000000000000000000000000000000000000000000000000000000000815260040161435b90618687565b60405180910390fd5b6143786750932b501d3298b860c01b61594c565b61438c6731dbea1ec801b92360c01b61594c565b816001819055506143a767d5123bc6cef4628f60c01b61594c565b6143bb67fd1b2cce03f2791a60c01b61594c565b817f1132c5baccb51da3d049fabc819697dc845fa224ad59d9b555507d6446b4085060405160405180910390a25050565b600360029054906101000a900473ffffffffffffffffffffffffffffffffffffffff1681565b61441b82610d03565b61442481615c4e565b61442e8383615d6b565b50505050565b61444867ee61cc84cd40c5dc60c01b61594c565b7f589d473ba17c0f47d494622893831497bad25919b9afb8e33e9521b8963fccde61447281615c4e565b614486670c7355a089f4dcd860c01b61594c565b61449a6768cade6e76b23c9060c01b61594c565b6144ae672a7185374396f5c860c01b61594c565b6144c267584aa82901cc634860c01b61594c565b6144d667052fca3d2c54aa1b60c01b61594c565b60008211614519576040517f08c379a0000000000000000000000000000000000000000000000000000000008152600401614510906186f3565b60405180910390fd5b61452d6771b52954c4b2719460c01b61594c565b61454167d135dfc55c7942f560c01b61594c565b8160028190555061455c678d8d1dd9eb22d66e60c01b61594c565b614570671a0754356f2e39b860c01b61594c565b817fa0b1720fac15ab5b6e184fa4d22f43e0e2594ae0373a61a3fc48aefb84ab92f760405160405180910390a25050565b6145b56754e412e3e16f848e60c01b61594c565b7f589d473ba17c0f47d494622893831497bad25919b9afb8e33e9521b8963fccde6145df81615c4e565b6145f3672d5a9f664773f98f60c01b61594c565b614607673369bdbc5809748060c01b61594c565b8361461c672e85e28cc5f4596d60c01b61594c565b614630671a82d0e442f32a0f60c01b61594c565b61464467026c270049f1c1fa60c01b61594c565b614658678bb7535075f3dc9760c01b61594c565b600580549050811061469f576040517f08c379a000000000000000000000000000000000000000000000000000000000815260040161469690617d78565b60405180910390fd5b6146b36723858f71f2e63b0860c01b61594c565b6146c7676bfb6f57bde52c7860c01b61594c565b6146db67d8e8aa9e60173c3160c01b61594c565b6146ef67c7447fa1f8b5b93c60c01b61594c565b61470367140845187666f32560c01b61594c565b836005868154811061471857614717617e04565b5b906000526020600020906007020160050181905550614741675860bbef979651cd60c01b61594c565b826005868154811061475657614755617e04565b5b90600052602060002090600702016006018190555061477f6799f5891b79e98dc860c01b61594c565b614793672724bc13120ae45560c01b61594c565b8284867f30dffdedaa3e3b4849298233f7cd71d229956e875ab09270498c96b7cf9181fd60405160405180910390a45050505050565b6147dd67c22ef5f7c846cfc360c01b61594c565b7f589d473ba17c0f47d494622893831497bad25919b9afb8e33e9521b8963fccde61480781615c4e565b61481b67974d0b47148e6c8460c01b61594c565b61482f67ba5973602f4b98c660c01b61594c565b614843677043bf568075ee9660c01b61594c565b61485767d390fc699495395560c01b61594c565b61486b67591aa5eab2e0be9160c01b61594c565b600360019054906101000a900460ff166148ba576040517f08c379a00000000000000000000000000000000000000000000000000000000081526004016148b19061875f565b60405180910390fd5b6148ce67384fa6b5d955557e60c01b61594c565b6148e2670f30facc035d02e960c01b61594c565b6000600360016101000a81548160ff021916908315150217905550614911676ab00b6518b83af260c01b61594c565b6149256778eaebcfb72b1d0f60c01b61594c565b7fe72cb12952f056e3e7496019725f20a13108ca420f67f1ee9c9cdab73fb8ce8560405160405180910390a150565b61496867fdbda12d7194dcf660c01b61594c565b614970615977565b6149846767787bdb15fc9f3f60c01b61594c565b6149986702f341c2e90800cd60c01b61594c565b816149ad672e85e28cc5f4596d60c01b61594c565b6149c1671a82d0e442f32a0f60c01b61594c565b6149d567026c270049f1c1fa60c01b61594c565b6149e9678bb7535075f3dc9760c01b61594c565b6005805490508110614a30576040517f08c379a0000000000000000000000000000000000000000000000000000000008152600401614a2790617d78565b60405180910390fd5b614a446723858f71f2e63b0860c01b61594c565b614a58676bfb6f57bde52c7860c01b61594c565b614a6c67856a4f322df0a86660c01b61594c565b614a806753cc30961bb299a460c01b61594c565b614a946755ad3734813be3a160c01b61594c565b614aa8671d1b5a2277a0400460c01b61594c565b614abc67640606304172e29260c01b61594c565b60008303614aff576040517f08c379a0000000000000000000000000000000000000000000000000000000008152600401614af6906187cb565b60405180910390fd5b614b136713e4be5d3a38edf160c01b61594c565b614b2767b6412ed494f42adb60c01b61594c565b614b3b679556f0448ec13ac360c01b61594c565b600060058481548110614b5157614b50617e04565b5b90600052602060002090600702019050614b75671473605a0b8c9f3860c01b61594c565b614b8967e5b900bdc2ba88e060c01b61594c565b614b9d671dd12864363d908c60c01b61594c565b80600501548311614be3576040517f08c379a0000000000000000000000000000000000000000000000000000000008152600401614bda90618837565b60405180910390fd5b614bf76775c9b2909c99016960c01b61594c565b614c0b678520e4006be4d0a360c01b61594c565b614c1f6709a5b198c39705d660c01b61594c565b6000831115614cba57614c3c67c050bd0af01ec32660c01b61594c565b614c5067177c1e73e948ee2560c01b61594c565b614c64674c11b46e32e7cc3060c01b61594c565b614cb53330858460000160009054906101000a900473ffffffffffffffffffffffffffffffffffffffff1673ffffffffffffffffffffffffffffffffffffffff166164ef909392919063ffffffff16565b614ccf565b614cce673c221916c392bc3760c01b61594c565b5b614ce36748c8f09df6513bdd60c01b61594c565b614cf767534013eae3cf9ff160c01b61594c565b614d018484616544565b50505050565b6000614d1d67be6a40900027703f60c01b61594c565b82614d32672e85e28cc5f4596d60c01b61594c565b614d46671a82d0e442f32a0f60c01b61594c565b614d5a67026c270049f1c1fa60c01b61594c565b614d6e678bb7535075f3dc9760c01b61594c565b6005805490508110614db5576040517f08c379a0000000000000000000000000000000000000000000000000000000008152600401614dac90617d78565b60405180910390fd5b614dc96723858f71f2e63b0860c01b61594c565b614ddd676bfb6f57bde52c7860c01b61594c565b614df167c4e5a88fde47853160c01b61594c565b614e0567a3f945c19485eb1060c01b61594c565b614e1967989f5628d037579b60c01b61594c565b614e2d67b0d0b9a99cf6358560c01b61594c565b614e38848443612bf1565b91505092915050565b614e5567e107538a0670cfbe60c01b61594c565b7f589d473ba17c0f47d494622893831497bad25919b9afb8e33e9521b8963fccde614e7f81615c4e565b614e93674e86494e6916231260c01b61594c565b614ea7671f67c8982076a12860c01b61594c565b614ebb6730b48aea07e5c25360c01b61594c565b614ecf6727c4db4d651c734560c01b61594c565b614ee367bcce15096e99f10760c01b61594c565b600154821115614f28576040517f08c379a0000000000000000000000000000000000000000000000000000000008152600401614f1f90618687565b60405180910390fd5b614f3c6772a4b4df1176581860c01b61594c565b614f5067c4ce7ea86f01395160c01b61594c565b81600081905550614f6b67150686cec9d361c960c01b61594c565b614f7f676999aabe19d4598f60c01b61594c565b817f63b90b79f11a0f132bcb2c4a4ddd44abda45c1308a83b2919318df7f5f8b7be460405160405180910390a25050565b614fc46797373d2c7def832960c01b61594c565b614fcc615977565b614fe06711a1a763d5a9e7dc60c01b61594c565b614ff467a5acbd660dccbf3960c01b61594c565b61500867dc5724be1671186c60c01b61594c565b61501c67fc96a29c83316f9360c01b61594c565b6000600560008154811061503357615032617e04565b5b90600052602060002090600702019050615057671216d85a29f9e12860c01b61594c565b61506b67832ca2ff26da04bf60c01b61594c565b61507f6765d2da5459c83a6460c01b61594c565b600073ffffffffffffffffffffffffffffffffffffffff168160000160009054906101000a900473ffffffffffffffffffffffffffffffffffffffff1673ffffffffffffffffffffffffffffffffffffffff1614615112576040517f08c379a00000000000000000000000000000000000000000000000000000000081526004016151099061851d565b60405180910390fd5b61512667050ba51bc0217d1460c01b61594c565b61513a67661f0850b0869c0660c01b61594c565b61514e67590a915c567b2cd760c01b61594c565b600034905061516767d2379e1d5a54466a60c01b61594c565b61517b67237ad7d7e426add060c01b61594c565b61518f67456feaa1d91a1a9160c01b61594c565b81600501548110156151d6576040517f08c379a00000000000000000000000000000000000000000000000000000000081526004016151cd90618837565b60405180910390fd5b6151ea67b12ed9989949a5dd60c01b61594c565b6151fe671c4330cf8d843a3660c01b61594c565b61521267695781b7e575f26f60c01b61594c565b61521d600082616544565b5050565b61523567fe19481384abc22460c01b61594c565b7f589d473ba17c0f47d494622893831497bad25919b9afb8e33e9521b8963fccde61525f81615c4e565b615273675015d6f1622b3d3c60c01b61594c565b6152876753d6032e1cced98960c01b61594c565b8361529c672e85e28cc5f4596d60c01b61594c565b6152b0671a82d0e442f32a0f60c01b61594c565b6152c467026c270049f1c1fa60c01b61594c565b6152d8678bb7535075f3dc9760c01b61594c565b600580549050811061531f576040517f08c379a000000000000000000000000000000000000000000000000000000000815260040161531690617d78565b60405180910390fd5b6153336723858f71f2e63b0860c01b61594c565b615347676bfb6f57bde52c7860c01b61594c565b61535b6777d28e90c2326edc60c01b61594c565b61536f67f30cf133f482324160c01b61594c565b615383672f4f4a701b184bb460c01b61594c565b61539767015268d4f9bf1e7460c01b61594c565b6153ab6770dcbab30779ccd660c01b61594c565b600084116153ee576040517f08c379a00000000000000000000000000000000000000000000000000000000081526004016153e5906188a3565b60405180910390fd5b6154026799eb189e6dac45f160c01b61594c565b6154166748319593240ea69660c01b61594c565b61542a67bc71c6230a2ffcc160c01b61594c565b82156154795761544467a061bd68d05a737160c01b61594c565b61545867b86f89c72a2281e360c01b61594c565b61546c67a3ad2db6e0edf0ab60c01b61594c565b615474612b36565b61548e565b61548d6797193d524907df7b60c01b61594c565b5b6154a267091f67521d19617460c01b61594c565b83600586815481106154b7576154b6617e04565b5b9060005260206000209060070201600101546004546154d69190617ede565b6154e09190617e62565b6004819055506154fa675ddd91f741c69d7460c01b61594c565b836005868154811061550f5761550e617e04565b5b906000526020600020906007020160010181905550615538679781d362dc95d89460c01b61594c565b61554c67bb501b899133610260c01b61594c565b83857f4b8fa3d6a87cb21d1bf4978bf60628ae358a28ac7f39de1751a481c6dd95761760045460405161557f9190617500565b60405180910390a35050505050565b6005818154811061559e57600080fd5b90600052602060002090600702016000915090508060000160009054906101000a900473ffffffffffffffffffffffffffffffffffffffff16908060010154908060020154908060030154908060040154908060050154908060060154905087565b60008061561767e68b2888a4fa2a0160c01b61594c565b8361562c672e85e28cc5f4596d60c01b61594c565b615640671a82d0e442f32a0f60c01b61594c565b61565467026c270049f1c1fa60c01b61594c565b615668678bb7535075f3dc9760c01b61594c565b60058054905081106156af576040517f08c379a00000000000000000000000000000000000000000000000000000000081526004016156a690617d78565b60405180910390fd5b6156c36723858f71f2e63b0860c01b61594c565b6156d7676bfb6f57bde52c7860c01b61594c565b6156eb67be9fd379411952d260c01b61594c565b6156ff67e4941105919e86bb60c01b61594c565b615713673a54d2c9ebec173f60c01b61594c565b6157276783cb4f360c31f70460c01b61594c565b60006006600087815260200190815260200160002060008673ffffffffffffffffffffffffffffffffffffffff1673ffffffffffffffffffffffffffffffffffffffff168152602001908152602001600020905061578f677033d0ffa9954cbb60c01b61594c565b6157a3678ee5b05e884d561760c01b61594c565b60005b81600301805490508110156158d8576157c967ea0a954963461d1160c01b61594c565b6157dd677ac199a9b70a8b3660c01b61594c565b438260030182815481106157f4576157f3617e04565b5b9060005260206000209060020201600101541161586d5761581f67906aee451a65fa3360c01b61594c565b61583367ac9348244efdd3fb60c01b61594c565b81600301818154811061584957615848617e04565b5b906000526020600020906002020160000154846158669190617e62565b9350615882565b61588167031a39b7eb7c659c60c01b61594c565b5b615896674d5757d46ff394ba60c01b61594c565b8160030181815481106158ac576158ab617e04565b5b906000526020600020906002020160000154856158c99190617e62565b945080806001019150506157a6565b5050509250929050565b60007f01ffc9a7000000000000000000000000000000000000000000000000000000007bffffffffffffffffffffffffffffffffffffffffffffffffffffffff1916827bffffffffffffffffffffffffffffffffffffffffffffffffffffffff1916149050919050565b50565b60007f02dd7bc7dec4dceedda775e58dd541e08a116c6c53815c0bd028192f7b626800905090565b61597f612839565b156159b6576040517fd93c066500000000000000000000000000000000000000000000000000000000815260040160405180910390fd5b565b6159cc674a8584b241d6b90960c01b61594c565b6159e06720087974cf06f17d60c01b61594c565b6159f4670a347c246f99a99a60c01b61594c565b6000808373ffffffffffffffffffffffffffffffffffffffff1683604051615a1b906188f4565b60006040518083038185875af1925050503d8060008114615a58576040519150601f19603f3d011682016040523d82523d6000602084013e615a5d565b606091505b5091509150615a76676e52c7945c1c74d060c01b61594c565b615a8a67135a86b0363d1cfe60c01b61594c565b615a9e673e2cb21675fa5ff560c01b61594c565b81615ade576040517f08c379a0000000000000000000000000000000000000000000000000000000008152600401615ad590618955565b60405180910390fd5b615af2675c8a08b3297fc50360c01b61594c565b615b0667747925a3e5fb377860c01b61594c565b615b1a6740d934609b0e1a1e60c01b61594c565b600081511115615be057615b3867bf8cb55f07920d8460c01b61594c565b615b4c67a9bcb8dcaeabf4e960c01b61594c565b615b6067cfe3170a77fbd20e60c01b61594c565b615b74672fa315279500f30860c01b61594c565b80806020019051810190615b88919061898a565b615bc7576040517f08c379a0000000000000000000000000000000000000000000000000000000008152600401615bbe90618a29565b60405180910390fd5b615bdb67d293a41c9d9be8bb60c01b61594c565b615bf5565b615bf467c63093bd96732e9760c01b61594c565b5b50505050565b615c088383836001616f0b565b615c4957826040517f5274afe7000000000000000000000000000000000000000000000000000000008152600401615c409190618a49565b60405180910390fd5b505050565b615c5f81615c5a615d63565b616f75565b50565b600080615c6d61594f565b9050615c7984846134a1565b615d5757600181600001600086815260200190815260200160002060000160008573ffffffffffffffffffffffffffffffffffffffff1673ffffffffffffffffffffffffffffffffffffffff16815260200190815260200160002060006101000a81548160ff021916908315150217905550615cf3615d63565b73ffffffffffffffffffffffffffffffffffffffff168373ffffffffffffffffffffffffffffffffffffffff16857f2f8788117e7eff1d82e926ec794901d17c78024a50270940304540a733656f0d60405160405180910390a46001915050615d5d565b60009150505b92915050565b600033905090565b600080615d7661594f565b9050615d8284846134a1565b15615e6157600081600001600086815260200190815260200160002060000160008573ffffffffffffffffffffffffffffffffffffffff1673ffffffffffffffffffffffffffffffffffffffff16815260200190815260200160002060006101000a81548160ff021916908315150217905550615dfd615d63565b73ffffffffffffffffffffffffffffffffffffffff168373ffffffffffffffffffffffffffffffffffffffff16857ff6391f5c32d9c69d2a47ea670b442974b53935d1edc7fd64eb21e047a839171b60405160405180910390a46001915050615e67565b60009150505b92915050565b615e81679f241335964b5aa660c01b61594c565b615e9567d6c9cd6424f3702760c01b61594c565b615ea967042589364767fb8660c01b61594c565b6000600360029054906101000a900473ffffffffffffffffffffffffffffffffffffffff1673ffffffffffffffffffffffffffffffffffffffff166370a08231306040518263ffffffff1660e01b8152600401615f069190618a49565b602060405180830381865afa158015615f23573d6000803e3d6000fd5b505050506040513d601f19601f82011682018060405250810190615f479190618a79565b9050615f5d67df8e7061b4bbdce760c01b61594c565b615f7167fdb46f4b599468c660c01b61594c565b8082111561605b57615f8d67f8081ee7615df92d60c01b61594c565b615fa167fcf78f66f49acbc960c01b61594c565b615fb5671343e1010a46f94f60c01b61594c565b600360029054906101000a900473ffffffffffffffffffffffffffffffffffffffff1673ffffffffffffffffffffffffffffffffffffffff1663a9059cbb84836040518363ffffffff1660e01b8152600401616012929190618aa6565b6020604051808303816000875af1158015616031573d6000803e3d6000fd5b505050506040513d601f19601f82011682018060405250810190616055919061898a565b50616139565b61606f67bdc5e4c2498a4f3860c01b61594c565b616083674162f840759c098b60c01b61594c565b6160976724f4c9baf7d82d5d60c01b61594c565b600360029054906101000a900473ffffffffffffffffffffffffffffffffffffffff1673ffffffffffffffffffffffffffffffffffffffff1663a9059cbb84846040518363ffffffff1660e01b81526004016160f4929190618aa6565b6020604051808303816000875af1158015616113573d6000803e3d6000fd5b505050506040513d601f19601f82011682018060405250810190616137919061898a565b505b505050565b600080616149616fc6565b90508091505090565b61615a616ff1565b565b7f000000000000000000000000000000000000000000000000000000000000000073ffffffffffffffffffffffffffffffffffffffff163073ffffffffffffffffffffffffffffffffffffffff16148061620957507f000000000000000000000000000000000000000000000000000000000000000073ffffffffffffffffffffffffffffffffffffffff166161f0617031565b73ffffffffffffffffffffffffffffffffffffffff1614155b15616240576040517fe07c8dba00000000000000000000000000000000000000000000000000000000815260040160405180910390fd5b565b61625667e0c48e38e475f5cc60c01b61594c565b7fcab03bc4dbcc648cd59d6bbe9f848d1e9092f914016aa290ee92e18700d1e6f961628081615c4e565b61629467f01f865114908a5860c01b61594c565b6162a867120674665131677f60c01b61594c565b5050565b8173ffffffffffffffffffffffffffffffffffffffff166352d1902d6040518163ffffffff1660e01b8152600401602060405180830381865afa92505050801561631457506040513d601f19601f820116820180604052508101906163119190618ae4565b60015b61635557816040517f4c9c8ce300000000000000000000000000000000000000000000000000000000815260040161634c9190618a49565b60405180910390fd5b7f360894a13ba1a3210667c828492db98dca3e2076cc3735a920a3ca505d382bbc60001b81146163bc57806040517faa1d49a40000000000000000000000000000000000000000000000000000000081526004016163b39190617657565b60405180910390fd5b6163c68383617088565b505050565b60008060008385029050841584868304141792506163e8836170fb565b81029150509250929050565b60008060008311915082840490509250929050565b60008060008385019050848110159250616422836170fb565b81029150509250929050565b7f000000000000000000000000000000000000000000000000000000000000000073ffffffffffffffffffffffffffffffffffffffff163073ffffffffffffffffffffffffffffffffffffffff16146164b3576040517fe07c8dba00000000000000000000000000000000000000000000000000000000815260040160405180910390fd5b565b60007fcd5ed15c6e187e77e9aee88184c21f4f2182ab5827cb3b7e07fbedcd63f03300905090565b6000919050565b600060019050919050565b6164fd848484846001617107565b61653e57836040517f5274afe70000000000000000000000000000000000000000000000000000000081526004016165359190618a49565b60405180910390fd5b50505050565b6165586738bdb32e1d771fbe60c01b61594c565b61656c6708db0a6b06fb368060c01b61594c565b6165806775fe994536a24f8960c01b61594c565b60006005838154811061659657616595617e04565b5b906000526020600020906007020190506165ba670c6c911d32f65cc360c01b61594c565b6165ce670a617b67bd00da0660c01b61594c565b60006006600085815260200190815260200160002060003373ffffffffffffffffffffffffffffffffffffffff1673ffffffffffffffffffffffffffffffffffffffff16815260200190815260200160002090506166366753ed0804c0faa9a960c01b61594c565b61664a67558b8e679a51ff3260c01b61594c565b61665384611f59565b616667670e5bc521f25adff460c01b61594c565b61667b6771f5a0661b4db75560c01b61594c565b600081600001541115616a705761669c67a8b001524af597c760c01b61594c565b6166b06741bfda709aed2cc360c01b61594c565b6166c4674589c3bb3bd4787960c01b61594c565b6000806166e2846003015484600001546163cb90919063ffffffff16565b915091506166fa674fc0bc2d36d8e1cc60c01b61594c565b61670e67753410f9eec7ed8c60c01b61594c565b616722671bb537fe674ac16660c01b61594c565b81616762576040517f08c379a000000000000000000000000000000000000000000000000000000000815260040161675990618b83565b60405180910390fd5b616776678718b8d7e304ab3560c01b61594c565b61678a67d540f58c8d531f4460c01b61594c565b6167a5670de0b6b3a7640000826163f490919063ffffffff16565b80925081935050506167c167319623c34f045bbe60c01b61594c565b6167d567133face2f1dd6ad060c01b61594c565b6167e96725433312c2e56bb760c01b61594c565b81616829576040517f08c379a000000000000000000000000000000000000000000000000000000000815260040161682090618bef565b60405180910390fd5b61683d6752db600ed653be5860c01b61594c565b616851672872d5924f3da49060c01b61594c565b61686567da120f69f7b4105660c01b61594c565b60008061687f85600101548461718290919063ffffffff16565b9150915061689767e89f0ca772a390f460c01b61594c565b6168ab6796cadfe6946e056660c01b61594c565b6168bf67de8cfdf463b75a7460c01b61594c565b816168ff576040517f08c379a00000000000000000000000000000000000000000000000000000000081526004016168f690618c81565b60405180910390fd5b61691367bbb92eb924b6c2af60c01b61594c565b6169276762cb68f8c2a42b1760c01b61594c565b61693b67e792de6f6463510760c01b61594c565b6000811115616a525761695867fe740cb5d6eba2ed60c01b61594c565b61696c674ae51056c66057f760c01b61594c565b616980674eb138d48897aba160c01b61594c565b60008061699a83886002015461640990919063ffffffff16565b915091506169b2679c2c8e8af0db433060c01b61594c565b6169c6679b58d896fc407d7560c01b61594c565b6169da67d100d79b2dce178f60c01b61594c565b81616a1a576040517f08c379a0000000000000000000000000000000000000000000000000000000008152600401616a1190618ced565b60405180910390fd5b616a2e67c929c5c7a0ba0d3e60c01b61594c565b616a4267fb1e89dce4aaf3b960c01b61594c565b8087600201819055505050616a67565b616a6667f9a4d79f7d93161c60c01b61594c565b5b50505050616a85565b616a8467fbf64c4cd6e30bcd60c01b61594c565b5b616a996792b16c2fda523f6560c01b61594c565b616aad67e8b06cfce39c789d60c01b61594c565b6000831115616bc457616aca67ee2bea8c73e6478d60c01b61594c565b616ade6767bab15db1ff4e5560c01b61594c565b616af267bea0dfa0e72a00a260c01b61594c565b600080616b0c85846000015461640990919063ffffffff16565b91509150616b246743880623dc028e9260c01b61594c565b616b3867f58218ba4255f71360c01b61594c565b616b4c67a0d2f18382b1054860c01b61594c565b81616b8c576040517f08c379a0000000000000000000000000000000000000000000000000000000008152600401616b8390618d59565b60405180910390fd5b616ba067b9013183601790c860c01b61594c565b616bb467fed736eab29a74a160c01b61594c565b8083600001819055505050616bd9565b616bd8677898f8f9ec423f8360c01b61594c565b5b616bed67eac619851ec6964760c01b61594c565b616c0167a61331d4529383c860c01b61594c565b600080616c1b85856004015461640990919063ffffffff16565b91509150616c3367e00ea37d176cc94460c01b61594c565b616c476730058d306ccacec260c01b61594c565b616c5b671257829c7e0dee3560c01b61594c565b81616c9b576040517f08c379a0000000000000000000000000000000000000000000000000000000008152600401616c9290618dc5565b60405180910390fd5b616caf67c66200f01d4729df60c01b61594c565b616cc3676de6bad1b7569d2f60c01b61594c565b808460040181905550616ce067aa4ddb2b926a732760c01b61594c565b616cf4676db454055c095bf060c01b61594c565b600080616d12866003015486600001546163cb90919063ffffffff16565b91509150616d2a672921f2a2d0d7dc9c60c01b61594c565b616d3e679cb32cae1a60724c60c01b61594c565b616d526703f5be25134beed560c01b61594c565b81616d92576040517f08c379a0000000000000000000000000000000000000000000000000000000008152600401616d8990618b83565b60405180910390fd5b616da667b8e9be1e135fc5aa60c01b61594c565b616dba67cb3fda5873617da760c01b61594c565b616dd5670de0b6b3a7640000826163f490919063ffffffff16565b8092508193505050616df16735686deef60aa94960c01b61594c565b616e0567777990e0d7bc050960c01b61594c565b616e1967f66066dbe99965fc60c01b61594c565b81616e59576040517f08c379a0000000000000000000000000000000000000000000000000000000008152600401616e5090618e57565b60405180910390fd5b616e6d678be69a5ff476a84f60c01b61594c565b616e8167c7caf91a24923cae60c01b61594c565b808560010181905550616e9e679611c563c180f36360c01b61594c565b616eb267ef0c101f193b11b960c01b61594c565b873373ffffffffffffffffffffffffffffffffffffffff167f90890809c654f11d6e72a28fa60149770a0d11ec6c92319d6ceb2bb0a4ea1a1589604051616ef99190617500565b60405180910390a35050505050505050565b60008063a9059cbb60e01b90506040518160005260001960601c8616600452846024526020600060446000808b5af192506001600051148316616f67578383151615616f5a573d6000823e3d81fd5b6000873b113d1516831692505b806040525050949350505050565b616f7f82826134a1565b616fc25780826040517fe2517d3f000000000000000000000000000000000000000000000000000000008152600401616fb9929190618e77565b60405180910390fd5b5050565b60007ff0c57e16840df040f15088dc2f81fe391c3923bec73e23a9662efc9c229c6a0060001b905090565b616ff96171a7565b61702f576040517fd7e6bcf800000000000000000000000000000000000000000000000000000000815260040160405180910390fd5b565b600061705f7f360894a13ba1a3210667c828492db98dca3e2076cc3735a920a3ca505d382bbc60001b6171c7565b60000160009054906101000a900473ffffffffffffffffffffffffffffffffffffffff16905090565b617091826171d1565b8173ffffffffffffffffffffffffffffffffffffffff167fbc7cd75a20ee27fd9adebab32041f755214dbc6bffa90cc0225b39da2e5c2d3b60405160405180910390a26000815111156170ee576170e8828261729e565b506170f7565b6170f6617393565b5b5050565b60008115159050919050565b6000806323b872dd60e01b90506040518160005260001960601c871660045260001960601c8616602452846044526020600060646000808c5af19250600160005114831661716e578383151615617161573d6000823e3d81fd5b6000883b113d1516831692505b806040526000606052505095945050505050565b6000806000838503905084811115925061719b836170fb565b81029150509250929050565b60006171b161613e565b60000160089054906101000a900460ff16905090565b6000819050919050565b60008173ffffffffffffffffffffffffffffffffffffffff163b0361722d57806040517f4c9c8ce30000000000000000000000000000000000000000000000000000000081526004016172249190618a49565b60405180910390fd5b8061725a7f360894a13ba1a3210667c828492db98dca3e2076cc3735a920a3ca505d382bbc60001b6171c7565b60000160006101000a81548173ffffffffffffffffffffffffffffffffffffffff021916908373ffffffffffffffffffffffffffffffffffffffff16021790555050565b606060006172ac84846173d0565b90508080156172e4575060006172c06173e6565b11806172e3575060008473ffffffffffffffffffffffffffffffffffffffff163b115b5b156172f9576172f16173ee565b91505061738d565b801561733c57836040517f9996b3150000000000000000000000000000000000000000000000000000000081526004016173339190618a49565b60405180910390fd5b60006173466173e6565b11156173595761735461740c565b61738b565b6040517fd6bda27500000000000000000000000000000000000000000000000000000000815260040160405180910390fd5b505b92915050565b60003411156173ce576040517fb398979f00000000000000000000000000000000000000000000000000000000815260040160405180910390fd5b565b6000806000835160208501865af4905092915050565b60003d905090565b606060405190503d81523d6000602083013e3d602001810160405290565b6040513d6000823e3d81fd5b6000604051905090565b600080fd5b600080fd5b60007fffffffff0000000000000000000000000000000000000000000000000000000082169050919050565b6174618161742c565b811461746c57600080fd5b50565b60008135905061747e81617458565b92915050565b60006020828403121561749a57617499617422565b5b60006174a88482850161746f565b91505092915050565b60008115159050919050565b6174c6816174b1565b82525050565b60006020820190506174e160008301846174bd565b92915050565b6000819050919050565b6174fa816174e7565b82525050565b600060208201905061751560008301846174f1565b92915050565b617524816174e7565b811461752f57600080fd5b50565b6000813590506175418161751b565b92915050565b600073ffffffffffffffffffffffffffffffffffffffff82169050919050565b600061757282617547565b9050919050565b61758281617567565b811461758d57600080fd5b50565b60008135905061759f81617579565b92915050565b600080604083850312156175bc576175bb617422565b5b60006175ca85828601617532565b92505060206175db85828601617590565b9150509250929050565b6000819050919050565b6175f8816175e5565b811461760357600080fd5b50565b600081359050617615816175ef565b92915050565b60006020828403121561763157617630617422565b5b600061763f84828501617606565b91505092915050565b617651816175e5565b82525050565b600060208201905061766c6000830184617648565b92915050565b60006020828403121561768857617687617422565b5b600061769684828501617532565b91505092915050565b600080604083850312156176b6576176b5617422565b5b60006176c485828601617606565b92505060206176d585828601617590565b9150509250929050565b60006060820190506176f460008301866174f1565b61770160208301856174f1565b61770e60408301846174f1565b949350505050565b600061772182617567565b9050919050565b61773181617716565b811461773c57600080fd5b50565b60008135905061774e81617728565b92915050565b6000806000806080858703121561776e5761776d617422565b5b600061777c8782880161773f565b945050602061778d87828801617532565b935050604061779e87828801617532565b92505060606177af87828801617532565b91505092959194509250565b600080fd5b600080fd5b6000601f19601f8301169050919050565b7f4e487b7100000000000000000000000000000000000000000000000000000000600052604160045260246000fd5b61780e826177c5565b810181811067ffffffffffffffff8211171561782d5761782c6177d6565b5b80604052505050565b6000617840617418565b905061784c8282617805565b919050565b600067ffffffffffffffff82111561786c5761786b6177d6565b5b617875826177c5565b9050602081019050919050565b82818337600083830152505050565b60006178a461789f84617851565b617836565b9050828152602081018484840111156178c0576178bf6177c0565b5b6178cb848285617882565b509392505050565b600082601f8301126178e8576178e76177bb565b5b81356178f8848260208601617891565b91505092915050565b6000806040838503121561791857617917617422565b5b600061792685828601617590565b925050602083013567ffffffffffffffff81111561794757617946617427565b5b617953858286016178d3565b9150509250929050565b60006020828403121561797357617972617422565b5b60006179818482850161773f565b91505092915050565b6000806000606084860312156179a3576179a2617422565b5b60006179b186828701617532565b93505060206179c286828701617590565b92505060406179d386828701617532565b9150509250925092565b600080604083850312156179f4576179f3617422565b5b6000617a0285828601617532565b9250506020617a1385828601617532565b9150509250929050565b600081519050919050565b600082825260208201905092915050565b60005b83811015617a57578082015181840152602081019050617a3c565b60008484015250505050565b6000617a6e82617a1d565b617a788185617a28565b9350617a88818560208601617a39565b617a91816177c5565b840191505092915050565b60006020820190508181036000830152617ab68184617a63565b905092915050565b617ac7816174b1565b8114617ad257600080fd5b50565b600081359050617ae481617abe565b92915050565b600080600080600060a08688031215617b0657617b05617422565b5b6000617b1488828901617590565b9550506020617b2588828901617532565b9450506040617b3688828901617532565b9350506060617b4788828901617532565b9250506080617b5888828901617ad5565b9150509295509295909350565b6000819050919050565b6000617b8a617b85617b8084617547565b617b65565b617547565b9050919050565b6000617b9c82617b6f565b9050919050565b6000617bae82617b91565b9050919050565b617bbe81617ba3565b82525050565b6000602082019050617bd96000830184617bb5565b92915050565b600080600060608486031215617bf857617bf7617422565b5b6000617c0686828701617532565b9350506020617c1786828701617532565b9250506040617c2886828701617532565b9150509250925092565b600080600060608486031215617c4b57617c4a617422565b5b6000617c5986828701617532565b9350506020617c6a86828701617532565b9250506040617c7b86828701617ad5565b9150509250925092565b617c8e81617567565b82525050565b600060e082019050617ca9600083018a617c85565b617cb660208301896174f1565b617cc360408301886174f1565b617cd060608301876174f1565b617cdd60808301866174f1565b617cea60a08301856174f1565b617cf760c08301846174f1565b98975050505050505050565b6000604082019050617d1860008301856174f1565b617d2560208301846174f1565b9392505050565b7f696e76616c696420706964000000000000000000000000000000000000000000600082015250565b6000617d62600b83617a28565b9150617d6d82617d2c565b602082019050919050565b60006020820190508181036000830152617d9181617d55565b9050919050565b7f7769746864726177206973207061757365640000000000000000000000000000600082015250565b6000617dce601283617a28565b9150617dd982617d98565b602082019050919050565b60006020820190508181036000830152617dfd81617dc1565b9050919050565b7f4e487b7100000000000000000000000000000000000000000000000000000000600052603260045260246000fd5b7f4e487b7100000000000000000000000000000000000000000000000000000000600052601160045260246000fd5b6000617e6d826174e7565b9150617e78836174e7565b9250828201905080821115617e9057617e8f617e33565b5b92915050565b6000617ea1826174e7565b91507fffffffffffffffffffffffffffffffffffffffffffffffffffffffffffffffff8203617ed357617ed2617e33565b5b600182019050919050565b6000617ee9826174e7565b9150617ef4836174e7565b9250828203905081811115617f0c57617f0b617e33565b5b92915050565b7f4e487b7100000000000000000000000000000000000000000000000000000000600052603160045260246000fd5b7f636c61696d206973207061757365640000000000000000000000000000000000600082015250565b6000617f77600f83617a28565b9150617f8282617f41565b602082019050919050565b60006020820190508181036000830152617fa681617f6a565b9050919050565b6000617fb8826174e7565b9150617fc3836174e7565b9250828202617fd1816174e7565b91508282048414831517617fe857617fe7617e33565b5b5092915050565b7f4e487b7100000000000000000000000000000000000000000000000000000000600052601260045260246000fd5b6000618029826174e7565b9150618034836174e7565b92508261804457618043617fef565b5b828204905092915050565b7f696e76616c696420706172616d65746572730000000000000000000000000000600082015250565b6000618085601283617a28565b91506180908261804f565b602082019050919050565b600060208201905081810360008301526180b481618078565b9050919050565b6000819050919050565b600067ffffffffffffffff82169050919050565b60006180f46180ef6180ea846180bb565b617b65565b6180c5565b9050919050565b618104816180d9565b82525050565b600060208201905061811f60008301846180fb565b92915050565b7f6f766572666c6f77000000000000000000000000000000000000000000000000600082015250565b600061815b600883617a28565b915061816682618125565b602082019050919050565b6000602082019050818103600083015261818a8161814e565b9050919050565b7f776974686472617720686173206265656e20616c726561647920756e7061757360008201527f6564000000000000000000000000000000000000000000000000000000000000602082015250565b60006181ed602283617a28565b91506181f882618191565b604082019050919050565b6000602082019050818103600083015261821c816181e0565b9050919050565b7f776974686472617720686173206265656e20616c726561647920706175736564600082015250565b6000618259602083617a28565b915061826482618223565b602082019050919050565b600060208201905081810360008301526182888161824c565b9050919050565b7f696e76616c696420626c6f636b00000000000000000000000000000000000000600082015250565b60006182c5600d83617a28565b91506182d08261828f565b602082019050919050565b600060208201905081810360008301526182f4816182b8565b9050919050565b7f656e6420626c6f636b206d7573742062652067726561746572207468616e207360008201527f7461727420626c6f636b00000000000000000000000000000000000000000000602082015250565b6000618357602a83617a28565b9150618362826182fb565b604082019050919050565b600060208201905081810360008301526183868161834a565b9050919050565b7f6d756c7469706c696572206f766572666c6f7700000000000000000000000000600082015250565b60006183c3601383617a28565b91506183ce8261838d565b602082019050919050565b600060208201905081810360008301526183f2816183b6565b9050919050565b7f636c61696d20686173206265656e20616c726561647920706175736564000000600082015250565b600061842f601d83617a28565b915061843a826183f9565b602082019050919050565b6000602082019050818103600083015261845e81618422565b9050919050565b7f4e6f7420656e6f756768207374616b696e6720746f6b656e2062616c616e6365600082015250565b600061849b602083617a28565b91506184a682618465565b602082019050919050565b600060208201905081810360008301526184ca8161848e565b9050919050565b7f696e76616c6964207374616b696e6720746f6b656e2061646472657373000000600082015250565b6000618507601d83617a28565b9150618512826184d1565b602082019050919050565b60006020820190508181036000830152618536816184fa565b9050919050565b7f696e76616c6964207769746864726177206c6f636b656420626c6f636b730000600082015250565b6000618573601e83617a28565b915061857e8261853d565b602082019050919050565b600060208201905081810360008301526185a281618566565b9050919050565b7f416c726561647920656e64656400000000000000000000000000000000000000600082015250565b60006185df600d83617a28565b91506185ea826185a9565b602082019050919050565b6000602082019050818103600083015261860e816185d2565b9050919050565b7f737461727420626c6f636b206d75737420626520736d616c6c6572207468616e60008201527f20656e6420626c6f636b00000000000000000000000000000000000000000000602082015250565b6000618671602a83617a28565b915061867c82618615565b604082019050919050565b600060208201905081810360008301526186a081618664565b9050919050565b7f696e76616c696420706172616d65746572000000000000000000000000000000600082015250565b60006186dd601183617a28565b91506186e8826186a7565b602082019050919050565b6000602082019050818103600083015261870c816186d0565b9050919050565b7f636c61696d20686173206265656e20616c726561647920756e70617573656400600082015250565b6000618749601f83617a28565b915061875482618713565b602082019050919050565b600060208201905081810360008301526187788161873c565b9050919050565b7f6465706f736974206e6f7420737570706f727420455448207374616b696e6700600082015250565b60006187b5601f83617a28565b91506187c08261877f565b602082019050919050565b600060208201905081810360008301526187e4816187a8565b9050919050565b7f6465706f73697420616d6f756e7420697320746f6f20736d616c6c0000000000600082015250565b6000618821601b83617a28565b915061882c826187eb565b602082019050919050565b6000602082019050818103600083015261885081618814565b9050919050565b7f696e76616c696420706f6f6c2077656967687400000000000000000000000000600082015250565b600061888d601383617a28565b915061889882618857565b602082019050919050565b600060208201905081810360008301526188bc81618880565b9050919050565b600081905092915050565b50565b60006188de6000836188c3565b91506188e9826188ce565b600082019050919050565b60006188ff826188d1565b9150819050919050565b7f455448207472616e736665722063616c6c206661696c65640000000000000000600082015250565b600061893f601883617a28565b915061894a82618909565b602082019050919050565b6000602082019050818103600083015261896e81618932565b9050919050565b60008151905061898481617abe565b92915050565b6000602082840312156189a05761899f617422565b5b60006189ae84828501618975565b91505092915050565b7f455448207472616e73666572206f7065726174696f6e20646964206e6f74207360008201527f7563636565640000000000000000000000000000000000000000000000000000602082015250565b6000618a13602683617a28565b9150618a1e826189b7565b604082019050919050565b60006020820190508181036000830152618a4281618a06565b9050919050565b6000602082019050618a5e6000830184617c85565b92915050565b600081519050618a738161751b565b92915050565b600060208284031215618a8f57618a8e617422565b5b6000618a9d84828501618a64565b91505092915050565b6000604082019050618abb6000830185617c85565b618ac860208301846174f1565b9392505050565b600081519050618ade816175ef565b92915050565b600060208284031215618afa57618af9617422565b5b6000618b0884828501618acf565b91505092915050565b7f75736572207374416d6f756e74206d756c206163634d6574614e6f646550657260008201527f5354206f766572666c6f77000000000000000000000000000000000000000000602082015250565b6000618b6d602b83617a28565b9150618b7882618b11565b604082019050919050565b60006020820190508181036000830152618b9c81618b60565b9050919050565b7f6163635354206469762031206574686572206f766572666c6f77000000000000600082015250565b6000618bd9601a83617a28565b9150618be482618ba3565b602082019050919050565b60006020820190508181036000830152618c0881618bcc565b9050919050565b7f6163635354207375622066696e69736865644d6574614e6f6465206f7665726660008201527f6c6f770000000000000000000000000000000000000000000000000000000000602082015250565b6000618c6b602383617a28565b9150618c7682618c0f565b604082019050919050565b60006020820190508181036000830152618c9a81618c5e565b9050919050565b7f757365722070656e64696e674d6574614e6f6465206f766572666c6f77000000600082015250565b6000618cd7601d83617a28565b9150618ce282618ca1565b602082019050919050565b60006020820190508181036000830152618d0681618cca565b9050919050565b7f75736572207374416d6f756e74206f766572666c6f7700000000000000000000600082015250565b6000618d43601683617a28565b9150618d4e82618d0d565b602082019050919050565b60006020820190508181036000830152618d7281618d36565b9050919050565b7f706f6f6c207374546f6b656e416d6f756e74206f766572666c6f770000000000600082015250565b6000618daf601b83617a28565b9150618dba82618d79565b602082019050919050565b60006020820190508181036000830152618dde81618da2565b9050919050565b7f66696e69736865644d6574614e6f6465206469762031206574686572206f766560008201527f72666c6f77000000000000000000000000000000000000000000000000000000602082015250565b6000618e41602583617a28565b9150618e4c82618de5565b604082019050919050565b60006020820190508181036000830152618e7081618e34565b9050919050565b6000604082019050618e8c6000830185617c85565b618e996020830184617648565b939250505056fea2646970667358221220937326434f4feff88f54502d8015fdc0fd81789d85955cb8c3403d7ccf2e2b1464736f6c63430008160033",
  "linkReferences": {},
  "deployedLinkReferences": {}
}