{"contracts/MetaNodeStake.sol":{"MetaNodeStake":{"abi":[{"inputs":[],"name":"AccessControlBadConfirmation","type":"error"},{"inputs":[{"internalType":"address","name":"account","type":"address"},{"internalType":"bytes32","name":"neededRole","type":"bytes32"}],"name":"AccessControlUnauthorizedAccount","type":"error"},{"inputs":[{"internalType":"address","name":"target","type":"address"}],"name":"AddressEmptyCode","type":"error"},{"inputs":[{"internalType":"address","name":"implementation","type":"address"}],"name":"ERC1967InvalidImplementation","type":"error"},{"inputs":[],"name":"ERC1967NonPayable","type":"error"},{"inputs":[],"name":"EnforcedPause","type":"error"},{"inputs":[],"name":"ExpectedPause","type":"error"},{"inputs":[],"name":"FailedCall","type":"error"},{"inputs":[],"name":"InvalidInitialization","type":"error"},{"inputs":[],"name":"NotInitializing","type":"error"},{"inputs":[{"internalType":"address","name":"token","type":"address"}],"name":"SafeERC20FailedOperation","type":"error"},{"inputs":[],"name":"UUPSUnauthorizedCallContext","type":"error"},{"inputs":[{"internalType":"bytes32","name":"slot","type":"bytes32"}],"name":"UUPSUnsupportedProxiableUUID","type":"error"},{"anonymous":false,"inputs":[{"indexed":true,"internalType":"address","name":"stTokenAddress","type":"address"},{"indexed":true,"internalType":"uint256","name":"poolWeight","type":"uint256"},{"indexed":true,"internalType":"uint256","name":"lastRewardBlock","type":"uint256"},{"indexed":false,"internalType":"uint256","name":"minDepositAmount","type":"uint256"},{"indexed":false,"internalType":"uint256","name":"unstakeLockedBlocks","type":"uint256"}],"name":"AddPool","type":"event"},{"anonymous":false,"inputs":[{"indexed":true,"internalType":"address","name":"user","type":"address"},{"indexed":true,"internalType":"uint256","name":"poolId","type":"uint256"},{"indexed":false,"internalType":"uint256","name":"MetaNodeReward","type":"uint256"}],"name":"Claim","type":"event"},{"anonymous":false,"inputs":[{"indexed":true,"internalType":"address","name":"user","type":"address"},{"indexed":true,"internalType":"uint256","name":"poolId","type":"uint256"},{"indexed":false,"internalType":"uint256","name":"amount","type":"uint256"}],"name":"Deposit","type":"event"},{"anonymous":false,"inputs":[{"indexed":false,"internalType":"uint64","name":"version","type":"uint64"}],"name":"Initialized","type":"event"},{"anonymous":false,"inputs":[],"name":"PauseClaim","type":"event"},{"anonymous":false,"inputs":[],"name":"PauseWithdraw","type":"event"},{"anonymous":false,"inputs":[{"indexed":false,"internalType":"address","name":"account","type":"address"}],"name":"Paused","type":"event"},{"anonymous":false,"inputs":[{"indexed":true,"internalType":"address","name":"user","type":"address"},{"indexed":true,"internalType":"uint256","name":"poolId","type":"uint256"},{"indexed":false,"internalType":"uint256","name":"amount","type":"uint256"}],"name":"RequestUnstake","type":"event"},{"anonymous":false,"inputs":[{"indexed":true,"internalType":"bytes32","name":"role","type":"bytes32"},{"indexed":true,"internalType":"bytes32","name":"previousAdminRole","type":"bytes32"},{"indexed":true,"internalType":"bytes32","name":"newAdminRole","type":"bytes32"}],"name":"RoleAdminChanged","type":"event"},{"anonymous":false,"inputs":[{"indexed":true,"internalType":"bytes32","name":"role","type":"bytes32"},{"indexed":true,"internalType":"address","name":"account","type":"address"},{"indexed":true,"internalType":"address","name":"sender","type":"address"}],"name":"RoleGranted","type":"event"},{"anonymous":false,"inputs":[{"indexed":true,"internalType":"bytes32","name":"role","type":"bytes32"},{"indexed":true,"internalType":"address","name":"account","type":"address"},{"indexed":true,"internalType":"address","name":"sender","type":"address"}],"name":"RoleRevoked","type":"event"},{"anonymous":false,"inputs":[{"indexed":true,"internalType":"uint256","name":"endBlock","type":"uint256"}],"name":"SetEndBlock","type":"event"},{"anonymous":false,"inputs":[{"indexed":true,"internalType":"contract IERC20","name":"MetaNode","type":"address"}],"name":"SetMetaNode","type":"event"},{"anonymous":false,"inputs":[{"indexed":true,"internalType":"uint256","name":"MetaNodePerBlock","type":"uint256"}],"name":"SetMetaNodePerBlock","type":"event"},{"anonymous":false,"inputs":[{"indexed":true,"internalType":"uint256","name":"poolId","type":"uint256"},{"indexed":true,"internalType":"uint256","name":"poolWeight","type":"uint256"},{"indexed":false,"internalType":"uint256","name":"totalPoolWeight","type":"uint256"}],"name":"SetPoolWeight","type":"event"},{"anonymous":false,"inputs":[{"indexed":true,"internalType":"uint256","name":"startBlock","type":"uint256"}],"name":"SetStartBlock","type":"event"},{"anonymous":false,"inputs":[],"name":"UnpauseClaim","type":"event"},{"anonymous":false,"inputs":[],"name":"UnpauseWithdraw","type":"event"},{"anonymous":false,"inputs":[{"indexed":false,"internalType":"address","name":"account","type":"address"}],"name":"Unpaused","type":"event"},{"anonymous":false,"inputs":[{"indexed":true,"internalType":"uint256","name":"poolId","type":"uint256"},{"indexed":true,"internalType":"uint256","name":"lastRewardBlock","type":"uint256"},{"indexed":false,"internalType":"uint256","name":"totalMetaNode","type":"uint256"}],"name":"UpdatePool","type":"event"},{"anonymous":false,"inputs":[{"indexed":true,"internalType":"uint256","name":"poolId","type":"uint256"},{"indexed":true,"internalType":"uint256","name":"minDepositAmount","type":"uint256"},{"indexed":true,"internalType":"uint256","name":"unstakeLockedBlocks","type":"uint256"}],"name":"UpdatePoolInfo","type":"event"},{"anonymous":false,"inputs":[{"indexed":true,"internalType":"address","name":"implementation","type":"address"}],"name":"Upgraded","type":"event"},{"anonymous":false,"inputs":[{"indexed":true,"internalType":"address","name":"user","type":"address"},{"indexed":true,"internalType":"uint256","name":"poolId","type":"uint256"},{"indexed":false,"internalType":"uint256","name":"amount","type":"uint256"},{"indexed":true,"internalType":"uint256","name":"blockNumber","type":"uint256"}],"name":"Withdraw","type":"event"},{"inputs":[],"name":"ADMIN_ROLE","outputs":[{"internalType":"bytes32","name":"","type":"bytes32"}],"stateMutability":"view","type":"function"},{"inputs":[],"name":"DEFAULT_ADMIN_ROLE","outputs":[{"internalType":"bytes32","name":"","type":"bytes32"}],"stateMutability":"view","type":"function"},{"inputs":[],"name":"ETH_PID","outputs":[{"internalType":"uint256","name":"","type":"uint256"}],"stateMutability":"view","type":"function"},{"inputs":[],"name":"MetaNode","outputs":[{"internalType":"contract IERC20","name":"","type":"address"}],"stateMutability":"view","type":"function"},{"inputs":[],"name":"MetaNodePerBlock","outputs":[{"internalType":"uint256","name":"","type":"uint256"}],"stateMutability":"view","type":"function"},{"inputs":[],"name":"UPGRADE_INTERFACE_VERSION","outputs":[{"internalType":"string","name":"","type":"string"}],"stateMutability":"view","type":"function"},{"inputs":[],"name":"UPGRADE_ROLE","outputs":[{"internalType":"bytes32","name":"","type":"bytes32"}],"stateMutability":"view","type":"function"},{"inputs":[{"internalType":"address","name":"_stTokenAddress","type":"address"},{"internalType":"uint256","name":"_poolWeight","type":"uint256"},{"internalType":"uint256","name":"_minDepositAmount","type":"uint256"},{"internalType":"uint256","name":"_unstakeLockedBlocks","type":"uint256"},{"internalType":"bool","name":"_withUpdate","type":"bool"}],"name":"addPool","outputs":[],"stateMutability":"nonpayable","type":"function"},{"inputs":[{"internalType":"uint256","name":"_pid","type":"uint256"}],"name":"claim","outputs":[],"stateMutability":"nonpayable","type":"function"},{"inputs":[],"name":"claimPaused","outputs":[{"internalType":"bool","name":"","type":"bool"}],"stateMutability":"view","type":"function"},{"inputs":[{"internalType":"uint256","name":"_pid","type":"uint256"},{"internalType":"uint256","name":"_amount","type":"uint256"}],"name":"deposit","outputs":[],"stateMutability":"nonpayable","type":"function"},{"inputs":[],"name":"depositETH","outputs":[],"stateMutability":"payable","type":"function"},{"inputs":[],"name":"endBlock","outputs":[{"internalType":"uint256","name":"","type":"uint256"}],"stateMutability":"view","type":"function"},{"inputs":[{"internalType":"uint256","name":"_from","type":"uint256"},{"internalType":"uint256","name":"_to","type":"uint256"}],"name":"getMultiplier","outputs":[{"internalType":"uint256","name":"multiplier","type":"uint256"}],"stateMutability":"view","type":"function"},{"inputs":[{"internalType":"bytes32","name":"role","type":"bytes32"}],"name":"getRoleAdmin","outputs":[{"internalType":"bytes32","name":"","type":"bytes32"}],"stateMutability":"view","type":"function"},{"inputs":[{"internalType":"bytes32","name":"role","type":"bytes32"},{"internalType":"address","name":"account","type":"address"}],"name":"grantRole","outputs":[],"stateMutability":"nonpayable","type":"function"},{"inputs":[{"internalType":"bytes32","name":"role","type":"bytes32"},{"internalType":"address","name":"account","type":"address"}],"name":"hasRole","outputs":[{"internalType":"bool","name":"","type":"bool"}],"stateMutability":"view","type":"function"},{"inputs":[{"internalType":"contract IERC20","name":"_MetaNode","type":"address"},{"internalType":"uint256","name":"_startBlock","type":"uint256"},{"internalType":"uint256","name":"_endBlock","type":"uint256"},{"internalType":"uint256","name":"_MetaNodePerBlock","type":"uint256"}],"name":"initialize","outputs":[],"stateMutability":"nonpayable","type":"function"},{"inputs":[],"name":"massUpdatePools","outputs":[],"stateMutability":"nonpayable","type":"function"},{"inputs":[],"name":"pauseClaim","outputs":[],"stateMutability":"nonpayable","type":"function"},{"inputs":[],"name":"pauseWithdraw","outputs":[],"stateMutability":"nonpayable","type":"function"},{"inputs":[],"name":"paused","outputs":[{"internalType":"bool","name":"","type":"bool"}],"stateMutability":"view","type":"function"},{"inputs":[{"internalType":"uint256","name":"_pid","type":"uint256"},{"internalType":"address","name":"_user","type":"address"}],"name":"pendingMetaNode","outputs":[{"internalType":"uint256","name":"","type":"uint256"}],"stateMutability":"view","type":"function"},{"inputs":[{"internalType":"uint256","name":"_pid","type":"uint256"},{"internalType":"address","name":"_user","type":"address"},{"internalType":"uint256","name":"_blockNumber","type":"uint256"}],"name":"pendingMetaNodeByBlockNumber","outputs":[{"internalType":"uint256","name":"","type":"uint256"}],"stateMutability":"view","type":"function"},{"inputs":[{"internalType":"uint256","name":"","type":"uint256"}],"name":"pool","outputs":[{"internalType":"address","name":"stTokenAddress","type":"address"},{"internalType":"uint256","name":"poolWeight","type":"uint256"},{"internalType":"uint256","name":"lastRewardBlock","type":"uint256"},{"internalType":"uint256","name":"accMetaNodePerST","type":"uint256"},{"internalType":"uint256","name":"stTokenAmount","type":"uint256"},{"internalType":"uint256","name":"minDepositAmount","type":"uint256"},{"internalType":"uint256","name":"unstakeLockedBlocks","type":"uint256"}],"stateMutability":"view","type":"function"},{"inputs":[],"name":"poolLength","outputs":[{"internalType":"uint256","name":"","type":"uint256"}],"stateMutability":"view","type":"function"},{"inputs":[],"name":"proxiableUUID","outputs":[{"internalType":"bytes32","name":"","type":"bytes32"}],"stateMutability":"view","type":"function"},{"inputs":[{"internalType":"bytes32","name":"role","type":"bytes32"},{"internalType":"address","name":"callerConfirmation","type":"address"}],"name":"renounceRole","outputs":[],"stateMutability":"nonpayable","type":"function"},{"inputs":[{"internalType":"bytes32","name":"role","type":"bytes32"},{"internalType":"address","name":"account","type":"address"}],"name":"revokeRole","outputs":[],"stateMutability":"nonpayable","type":"function"},{"inputs":[{"internalType":"uint256","name":"_endBlock","type":"uint256"}],"name":"setEndBlock","outputs":[],"stateMutability":"nonpayable","type":"function"},{"inputs":[{"internalType":"contract IERC20","name":"_MetaNode","type":"address"}],"name":"setMetaNode","outputs":[],"stateMutability":"nonpayable","type":"function"},{"inputs":[{"internalType":"uint256","name":"_MetaNodePerBlock","type":"uint256"}],"name":"setMetaNodePerBlock","outputs":[],"stateMutability":"nonpayable","type":"function"},{"inputs":[{"internalType":"uint256","name":"_pid","type":"uint256"},{"internalType":"uint256","name":"_poolWeight","type":"uint256"},{"internalType":"bool","name":"_withUpdate","type":"bool"}],"name":"setPoolWeight","outputs":[],"stateMutability":"nonpayable","type":"function"},{"inputs":[{"internalType":"uint256","name":"_startBlock","type":"uint256"}],"name":"setStartBlock","outputs":[],"stateMutability":"nonpayable","type":"function"},{"inputs":[{"internalType":"uint256","name":"_pid","type":"uint256"},{"internalType":"address","name":"_user","type":"address"}],"name":"stakingBalance","outputs":[{"internalType":"uint256","name":"","type":"uint256"}],"stateMutability":"view","type":"function"},{"inputs":[],"name":"startBlock","outputs":[{"internalType":"uint256","name":"","type":"uint256"}],"stateMutability":"view","type":"function"},{"inputs":[{"internalType":"bytes4","name":"interfaceId","type":"bytes4"}],"name":"supportsInterface","outputs":[{"internalType":"bool","name":"","type":"bool"}],"stateMutability":"view","type":"function"},{"inputs":[],"name":"totalPoolWeight","outputs":[{"internalType":"uint256","name":"","type":"uint256"}],"stateMutability":"view","type":"function"},{"inputs":[],"name":"unpauseClaim","outputs":[],"stateMutability":"nonpayable","type":"function"},{"inputs":[],"name":"unpauseWithdraw","outputs":[],"stateMutability":"nonpayable","type":"function"},{"inputs":[{"internalType":"uint256","name":"_pid","type":"uint256"},{"internalType":"uint256","name":"_amount","type":"uint256"}],"name":"unstake","outputs":[],"stateMutability":"nonpayable","type":"function"},{"inputs":[{"internalType":"uint256","name":"_pid","type":"uint256"}],"name":"updatePool","outputs":[],"stateMutability":"nonpayable","type":"function"},{"inputs":[{"internalType":"uint256","name":"_pid","type":"uint256"},{"internalType":"uint256","name":"_minDepositAmount","type":"uint256"},{"internalType":"uint256","name":"_unstakeLockedBlocks","type":"uint256"}],"name":"updatePool","outputs":[],"stateMutability":"nonpayable","type":"function"},{"inputs":[{"internalType":"address","name":"newImplementation","type":"address"},{"internalType":"bytes","name":"data","type":"bytes"}],"name":"upgradeToAndCall","outputs":[],"stateMutability":"payable","type":"function"},{"inputs":[{"internalType":"uint256","name":"","type":"uint256"},{"internalType":"address","name":"","type":"address"}],"name":"user","outputs":[{"internalType":"uint256","name":"stAmount","type":"uint256"},{"internalType":"uint256","name":"finishedMetaNode","type":"uint256"},{"internalType":"uint256","name":"pendingMetaNode","type":"uint256"}],"stateMutability":"view","type":"function"},{"inputs":[{"internalType":"uint256","name":"_pid","type":"uint256"}],"name":"withdraw","outputs":[],"stateMutability":"nonpayable","type":"function"},{"inputs":[{"internalType":"uint256","name":"_pid","type":"uint256"},{"internalType":"address","name":"_user","type":"address"}],"name":"withdrawAmount","outputs":[{"internalType":"uint256","name":"requestAmount","type":"uint256"},{"internalType":"uint256","name":"pendingWithdrawAmount","type":"uint256"}],"stateMutability":"view","type":"function"},{"inputs":[],"name":"withdrawPaused","outputs":[{"internalType":"bool","name":"","type":"bool"}],"stateMutability":"view","type":"function"}],"evm":{"bytecode":{"linkReferences":{},"object":"60a06040523073ffffffffffffffffffffffffffffffffffffffff1660809073ffffffffffffffffffffffffffffffffffffffff1681525034801561004357600080fd5b50608051615dd76200006e600039600081816136480152818161369d01526138de0152615dd76000f3fe6080604052600436106102935760003560e01c80638dbb1e3a1161015a578063d22f1d80116100c1578063ea5c219d1161007a578063ea5c219d14610997578063f35e4a6e146109d4578063f6326fb3146109fd578063fad07ece14610a07578063fe31311214610a30578063ff42335714610a7357610293565b8063d22f1d80146108b1578063d547741f146108dc578063d7bc176914610905578063d86c04441461092e578063de065caa14610957578063e2bbb1581461096e57610293565b8063ab5e124a11610113578063ab5e124a146107b3578063ad3cb1cc146107de578063b6d9d91914610809578063b908afa814610832578063bfc3ebba1461085d578063c713aa941461088857610293565b80638dbb1e3a146106a35780638ff095f9146106e057806391d14854146106f75780639e2c8a5b146107345780639ea96e661461075d578063a217fddf1461078857610293565b806348cd4cb1116101fe5780635c975abb116101b75780635c975abb146105b95780636155e3de146105e457806361a9a03d146105fb578063630b5ba1146106245780636325d5bc1461063b57806375b238fc1461067857610293565b806348cd4cb1146104de5780634ec81af1146105095780634f1ef2861461053257806351eb05a61461054e57806352d1902d146105775780635bb6d007146105a257610293565b80632e1a7d4d116102505780632e1a7d4d146103d05780632f2ff15d146103f95780632f3ffb9f1461042257806336568abe1461044d57806337849b3c14610476578063379607f5146104b557610293565b806301ffc9a71461029857806302559004146102d5578063081e3eda14610300578063083c63231461032b5780631154823414610356578063248a9ca314610393575b600080fd5b3480156102a457600080fd5b506102bf60048036038101906102ba9190614385565b610ab1565b6040516102cc91906143cd565b60405180910390f35b3480156102e157600080fd5b506102ea610b2b565b6040516102f79190614401565b60405180910390f35b34801561030c57600080fd5b50610315610b31565b6040516103229190614401565b60405180910390f35b34801561033757600080fd5b50610340610b3e565b60405161034d9190614401565b60405180910390f35b34801561036257600080fd5b5061037d600480360381019061037891906144a6565b610b44565b60405161038a9190614401565b60405180910390f35b34801561039f57600080fd5b506103ba60048036038101906103b5919061451c565b610beb565b6040516103c79190614558565b60405180910390f35b3480156103dc57600080fd5b506103f760048036038101906103f29190614573565b610c19565b005b34801561040557600080fd5b50610420600480360381019061041b91906145a0565b610fcb565b005b34801561042e57600080fd5b50610437610fed565b60405161044491906143cd565b60405180910390f35b34801561045957600080fd5b50610474600480360381019061046f91906145a0565b611000565b005b34801561048257600080fd5b5061049d600480360381019061049891906144a6565b61107b565b6040516104ac939291906145e0565b60405180910390f35b3480156104c157600080fd5b506104dc60048036038101906104d79190614573565b6110b2565b005b3480156104ea57600080fd5b506104f36112c1565b6040516105009190614401565b60405180910390f35b34801561051557600080fd5b50610530600480360381019061052b9190614655565b6112c7565b005b61054c60048036038101906105479190614802565b611529565b005b34801561055a57600080fd5b5061057560048036038101906105709190614573565b611548565b005b34801561058357600080fd5b5061058c611819565b6040516105999190614558565b60405180910390f35b3480156105ae57600080fd5b506105b761184c565b005b3480156105c557600080fd5b506105ce61190f565b6040516105db91906143cd565b60405180910390f35b3480156105f057600080fd5b506105f9611934565b005b34801561060757600080fd5b50610622600480360381019061061d919061485e565b6119f8565b005b34801561063057600080fd5b50610639611acc565b005b34801561064757600080fd5b50610662600480360381019061065d919061488b565b611afb565b60405161066f9190614401565b60405180910390f35b34801561068457600080fd5b5061068d611c9b565b60405161069a9190614558565b60405180910390f35b3480156106af57600080fd5b506106ca60048036038101906106c591906148de565b611cbf565b6040516106d79190614401565b60405180910390f35b3480156106ec57600080fd5b506106f5611dd8565b005b34801561070357600080fd5b5061071e600480360381019061071991906145a0565b611e9c565b60405161072b91906143cd565b60405180910390f35b34801561074057600080fd5b5061075b600480360381019061075691906148de565b611f15565b005b34801561076957600080fd5b50610772612202565b60405161077f9190614401565b60405180910390f35b34801561079457600080fd5b5061079d612208565b6040516107aa9190614558565b60405180910390f35b3480156107bf57600080fd5b506107c861220f565b6040516107d591906143cd565b60405180910390f35b3480156107ea57600080fd5b506107f3612222565b604051610800919061499d565b60405180910390f35b34801561081557600080fd5b50610830600480360381019061082b91906149eb565b61225b565b005b34801561083e57600080fd5b5061084761258d565b6040516108549190614558565b60405180910390f35b34801561086957600080fd5b506108726125b1565b60405161087f9190614401565b60405180910390f35b34801561089457600080fd5b506108af60048036038101906108aa9190614573565b6125b6565b005b3480156108bd57600080fd5b506108c661265d565b6040516108d39190614ac5565b60405180910390f35b3480156108e857600080fd5b5061090360048036038101906108fe91906145a0565b612683565b005b34801561091157600080fd5b5061092c60048036038101906109279190614573565b6126a5565b005b34801561093a57600080fd5b5061095560048036038101906109509190614ae0565b61274a565b005b34801561096357600080fd5b5061096c612846565b005b34801561097a57600080fd5b50610995600480360381019061099091906148de565b612909565b005b3480156109a357600080fd5b506109be60048036038101906109b991906144a6565b612a73565b6040516109cb9190614401565b60405180910390f35b3480156109e057600080fd5b506109fb60048036038101906109f69190614573565b612ad1565b005b610a05612b78565b005b348015610a1357600080fd5b50610a2e6004803603810190610a299190614b33565b612c95565b005b348015610a3c57600080fd5b50610a576004803603810190610a529190614573565b612e09565b604051610a6a9796959493929190614b95565b60405180910390f35b348015610a7f57600080fd5b50610a9a6004803603810190610a9591906144a6565b612e7b565b604051610aa8929190614c04565b60405180910390f35b60007f7965db0b000000000000000000000000000000000000000000000000000000007bffffffffffffffffffffffffffffffffffffffffffffffffffffffff1916827bffffffffffffffffffffffffffffffffffffffffffffffffffffffff19161480610b245750610b2382612fdc565b5b9050919050565b60045481565b6000600580549050905090565b60015481565b6000826005805490508110610b8e576040517f08c379a0000000000000000000000000000000000000000000000000000000008152600401610b8590614c79565b60405180910390fd5b6006600085815260200190815260200160002060008473ffffffffffffffffffffffffffffffffffffffff1673ffffffffffffffffffffffffffffffffffffffff1681526020019081526020016000206000015491505092915050565b600080610bf6613046565b905080600001600084815260200190815260200160002060010154915050919050565b610c2161306e565b806005805490508110610c69576040517f08c379a0000000000000000000000000000000000000000000000000000000008152600401610c6090614c79565b60405180910390fd5b600360009054906101000a900460ff1615610cb9576040517f08c379a0000000000000000000000000000000000000000000000000000000008152600401610cb090614ce5565b60405180910390fd5b600060058381548110610ccf57610cce614d05565b5b9060005260206000209060070201905060006006600085815260200190815260200160002060003373ffffffffffffffffffffffffffffffffffffffff1673ffffffffffffffffffffffffffffffffffffffff168152602001908152602001600020905060008060005b8360030180549050811015610dc65743846003018281548110610d5f57610d5e614d05565b5b90600052602060002090600202016001015411610dc657836003018181548110610d8c57610d8b614d05565b5b90600052602060002090600202016000015483610da99190614d63565b92508180610db690614d97565b9250508080600101915050610d39565b5060005b818460030180549050610ddd9190614ddf565b811015610e5b57836003018282610df49190614d63565b81548110610e0557610e04614d05565b5b9060005260206000209060020201846003018281548110610e2957610e28614d05565b5b906000526020600020906002020160008201548160000155600182015481600101559050508080600101915050610dca565b5060005b81811015610eb15783600301805480610e7b57610e7a614e13565b5b60019003818190600052602060002090600202016000808201600090556001820160009055505090558080600101915050610e5f565b506000821115610f7357600073ffffffffffffffffffffffffffffffffffffffff168460000160009054906101000a900473ffffffffffffffffffffffffffffffffffffffff1673ffffffffffffffffffffffffffffffffffffffff1603610f2257610f1d33836130af565b610f72565b610f7133838660000160009054906101000a900473ffffffffffffffffffffffffffffffffffffffff1673ffffffffffffffffffffffffffffffffffffffff166131c19092919063ffffffff16565b5b5b43863373ffffffffffffffffffffffffffffffffffffffff167f02f25270a4d87bea75db541cdfe559334a275b4a233520ed6c0a2429667cca9485604051610fbb9190614401565b60405180910390a4505050505050565b610fd482610beb565b610fdd81613214565b610fe78383613228565b50505050565b600360009054906101000a900460ff1681565b611008613329565b73ffffffffffffffffffffffffffffffffffffffff168173ffffffffffffffffffffffffffffffffffffffff161461106c576040517f6697b23200000000000000000000000000000000000000000000000000000000815260040160405180910390fd5b6110768282613331565b505050565b6006602052816000526040600020602052806000526040600020600091509150508060000154908060010154908060020154905083565b6110ba61306e565b806005805490508110611102576040517f08c379a00000000000000000000000000000000000000000000000000000000081526004016110f990614c79565b60405180910390fd5b600360019054906101000a900460ff1615611152576040517f08c379a000000000000000000000000000000000000000000000000000000000815260040161114990614e8e565b60405180910390fd5b60006005838154811061116857611167614d05565b5b9060005260206000209060070201905060006006600085815260200190815260200160002060003373ffffffffffffffffffffffffffffffffffffffff1673ffffffffffffffffffffffffffffffffffffffff16815260200190815260200160002090506111d584611548565b600081600201548260010154670de0b6b3a7640000856003015485600001546111fe9190614eae565b6112089190614f1f565b6112129190614ddf565b61121c9190614d63565b9050600081111561123c576000826002018190555061123b3382613433565b5b670de0b6b3a7640000836003015483600001546112599190614eae565b6112639190614f1f565b8260010181905550843373ffffffffffffffffffffffffffffffffffffffff167f34fcbac0073d7c3d388e51312faf357774904998eeb8fca628b9e6f65ee1cbf7836040516112b29190614401565b60405180910390a35050505050565b60005481565b60006112d1613628565b905060008160000160089054906101000a900460ff1615905060008260000160009054906101000a900467ffffffffffffffff1690506000808267ffffffffffffffff1614801561131f5750825b9050600060018367ffffffffffffffff16148015611354575060003073ffffffffffffffffffffffffffffffffffffffff163b145b905081158015611362575080155b15611399576040517ff92ee8a900000000000000000000000000000000000000000000000000000000815260040160405180910390fd5b60018560000160006101000a81548167ffffffffffffffff021916908367ffffffffffffffff16021790555083156113e95760018560000160086101000a81548160ff0219169083151502179055505b8688111580156113f95750600086115b611438576040517f08c379a000000000000000000000000000000000000000000000000000000000815260040161142f90614f9c565b60405180910390fd5b61144061363c565b61144d6000801b33613228565b506114787fcab03bc4dbcc648cd59d6bbe9f848d1e9092f914016aa290ee92e18700d1e6f933613228565b506114a37f589d473ba17c0f47d494622893831497bad25919b9afb8e33e9521b8963fccde33613228565b506114ad896119f8565b876000819055508660018190555085600281905550831561151e5760008560000160086101000a81548160ff0219169083151502179055507fc7f505b2f371ae2175ee4913f4499e1f2633a7b5936321eed1cdaeb6115181d26001604051611515919061500b565b60405180910390a15b505050505050505050565b611531613646565b61153a8261372c565b611544828261375a565b5050565b806005805490508110611590576040517f08c379a000000000000000000000000000000000000000000000000000000000815260040161158790614c79565b60405180910390fd5b6000600583815481106115a6576115a5614d05565b5b90600052602060002090600702019050806002015443116115c75750611815565b6000806115ee83600101546115e0856002015443611cbf565b61387990919063ffffffff16565b9150915081611632576040517f08c379a000000000000000000000000000000000000000000000000000000000815260040161162990615072565b60405180910390fd5b611647600454826138a290919063ffffffff16565b80925081935050508161168f576040517f08c379a000000000000000000000000000000000000000000000000000000000815260040161168690615072565b60405180910390fd5b60008360040154905060008111156117ca576000806116bf670de0b6b3a76400008561387990919063ffffffff16565b9150915081611703576040517f08c379a00000000000000000000000000000000000000000000000000000000081526004016116fa90615072565b60405180910390fd5b61171683826138a290919063ffffffff16565b80925081935050508161175e576040517f08c379a000000000000000000000000000000000000000000000000000000000815260040161175590615072565b60405180910390fd5b6000806117788389600301546138b790919063ffffffff16565b91509150816117bc576040517f08c379a00000000000000000000000000000000000000000000000000000000081526004016117b390615072565b60405180910390fd5b808860030181905550505050505b4384600201819055508360020154867ff5d2d72d9b25d6853afd7d0554a113b705234b6a68bb36b7f143662994632411846040516118089190614401565b60405180910390a3505050505b5050565b60006118236138dc565b7f360894a13ba1a3210667c828492db98dca3e2076cc3735a920a3ca505d382bbc60001b905090565b7f589d473ba17c0f47d494622893831497bad25919b9afb8e33e9521b8963fccde61187681613214565b600360009054906101000a900460ff166118c5576040517f08c379a00000000000000000000000000000000000000000000000000000000081526004016118bc90615104565b60405180910390fd5b6000600360006101000a81548160ff0219169083151502179055507f1c84bcaead48b692cc46b9b12e9a068951a59c99a2e2bf10b00b60b403cf12e260405160405180910390a150565b60008061191a613963565b90508060000160009054906101000a900460ff1691505090565b7f589d473ba17c0f47d494622893831497bad25919b9afb8e33e9521b8963fccde61195e81613214565b600360009054906101000a900460ff16156119ae576040517f08c379a00000000000000000000000000000000000000000000000000000000081526004016119a590615170565b60405180910390fd5b6001600360006101000a81548160ff0219169083151502179055507f8099f593a6aaecd68b6494933cd71f703376ac3975be83692e1b7d800abf683760405160405180910390a150565b7f589d473ba17c0f47d494622893831497bad25919b9afb8e33e9521b8963fccde611a2281613214565b81600360026101000a81548173ffffffffffffffffffffffffffffffffffffffff021916908373ffffffffffffffffffffffffffffffffffffffff160217905550600360029054906101000a900473ffffffffffffffffffffffffffffffffffffffff1673ffffffffffffffffffffffffffffffffffffffff167fafef10ff40345dd21fc1cac02d8ec620a709c9b0983e9c6454d2bef77f077df360405160405180910390a25050565b6000600580549050905060005b81811015611af757611aea81611548565b8080600101915050611ad9565b5050565b6000836005805490508110611b45576040517f08c379a0000000000000000000000000000000000000000000000000000000008152600401611b3c90614c79565b60405180910390fd5b600060058681548110611b5b57611b5a614d05565b5b9060005260206000209060070201905060006006600088815260200190815260200160002060008773ffffffffffffffffffffffffffffffffffffffff1673ffffffffffffffffffffffffffffffffffffffff1681526020019081526020016000209050600082600301549050600083600401549050836002015487118015611be5575060008114155b15611c4c576000611bfa856002015489611cbf565b90506000600454866001015483611c119190614eae565b611c1b9190614f1f565b905082670de0b6b3a764000082611c329190614eae565b611c3c9190614f1f565b84611c479190614d63565b935050505b82600201548360010154670de0b6b3a7640000848660000154611c6f9190614eae565b611c799190614f1f565b611c839190614ddf565b611c8d9190614d63565b955050505050509392505050565b7f589d473ba17c0f47d494622893831497bad25919b9afb8e33e9521b8963fccde81565b600081831115611d04576040517f08c379a0000000000000000000000000000000000000000000000000000000008152600401611cfb906151dc565b60405180910390fd5b600054831015611d145760005492505b600154821115611d245760015491505b81831115611d67576040517f08c379a0000000000000000000000000000000000000000000000000000000008152600401611d5e9061526e565b60405180910390fd5b6000611d896002548585611d7b9190614ddf565b61387990919063ffffffff16565b809350819250505080611dd1576040517f08c379a0000000000000000000000000000000000000000000000000000000008152600401611dc8906152da565b60405180910390fd5b5092915050565b7f589d473ba17c0f47d494622893831497bad25919b9afb8e33e9521b8963fccde611e0281613214565b600360019054906101000a900460ff1615611e52576040517f08c379a0000000000000000000000000000000000000000000000000000000008152600401611e4990615346565b60405180910390fd5b6001600360016101000a81548160ff0219169083151502179055507f6d73d6b34c378ab3bf6630206d60b7882801b91d03ee20d016ff0d5054db81e160405160405180910390a150565b600080611ea7613046565b905080600001600085815260200190815260200160002060000160008473ffffffffffffffffffffffffffffffffffffffff1673ffffffffffffffffffffffffffffffffffffffff16815260200190815260200160002060009054906101000a900460ff1691505092915050565b611f1d61306e565b816005805490508110611f65576040517f08c379a0000000000000000000000000000000000000000000000000000000008152600401611f5c90614c79565b60405180910390fd5b600360009054906101000a900460ff1615611fb5576040517f08c379a0000000000000000000000000000000000000000000000000000000008152600401611fac90614ce5565b60405180910390fd5b600060058481548110611fcb57611fca614d05565b5b9060005260206000209060070201905060006006600086815260200190815260200160002060003373ffffffffffffffffffffffffffffffffffffffff1673ffffffffffffffffffffffffffffffffffffffff16815260200190815260200160002090508381600001541015612076576040517f08c379a000000000000000000000000000000000000000000000000000000000815260040161206d906153b2565b60405180910390fd5b61207f85611548565b60008160010154670de0b6b3a7640000846003015484600001546120a39190614eae565b6120ad9190614f1f565b6120b79190614ddf565b905060008111156120db578082600201546120d29190614d63565b82600201819055505b6000851115612164578482600001546120f49190614ddf565b82600001819055508160030160405180604001604052808781526020018560060154436121219190614d63565b8152509080600181540180825580915050600190039060005260206000209060020201600090919091909150600082015181600001556020820151816001015550505b8483600401546121749190614ddf565b8360040181905550670de0b6b3a7640000836003015483600001546121999190614eae565b6121a39190614f1f565b8260010181905550853373ffffffffffffffffffffffffffffffffffffffff167fc80277265097707f6f12a4ac4c09d46c9926e2eea2536f63616cb04d9fcad7d6876040516121f29190614401565b60405180910390a3505050505050565b60025481565b6000801b81565b600360019054906101000a900460ff1681565b6040518060400160405280600581526020017f352e302e3000000000000000000000000000000000000000000000000000000081525081565b7f589d473ba17c0f47d494622893831497bad25919b9afb8e33e9521b8963fccde61228581613214565b6000600580549050111561230757600073ffffffffffffffffffffffffffffffffffffffff168673ffffffffffffffffffffffffffffffffffffffff1603612302576040517f08c379a00000000000000000000000000000000000000000000000000000000081526004016122f99061541e565b60405180910390fd5b612377565b600073ffffffffffffffffffffffffffffffffffffffff168673ffffffffffffffffffffffffffffffffffffffff1614612376576040517f08c379a000000000000000000000000000000000000000000000000000000000815260040161236d9061541e565b60405180910390fd5b5b600083116123ba576040517f08c379a00000000000000000000000000000000000000000000000000000000081526004016123b19061548a565b60405180910390fd5b60015443106123fe576040517f08c379a00000000000000000000000000000000000000000000000000000000081526004016123f5906154f6565b60405180910390fd5b811561240d5761240c611acc565b5b60008054431161241f57600054612421565b435b9050856004546124319190614d63565b60048190555060056040518060e001604052808973ffffffffffffffffffffffffffffffffffffffff168152602001888152602001838152602001600081526020016000815260200187815260200186815250908060018154018082558091505060019003906000526020600020906007020160009091909190915060008201518160000160006101000a81548173ffffffffffffffffffffffffffffffffffffffff021916908373ffffffffffffffffffffffffffffffffffffffff1602179055506020820151816001015560408201518160020155606082015181600301556080820151816004015560a0820151816005015560c08201518160060155505080868873ffffffffffffffffffffffffffffffffffffffff167f0fa296fce13e7a0e622b3a892e66220c248337289483a3cfa4130cde0caa1346888860405161257c929190614c04565b60405180910390a450505050505050565b7fcab03bc4dbcc648cd59d6bbe9f848d1e9092f914016aa290ee92e18700d1e6f981565b600081565b7f589d473ba17c0f47d494622893831497bad25919b9afb8e33e9521b8963fccde6125e081613214565b816000541115612625576040517f08c379a000000000000000000000000000000000000000000000000000000000815260040161261c90615588565b60405180910390fd5b81600181905550817f1132c5baccb51da3d049fabc819697dc845fa224ad59d9b555507d6446b4085060405160405180910390a25050565b600360029054906101000a900473ffffffffffffffffffffffffffffffffffffffff1681565b61268c82610beb565b61269581613214565b61269f8383613331565b50505050565b7f589d473ba17c0f47d494622893831497bad25919b9afb8e33e9521b8963fccde6126cf81613214565b60008211612712576040517f08c379a0000000000000000000000000000000000000000000000000000000008152600401612709906155f4565b60405180910390fd5b81600281905550817fa0b1720fac15ab5b6e184fa4d22f43e0e2594ae0373a61a3fc48aefb84ab92f760405160405180910390a25050565b7f589d473ba17c0f47d494622893831497bad25919b9afb8e33e9521b8963fccde61277481613214565b8360058054905081106127bc576040517f08c379a00000000000000000000000000000000000000000000000000000000081526004016127b390614c79565b60405180910390fd5b83600586815481106127d1576127d0614d05565b5b90600052602060002090600702016005018190555082600586815481106127fb576127fa614d05565b5b9060005260206000209060070201600601819055508284867f30dffdedaa3e3b4849298233f7cd71d229956e875ab09270498c96b7cf9181fd60405160405180910390a45050505050565b7f589d473ba17c0f47d494622893831497bad25919b9afb8e33e9521b8963fccde61287081613214565b600360019054906101000a900460ff166128bf576040517f08c379a00000000000000000000000000000000000000000000000000000000081526004016128b690615660565b60405180910390fd5b6000600360016101000a81548160ff0219169083151502179055507fe72cb12952f056e3e7496019725f20a13108ca420f67f1ee9c9cdab73fb8ce8560405160405180910390a150565b61291161306e565b816005805490508110612959576040517f08c379a000000000000000000000000000000000000000000000000000000000815260040161295090614c79565b60405180910390fd5b6000830361299c576040517f08c379a0000000000000000000000000000000000000000000000000000000008152600401612993906156cc565b60405180910390fd5b6000600584815481106129b2576129b1614d05565b5b9060005260206000209060070201905080600501548311612a08576040517f08c379a00000000000000000000000000000000000000000000000000000000081526004016129ff90615738565b60405180910390fd5b6000831115612a6357612a623330858460000160009054906101000a900473ffffffffffffffffffffffffffffffffffffffff1673ffffffffffffffffffffffffffffffffffffffff1661398b909392919063ffffffff16565b5b612a6d84846139e0565b50505050565b6000826005805490508110612abd576040517f08c379a0000000000000000000000000000000000000000000000000000000008152600401612ab490614c79565b60405180910390fd5b612ac8848443611afb565b91505092915050565b7f589d473ba17c0f47d494622893831497bad25919b9afb8e33e9521b8963fccde612afb81613214565b600154821115612b40576040517f08c379a0000000000000000000000000000000000000000000000000000000008152600401612b3790615588565b60405180910390fd5b81600081905550817f63b90b79f11a0f132bcb2c4a4ddd44abda45c1308a83b2919318df7f5f8b7be460405160405180910390a25050565b612b8061306e565b60006005600081548110612b9757612b96614d05565b5b90600052602060002090600702019050600073ffffffffffffffffffffffffffffffffffffffff168160000160009054906101000a900473ffffffffffffffffffffffffffffffffffffffff1673ffffffffffffffffffffffffffffffffffffffff1614612c3a576040517f08c379a0000000000000000000000000000000000000000000000000000000008152600401612c319061541e565b60405180910390fd5b60003490508160050154811015612c86576040517f08c379a0000000000000000000000000000000000000000000000000000000008152600401612c7d90615738565b60405180910390fd5b612c916000826139e0565b5050565b7f589d473ba17c0f47d494622893831497bad25919b9afb8e33e9521b8963fccde612cbf81613214565b836005805490508110612d07576040517f08c379a0000000000000000000000000000000000000000000000000000000008152600401612cfe90614c79565b60405180910390fd5b60008411612d4a576040517f08c379a0000000000000000000000000000000000000000000000000000000008152600401612d41906157a4565b60405180910390fd5b8215612d5957612d58611acc565b5b8360058681548110612d6e57612d6d614d05565b5b906000526020600020906007020160010154600454612d8d9190614ddf565b612d979190614d63565b6004819055508360058681548110612db257612db1614d05565b5b90600052602060002090600702016001018190555083857f4b8fa3d6a87cb21d1bf4978bf60628ae358a28ac7f39de1751a481c6dd957617600454604051612dfa9190614401565b60405180910390a35050505050565b60058181548110612e1957600080fd5b90600052602060002090600702016000915090508060000160009054906101000a900473ffffffffffffffffffffffffffffffffffffffff16908060010154908060020154908060030154908060040154908060050154908060060154905087565b600080836005805490508110612ec6576040517f08c379a0000000000000000000000000000000000000000000000000000000008152600401612ebd90614c79565b60405180910390fd5b60006006600087815260200190815260200160002060008673ffffffffffffffffffffffffffffffffffffffff1673ffffffffffffffffffffffffffffffffffffffff168152602001908152602001600020905060005b8160030180549050811015612fd25743826003018281548110612f4357612f42614d05565b5b90600052602060002090600202016001015411612f9057816003018181548110612f7057612f6f614d05565b5b90600052602060002090600202016000015484612f8d9190614d63565b93505b816003018181548110612fa657612fa5614d05565b5b90600052602060002090600202016000015485612fc39190614d63565b94508080600101915050612f1d565b5050509250929050565b60007f01ffc9a7000000000000000000000000000000000000000000000000000000007bffffffffffffffffffffffffffffffffffffffffffffffffffffffff1916827bffffffffffffffffffffffffffffffffffffffffffffffffffffffff1916149050919050565b60007f02dd7bc7dec4dceedda775e58dd541e08a116c6c53815c0bd028192f7b626800905090565b61307661190f565b156130ad576040517fd93c066500000000000000000000000000000000000000000000000000000000815260040160405180910390fd5b565b6000808373ffffffffffffffffffffffffffffffffffffffff16836040516130d6906157f5565b60006040518083038185875af1925050503d8060008114613113576040519150601f19603f3d011682016040523d82523d6000602084013e613118565b606091505b50915091508161315d576040517f08c379a000000000000000000000000000000000000000000000000000000000815260040161315490615856565b60405180910390fd5b6000815111156131bb578080602001905181019061317b919061588b565b6131ba576040517f08c379a00000000000000000000000000000000000000000000000000000000081526004016131b19061592a565b60405180910390fd5b5b50505050565b6131ce8383836001613e0c565b61320f57826040517f5274afe7000000000000000000000000000000000000000000000000000000008152600401613206919061594a565b60405180910390fd5b505050565b61322581613220613329565b613e76565b50565b600080613233613046565b905061323f8484611e9c565b61331d57600181600001600086815260200190815260200160002060000160008573ffffffffffffffffffffffffffffffffffffffff1673ffffffffffffffffffffffffffffffffffffffff16815260200190815260200160002060006101000a81548160ff0219169083151502179055506132b9613329565b73ffffffffffffffffffffffffffffffffffffffff168373ffffffffffffffffffffffffffffffffffffffff16857f2f8788117e7eff1d82e926ec794901d17c78024a50270940304540a733656f0d60405160405180910390a46001915050613323565b60009150505b92915050565b600033905090565b60008061333c613046565b90506133488484611e9c565b1561342757600081600001600086815260200190815260200160002060000160008573ffffffffffffffffffffffffffffffffffffffff1673ffffffffffffffffffffffffffffffffffffffff16815260200190815260200160002060006101000a81548160ff0219169083151502179055506133c3613329565b73ffffffffffffffffffffffffffffffffffffffff168373ffffffffffffffffffffffffffffffffffffffff16857ff6391f5c32d9c69d2a47ea670b442974b53935d1edc7fd64eb21e047a839171b60405160405180910390a4600191505061342d565b60009150505b92915050565b6000600360029054906101000a900473ffffffffffffffffffffffffffffffffffffffff1673ffffffffffffffffffffffffffffffffffffffff166370a08231306040518263ffffffff1660e01b8152600401613490919061594a565b602060405180830381865afa1580156134ad573d6000803e3d6000fd5b505050506040513d601f19601f820116820180604052508101906134d1919061597a565b90508082111561358157600360029054906101000a900473ffffffffffffffffffffffffffffffffffffffff1673ffffffffffffffffffffffffffffffffffffffff1663a9059cbb84836040518363ffffffff1660e01b81526004016135389291906159a7565b6020604051808303816000875af1158015613557573d6000803e3d6000fd5b505050506040513d601f19601f8201168201806040525081019061357b919061588b565b50613623565b600360029054906101000a900473ffffffffffffffffffffffffffffffffffffffff1673ffffffffffffffffffffffffffffffffffffffff1663a9059cbb84846040518363ffffffff1660e01b81526004016135de9291906159a7565b6020604051808303816000875af11580156135fd573d6000803e3d6000fd5b505050506040513d601f19601f82011682018060405250810190613621919061588b565b505b505050565b600080613633613ec7565b90508091505090565b613644613ef2565b565b7f000000000000000000000000000000000000000000000000000000000000000073ffffffffffffffffffffffffffffffffffffffff163073ffffffffffffffffffffffffffffffffffffffff1614806136f357507f000000000000000000000000000000000000000000000000000000000000000073ffffffffffffffffffffffffffffffffffffffff166136da613f32565b73ffffffffffffffffffffffffffffffffffffffff1614155b1561372a576040517fe07c8dba00000000000000000000000000000000000000000000000000000000815260040160405180910390fd5b565b7fcab03bc4dbcc648cd59d6bbe9f848d1e9092f914016aa290ee92e18700d1e6f961375681613214565b5050565b8173ffffffffffffffffffffffffffffffffffffffff166352d1902d6040518163ffffffff1660e01b8152600401602060405180830381865afa9250505080156137c257506040513d601f19601f820116820180604052508101906137bf91906159e5565b60015b61380357816040517f4c9c8ce30000000000000000000000000000000000000000000000000000000081526004016137fa919061594a565b60405180910390fd5b7f360894a13ba1a3210667c828492db98dca3e2076cc3735a920a3ca505d382bbc60001b811461386a57806040517faa1d49a40000000000000000000000000000000000000000000000000000000081526004016138619190614558565b60405180910390fd5b6138748383613f89565b505050565b600080600083850290508415848683041417925061389683613ffc565b81029150509250929050565b60008060008311915082840490509250929050565b600080600083850190508481101592506138d083613ffc565b81029150509250929050565b7f000000000000000000000000000000000000000000000000000000000000000073ffffffffffffffffffffffffffffffffffffffff163073ffffffffffffffffffffffffffffffffffffffff1614613961576040517fe07c8dba00000000000000000000000000000000000000000000000000000000815260040160405180910390fd5b565b60007fcd5ed15c6e187e77e9aee88184c21f4f2182ab5827cb3b7e07fbedcd63f03300905090565b613999848484846001614008565b6139da57836040517f5274afe70000000000000000000000000000000000000000000000000000000081526004016139d1919061594a565b60405180910390fd5b50505050565b6000600583815481106139f6576139f5614d05565b5b9060005260206000209060070201905060006006600085815260200190815260200160002060003373ffffffffffffffffffffffffffffffffffffffff1673ffffffffffffffffffffffffffffffffffffffff1681526020019081526020016000209050613a6384611548565b600081600001541115613c0b57600080613a8e8460030154846000015461387990919063ffffffff16565b9150915081613ad2576040517f08c379a0000000000000000000000000000000000000000000000000000000008152600401613ac990615a84565b60405180910390fd5b613aed670de0b6b3a7640000826138a290919063ffffffff16565b809250819350505081613b35576040517f08c379a0000000000000000000000000000000000000000000000000000000008152600401613b2c90615af0565b60405180910390fd5b600080613b4f85600101548461408390919063ffffffff16565b9150915081613b93576040517f08c379a0000000000000000000000000000000000000000000000000000000008152600401613b8a90615b82565b60405180910390fd5b6000811115613c0657600080613bb68388600201546138b790919063ffffffff16565b9150915081613bfa576040517f08c379a0000000000000000000000000000000000000000000000000000000008152600401613bf190615bee565b60405180910390fd5b80876002018190555050505b505050505b6000831115613c7e57600080613c2e8584600001546138b790919063ffffffff16565b9150915081613c72576040517f08c379a0000000000000000000000000000000000000000000000000000000008152600401613c6990615c5a565b60405180910390fd5b80836000018190555050505b600080613c988585600401546138b790919063ffffffff16565b9150915081613cdc576040517f08c379a0000000000000000000000000000000000000000000000000000000008152600401613cd390615cc6565b60405180910390fd5b808460040181905550600080613d038660030154866000015461387990919063ffffffff16565b9150915081613d47576040517f08c379a0000000000000000000000000000000000000000000000000000000008152600401613d3e90615a84565b60405180910390fd5b613d62670de0b6b3a7640000826138a290919063ffffffff16565b809250819350505081613daa576040517f08c379a0000000000000000000000000000000000000000000000000000000008152600401613da190615d58565b60405180910390fd5b808560010181905550873373ffffffffffffffffffffffffffffffffffffffff167f90890809c654f11d6e72a28fa60149770a0d11ec6c92319d6ceb2bb0a4ea1a1589604051613dfa9190614401565b60405180910390a35050505050505050565b60008063a9059cbb60e01b90506040518160005260001960601c8616600452846024526020600060446000808b5af192506001600051148316613e68578383151615613e5b573d6000823e3d81fd5b6000873b113d1516831692505b806040525050949350505050565b613e808282611e9c565b613ec35780826040517fe2517d3f000000000000000000000000000000000000000000000000000000008152600401613eba929190615d78565b60405180910390fd5b5050565b60007ff0c57e16840df040f15088dc2f81fe391c3923bec73e23a9662efc9c229c6a0060001b905090565b613efa6140a8565b613f30576040517fd7e6bcf800000000000000000000000000000000000000000000000000000000815260040160405180910390fd5b565b6000613f607f360894a13ba1a3210667c828492db98dca3e2076cc3735a920a3ca505d382bbc60001b6140c8565b60000160009054906101000a900473ffffffffffffffffffffffffffffffffffffffff16905090565b613f92826140d2565b8173ffffffffffffffffffffffffffffffffffffffff167fbc7cd75a20ee27fd9adebab32041f755214dbc6bffa90cc0225b39da2e5c2d3b60405160405180910390a2600081511115613fef57613fe9828261419f565b50613ff8565b613ff7614294565b5b5050565b60008115159050919050565b6000806323b872dd60e01b90506040518160005260001960601c871660045260001960601c8616602452846044526020600060646000808c5af19250600160005114831661406f578383151615614062573d6000823e3d81fd5b6000883b113d1516831692505b806040526000606052505095945050505050565b6000806000838503905084811115925061409c83613ffc565b81029150509250929050565b60006140b2613628565b60000160089054906101000a900460ff16905090565b6000819050919050565b60008173ffffffffffffffffffffffffffffffffffffffff163b0361412e57806040517f4c9c8ce3000000000000000000000000000000000000000000000000000000008152600401614125919061594a565b60405180910390fd5b8061415b7f360894a13ba1a3210667c828492db98dca3e2076cc3735a920a3ca505d382bbc60001b6140c8565b60000160006101000a81548173ffffffffffffffffffffffffffffffffffffffff021916908373ffffffffffffffffffffffffffffffffffffffff16021790555050565b606060006141ad84846142d1565b90508080156141e5575060006141c16142e7565b11806141e4575060008473ffffffffffffffffffffffffffffffffffffffff163b115b5b156141fa576141f26142ef565b91505061428e565b801561423d57836040517f9996b315000000000000000000000000000000000000000000000000000000008152600401614234919061594a565b60405180910390fd5b60006142476142e7565b111561425a5761425561430d565b61428c565b6040517fd6bda27500000000000000000000000000000000000000000000000000000000815260040160405180910390fd5b505b92915050565b60003411156142cf576040517fb398979f00000000000000000000000000000000000000000000000000000000815260040160405180910390fd5b565b6000806000835160208501865af4905092915050565b60003d905090565b606060405190503d81523d6000602083013e3d602001810160405290565b6040513d6000823e3d81fd5b6000604051905090565b600080fd5b600080fd5b60007fffffffff0000000000000000000000000000000000000000000000000000000082169050919050565b6143628161432d565b811461436d57600080fd5b50565b60008135905061437f81614359565b92915050565b60006020828403121561439b5761439a614323565b5b60006143a984828501614370565b91505092915050565b60008115159050919050565b6143c7816143b2565b82525050565b60006020820190506143e260008301846143be565b92915050565b6000819050919050565b6143fb816143e8565b82525050565b600060208201905061441660008301846143f2565b92915050565b614425816143e8565b811461443057600080fd5b50565b6000813590506144428161441c565b92915050565b600073ffffffffffffffffffffffffffffffffffffffff82169050919050565b600061447382614448565b9050919050565b61448381614468565b811461448e57600080fd5b50565b6000813590506144a08161447a565b92915050565b600080604083850312156144bd576144bc614323565b5b60006144cb85828601614433565b92505060206144dc85828601614491565b9150509250929050565b6000819050919050565b6144f9816144e6565b811461450457600080fd5b50565b600081359050614516816144f0565b92915050565b60006020828403121561453257614531614323565b5b600061454084828501614507565b91505092915050565b614552816144e6565b82525050565b600060208201905061456d6000830184614549565b92915050565b60006020828403121561458957614588614323565b5b600061459784828501614433565b91505092915050565b600080604083850312156145b7576145b6614323565b5b60006145c585828601614507565b92505060206145d685828601614491565b9150509250929050565b60006060820190506145f560008301866143f2565b61460260208301856143f2565b61460f60408301846143f2565b949350505050565b600061462282614468565b9050919050565b61463281614617565b811461463d57600080fd5b50565b60008135905061464f81614629565b92915050565b6000806000806080858703121561466f5761466e614323565b5b600061467d87828801614640565b945050602061468e87828801614433565b935050604061469f87828801614433565b92505060606146b087828801614433565b91505092959194509250565b600080fd5b600080fd5b6000601f19601f8301169050919050565b7f4e487b7100000000000000000000000000000000000000000000000000000000600052604160045260246000fd5b61470f826146c6565b810181811067ffffffffffffffff8211171561472e5761472d6146d7565b5b80604052505050565b6000614741614319565b905061474d8282614706565b919050565b600067ffffffffffffffff82111561476d5761476c6146d7565b5b614776826146c6565b9050602081019050919050565b82818337600083830152505050565b60006147a56147a084614752565b614737565b9050828152602081018484840111156147c1576147c06146c1565b5b6147cc848285614783565b509392505050565b600082601f8301126147e9576147e86146bc565b5b81356147f9848260208601614792565b91505092915050565b6000806040838503121561481957614818614323565b5b600061482785828601614491565b925050602083013567ffffffffffffffff81111561484857614847614328565b5b614854858286016147d4565b9150509250929050565b60006020828403121561487457614873614323565b5b600061488284828501614640565b91505092915050565b6000806000606084860312156148a4576148a3614323565b5b60006148b286828701614433565b93505060206148c386828701614491565b92505060406148d486828701614433565b9150509250925092565b600080604083850312156148f5576148f4614323565b5b600061490385828601614433565b925050602061491485828601614433565b9150509250929050565b600081519050919050565b600082825260208201905092915050565b60005b8381101561495857808201518184015260208101905061493d565b60008484015250505050565b600061496f8261491e565b6149798185614929565b935061498981856020860161493a565b614992816146c6565b840191505092915050565b600060208201905081810360008301526149b78184614964565b905092915050565b6149c8816143b2565b81146149d357600080fd5b50565b6000813590506149e5816149bf565b92915050565b600080600080600060a08688031215614a0757614a06614323565b5b6000614a1588828901614491565b9550506020614a2688828901614433565b9450506040614a3788828901614433565b9350506060614a4888828901614433565b9250506080614a59888289016149d6565b9150509295509295909350565b6000819050919050565b6000614a8b614a86614a8184614448565b614a66565b614448565b9050919050565b6000614a9d82614a70565b9050919050565b6000614aaf82614a92565b9050919050565b614abf81614aa4565b82525050565b6000602082019050614ada6000830184614ab6565b92915050565b600080600060608486031215614af957614af8614323565b5b6000614b0786828701614433565b9350506020614b1886828701614433565b9250506040614b2986828701614433565b9150509250925092565b600080600060608486031215614b4c57614b4b614323565b5b6000614b5a86828701614433565b9350506020614b6b86828701614433565b9250506040614b7c868287016149d6565b9150509250925092565b614b8f81614468565b82525050565b600060e082019050614baa600083018a614b86565b614bb760208301896143f2565b614bc460408301886143f2565b614bd160608301876143f2565b614bde60808301866143f2565b614beb60a08301856143f2565b614bf860c08301846143f2565b98975050505050505050565b6000604082019050614c1960008301856143f2565b614c2660208301846143f2565b9392505050565b7f696e76616c696420706964000000000000000000000000000000000000000000600082015250565b6000614c63600b83614929565b9150614c6e82614c2d565b602082019050919050565b60006020820190508181036000830152614c9281614c56565b9050919050565b7f7769746864726177206973207061757365640000000000000000000000000000600082015250565b6000614ccf601283614929565b9150614cda82614c99565b602082019050919050565b60006020820190508181036000830152614cfe81614cc2565b9050919050565b7f4e487b7100000000000000000000000000000000000000000000000000000000600052603260045260246000fd5b7f4e487b7100000000000000000000000000000000000000000000000000000000600052601160045260246000fd5b6000614d6e826143e8565b9150614d79836143e8565b9250828201905080821115614d9157614d90614d34565b5b92915050565b6000614da2826143e8565b91507fffffffffffffffffffffffffffffffffffffffffffffffffffffffffffffffff8203614dd457614dd3614d34565b5b600182019050919050565b6000614dea826143e8565b9150614df5836143e8565b9250828203905081811115614e0d57614e0c614d34565b5b92915050565b7f4e487b7100000000000000000000000000000000000000000000000000000000600052603160045260246000fd5b7f636c61696d206973207061757365640000000000000000000000000000000000600082015250565b6000614e78600f83614929565b9150614e8382614e42565b602082019050919050565b60006020820190508181036000830152614ea781614e6b565b9050919050565b6000614eb9826143e8565b9150614ec4836143e8565b9250828202614ed2816143e8565b91508282048414831517614ee957614ee8614d34565b5b5092915050565b7f4e487b7100000000000000000000000000000000000000000000000000000000600052601260045260246000fd5b6000614f2a826143e8565b9150614f35836143e8565b925082614f4557614f44614ef0565b5b828204905092915050565b7f696e76616c696420706172616d65746572730000000000000000000000000000600082015250565b6000614f86601283614929565b9150614f9182614f50565b602082019050919050565b60006020820190508181036000830152614fb581614f79565b9050919050565b6000819050919050565b600067ffffffffffffffff82169050919050565b6000614ff5614ff0614feb84614fbc565b614a66565b614fc6565b9050919050565b61500581614fda565b82525050565b60006020820190506150206000830184614ffc565b92915050565b7f6f766572666c6f77000000000000000000000000000000000000000000000000600082015250565b600061505c600883614929565b915061506782615026565b602082019050919050565b6000602082019050818103600083015261508b8161504f565b9050919050565b7f776974686472617720686173206265656e20616c726561647920756e7061757360008201527f6564000000000000000000000000000000000000000000000000000000000000602082015250565b60006150ee602283614929565b91506150f982615092565b604082019050919050565b6000602082019050818103600083015261511d816150e1565b9050919050565b7f776974686472617720686173206265656e20616c726561647920706175736564600082015250565b600061515a602083614929565b915061516582615124565b602082019050919050565b600060208201905081810360008301526151898161514d565b9050919050565b7f696e76616c696420626c6f636b00000000000000000000000000000000000000600082015250565b60006151c6600d83614929565b91506151d182615190565b602082019050919050565b600060208201905081810360008301526151f5816151b9565b9050919050565b7f656e6420626c6f636b206d7573742062652067726561746572207468616e207360008201527f7461727420626c6f636b00000000000000000000000000000000000000000000602082015250565b6000615258602a83614929565b9150615263826151fc565b604082019050919050565b600060208201905081810360008301526152878161524b565b9050919050565b7f6d756c7469706c696572206f766572666c6f7700000000000000000000000000600082015250565b60006152c4601383614929565b91506152cf8261528e565b602082019050919050565b600060208201905081810360008301526152f3816152b7565b9050919050565b7f636c61696d20686173206265656e20616c726561647920706175736564000000600082015250565b6000615330601d83614929565b915061533b826152fa565b602082019050919050565b6000602082019050818103600083015261535f81615323565b9050919050565b7f4e6f7420656e6f756768207374616b696e6720746f6b656e2062616c616e6365600082015250565b600061539c602083614929565b91506153a782615366565b602082019050919050565b600060208201905081810360008301526153cb8161538f565b9050919050565b7f696e76616c6964207374616b696e6720746f6b656e2061646472657373000000600082015250565b6000615408601d83614929565b9150615413826153d2565b602082019050919050565b60006020820190508181036000830152615437816153fb565b9050919050565b7f696e76616c6964207769746864726177206c6f636b656420626c6f636b730000600082015250565b6000615474601e83614929565b915061547f8261543e565b602082019050919050565b600060208201905081810360008301526154a381615467565b9050919050565b7f416c726561647920656e64656400000000000000000000000000000000000000600082015250565b60006154e0600d83614929565b91506154eb826154aa565b602082019050919050565b6000602082019050818103600083015261550f816154d3565b9050919050565b7f737461727420626c6f636b206d75737420626520736d616c6c6572207468616e60008201527f20656e6420626c6f636b00000000000000000000000000000000000000000000602082015250565b6000615572602a83614929565b915061557d82615516565b604082019050919050565b600060208201905081810360008301526155a181615565565b9050919050565b7f696e76616c696420706172616d65746572000000000000000000000000000000600082015250565b60006155de601183614929565b91506155e9826155a8565b602082019050919050565b6000602082019050818103600083015261560d816155d1565b9050919050565b7f636c61696d20686173206265656e20616c726561647920756e70617573656400600082015250565b600061564a601f83614929565b915061565582615614565b602082019050919050565b600060208201905081810360008301526156798161563d565b9050919050565b7f6465706f736974206e6f7420737570706f727420455448207374616b696e6700600082015250565b60006156b6601f83614929565b91506156c182615680565b602082019050919050565b600060208201905081810360008301526156e5816156a9565b9050919050565b7f6465706f73697420616d6f756e7420697320746f6f20736d616c6c0000000000600082015250565b6000615722601b83614929565b915061572d826156ec565b602082019050919050565b6000602082019050818103600083015261575181615715565b9050919050565b7f696e76616c696420706f6f6c2077656967687400000000000000000000000000600082015250565b600061578e601383614929565b915061579982615758565b602082019050919050565b600060208201905081810360008301526157bd81615781565b9050919050565b600081905092915050565b50565b60006157df6000836157c4565b91506157ea826157cf565b600082019050919050565b6000615800826157d2565b9150819050919050565b7f455448207472616e736665722063616c6c206661696c65640000000000000000600082015250565b6000615840601883614929565b915061584b8261580a565b602082019050919050565b6000602082019050818103600083015261586f81615833565b9050919050565b600081519050615885816149bf565b92915050565b6000602082840312156158a1576158a0614323565b5b60006158af84828501615876565b91505092915050565b7f455448207472616e73666572206f7065726174696f6e20646964206e6f74207360008201527f7563636565640000000000000000000000000000000000000000000000000000602082015250565b6000615914602683614929565b915061591f826158b8565b604082019050919050565b6000602082019050818103600083015261594381615907565b9050919050565b600060208201905061595f6000830184614b86565b92915050565b6000815190506159748161441c565b92915050565b6000602082840312156159905761598f614323565b5b600061599e84828501615965565b91505092915050565b60006040820190506159bc6000830185614b86565b6159c960208301846143f2565b9392505050565b6000815190506159df816144f0565b92915050565b6000602082840312156159fb576159fa614323565b5b6000615a09848285016159d0565b91505092915050565b7f75736572207374416d6f756e74206d756c206163634d6574614e6f646550657260008201527f5354206f766572666c6f77000000000000000000000000000000000000000000602082015250565b6000615a6e602b83614929565b9150615a7982615a12565b604082019050919050565b60006020820190508181036000830152615a9d81615a61565b9050919050565b7f6163635354206469762031206574686572206f766572666c6f77000000000000600082015250565b6000615ada601a83614929565b9150615ae582615aa4565b602082019050919050565b60006020820190508181036000830152615b0981615acd565b9050919050565b7f6163635354207375622066696e69736865644d6574614e6f6465206f7665726660008201527f6c6f770000000000000000000000000000000000000000000000000000000000602082015250565b6000615b6c602383614929565b9150615b7782615b10565b604082019050919050565b60006020820190508181036000830152615b9b81615b5f565b9050919050565b7f757365722070656e64696e674d6574614e6f6465206f766572666c6f77000000600082015250565b6000615bd8601d83614929565b9150615be382615ba2565b602082019050919050565b60006020820190508181036000830152615c0781615bcb565b9050919050565b7f75736572207374416d6f756e74206f766572666c6f7700000000000000000000600082015250565b6000615c44601683614929565b9150615c4f82615c0e565b602082019050919050565b60006020820190508181036000830152615c7381615c37565b9050919050565b7f706f6f6c207374546f6b656e416d6f756e74206f766572666c6f770000000000600082015250565b6000615cb0601b83614929565b9150615cbb82615c7a565b602082019050919050565b60006020820190508181036000830152615cdf81615ca3565b9050919050565b7f66696e69736865644d6574614e6f6465206469762031206574686572206f766560008201527f72666c6f77000000000000000000000000000000000000000000000000000000602082015250565b6000615d42602583614929565b9150615d4d82615ce6565b604082019050919050565b60006020820190508181036000830152615d7181615d35565b9050919050565b6000604082019050615d8d6000830185614b86565b615d9a6020830184614549565b939250505056fea26469706673582212207b0f1453dfd54e21f2958e6e6f75fd0c071e57a4002fe7fb7e250a5668af819864736f6c63430008160033","opcodes":"PUSH1 0xA0 PUSH1 0x40 MSTORE ADDRESS PUSH20 0xFFFFFFFFFFFFFFFFFFFFFFFFFFFFFFFFFFFFFFFF AND PUSH1 0x80 SWAP1 PUSH20 0xFFFFFFFFFFFFFFFFFFFFFFFFFFFFFFFFFFFFFFFF AND DUP2 MSTORE POP CALLVALUE DUP1 ISZERO PUSH2 0x43 JUMPI PUSH1 0x0 DUP1 REVERT JUMPDEST POP PUSH1 0x80 MLOAD PUSH2 0x5DD7 PUSH3 0x6E PUSH1 0x0 CODECOPY PUSH1 0x0 DUP2 DUP2 PUSH2 0x3648 ADD MSTORE DUP2 DUP2 PUSH2 0x369D ADD MSTORE PUSH2 0x38DE ADD MSTORE PUSH2 0x5DD7 PUSH1 0x0 RETURN INVALID PUSH1 0x80 PUSH1 0x40 MSTORE PUSH1 0x4 CALLDATASIZE LT PUSH2 0x293 JUMPI PUSH1 0x0 CALLDATALOAD PUSH1 0xE0 SHR DUP1 PUSH4 0x8DBB1E3A GT PUSH2 0x15A JUMPI DUP1 PUSH4 0xD22F1D80 GT PUSH2 0xC1 JUMPI DUP1 PUSH4 0xEA5C219D GT PUSH2 0x7A JUMPI DUP1 PUSH4 0xEA5C219D EQ PUSH2 0x997 JUMPI DUP1 PUSH4 0xF35E4A6E EQ PUSH2 0x9D4 JUMPI DUP1 PUSH4 0xF6326FB3 EQ PUSH2 0x9FD JUMPI DUP1 PUSH4 0xFAD07ECE EQ PUSH2 0xA07 JUMPI DUP1 PUSH4 0xFE313112 EQ PUSH2 0xA30 JUMPI DUP1 PUSH4 0xFF423357 EQ PUSH2 0xA73 JUMPI PUSH2 0x293 JUMP JUMPDEST DUP1 PUSH4 0xD22F1D80 EQ PUSH2 0x8B1 JUMPI DUP1 PUSH4 0xD547741F EQ PUSH2 0x8DC JUMPI DUP1 PUSH4 0xD7BC1769 EQ PUSH2 0x905 JUMPI DUP1 PUSH4 0xD86C0444 EQ PUSH2 0x92E JUMPI DUP1 PUSH4 0xDE065CAA EQ PUSH2 0x957 JUMPI DUP1 PUSH4 0xE2BBB158 EQ PUSH2 0x96E JUMPI PUSH2 0x293 JUMP JUMPDEST DUP1 PUSH4 0xAB5E124A GT PUSH2 0x113 JUMPI DUP1 PUSH4 0xAB5E124A EQ PUSH2 0x7B3 JUMPI DUP1 PUSH4 0xAD3CB1CC EQ PUSH2 0x7DE JUMPI DUP1 PUSH4 0xB6D9D919 EQ PUSH2 0x809 JUMPI DUP1 PUSH4 0xB908AFA8 EQ PUSH2 0x832 JUMPI DUP1 PUSH4 0xBFC3EBBA EQ PUSH2 0x85D JUMPI DUP1 PUSH4 0xC713AA94 EQ PUSH2 0x888 JUMPI PUSH2 0x293 JUMP JUMPDEST DUP1 PUSH4 0x8DBB1E3A EQ PUSH2 0x6A3 JUMPI DUP1 PUSH4 0x8FF095F9 EQ PUSH2 0x6E0 JUMPI DUP1 PUSH4 0x91D14854 EQ PUSH2 0x6F7 JUMPI DUP1 PUSH4 0x9E2C8A5B EQ PUSH2 0x734 JUMPI DUP1 PUSH4 0x9EA96E66 EQ PUSH2 0x75D JUMPI DUP1 PUSH4 0xA217FDDF EQ PUSH2 0x788 JUMPI PUSH2 0x293 JUMP JUMPDEST DUP1 PUSH4 0x48CD4CB1 GT PUSH2 0x1FE JUMPI DUP1 PUSH4 0x5C975ABB GT PUSH2 0x1B7 JUMPI DUP1 PUSH4 0x5C975ABB EQ PUSH2 0x5B9 JUMPI DUP1 PUSH4 0x6155E3DE EQ PUSH2 0x5E4 JUMPI DUP1 PUSH4 0x61A9A03D EQ PUSH2 0x5FB JUMPI DUP1 PUSH4 0x630B5BA1 EQ PUSH2 0x624 JUMPI DUP1 PUSH4 0x6325D5BC EQ PUSH2 0x63B JUMPI DUP1 PUSH4 0x75B238FC EQ PUSH2 0x678 JUMPI PUSH2 0x293 JUMP JUMPDEST DUP1 PUSH4 0x48CD4CB1 EQ PUSH2 0x4DE JUMPI DUP1 PUSH4 0x4EC81AF1 EQ PUSH2 0x509 JUMPI DUP1 PUSH4 0x4F1EF286 EQ PUSH2 0x532 JUMPI DUP1 PUSH4 0x51EB05A6 EQ PUSH2 0x54E JUMPI DUP1 PUSH4 0x52D1902D EQ PUSH2 0x577 JUMPI DUP1 PUSH4 0x5BB6D007 EQ PUSH2 0x5A2 JUMPI PUSH2 0x293 JUMP JUMPDEST DUP1 PUSH4 0x2E1A7D4D GT PUSH2 0x250 JUMPI DUP1 PUSH4 0x2E1A7D4D EQ PUSH2 0x3D0 JUMPI DUP1 PUSH4 0x2F2FF15D EQ PUSH2 0x3F9 JUMPI DUP1 PUSH4 0x2F3FFB9F EQ PUSH2 0x422 JUMPI DUP1 PUSH4 0x36568ABE EQ PUSH2 0x44D JUMPI DUP1 PUSH4 0x37849B3C EQ PUSH2 0x476 JUMPI DUP1 PUSH4 0x379607F5 EQ PUSH2 0x4B5 JUMPI PUSH2 0x293 JUMP JUMPDEST DUP1 PUSH4 0x1FFC9A7 EQ PUSH2 0x298 JUMPI DUP1 PUSH4 0x2559004 EQ PUSH2 0x2D5 JUMPI DUP1 PUSH4 0x81E3EDA EQ PUSH2 0x300 JUMPI DUP1 PUSH4 0x83C6323 EQ PUSH2 0x32B JUMPI DUP1 PUSH4 0x11548234 EQ PUSH2 0x356 JUMPI DUP1 PUSH4 0x248A9CA3 EQ PUSH2 0x393 JUMPI JUMPDEST PUSH1 0x0 DUP1 REVERT JUMPDEST CALLVALUE DUP1 ISZERO PUSH2 0x2A4 JUMPI PUSH1 0x0 DUP1 REVERT JUMPDEST POP PUSH2 0x2BF PUSH1 0x4 DUP1 CALLDATASIZE SUB DUP2 ADD SWAP1 PUSH2 0x2BA SWAP2 SWAP1 PUSH2 0x4385 JUMP JUMPDEST PUSH2 0xAB1 JUMP JUMPDEST PUSH1 0x40 MLOAD PUSH2 0x2CC SWAP2 SWAP1 PUSH2 0x43CD JUMP JUMPDEST PUSH1 0x40 MLOAD DUP1 SWAP2 SUB SWAP1 RETURN JUMPDEST CALLVALUE DUP1 ISZERO PUSH2 0x2E1 JUMPI PUSH1 0x0 DUP1 REVERT JUMPDEST POP PUSH2 0x2EA PUSH2 0xB2B JUMP JUMPDEST PUSH1 0x40 MLOAD PUSH2 0x2F7 SWAP2 SWAP1 PUSH2 0x4401 JUMP JUMPDEST PUSH1 0x40 MLOAD DUP1 SWAP2 SUB SWAP1 RETURN JUMPDEST CALLVALUE DUP1 ISZERO PUSH2 0x30C JUMPI PUSH1 0x0 DUP1 REVERT JUMPDEST POP PUSH2 0x315 PUSH2 0xB31 JUMP JUMPDEST PUSH1 0x40 MLOAD PUSH2 0x322 SWAP2 SWAP1 PUSH2 0x4401 JUMP JUMPDEST PUSH1 0x40 MLOAD DUP1 SWAP2 SUB SWAP1 RETURN JUMPDEST CALLVALUE DUP1 ISZERO PUSH2 0x337 JUMPI PUSH1 0x0 DUP1 REVERT JUMPDEST POP PUSH2 0x340 PUSH2 0xB3E JUMP JUMPDEST PUSH1 0x40 MLOAD PUSH2 0x34D SWAP2 SWAP1 PUSH2 0x4401 JUMP JUMPDEST PUSH1 0x40 MLOAD DUP1 SWAP2 SUB SWAP1 RETURN JUMPDEST CALLVALUE DUP1 ISZERO PUSH2 0x362 JUMPI PUSH1 0x0 DUP1 REVERT JUMPDEST POP PUSH2 0x37D PUSH1 0x4 DUP1 CALLDATASIZE SUB DUP2 ADD SWAP1 PUSH2 0x378 SWAP2 SWAP1 PUSH2 0x44A6 JUMP JUMPDEST PUSH2 0xB44 JUMP JUMPDEST PUSH1 0x40 MLOAD PUSH2 0x38A SWAP2 SWAP1 PUSH2 0x4401 JUMP JUMPDEST PUSH1 0x40 MLOAD DUP1 SWAP2 SUB SWAP1 RETURN JUMPDEST CALLVALUE DUP1 ISZERO PUSH2 0x39F JUMPI PUSH1 0x0 DUP1 REVERT JUMPDEST POP PUSH2 0x3BA PUSH1 0x4 DUP1 CALLDATASIZE SUB DUP2 ADD SWAP1 PUSH2 0x3B5 SWAP2 SWAP1 PUSH2 0x451C JUMP JUMPDEST PUSH2 0xBEB JUMP JUMPDEST PUSH1 0x40 MLOAD PUSH2 0x3C7 SWAP2 SWAP1 PUSH2 0x4558 JUMP JUMPDEST PUSH1 0x40 MLOAD DUP1 SWAP2 SUB SWAP1 RETURN JUMPDEST CALLVALUE DUP1 ISZERO PUSH2 0x3DC JUMPI PUSH1 0x0 DUP1 REVERT JUMPDEST POP PUSH2 0x3F7 PUSH1 0x4 DUP1 CALLDATASIZE SUB DUP2 ADD SWAP1 PUSH2 0x3F2 SWAP2 SWAP1 PUSH2 0x4573 JUMP JUMPDEST PUSH2 0xC19 JUMP JUMPDEST STOP JUMPDEST CALLVALUE DUP1 ISZERO PUSH2 0x405 JUMPI PUSH1 0x0 DUP1 REVERT JUMPDEST POP PUSH2 0x420 PUSH1 0x4 DUP1 CALLDATASIZE SUB DUP2 ADD SWAP1 PUSH2 0x41B SWAP2 SWAP1 PUSH2 0x45A0 JUMP JUMPDEST PUSH2 0xFCB JUMP JUMPDEST STOP JUMPDEST CALLVALUE DUP1 ISZERO PUSH2 0x42E JUMPI PUSH1 0x0 DUP1 REVERT JUMPDEST POP PUSH2 0x437 PUSH2 0xFED JUMP JUMPDEST PUSH1 0x40 MLOAD PUSH2 0x444 SWAP2 SWAP1 PUSH2 0x43CD JUMP JUMPDEST PUSH1 0x40 MLOAD DUP1 SWAP2 SUB SWAP1 RETURN JUMPDEST CALLVALUE DUP1 ISZERO PUSH2 0x459 JUMPI PUSH1 0x0 DUP1 REVERT JUMPDEST POP PUSH2 0x474 PUSH1 0x4 DUP1 CALLDATASIZE SUB DUP2 ADD SWAP1 PUSH2 0x46F SWAP2 SWAP1 PUSH2 0x45A0 JUMP JUMPDEST PUSH2 0x1000 JUMP JUMPDEST STOP JUMPDEST CALLVALUE DUP1 ISZERO PUSH2 0x482 JUMPI PUSH1 0x0 DUP1 REVERT JUMPDEST POP PUSH2 0x49D PUSH1 0x4 DUP1 CALLDATASIZE SUB DUP2 ADD SWAP1 PUSH2 0x498 SWAP2 SWAP1 PUSH2 0x44A6 JUMP JUMPDEST PUSH2 0x107B JUMP JUMPDEST PUSH1 0x40 MLOAD PUSH2 0x4AC SWAP4 SWAP3 SWAP2 SWAP1 PUSH2 0x45E0 JUMP JUMPDEST PUSH1 0x40 MLOAD DUP1 SWAP2 SUB SWAP1 RETURN JUMPDEST CALLVALUE DUP1 ISZERO PUSH2 0x4C1 JUMPI PUSH1 0x0 DUP1 REVERT JUMPDEST POP PUSH2 0x4DC PUSH1 0x4 DUP1 CALLDATASIZE SUB DUP2 ADD SWAP1 PUSH2 0x4D7 SWAP2 SWAP1 PUSH2 0x4573 JUMP JUMPDEST PUSH2 0x10B2 JUMP JUMPDEST STOP JUMPDEST CALLVALUE DUP1 ISZERO PUSH2 0x4EA JUMPI PUSH1 0x0 DUP1 REVERT JUMPDEST POP PUSH2 0x4F3 PUSH2 0x12C1 JUMP JUMPDEST PUSH1 0x40 MLOAD PUSH2 0x500 SWAP2 SWAP1 PUSH2 0x4401 JUMP JUMPDEST PUSH1 0x40 MLOAD DUP1 SWAP2 SUB SWAP1 RETURN JUMPDEST CALLVALUE DUP1 ISZERO PUSH2 0x515 JUMPI PUSH1 0x0 DUP1 REVERT JUMPDEST POP PUSH2 0x530 PUSH1 0x4 DUP1 CALLDATASIZE SUB DUP2 ADD SWAP1 PUSH2 0x52B SWAP2 SWAP1 PUSH2 0x4655 JUMP JUMPDEST PUSH2 0x12C7 JUMP JUMPDEST STOP JUMPDEST PUSH2 0x54C PUSH1 0x4 DUP1 CALLDATASIZE SUB DUP2 ADD SWAP1 PUSH2 0x547 SWAP2 SWAP1 PUSH2 0x4802 JUMP JUMPDEST PUSH2 0x1529 JUMP JUMPDEST STOP JUMPDEST CALLVALUE DUP1 ISZERO PUSH2 0x55A JUMPI PUSH1 0x0 DUP1 REVERT JUMPDEST POP PUSH2 0x575 PUSH1 0x4 DUP1 CALLDATASIZE SUB DUP2 ADD SWAP1 PUSH2 0x570 SWAP2 SWAP1 PUSH2 0x4573 JUMP JUMPDEST PUSH2 0x1548 JUMP JUMPDEST STOP JUMPDEST CALLVALUE DUP1 ISZERO PUSH2 0x583 JUMPI PUSH1 0x0 DUP1 REVERT JUMPDEST POP PUSH2 0x58C PUSH2 0x1819 JUMP JUMPDEST PUSH1 0x40 MLOAD PUSH2 0x599 SWAP2 SWAP1 PUSH2 0x4558 JUMP JUMPDEST PUSH1 0x40 MLOAD DUP1 SWAP2 SUB SWAP1 RETURN JUMPDEST CALLVALUE DUP1 ISZERO PUSH2 0x5AE JUMPI PUSH1 0x0 DUP1 REVERT JUMPDEST POP PUSH2 0x5B7 PUSH2 0x184C JUMP JUMPDEST STOP JUMPDEST CALLVALUE DUP1 ISZERO PUSH2 0x5C5 JUMPI PUSH1 0x0 DUP1 REVERT JUMPDEST POP PUSH2 0x5CE PUSH2 0x190F JUMP JUMPDEST PUSH1 0x40 MLOAD PUSH2 0x5DB SWAP2 SWAP1 PUSH2 0x43CD JUMP JUMPDEST PUSH1 0x40 MLOAD DUP1 SWAP2 SUB SWAP1 RETURN JUMPDEST CALLVALUE DUP1 ISZERO PUSH2 0x5F0 JUMPI PUSH1 0x0 DUP1 REVERT JUMPDEST POP PUSH2 0x5F9 PUSH2 0x1934 JUMP JUMPDEST STOP JUMPDEST CALLVALUE DUP1 ISZERO PUSH2 0x607 JUMPI PUSH1 0x0 DUP1 REVERT JUMPDEST POP PUSH2 0x622 PUSH1 0x4 DUP1 CALLDATASIZE SUB DUP2 ADD SWAP1 PUSH2 0x61D SWAP2 SWAP1 PUSH2 0x485E JUMP JUMPDEST PUSH2 0x19F8 JUMP JUMPDEST STOP JUMPDEST CALLVALUE DUP1 ISZERO PUSH2 0x630 JUMPI PUSH1 0x0 DUP1 REVERT JUMPDEST POP PUSH2 0x639 PUSH2 0x1ACC JUMP JUMPDEST STOP JUMPDEST CALLVALUE DUP1 ISZERO PUSH2 0x647 JUMPI PUSH1 0x0 DUP1 REVERT JUMPDEST POP PUSH2 0x662 PUSH1 0x4 DUP1 CALLDATASIZE SUB DUP2 ADD SWAP1 PUSH2 0x65D SWAP2 SWAP1 PUSH2 0x488B JUMP JUMPDEST PUSH2 0x1AFB JUMP JUMPDEST PUSH1 0x40 MLOAD PUSH2 0x66F SWAP2 SWAP1 PUSH2 0x4401 JUMP JUMPDEST PUSH1 0x40 MLOAD DUP1 SWAP2 SUB SWAP1 RETURN JUMPDEST CALLVALUE DUP1 ISZERO PUSH2 0x684 JUMPI PUSH1 0x0 DUP1 REVERT JUMPDEST POP PUSH2 0x68D PUSH2 0x1C9B JUMP JUMPDEST PUSH1 0x40 MLOAD PUSH2 0x69A SWAP2 SWAP1 PUSH2 0x4558 JUMP JUMPDEST PUSH1 0x40 MLOAD DUP1 SWAP2 SUB SWAP1 RETURN JUMPDEST CALLVALUE DUP1 ISZERO PUSH2 0x6AF JUMPI PUSH1 0x0 DUP1 REVERT JUMPDEST POP PUSH2 0x6CA PUSH1 0x4 DUP1 CALLDATASIZE SUB DUP2 ADD SWAP1 PUSH2 0x6C5 SWAP2 SWAP1 PUSH2 0x48DE JUMP JUMPDEST PUSH2 0x1CBF JUMP JUMPDEST PUSH1 0x40 MLOAD PUSH2 0x6D7 SWAP2 SWAP1 PUSH2 0x4401 JUMP JUMPDEST PUSH1 0x40 MLOAD DUP1 SWAP2 SUB SWAP1 RETURN JUMPDEST CALLVALUE DUP1 ISZERO PUSH2 0x6EC JUMPI PUSH1 0x0 DUP1 REVERT JUMPDEST POP PUSH2 0x6F5 PUSH2 0x1DD8 JUMP JUMPDEST STOP JUMPDEST CALLVALUE DUP1 ISZERO PUSH2 0x703 JUMPI PUSH1 0x0 DUP1 REVERT JUMPDEST POP PUSH2 0x71E PUSH1 0x4 DUP1 CALLDATASIZE SUB DUP2 ADD SWAP1 PUSH2 0x719 SWAP2 SWAP1 PUSH2 0x45A0 JUMP JUMPDEST PUSH2 0x1E9C JUMP JUMPDEST PUSH1 0x40 MLOAD PUSH2 0x72B SWAP2 SWAP1 PUSH2 0x43CD JUMP JUMPDEST PUSH1 0x40 MLOAD DUP1 SWAP2 SUB SWAP1 RETURN JUMPDEST CALLVALUE DUP1 ISZERO PUSH2 0x740 JUMPI PUSH1 0x0 DUP1 REVERT JUMPDEST POP PUSH2 0x75B PUSH1 0x4 DUP1 CALLDATASIZE SUB DUP2 ADD SWAP1 PUSH2 0x756 SWAP2 SWAP1 PUSH2 0x48DE JUMP JUMPDEST PUSH2 0x1F15 JUMP JUMPDEST STOP JUMPDEST CALLVALUE DUP1 ISZERO PUSH2 0x769 JUMPI PUSH1 0x0 DUP1 REVERT JUMPDEST POP PUSH2 0x772 PUSH2 0x2202 JUMP JUMPDEST PUSH1 0x40 MLOAD PUSH2 0x77F SWAP2 SWAP1 PUSH2 0x4401 JUMP JUMPDEST PUSH1 0x40 MLOAD DUP1 SWAP2 SUB SWAP1 RETURN JUMPDEST CALLVALUE DUP1 ISZERO PUSH2 0x794 JUMPI PUSH1 0x0 DUP1 REVERT JUMPDEST POP PUSH2 0x79D PUSH2 0x2208 JUMP JUMPDEST PUSH1 0x40 MLOAD PUSH2 0x7AA SWAP2 SWAP1 PUSH2 0x4558 JUMP JUMPDEST PUSH1 0x40 MLOAD DUP1 SWAP2 SUB SWAP1 RETURN JUMPDEST CALLVALUE DUP1 ISZERO PUSH2 0x7BF JUMPI PUSH1 0x0 DUP1 REVERT JUMPDEST POP PUSH2 0x7C8 PUSH2 0x220F JUMP JUMPDEST PUSH1 0x40 MLOAD PUSH2 0x7D5 SWAP2 SWAP1 PUSH2 0x43CD JUMP JUMPDEST PUSH1 0x40 MLOAD DUP1 SWAP2 SUB SWAP1 RETURN JUMPDEST CALLVALUE DUP1 ISZERO PUSH2 0x7EA JUMPI PUSH1 0x0 DUP1 REVERT JUMPDEST POP PUSH2 0x7F3 PUSH2 0x2222 JUMP JUMPDEST PUSH1 0x40 MLOAD PUSH2 0x800 SWAP2 SWAP1 PUSH2 0x499D JUMP JUMPDEST PUSH1 0x40 MLOAD DUP1 SWAP2 SUB SWAP1 RETURN JUMPDEST CALLVALUE DUP1 ISZERO PUSH2 0x815 JUMPI PUSH1 0x0 DUP1 REVERT JUMPDEST POP PUSH2 0x830 PUSH1 0x4 DUP1 CALLDATASIZE SUB DUP2 ADD SWAP1 PUSH2 0x82B SWAP2 SWAP1 PUSH2 0x49EB JUMP JUMPDEST PUSH2 0x225B JUMP JUMPDEST STOP JUMPDEST CALLVALUE DUP1 ISZERO PUSH2 0x83E JUMPI PUSH1 0x0 DUP1 REVERT JUMPDEST POP PUSH2 0x847 PUSH2 0x258D JUMP JUMPDEST PUSH1 0x40 MLOAD PUSH2 0x854 SWAP2 SWAP1 PUSH2 0x4558 JUMP JUMPDEST PUSH1 0x40 MLOAD DUP1 SWAP2 SUB SWAP1 RETURN JUMPDEST CALLVALUE DUP1 ISZERO PUSH2 0x869 JUMPI PUSH1 0x0 DUP1 REVERT JUMPDEST POP PUSH2 0x872 PUSH2 0x25B1 JUMP JUMPDEST PUSH1 0x40 MLOAD PUSH2 0x87F SWAP2 SWAP1 PUSH2 0x4401 JUMP JUMPDEST PUSH1 0x40 MLOAD DUP1 SWAP2 SUB SWAP1 RETURN JUMPDEST CALLVALUE DUP1 ISZERO PUSH2 0x894 JUMPI PUSH1 0x0 DUP1 REVERT JUMPDEST POP PUSH2 0x8AF PUSH1 0x4 DUP1 CALLDATASIZE SUB DUP2 ADD SWAP1 PUSH2 0x8AA SWAP2 SWAP1 PUSH2 0x4573 JUMP JUMPDEST PUSH2 0x25B6 JUMP JUMPDEST STOP JUMPDEST CALLVALUE DUP1 ISZERO PUSH2 0x8BD JUMPI PUSH1 0x0 DUP1 REVERT JUMPDEST POP PUSH2 0x8C6 PUSH2 0x265D JUMP JUMPDEST PUSH1 0x40 MLOAD PUSH2 0x8D3 SWAP2 SWAP1 PUSH2 0x4AC5 JUMP JUMPDEST PUSH1 0x40 MLOAD DUP1 SWAP2 SUB SWAP1 RETURN JUMPDEST CALLVALUE DUP1 ISZERO PUSH2 0x8E8 JUMPI PUSH1 0x0 DUP1 REVERT JUMPDEST POP PUSH2 0x903 PUSH1 0x4 DUP1 CALLDATASIZE SUB DUP2 ADD SWAP1 PUSH2 0x8FE SWAP2 SWAP1 PUSH2 0x45A0 JUMP JUMPDEST PUSH2 0x2683 JUMP JUMPDEST STOP JUMPDEST CALLVALUE DUP1 ISZERO PUSH2 0x911 JUMPI PUSH1 0x0 DUP1 REVERT JUMPDEST POP PUSH2 0x92C PUSH1 0x4 DUP1 CALLDATASIZE SUB DUP2 ADD SWAP1 PUSH2 0x927 SWAP2 SWAP1 PUSH2 0x4573 JUMP JUMPDEST PUSH2 0x26A5 JUMP JUMPDEST STOP JUMPDEST CALLVALUE DUP1 ISZERO PUSH2 0x93A JUMPI PUSH1 0x0 DUP1 REVERT JUMPDEST POP PUSH2 0x955 PUSH1 0x4 DUP1 CALLDATASIZE SUB DUP2 ADD SWAP1 PUSH2 0x950 SWAP2 SWAP1 PUSH2 0x4AE0 JUMP JUMPDEST PUSH2 0x274A JUMP JUMPDEST STOP JUMPDEST CALLVALUE DUP1 ISZERO PUSH2 0x963 JUMPI PUSH1 0x0 DUP1 REVERT JUMPDEST POP PUSH2 0x96C PUSH2 0x2846 JUMP JUMPDEST STOP JUMPDEST CALLVALUE DUP1 ISZERO PUSH2 0x97A JUMPI PUSH1 0x0 DUP1 REVERT JUMPDEST POP PUSH2 0x995 PUSH1 0x4 DUP1 CALLDATASIZE SUB DUP2 ADD SWAP1 PUSH2 0x990 SWAP2 SWAP1 PUSH2 0x48DE JUMP JUMPDEST PUSH2 0x2909 JUMP JUMPDEST STOP JUMPDEST CALLVALUE DUP1 ISZERO PUSH2 0x9A3 JUMPI PUSH1 0x0 DUP1 REVERT JUMPDEST POP PUSH2 0x9BE PUSH1 0x4 DUP1 CALLDATASIZE SUB DUP2 ADD SWAP1 PUSH2 0x9B9 SWAP2 SWAP1 PUSH2 0x44A6 JUMP JUMPDEST PUSH2 0x2A73 JUMP JUMPDEST PUSH1 0x40 MLOAD PUSH2 0x9CB SWAP2 SWAP1 PUSH2 0x4401 JUMP JUMPDEST PUSH1 0x40 MLOAD DUP1 SWAP2 SUB SWAP1 RETURN JUMPDEST CALLVALUE DUP1 ISZERO PUSH2 0x9E0 JUMPI PUSH1 0x0 DUP1 REVERT JUMPDEST POP PUSH2 0x9FB PUSH1 0x4 DUP1 CALLDATASIZE SUB DUP2 ADD SWAP1 PUSH2 0x9F6 SWAP2 SWAP1 PUSH2 0x4573 JUMP JUMPDEST PUSH2 0x2AD1 JUMP JUMPDEST STOP JUMPDEST PUSH2 0xA05 PUSH2 0x2B78 JUMP JUMPDEST STOP JUMPDEST CALLVALUE DUP1 ISZERO PUSH2 0xA13 JUMPI PUSH1 0x0 DUP1 REVERT JUMPDEST POP PUSH2 0xA2E PUSH1 0x4 DUP1 CALLDATASIZE SUB DUP2 ADD SWAP1 PUSH2 0xA29 SWAP2 SWAP1 PUSH2 0x4B33 JUMP JUMPDEST PUSH2 0x2C95 JUMP JUMPDEST STOP JUMPDEST CALLVALUE DUP1 ISZERO PUSH2 0xA3C JUMPI PUSH1 0x0 DUP1 REVERT JUMPDEST POP PUSH2 0xA57 PUSH1 0x4 DUP1 CALLDATASIZE SUB DUP2 ADD SWAP1 PUSH2 0xA52 SWAP2 SWAP1 PUSH2 0x4573 JUMP JUMPDEST PUSH2 0x2E09 JUMP JUMPDEST PUSH1 0x40 MLOAD PUSH2 0xA6A SWAP8 SWAP7 SWAP6 SWAP5 SWAP4 SWAP3 SWAP2 SWAP1 PUSH2 0x4B95 JUMP JUMPDEST PUSH1 0x40 MLOAD DUP1 SWAP2 SUB SWAP1 RETURN JUMPDEST CALLVALUE DUP1 ISZERO PUSH2 0xA7F JUMPI PUSH1 0x0 DUP1 REVERT JUMPDEST POP PUSH2 0xA9A PUSH1 0x4 DUP1 CALLDATASIZE SUB DUP2 ADD SWAP1 PUSH2 0xA95 SWAP2 SWAP1 PUSH2 0x44A6 JUMP JUMPDEST PUSH2 0x2E7B JUMP JUMPDEST PUSH1 0x40 MLOAD PUSH2 0xAA8 SWAP3 SWAP2 SWAP1 PUSH2 0x4C04 JUMP JUMPDEST PUSH1 0x40 MLOAD DUP1 SWAP2 SUB SWAP1 RETURN JUMPDEST PUSH1 0x0 PUSH32 0x7965DB0B00000000000000000000000000000000000000000000000000000000 PUSH28 0xFFFFFFFFFFFFFFFFFFFFFFFFFFFFFFFFFFFFFFFFFFFFFFFFFFFFFFFF NOT AND DUP3 PUSH28 0xFFFFFFFFFFFFFFFFFFFFFFFFFFFFFFFFFFFFFFFFFFFFFFFFFFFFFFFF NOT AND EQ DUP1 PUSH2 0xB24 JUMPI POP PUSH2 0xB23 DUP3 PUSH2 0x2FDC JUMP JUMPDEST JUMPDEST SWAP1 POP SWAP2 SWAP1 POP JUMP JUMPDEST PUSH1 0x4 SLOAD DUP2 JUMP JUMPDEST PUSH1 0x0 PUSH1 0x5 DUP1 SLOAD SWAP1 POP SWAP1 POP SWAP1 JUMP JUMPDEST PUSH1 0x1 SLOAD DUP2 JUMP JUMPDEST PUSH1 0x0 DUP3 PUSH1 0x5 DUP1 SLOAD SWAP1 POP DUP2 LT PUSH2 0xB8E JUMPI PUSH1 0x40 MLOAD PUSH32 0x8C379A000000000000000000000000000000000000000000000000000000000 DUP2 MSTORE PUSH1 0x4 ADD PUSH2 0xB85 SWAP1 PUSH2 0x4C79 JUMP JUMPDEST PUSH1 0x40 MLOAD DUP1 SWAP2 SUB SWAP1 REVERT JUMPDEST PUSH1 0x6 PUSH1 0x0 DUP6 DUP2 MSTORE PUSH1 0x20 ADD SWAP1 DUP2 MSTORE PUSH1 0x20 ADD PUSH1 0x0 KECCAK256 PUSH1 0x0 DUP5 PUSH20 0xFFFFFFFFFFFFFFFFFFFFFFFFFFFFFFFFFFFFFFFF AND PUSH20 0xFFFFFFFFFFFFFFFFFFFFFFFFFFFFFFFFFFFFFFFF AND DUP2 MSTORE PUSH1 0x20 ADD SWAP1 DUP2 MSTORE PUSH1 0x20 ADD PUSH1 0x0 KECCAK256 PUSH1 0x0 ADD SLOAD SWAP2 POP POP SWAP3 SWAP2 POP POP JUMP JUMPDEST PUSH1 0x0 DUP1 PUSH2 0xBF6 PUSH2 0x3046 JUMP JUMPDEST SWAP1 POP DUP1 PUSH1 0x0 ADD PUSH1 0x0 DUP5 DUP2 MSTORE PUSH1 0x20 ADD SWAP1 DUP2 MSTORE PUSH1 0x20 ADD PUSH1 0x0 KECCAK256 PUSH1 0x1 ADD SLOAD SWAP2 POP POP SWAP2 SWAP1 POP JUMP JUMPDEST PUSH2 0xC21 PUSH2 0x306E JUMP JUMPDEST DUP1 PUSH1 0x5 DUP1 SLOAD SWAP1 POP DUP2 LT PUSH2 0xC69 JUMPI PUSH1 0x40 MLOAD PUSH32 0x8C379A000000000000000000000000000000000000000000000000000000000 DUP2 MSTORE PUSH1 0x4 ADD PUSH2 0xC60 SWAP1 PUSH2 0x4C79 JUMP JUMPDEST PUSH1 0x40 MLOAD DUP1 SWAP2 SUB SWAP1 REVERT JUMPDEST PUSH1 0x3 PUSH1 0x0 SWAP1 SLOAD SWAP1 PUSH2 0x100 EXP SWAP1 DIV PUSH1 0xFF AND ISZERO PUSH2 0xCB9 JUMPI PUSH1 0x40 MLOAD PUSH32 0x8C379A000000000000000000000000000000000000000000000000000000000 DUP2 MSTORE PUSH1 0x4 ADD PUSH2 0xCB0 SWAP1 PUSH2 0x4CE5 JUMP JUMPDEST PUSH1 0x40 MLOAD DUP1 SWAP2 SUB SWAP1 REVERT JUMPDEST PUSH1 0x0 PUSH1 0x5 DUP4 DUP2 SLOAD DUP2 LT PUSH2 0xCCF JUMPI PUSH2 0xCCE PUSH2 0x4D05 JUMP JUMPDEST JUMPDEST SWAP1 PUSH1 0x0 MSTORE PUSH1 0x20 PUSH1 0x0 KECCAK256 SWAP1 PUSH1 0x7 MUL ADD SWAP1 POP PUSH1 0x0 PUSH1 0x6 PUSH1 0x0 DUP6 DUP2 MSTORE PUSH1 0x20 ADD SWAP1 DUP2 MSTORE PUSH1 0x20 ADD PUSH1 0x0 KECCAK256 PUSH1 0x0 CALLER PUSH20 0xFFFFFFFFFFFFFFFFFFFFFFFFFFFFFFFFFFFFFFFF AND PUSH20 0xFFFFFFFFFFFFFFFFFFFFFFFFFFFFFFFFFFFFFFFF AND DUP2 MSTORE PUSH1 0x20 ADD SWAP1 DUP2 MSTORE PUSH1 0x20 ADD PUSH1 0x0 KECCAK256 SWAP1 POP PUSH1 0x0 DUP1 PUSH1 0x0 JUMPDEST DUP4 PUSH1 0x3 ADD DUP1 SLOAD SWAP1 POP DUP2 LT ISZERO PUSH2 0xDC6 JUMPI NUMBER DUP5 PUSH1 0x3 ADD DUP3 DUP2 SLOAD DUP2 LT PUSH2 0xD5F JUMPI PUSH2 0xD5E PUSH2 0x4D05 JUMP JUMPDEST JUMPDEST SWAP1 PUSH1 0x0 MSTORE PUSH1 0x20 PUSH1 0x0 KECCAK256 SWAP1 PUSH1 0x2 MUL ADD PUSH1 0x1 ADD SLOAD GT PUSH2 0xDC6 JUMPI DUP4 PUSH1 0x3 ADD DUP2 DUP2 SLOAD DUP2 LT PUSH2 0xD8C JUMPI PUSH2 0xD8B PUSH2 0x4D05 JUMP JUMPDEST JUMPDEST SWAP1 PUSH1 0x0 MSTORE PUSH1 0x20 PUSH1 0x0 KECCAK256 SWAP1 PUSH1 0x2 MUL ADD PUSH1 0x0 ADD SLOAD DUP4 PUSH2 0xDA9 SWAP2 SWAP1 PUSH2 0x4D63 JUMP JUMPDEST SWAP3 POP DUP2 DUP1 PUSH2 0xDB6 SWAP1 PUSH2 0x4D97 JUMP JUMPDEST SWAP3 POP POP DUP1 DUP1 PUSH1 0x1 ADD SWAP2 POP POP PUSH2 0xD39 JUMP JUMPDEST POP PUSH1 0x0 JUMPDEST DUP2 DUP5 PUSH1 0x3 ADD DUP1 SLOAD SWAP1 POP PUSH2 0xDDD SWAP2 SWAP1 PUSH2 0x4DDF JUMP JUMPDEST DUP2 LT ISZERO PUSH2 0xE5B JUMPI DUP4 PUSH1 0x3 ADD DUP3 DUP3 PUSH2 0xDF4 SWAP2 SWAP1 PUSH2 0x4D63 JUMP JUMPDEST DUP2 SLOAD DUP2 LT PUSH2 0xE05 JUMPI PUSH2 0xE04 PUSH2 0x4D05 JUMP JUMPDEST JUMPDEST SWAP1 PUSH1 0x0 MSTORE PUSH1 0x20 PUSH1 0x0 KECCAK256 SWAP1 PUSH1 0x2 MUL ADD DUP5 PUSH1 0x3 ADD DUP3 DUP2 SLOAD DUP2 LT PUSH2 0xE29 JUMPI PUSH2 0xE28 PUSH2 0x4D05 JUMP JUMPDEST JUMPDEST SWAP1 PUSH1 0x0 MSTORE PUSH1 0x20 PUSH1 0x0 KECCAK256 SWAP1 PUSH1 0x2 MUL ADD PUSH1 0x0 DUP3 ADD SLOAD DUP2 PUSH1 0x0 ADD SSTORE PUSH1 0x1 DUP3 ADD SLOAD DUP2 PUSH1 0x1 ADD SSTORE SWAP1 POP POP DUP1 DUP1 PUSH1 0x1 ADD SWAP2 POP POP PUSH2 0xDCA JUMP JUMPDEST POP PUSH1 0x0 JUMPDEST DUP2 DUP2 LT ISZERO PUSH2 0xEB1 JUMPI DUP4 PUSH1 0x3 ADD DUP1 SLOAD DUP1 PUSH2 0xE7B JUMPI PUSH2 0xE7A PUSH2 0x4E13 JUMP JUMPDEST JUMPDEST PUSH1 0x1 SWAP1 SUB DUP2 DUP2 SWAP1 PUSH1 0x0 MSTORE PUSH1 0x20 PUSH1 0x0 KECCAK256 SWAP1 PUSH1 0x2 MUL ADD PUSH1 0x0 DUP1 DUP3 ADD PUSH1 0x0 SWAP1 SSTORE PUSH1 0x1 DUP3 ADD PUSH1 0x0 SWAP1 SSTORE POP POP SWAP1 SSTORE DUP1 DUP1 PUSH1 0x1 ADD SWAP2 POP POP PUSH2 0xE5F JUMP JUMPDEST POP PUSH1 0x0 DUP3 GT ISZERO PUSH2 0xF73 JUMPI PUSH1 0x0 PUSH20 0xFFFFFFFFFFFFFFFFFFFFFFFFFFFFFFFFFFFFFFFF AND DUP5 PUSH1 0x0 ADD PUSH1 0x0 SWAP1 SLOAD SWAP1 PUSH2 0x100 EXP SWAP1 DIV PUSH20 0xFFFFFFFFFFFFFFFFFFFFFFFFFFFFFFFFFFFFFFFF AND PUSH20 0xFFFFFFFFFFFFFFFFFFFFFFFFFFFFFFFFFFFFFFFF AND SUB PUSH2 0xF22 JUMPI PUSH2 0xF1D CALLER DUP4 PUSH2 0x30AF JUMP JUMPDEST PUSH2 0xF72 JUMP JUMPDEST PUSH2 0xF71 CALLER DUP4 DUP7 PUSH1 0x0 ADD PUSH1 0x0 SWAP1 SLOAD SWAP1 PUSH2 0x100 EXP SWAP1 DIV PUSH20 0xFFFFFFFFFFFFFFFFFFFFFFFFFFFFFFFFFFFFFFFF AND PUSH20 0xFFFFFFFFFFFFFFFFFFFFFFFFFFFFFFFFFFFFFFFF AND PUSH2 0x31C1 SWAP1 SWAP3 SWAP2 SWAP1 PUSH4 0xFFFFFFFF AND JUMP JUMPDEST JUMPDEST JUMPDEST NUMBER DUP7 CALLER PUSH20 0xFFFFFFFFFFFFFFFFFFFFFFFFFFFFFFFFFFFFFFFF AND PUSH32 0x2F25270A4D87BEA75DB541CDFE559334A275B4A233520ED6C0A2429667CCA94 DUP6 PUSH1 0x40 MLOAD PUSH2 0xFBB SWAP2 SWAP1 PUSH2 0x4401 JUMP JUMPDEST PUSH1 0x40 MLOAD DUP1 SWAP2 SUB SWAP1 LOG4 POP POP POP POP POP POP JUMP JUMPDEST PUSH2 0xFD4 DUP3 PUSH2 0xBEB JUMP JUMPDEST PUSH2 0xFDD DUP2 PUSH2 0x3214 JUMP JUMPDEST PUSH2 0xFE7 DUP4 DUP4 PUSH2 0x3228 JUMP JUMPDEST POP POP POP POP JUMP JUMPDEST PUSH1 0x3 PUSH1 0x0 SWAP1 SLOAD SWAP1 PUSH2 0x100 EXP SWAP1 DIV PUSH1 0xFF AND DUP2 JUMP JUMPDEST PUSH2 0x1008 PUSH2 0x3329 JUMP JUMPDEST PUSH20 0xFFFFFFFFFFFFFFFFFFFFFFFFFFFFFFFFFFFFFFFF AND DUP2 PUSH20 0xFFFFFFFFFFFFFFFFFFFFFFFFFFFFFFFFFFFFFFFF AND EQ PUSH2 0x106C JUMPI PUSH1 0x40 MLOAD PUSH32 0x6697B23200000000000000000000000000000000000000000000000000000000 DUP2 MSTORE PUSH1 0x4 ADD PUSH1 0x40 MLOAD DUP1 SWAP2 SUB SWAP1 REVERT JUMPDEST PUSH2 0x1076 DUP3 DUP3 PUSH2 0x3331 JUMP JUMPDEST POP POP POP JUMP JUMPDEST PUSH1 0x6 PUSH1 0x20 MSTORE DUP2 PUSH1 0x0 MSTORE PUSH1 0x40 PUSH1 0x0 KECCAK256 PUSH1 0x20 MSTORE DUP1 PUSH1 0x0 MSTORE PUSH1 0x40 PUSH1 0x0 KECCAK256 PUSH1 0x0 SWAP2 POP SWAP2 POP POP DUP1 PUSH1 0x0 ADD SLOAD SWAP1 DUP1 PUSH1 0x1 ADD SLOAD SWAP1 DUP1 PUSH1 0x2 ADD SLOAD SWAP1 POP DUP4 JUMP JUMPDEST PUSH2 0x10BA PUSH2 0x306E JUMP JUMPDEST DUP1 PUSH1 0x5 DUP1 SLOAD SWAP1 POP DUP2 LT PUSH2 0x1102 JUMPI PUSH1 0x40 MLOAD PUSH32 0x8C379A000000000000000000000000000000000000000000000000000000000 DUP2 MSTORE PUSH1 0x4 ADD PUSH2 0x10F9 SWAP1 PUSH2 0x4C79 JUMP JUMPDEST PUSH1 0x40 MLOAD DUP1 SWAP2 SUB SWAP1 REVERT JUMPDEST PUSH1 0x3 PUSH1 0x1 SWAP1 SLOAD SWAP1 PUSH2 0x100 EXP SWAP1 DIV PUSH1 0xFF AND ISZERO PUSH2 0x1152 JUMPI PUSH1 0x40 MLOAD PUSH32 0x8C379A000000000000000000000000000000000000000000000000000000000 DUP2 MSTORE PUSH1 0x4 ADD PUSH2 0x1149 SWAP1 PUSH2 0x4E8E JUMP JUMPDEST PUSH1 0x40 MLOAD DUP1 SWAP2 SUB SWAP1 REVERT JUMPDEST PUSH1 0x0 PUSH1 0x5 DUP4 DUP2 SLOAD DUP2 LT PUSH2 0x1168 JUMPI PUSH2 0x1167 PUSH2 0x4D05 JUMP JUMPDEST JUMPDEST SWAP1 PUSH1 0x0 MSTORE PUSH1 0x20 PUSH1 0x0 KECCAK256 SWAP1 PUSH1 0x7 MUL ADD SWAP1 POP PUSH1 0x0 PUSH1 0x6 PUSH1 0x0 DUP6 DUP2 MSTORE PUSH1 0x20 ADD SWAP1 DUP2 MSTORE PUSH1 0x20 ADD PUSH1 0x0 KECCAK256 PUSH1 0x0 CALLER PUSH20 0xFFFFFFFFFFFFFFFFFFFFFFFFFFFFFFFFFFFFFFFF AND PUSH20 0xFFFFFFFFFFFFFFFFFFFFFFFFFFFFFFFFFFFFFFFF AND DUP2 MSTORE PUSH1 0x20 ADD SWAP1 DUP2 MSTORE PUSH1 0x20 ADD PUSH1 0x0 KECCAK256 SWAP1 POP PUSH2 0x11D5 DUP5 PUSH2 0x1548 JUMP JUMPDEST PUSH1 0x0 DUP2 PUSH1 0x2 ADD SLOAD DUP3 PUSH1 0x1 ADD SLOAD PUSH8 0xDE0B6B3A7640000 DUP6 PUSH1 0x3 ADD SLOAD DUP6 PUSH1 0x0 ADD SLOAD PUSH2 0x11FE SWAP2 SWAP1 PUSH2 0x4EAE JUMP JUMPDEST PUSH2 0x1208 SWAP2 SWAP1 PUSH2 0x4F1F JUMP JUMPDEST PUSH2 0x1212 SWAP2 SWAP1 PUSH2 0x4DDF JUMP JUMPDEST PUSH2 0x121C SWAP2 SWAP1 PUSH2 0x4D63 JUMP JUMPDEST SWAP1 POP PUSH1 0x0 DUP2 GT ISZERO PUSH2 0x123C JUMPI PUSH1 0x0 DUP3 PUSH1 0x2 ADD DUP2 SWAP1 SSTORE POP PUSH2 0x123B CALLER DUP3 PUSH2 0x3433 JUMP JUMPDEST JUMPDEST PUSH8 0xDE0B6B3A7640000 DUP4 PUSH1 0x3 ADD SLOAD DUP4 PUSH1 0x0 ADD SLOAD PUSH2 0x1259 SWAP2 SWAP1 PUSH2 0x4EAE JUMP JUMPDEST PUSH2 0x1263 SWAP2 SWAP1 PUSH2 0x4F1F JUMP JUMPDEST DUP3 PUSH1 0x1 ADD DUP2 SWAP1 SSTORE POP DUP5 CALLER PUSH20 0xFFFFFFFFFFFFFFFFFFFFFFFFFFFFFFFFFFFFFFFF AND PUSH32 0x34FCBAC0073D7C3D388E51312FAF357774904998EEB8FCA628B9E6F65EE1CBF7 DUP4 PUSH1 0x40 MLOAD PUSH2 0x12B2 SWAP2 SWAP1 PUSH2 0x4401 JUMP JUMPDEST PUSH1 0x40 MLOAD DUP1 SWAP2 SUB SWAP1 LOG3 POP POP POP POP POP JUMP JUMPDEST PUSH1 0x0 SLOAD DUP2 JUMP JUMPDEST PUSH1 0x0 PUSH2 0x12D1 PUSH2 0x3628 JUMP JUMPDEST SWAP1 POP PUSH1 0x0 DUP2 PUSH1 0x0 ADD PUSH1 0x8 SWAP1 SLOAD SWAP1 PUSH2 0x100 EXP SWAP1 DIV PUSH1 0xFF AND ISZERO SWAP1 POP PUSH1 0x0 DUP3 PUSH1 0x0 ADD PUSH1 0x0 SWAP1 SLOAD SWAP1 PUSH2 0x100 EXP SWAP1 DIV PUSH8 0xFFFFFFFFFFFFFFFF AND SWAP1 POP PUSH1 0x0 DUP1 DUP3 PUSH8 0xFFFFFFFFFFFFFFFF AND EQ DUP1 ISZERO PUSH2 0x131F JUMPI POP DUP3 JUMPDEST SWAP1 POP PUSH1 0x0 PUSH1 0x1 DUP4 PUSH8 0xFFFFFFFFFFFFFFFF AND EQ DUP1 ISZERO PUSH2 0x1354 JUMPI POP PUSH1 0x0 ADDRESS PUSH20 0xFFFFFFFFFFFFFFFFFFFFFFFFFFFFFFFFFFFFFFFF AND EXTCODESIZE EQ JUMPDEST SWAP1 POP DUP2 ISZERO DUP1 ISZERO PUSH2 0x1362 JUMPI POP DUP1 ISZERO JUMPDEST ISZERO PUSH2 0x1399 JUMPI PUSH1 0x40 MLOAD PUSH32 0xF92EE8A900000000000000000000000000000000000000000000000000000000 DUP2 MSTORE PUSH1 0x4 ADD PUSH1 0x40 MLOAD DUP1 SWAP2 SUB SWAP1 REVERT JUMPDEST PUSH1 0x1 DUP6 PUSH1 0x0 ADD PUSH1 0x0 PUSH2 0x100 EXP DUP2 SLOAD DUP2 PUSH8 0xFFFFFFFFFFFFFFFF MUL NOT AND SWAP1 DUP4 PUSH8 0xFFFFFFFFFFFFFFFF AND MUL OR SWAP1 SSTORE POP DUP4 ISZERO PUSH2 0x13E9 JUMPI PUSH1 0x1 DUP6 PUSH1 0x0 ADD PUSH1 0x8 PUSH2 0x100 EXP DUP2 SLOAD DUP2 PUSH1 0xFF MUL NOT AND SWAP1 DUP4 ISZERO ISZERO MUL OR SWAP1 SSTORE POP JUMPDEST DUP7 DUP9 GT ISZERO DUP1 ISZERO PUSH2 0x13F9 JUMPI POP PUSH1 0x0 DUP7 GT JUMPDEST PUSH2 0x1438 JUMPI PUSH1 0x40 MLOAD PUSH32 0x8C379A000000000000000000000000000000000000000000000000000000000 DUP2 MSTORE PUSH1 0x4 ADD PUSH2 0x142F SWAP1 PUSH2 0x4F9C JUMP JUMPDEST PUSH1 0x40 MLOAD DUP1 SWAP2 SUB SWAP1 REVERT JUMPDEST PUSH2 0x1440 PUSH2 0x363C JUMP JUMPDEST PUSH2 0x144D PUSH1 0x0 DUP1 SHL CALLER PUSH2 0x3228 JUMP JUMPDEST POP PUSH2 0x1478 PUSH32 0xCAB03BC4DBCC648CD59D6BBE9F848D1E9092F914016AA290EE92E18700D1E6F9 CALLER PUSH2 0x3228 JUMP JUMPDEST POP PUSH2 0x14A3 PUSH32 0x589D473BA17C0F47D494622893831497BAD25919B9AFB8E33E9521B8963FCCDE CALLER PUSH2 0x3228 JUMP JUMPDEST POP PUSH2 0x14AD DUP10 PUSH2 0x19F8 JUMP JUMPDEST DUP8 PUSH1 0x0 DUP2 SWAP1 SSTORE POP DUP7 PUSH1 0x1 DUP2 SWAP1 SSTORE POP DUP6 PUSH1 0x2 DUP2 SWAP1 SSTORE POP DUP4 ISZERO PUSH2 0x151E JUMPI PUSH1 0x0 DUP6 PUSH1 0x0 ADD PUSH1 0x8 PUSH2 0x100 EXP DUP2 SLOAD DUP2 PUSH1 0xFF MUL NOT AND SWAP1 DUP4 ISZERO ISZERO MUL OR SWAP1 SSTORE POP PUSH32 0xC7F505B2F371AE2175EE4913F4499E1F2633A7B5936321EED1CDAEB6115181D2 PUSH1 0x1 PUSH1 0x40 MLOAD PUSH2 0x1515 SWAP2 SWAP1 PUSH2 0x500B JUMP JUMPDEST PUSH1 0x40 MLOAD DUP1 SWAP2 SUB SWAP1 LOG1 JUMPDEST POP POP POP POP POP POP POP POP POP JUMP JUMPDEST PUSH2 0x1531 PUSH2 0x3646 JUMP JUMPDEST PUSH2 0x153A DUP3 PUSH2 0x372C JUMP JUMPDEST PUSH2 0x1544 DUP3 DUP3 PUSH2 0x375A JUMP JUMPDEST POP POP JUMP JUMPDEST DUP1 PUSH1 0x5 DUP1 SLOAD SWAP1 POP DUP2 LT PUSH2 0x1590 JUMPI PUSH1 0x40 MLOAD PUSH32 0x8C379A000000000000000000000000000000000000000000000000000000000 DUP2 MSTORE PUSH1 0x4 ADD PUSH2 0x1587 SWAP1 PUSH2 0x4C79 JUMP JUMPDEST PUSH1 0x40 MLOAD DUP1 SWAP2 SUB SWAP1 REVERT JUMPDEST PUSH1 0x0 PUSH1 0x5 DUP4 DUP2 SLOAD DUP2 LT PUSH2 0x15A6 JUMPI PUSH2 0x15A5 PUSH2 0x4D05 JUMP JUMPDEST JUMPDEST SWAP1 PUSH1 0x0 MSTORE PUSH1 0x20 PUSH1 0x0 KECCAK256 SWAP1 PUSH1 0x7 MUL ADD SWAP1 POP DUP1 PUSH1 0x2 ADD SLOAD NUMBER GT PUSH2 0x15C7 JUMPI POP PUSH2 0x1815 JUMP JUMPDEST PUSH1 0x0 DUP1 PUSH2 0x15EE DUP4 PUSH1 0x1 ADD SLOAD PUSH2 0x15E0 DUP6 PUSH1 0x2 ADD SLOAD NUMBER PUSH2 0x1CBF JUMP JUMPDEST PUSH2 0x3879 SWAP1 SWAP2 SWAP1 PUSH4 0xFFFFFFFF AND JUMP JUMPDEST SWAP2 POP SWAP2 POP DUP2 PUSH2 0x1632 JUMPI PUSH1 0x40 MLOAD PUSH32 0x8C379A000000000000000000000000000000000000000000000000000000000 DUP2 MSTORE PUSH1 0x4 ADD PUSH2 0x1629 SWAP1 PUSH2 0x5072 JUMP JUMPDEST PUSH1 0x40 MLOAD DUP1 SWAP2 SUB SWAP1 REVERT JUMPDEST PUSH2 0x1647 PUSH1 0x4 SLOAD DUP3 PUSH2 0x38A2 SWAP1 SWAP2 SWAP1 PUSH4 0xFFFFFFFF AND JUMP JUMPDEST DUP1 SWAP3 POP DUP2 SWAP4 POP POP POP DUP2 PUSH2 0x168F JUMPI PUSH1 0x40 MLOAD PUSH32 0x8C379A000000000000000000000000000000000000000000000000000000000 DUP2 MSTORE PUSH1 0x4 ADD PUSH2 0x1686 SWAP1 PUSH2 0x5072 JUMP JUMPDEST PUSH1 0x40 MLOAD DUP1 SWAP2 SUB SWAP1 REVERT JUMPDEST PUSH1 0x0 DUP4 PUSH1 0x4 ADD SLOAD SWAP1 POP PUSH1 0x0 DUP2 GT ISZERO PUSH2 0x17CA JUMPI PUSH1 0x0 DUP1 PUSH2 0x16BF PUSH8 0xDE0B6B3A7640000 DUP6 PUSH2 0x3879 SWAP1 SWAP2 SWAP1 PUSH4 0xFFFFFFFF AND JUMP JUMPDEST SWAP2 POP SWAP2 POP DUP2 PUSH2 0x1703 JUMPI PUSH1 0x40 MLOAD PUSH32 0x8C379A000000000000000000000000000000000000000000000000000000000 DUP2 MSTORE PUSH1 0x4 ADD PUSH2 0x16FA SWAP1 PUSH2 0x5072 JUMP JUMPDEST PUSH1 0x40 MLOAD DUP1 SWAP2 SUB SWAP1 REVERT JUMPDEST PUSH2 0x1716 DUP4 DUP3 PUSH2 0x38A2 SWAP1 SWAP2 SWAP1 PUSH4 0xFFFFFFFF AND JUMP JUMPDEST DUP1 SWAP3 POP DUP2 SWAP4 POP POP POP DUP2 PUSH2 0x175E JUMPI PUSH1 0x40 MLOAD PUSH32 0x8C379A000000000000000000000000000000000000000000000000000000000 DUP2 MSTORE PUSH1 0x4 ADD PUSH2 0x1755 SWAP1 PUSH2 0x5072 JUMP JUMPDEST PUSH1 0x40 MLOAD DUP1 SWAP2 SUB SWAP1 REVERT JUMPDEST PUSH1 0x0 DUP1 PUSH2 0x1778 DUP4 DUP10 PUSH1 0x3 ADD SLOAD PUSH2 0x38B7 SWAP1 SWAP2 SWAP1 PUSH4 0xFFFFFFFF AND JUMP JUMPDEST SWAP2 POP SWAP2 POP DUP2 PUSH2 0x17BC JUMPI PUSH1 0x40 MLOAD PUSH32 0x8C379A000000000000000000000000000000000000000000000000000000000 DUP2 MSTORE PUSH1 0x4 ADD PUSH2 0x17B3 SWAP1 PUSH2 0x5072 JUMP JUMPDEST PUSH1 0x40 MLOAD DUP1 SWAP2 SUB SWAP1 REVERT JUMPDEST DUP1 DUP9 PUSH1 0x3 ADD DUP2 SWAP1 SSTORE POP POP POP POP POP JUMPDEST NUMBER DUP5 PUSH1 0x2 ADD DUP2 SWAP1 SSTORE POP DUP4 PUSH1 0x2 ADD SLOAD DUP7 PUSH32 0xF5D2D72D9B25D6853AFD7D0554A113B705234B6A68BB36B7F143662994632411 DUP5 PUSH1 0x40 MLOAD PUSH2 0x1808 SWAP2 SWAP1 PUSH2 0x4401 JUMP JUMPDEST PUSH1 0x40 MLOAD DUP1 SWAP2 SUB SWAP1 LOG3 POP POP POP POP JUMPDEST POP POP JUMP JUMPDEST PUSH1 0x0 PUSH2 0x1823 PUSH2 0x38DC JUMP JUMPDEST PUSH32 0x360894A13BA1A3210667C828492DB98DCA3E2076CC3735A920A3CA505D382BBC PUSH1 0x0 SHL SWAP1 POP SWAP1 JUMP JUMPDEST PUSH32 0x589D473BA17C0F47D494622893831497BAD25919B9AFB8E33E9521B8963FCCDE PUSH2 0x1876 DUP2 PUSH2 0x3214 JUMP JUMPDEST PUSH1 0x3 PUSH1 0x0 SWAP1 SLOAD SWAP1 PUSH2 0x100 EXP SWAP1 DIV PUSH1 0xFF AND PUSH2 0x18C5 JUMPI PUSH1 0x40 MLOAD PUSH32 0x8C379A000000000000000000000000000000000000000000000000000000000 DUP2 MSTORE PUSH1 0x4 ADD PUSH2 0x18BC SWAP1 PUSH2 0x5104 JUMP JUMPDEST PUSH1 0x40 MLOAD DUP1 SWAP2 SUB SWAP1 REVERT JUMPDEST PUSH1 0x0 PUSH1 0x3 PUSH1 0x0 PUSH2 0x100 EXP DUP2 SLOAD DUP2 PUSH1 0xFF MUL NOT AND SWAP1 DUP4 ISZERO ISZERO MUL OR SWAP1 SSTORE POP PUSH32 0x1C84BCAEAD48B692CC46B9B12E9A068951A59C99A2E2BF10B00B60B403CF12E2 PUSH1 0x40 MLOAD PUSH1 0x40 MLOAD DUP1 SWAP2 SUB SWAP1 LOG1 POP JUMP JUMPDEST PUSH1 0x0 DUP1 PUSH2 0x191A PUSH2 0x3963 JUMP JUMPDEST SWAP1 POP DUP1 PUSH1 0x0 ADD PUSH1 0x0 SWAP1 SLOAD SWAP1 PUSH2 0x100 EXP SWAP1 DIV PUSH1 0xFF AND SWAP2 POP POP SWAP1 JUMP JUMPDEST PUSH32 0x589D473BA17C0F47D494622893831497BAD25919B9AFB8E33E9521B8963FCCDE PUSH2 0x195E DUP2 PUSH2 0x3214 JUMP JUMPDEST PUSH1 0x3 PUSH1 0x0 SWAP1 SLOAD SWAP1 PUSH2 0x100 EXP SWAP1 DIV PUSH1 0xFF AND ISZERO PUSH2 0x19AE JUMPI PUSH1 0x40 MLOAD PUSH32 0x8C379A000000000000000000000000000000000000000000000000000000000 DUP2 MSTORE PUSH1 0x4 ADD PUSH2 0x19A5 SWAP1 PUSH2 0x5170 JUMP JUMPDEST PUSH1 0x40 MLOAD DUP1 SWAP2 SUB SWAP1 REVERT JUMPDEST PUSH1 0x1 PUSH1 0x3 PUSH1 0x0 PUSH2 0x100 EXP DUP2 SLOAD DUP2 PUSH1 0xFF MUL NOT AND SWAP1 DUP4 ISZERO ISZERO MUL OR SWAP1 SSTORE POP PUSH32 0x8099F593A6AAECD68B6494933CD71F703376AC3975BE83692E1B7D800ABF6837 PUSH1 0x40 MLOAD PUSH1 0x40 MLOAD DUP1 SWAP2 SUB SWAP1 LOG1 POP JUMP JUMPDEST PUSH32 0x589D473BA17C0F47D494622893831497BAD25919B9AFB8E33E9521B8963FCCDE PUSH2 0x1A22 DUP2 PUSH2 0x3214 JUMP JUMPDEST DUP2 PUSH1 0x3 PUSH1 0x2 PUSH2 0x100 EXP DUP2 SLOAD DUP2 PUSH20 0xFFFFFFFFFFFFFFFFFFFFFFFFFFFFFFFFFFFFFFFF MUL NOT AND SWAP1 DUP4 PUSH20 0xFFFFFFFFFFFFFFFFFFFFFFFFFFFFFFFFFFFFFFFF AND MUL OR SWAP1 SSTORE POP PUSH1 0x3 PUSH1 0x2 SWAP1 SLOAD SWAP1 PUSH2 0x100 EXP SWAP1 DIV PUSH20 0xFFFFFFFFFFFFFFFFFFFFFFFFFFFFFFFFFFFFFFFF AND PUSH20 0xFFFFFFFFFFFFFFFFFFFFFFFFFFFFFFFFFFFFFFFF AND PUSH32 0xAFEF10FF40345DD21FC1CAC02D8EC620A709C9B0983E9C6454D2BEF77F077DF3 PUSH1 0x40 MLOAD PUSH1 0x40 MLOAD DUP1 SWAP2 SUB SWAP1 LOG2 POP POP JUMP JUMPDEST PUSH1 0x0 PUSH1 0x5 DUP1 SLOAD SWAP1 POP SWAP1 POP PUSH1 0x0 JUMPDEST DUP2 DUP2 LT ISZERO PUSH2 0x1AF7 JUMPI PUSH2 0x1AEA DUP2 PUSH2 0x1548 JUMP JUMPDEST DUP1 DUP1 PUSH1 0x1 ADD SWAP2 POP POP PUSH2 0x1AD9 JUMP JUMPDEST POP POP JUMP JUMPDEST PUSH1 0x0 DUP4 PUSH1 0x5 DUP1 SLOAD SWAP1 POP DUP2 LT PUSH2 0x1B45 JUMPI PUSH1 0x40 MLOAD PUSH32 0x8C379A000000000000000000000000000000000000000000000000000000000 DUP2 MSTORE PUSH1 0x4 ADD PUSH2 0x1B3C SWAP1 PUSH2 0x4C79 JUMP JUMPDEST PUSH1 0x40 MLOAD DUP1 SWAP2 SUB SWAP1 REVERT JUMPDEST PUSH1 0x0 PUSH1 0x5 DUP7 DUP2 SLOAD DUP2 LT PUSH2 0x1B5B JUMPI PUSH2 0x1B5A PUSH2 0x4D05 JUMP JUMPDEST JUMPDEST SWAP1 PUSH1 0x0 MSTORE PUSH1 0x20 PUSH1 0x0 KECCAK256 SWAP1 PUSH1 0x7 MUL ADD SWAP1 POP PUSH1 0x0 PUSH1 0x6 PUSH1 0x0 DUP9 DUP2 MSTORE PUSH1 0x20 ADD SWAP1 DUP2 MSTORE PUSH1 0x20 ADD PUSH1 0x0 KECCAK256 PUSH1 0x0 DUP8 PUSH20 0xFFFFFFFFFFFFFFFFFFFFFFFFFFFFFFFFFFFFFFFF AND PUSH20 0xFFFFFFFFFFFFFFFFFFFFFFFFFFFFFFFFFFFFFFFF AND DUP2 MSTORE PUSH1 0x20 ADD SWAP1 DUP2 MSTORE PUSH1 0x20 ADD PUSH1 0x0 KECCAK256 SWAP1 POP PUSH1 0x0 DUP3 PUSH1 0x3 ADD SLOAD SWAP1 POP PUSH1 0x0 DUP4 PUSH1 0x4 ADD SLOAD SWAP1 POP DUP4 PUSH1 0x2 ADD SLOAD DUP8 GT DUP1 ISZERO PUSH2 0x1BE5 JUMPI POP PUSH1 0x0 DUP2 EQ ISZERO JUMPDEST ISZERO PUSH2 0x1C4C JUMPI PUSH1 0x0 PUSH2 0x1BFA DUP6 PUSH1 0x2 ADD SLOAD DUP10 PUSH2 0x1CBF JUMP JUMPDEST SWAP1 POP PUSH1 0x0 PUSH1 0x4 SLOAD DUP7 PUSH1 0x1 ADD SLOAD DUP4 PUSH2 0x1C11 SWAP2 SWAP1 PUSH2 0x4EAE JUMP JUMPDEST PUSH2 0x1C1B SWAP2 SWAP1 PUSH2 0x4F1F JUMP JUMPDEST SWAP1 POP DUP3 PUSH8 0xDE0B6B3A7640000 DUP3 PUSH2 0x1C32 SWAP2 SWAP1 PUSH2 0x4EAE JUMP JUMPDEST PUSH2 0x1C3C SWAP2 SWAP1 PUSH2 0x4F1F JUMP JUMPDEST DUP5 PUSH2 0x1C47 SWAP2 SWAP1 PUSH2 0x4D63 JUMP JUMPDEST SWAP4 POP POP POP JUMPDEST DUP3 PUSH1 0x2 ADD SLOAD DUP4 PUSH1 0x1 ADD SLOAD PUSH8 0xDE0B6B3A7640000 DUP5 DUP7 PUSH1 0x0 ADD SLOAD PUSH2 0x1C6F SWAP2 SWAP1 PUSH2 0x4EAE JUMP JUMPDEST PUSH2 0x1C79 SWAP2 SWAP1 PUSH2 0x4F1F JUMP JUMPDEST PUSH2 0x1C83 SWAP2 SWAP1 PUSH2 0x4DDF JUMP JUMPDEST PUSH2 0x1C8D SWAP2 SWAP1 PUSH2 0x4D63 JUMP JUMPDEST SWAP6 POP POP POP POP POP POP SWAP4 SWAP3 POP POP POP JUMP JUMPDEST PUSH32 0x589D473BA17C0F47D494622893831497BAD25919B9AFB8E33E9521B8963FCCDE DUP2 JUMP JUMPDEST PUSH1 0x0 DUP2 DUP4 GT ISZERO PUSH2 0x1D04 JUMPI PUSH1 0x40 MLOAD PUSH32 0x8C379A000000000000000000000000000000000000000000000000000000000 DUP2 MSTORE PUSH1 0x4 ADD PUSH2 0x1CFB SWAP1 PUSH2 0x51DC JUMP JUMPDEST PUSH1 0x40 MLOAD DUP1 SWAP2 SUB SWAP1 REVERT JUMPDEST PUSH1 0x0 SLOAD DUP4 LT ISZERO PUSH2 0x1D14 JUMPI PUSH1 0x0 SLOAD SWAP3 POP JUMPDEST PUSH1 0x1 SLOAD DUP3 GT ISZERO PUSH2 0x1D24 JUMPI PUSH1 0x1 SLOAD SWAP2 POP JUMPDEST DUP2 DUP4 GT ISZERO PUSH2 0x1D67 JUMPI PUSH1 0x40 MLOAD PUSH32 0x8C379A000000000000000000000000000000000000000000000000000000000 DUP2 MSTORE PUSH1 0x4 ADD PUSH2 0x1D5E SWAP1 PUSH2 0x526E JUMP JUMPDEST PUSH1 0x40 MLOAD DUP1 SWAP2 SUB SWAP1 REVERT JUMPDEST PUSH1 0x0 PUSH2 0x1D89 PUSH1 0x2 SLOAD DUP6 DUP6 PUSH2 0x1D7B SWAP2 SWAP1 PUSH2 0x4DDF JUMP JUMPDEST PUSH2 0x3879 SWAP1 SWAP2 SWAP1 PUSH4 0xFFFFFFFF AND JUMP JUMPDEST DUP1 SWAP4 POP DUP2 SWAP3 POP POP POP DUP1 PUSH2 0x1DD1 JUMPI PUSH1 0x40 MLOAD PUSH32 0x8C379A000000000000000000000000000000000000000000000000000000000 DUP2 MSTORE PUSH1 0x4 ADD PUSH2 0x1DC8 SWAP1 PUSH2 0x52DA JUMP JUMPDEST PUSH1 0x40 MLOAD DUP1 SWAP2 SUB SWAP1 REVERT JUMPDEST POP SWAP3 SWAP2 POP POP JUMP JUMPDEST PUSH32 0x589D473BA17C0F47D494622893831497BAD25919B9AFB8E33E9521B8963FCCDE PUSH2 0x1E02 DUP2 PUSH2 0x3214 JUMP JUMPDEST PUSH1 0x3 PUSH1 0x1 SWAP1 SLOAD SWAP1 PUSH2 0x100 EXP SWAP1 DIV PUSH1 0xFF AND ISZERO PUSH2 0x1E52 JUMPI PUSH1 0x40 MLOAD PUSH32 0x8C379A000000000000000000000000000000000000000000000000000000000 DUP2 MSTORE PUSH1 0x4 ADD PUSH2 0x1E49 SWAP1 PUSH2 0x5346 JUMP JUMPDEST PUSH1 0x40 MLOAD DUP1 SWAP2 SUB SWAP1 REVERT JUMPDEST PUSH1 0x1 PUSH1 0x3 PUSH1 0x1 PUSH2 0x100 EXP DUP2 SLOAD DUP2 PUSH1 0xFF MUL NOT AND SWAP1 DUP4 ISZERO ISZERO MUL OR SWAP1 SSTORE POP PUSH32 0x6D73D6B34C378AB3BF6630206D60B7882801B91D03EE20D016FF0D5054DB81E1 PUSH1 0x40 MLOAD PUSH1 0x40 MLOAD DUP1 SWAP2 SUB SWAP1 LOG1 POP JUMP JUMPDEST PUSH1 0x0 DUP1 PUSH2 0x1EA7 PUSH2 0x3046 JUMP JUMPDEST SWAP1 POP DUP1 PUSH1 0x0 ADD PUSH1 0x0 DUP6 DUP2 MSTORE PUSH1 0x20 ADD SWAP1 DUP2 MSTORE PUSH1 0x20 ADD PUSH1 0x0 KECCAK256 PUSH1 0x0 ADD PUSH1 0x0 DUP5 PUSH20 0xFFFFFFFFFFFFFFFFFFFFFFFFFFFFFFFFFFFFFFFF AND PUSH20 0xFFFFFFFFFFFFFFFFFFFFFFFFFFFFFFFFFFFFFFFF AND DUP2 MSTORE PUSH1 0x20 ADD SWAP1 DUP2 MSTORE PUSH1 0x20 ADD PUSH1 0x0 KECCAK256 PUSH1 0x0 SWAP1 SLOAD SWAP1 PUSH2 0x100 EXP SWAP1 DIV PUSH1 0xFF AND SWAP2 POP POP SWAP3 SWAP2 POP POP JUMP JUMPDEST PUSH2 0x1F1D PUSH2 0x306E JUMP JUMPDEST DUP2 PUSH1 0x5 DUP1 SLOAD SWAP1 POP DUP2 LT PUSH2 0x1F65 JUMPI PUSH1 0x40 MLOAD PUSH32 0x8C379A000000000000000000000000000000000000000000000000000000000 DUP2 MSTORE PUSH1 0x4 ADD PUSH2 0x1F5C SWAP1 PUSH2 0x4C79 JUMP JUMPDEST PUSH1 0x40 MLOAD DUP1 SWAP2 SUB SWAP1 REVERT JUMPDEST PUSH1 0x3 PUSH1 0x0 SWAP1 SLOAD SWAP1 PUSH2 0x100 EXP SWAP1 DIV PUSH1 0xFF AND ISZERO PUSH2 0x1FB5 JUMPI PUSH1 0x40 MLOAD PUSH32 0x8C379A000000000000000000000000000000000000000000000000000000000 DUP2 MSTORE PUSH1 0x4 ADD PUSH2 0x1FAC SWAP1 PUSH2 0x4CE5 JUMP JUMPDEST PUSH1 0x40 MLOAD DUP1 SWAP2 SUB SWAP1 REVERT JUMPDEST PUSH1 0x0 PUSH1 0x5 DUP5 DUP2 SLOAD DUP2 LT PUSH2 0x1FCB JUMPI PUSH2 0x1FCA PUSH2 0x4D05 JUMP JUMPDEST JUMPDEST SWAP1 PUSH1 0x0 MSTORE PUSH1 0x20 PUSH1 0x0 KECCAK256 SWAP1 PUSH1 0x7 MUL ADD SWAP1 POP PUSH1 0x0 PUSH1 0x6 PUSH1 0x0 DUP7 DUP2 MSTORE PUSH1 0x20 ADD SWAP1 DUP2 MSTORE PUSH1 0x20 ADD PUSH1 0x0 KECCAK256 PUSH1 0x0 CALLER PUSH20 0xFFFFFFFFFFFFFFFFFFFFFFFFFFFFFFFFFFFFFFFF AND PUSH20 0xFFFFFFFFFFFFFFFFFFFFFFFFFFFFFFFFFFFFFFFF AND DUP2 MSTORE PUSH1 0x20 ADD SWAP1 DUP2 MSTORE PUSH1 0x20 ADD PUSH1 0x0 KECCAK256 SWAP1 POP DUP4 DUP2 PUSH1 0x0 ADD SLOAD LT ISZERO PUSH2 0x2076 JUMPI PUSH1 0x40 MLOAD PUSH32 0x8C379A000000000000000000000000000000000000000000000000000000000 DUP2 MSTORE PUSH1 0x4 ADD PUSH2 0x206D SWAP1 PUSH2 0x53B2 JUMP JUMPDEST PUSH1 0x40 MLOAD DUP1 SWAP2 SUB SWAP1 REVERT JUMPDEST PUSH2 0x207F DUP6 PUSH2 0x1548 JUMP JUMPDEST PUSH1 0x0 DUP2 PUSH1 0x1 ADD SLOAD PUSH8 0xDE0B6B3A7640000 DUP5 PUSH1 0x3 ADD SLOAD DUP5 PUSH1 0x0 ADD SLOAD PUSH2 0x20A3 SWAP2 SWAP1 PUSH2 0x4EAE JUMP JUMPDEST PUSH2 0x20AD SWAP2 SWAP1 PUSH2 0x4F1F JUMP JUMPDEST PUSH2 0x20B7 SWAP2 SWAP1 PUSH2 0x4DDF JUMP JUMPDEST SWAP1 POP PUSH1 0x0 DUP2 GT ISZERO PUSH2 0x20DB JUMPI DUP1 DUP3 PUSH1 0x2 ADD SLOAD PUSH2 0x20D2 SWAP2 SWAP1 PUSH2 0x4D63 JUMP JUMPDEST DUP3 PUSH1 0x2 ADD DUP2 SWAP1 SSTORE POP JUMPDEST PUSH1 0x0 DUP6 GT ISZERO PUSH2 0x2164 JUMPI DUP5 DUP3 PUSH1 0x0 ADD SLOAD PUSH2 0x20F4 SWAP2 SWAP1 PUSH2 0x4DDF JUMP JUMPDEST DUP3 PUSH1 0x0 ADD DUP2 SWAP1 SSTORE POP DUP2 PUSH1 0x3 ADD PUSH1 0x40 MLOAD DUP1 PUSH1 0x40 ADD PUSH1 0x40 MSTORE DUP1 DUP8 DUP2 MSTORE PUSH1 0x20 ADD DUP6 PUSH1 0x6 ADD SLOAD NUMBER PUSH2 0x2121 SWAP2 SWAP1 PUSH2 0x4D63 JUMP JUMPDEST DUP2 MSTORE POP SWAP1 DUP1 PUSH1 0x1 DUP2 SLOAD ADD DUP1 DUP3 SSTORE DUP1 SWAP2 POP POP PUSH1 0x1 SWAP1 SUB SWAP1 PUSH1 0x0 MSTORE PUSH1 0x20 PUSH1 0x0 KECCAK256 SWAP1 PUSH1 0x2 MUL ADD PUSH1 0x0 SWAP1 SWAP2 SWAP1 SWAP2 SWAP1 SWAP2 POP PUSH1 0x0 DUP3 ADD MLOAD DUP2 PUSH1 0x0 ADD SSTORE PUSH1 0x20 DUP3 ADD MLOAD DUP2 PUSH1 0x1 ADD SSTORE POP POP JUMPDEST DUP5 DUP4 PUSH1 0x4 ADD SLOAD PUSH2 0x2174 SWAP2 SWAP1 PUSH2 0x4DDF JUMP JUMPDEST DUP4 PUSH1 0x4 ADD DUP2 SWAP1 SSTORE POP PUSH8 0xDE0B6B3A7640000 DUP4 PUSH1 0x3 ADD SLOAD DUP4 PUSH1 0x0 ADD SLOAD PUSH2 0x2199 SWAP2 SWAP1 PUSH2 0x4EAE JUMP JUMPDEST PUSH2 0x21A3 SWAP2 SWAP1 PUSH2 0x4F1F JUMP JUMPDEST DUP3 PUSH1 0x1 ADD DUP2 SWAP1 SSTORE POP DUP6 CALLER PUSH20 0xFFFFFFFFFFFFFFFFFFFFFFFFFFFFFFFFFFFFFFFF AND PUSH32 0xC80277265097707F6F12A4AC4C09D46C9926E2EEA2536F63616CB04D9FCAD7D6 DUP8 PUSH1 0x40 MLOAD PUSH2 0x21F2 SWAP2 SWAP1 PUSH2 0x4401 JUMP JUMPDEST PUSH1 0x40 MLOAD DUP1 SWAP2 SUB SWAP1 LOG3 POP POP POP POP POP POP JUMP JUMPDEST PUSH1 0x2 SLOAD DUP2 JUMP JUMPDEST PUSH1 0x0 DUP1 SHL DUP2 JUMP JUMPDEST PUSH1 0x3 PUSH1 0x1 SWAP1 SLOAD SWAP1 PUSH2 0x100 EXP SWAP1 DIV PUSH1 0xFF AND DUP2 JUMP JUMPDEST PUSH1 0x40 MLOAD DUP1 PUSH1 0x40 ADD PUSH1 0x40 MSTORE DUP1 PUSH1 0x5 DUP2 MSTORE PUSH1 0x20 ADD PUSH32 0x352E302E30000000000000000000000000000000000000000000000000000000 DUP2 MSTORE POP DUP2 JUMP JUMPDEST PUSH32 0x589D473BA17C0F47D494622893831497BAD25919B9AFB8E33E9521B8963FCCDE PUSH2 0x2285 DUP2 PUSH2 0x3214 JUMP JUMPDEST PUSH1 0x0 PUSH1 0x5 DUP1 SLOAD SWAP1 POP GT ISZERO PUSH2 0x2307 JUMPI PUSH1 0x0 PUSH20 0xFFFFFFFFFFFFFFFFFFFFFFFFFFFFFFFFFFFFFFFF AND DUP7 PUSH20 0xFFFFFFFFFFFFFFFFFFFFFFFFFFFFFFFFFFFFFFFF AND SUB PUSH2 0x2302 JUMPI PUSH1 0x40 MLOAD PUSH32 0x8C379A000000000000000000000000000000000000000000000000000000000 DUP2 MSTORE PUSH1 0x4 ADD PUSH2 0x22F9 SWAP1 PUSH2 0x541E JUMP JUMPDEST PUSH1 0x40 MLOAD DUP1 SWAP2 SUB SWAP1 REVERT JUMPDEST PUSH2 0x2377 JUMP JUMPDEST PUSH1 0x0 PUSH20 0xFFFFFFFFFFFFFFFFFFFFFFFFFFFFFFFFFFFFFFFF AND DUP7 PUSH20 0xFFFFFFFFFFFFFFFFFFFFFFFFFFFFFFFFFFFFFFFF AND EQ PUSH2 0x2376 JUMPI PUSH1 0x40 MLOAD PUSH32 0x8C379A000000000000000000000000000000000000000000000000000000000 DUP2 MSTORE PUSH1 0x4 ADD PUSH2 0x236D SWAP1 PUSH2 0x541E JUMP JUMPDEST PUSH1 0x40 MLOAD DUP1 SWAP2 SUB SWAP1 REVERT JUMPDEST JUMPDEST PUSH1 0x0 DUP4 GT PUSH2 0x23BA JUMPI PUSH1 0x40 MLOAD PUSH32 0x8C379A000000000000000000000000000000000000000000000000000000000 DUP2 MSTORE PUSH1 0x4 ADD PUSH2 0x23B1 SWAP1 PUSH2 0x548A JUMP JUMPDEST PUSH1 0x40 MLOAD DUP1 SWAP2 SUB SWAP1 REVERT JUMPDEST PUSH1 0x1 SLOAD NUMBER LT PUSH2 0x23FE JUMPI PUSH1 0x40 MLOAD PUSH32 0x8C379A000000000000000000000000000000000000000000000000000000000 DUP2 MSTORE PUSH1 0x4 ADD PUSH2 0x23F5 SWAP1 PUSH2 0x54F6 JUMP JUMPDEST PUSH1 0x40 MLOAD DUP1 SWAP2 SUB SWAP1 REVERT JUMPDEST DUP2 ISZERO PUSH2 0x240D JUMPI PUSH2 0x240C PUSH2 0x1ACC JUMP JUMPDEST JUMPDEST PUSH1 0x0 DUP1 SLOAD NUMBER GT PUSH2 0x241F JUMPI PUSH1 0x0 SLOAD PUSH2 0x2421 JUMP JUMPDEST NUMBER JUMPDEST SWAP1 POP DUP6 PUSH1 0x4 SLOAD PUSH2 0x2431 SWAP2 SWAP1 PUSH2 0x4D63 JUMP JUMPDEST PUSH1 0x4 DUP2 SWAP1 SSTORE POP PUSH1 0x5 PUSH1 0x40 MLOAD DUP1 PUSH1 0xE0 ADD PUSH1 0x40 MSTORE DUP1 DUP10 PUSH20 0xFFFFFFFFFFFFFFFFFFFFFFFFFFFFFFFFFFFFFFFF AND DUP2 MSTORE PUSH1 0x20 ADD DUP9 DUP2 MSTORE PUSH1 0x20 ADD DUP4 DUP2 MSTORE PUSH1 0x20 ADD PUSH1 0x0 DUP2 MSTORE PUSH1 0x20 ADD PUSH1 0x0 DUP2 MSTORE PUSH1 0x20 ADD DUP8 DUP2 MSTORE PUSH1 0x20 ADD DUP7 DUP2 MSTORE POP SWAP1 DUP1 PUSH1 0x1 DUP2 SLOAD ADD DUP1 DUP3 SSTORE DUP1 SWAP2 POP POP PUSH1 0x1 SWAP1 SUB SWAP1 PUSH1 0x0 MSTORE PUSH1 0x20 PUSH1 0x0 KECCAK256 SWAP1 PUSH1 0x7 MUL ADD PUSH1 0x0 SWAP1 SWAP2 SWAP1 SWAP2 SWAP1 SWAP2 POP PUSH1 0x0 DUP3 ADD MLOAD DUP2 PUSH1 0x0 ADD PUSH1 0x0 PUSH2 0x100 EXP DUP2 SLOAD DUP2 PUSH20 0xFFFFFFFFFFFFFFFFFFFFFFFFFFFFFFFFFFFFFFFF MUL NOT AND SWAP1 DUP4 PUSH20 0xFFFFFFFFFFFFFFFFFFFFFFFFFFFFFFFFFFFFFFFF AND MUL OR SWAP1 SSTORE POP PUSH1 0x20 DUP3 ADD MLOAD DUP2 PUSH1 0x1 ADD SSTORE PUSH1 0x40 DUP3 ADD MLOAD DUP2 PUSH1 0x2 ADD SSTORE PUSH1 0x60 DUP3 ADD MLOAD DUP2 PUSH1 0x3 ADD SSTORE PUSH1 0x80 DUP3 ADD MLOAD DUP2 PUSH1 0x4 ADD SSTORE PUSH1 0xA0 DUP3 ADD MLOAD DUP2 PUSH1 0x5 ADD SSTORE PUSH1 0xC0 DUP3 ADD MLOAD DUP2 PUSH1 0x6 ADD SSTORE POP POP DUP1 DUP7 DUP9 PUSH20 0xFFFFFFFFFFFFFFFFFFFFFFFFFFFFFFFFFFFFFFFF AND PUSH32 0xFA296FCE13E7A0E622B3A892E66220C248337289483A3CFA4130CDE0CAA1346 DUP9 DUP9 PUSH1 0x40 MLOAD PUSH2 0x257C SWAP3 SWAP2 SWAP1 PUSH2 0x4C04 JUMP JUMPDEST PUSH1 0x40 MLOAD DUP1 SWAP2 SUB SWAP1 LOG4 POP POP POP POP POP POP POP JUMP JUMPDEST PUSH32 0xCAB03BC4DBCC648CD59D6BBE9F848D1E9092F914016AA290EE92E18700D1E6F9 DUP2 JUMP JUMPDEST PUSH1 0x0 DUP2 JUMP JUMPDEST PUSH32 0x589D473BA17C0F47D494622893831497BAD25919B9AFB8E33E9521B8963FCCDE PUSH2 0x25E0 DUP2 PUSH2 0x3214 JUMP JUMPDEST DUP2 PUSH1 0x0 SLOAD GT ISZERO PUSH2 0x2625 JUMPI PUSH1 0x40 MLOAD PUSH32 0x8C379A000000000000000000000000000000000000000000000000000000000 DUP2 MSTORE PUSH1 0x4 ADD PUSH2 0x261C SWAP1 PUSH2 0x5588 JUMP JUMPDEST PUSH1 0x40 MLOAD DUP1 SWAP2 SUB SWAP1 REVERT JUMPDEST DUP2 PUSH1 0x1 DUP2 SWAP1 SSTORE POP DUP2 PUSH32 0x1132C5BACCB51DA3D049FABC819697DC845FA224AD59D9B555507D6446B40850 PUSH1 0x40 MLOAD PUSH1 0x40 MLOAD DUP1 SWAP2 SUB SWAP1 LOG2 POP POP JUMP JUMPDEST PUSH1 0x3 PUSH1 0x2 SWAP1 SLOAD SWAP1 PUSH2 0x100 EXP SWAP1 DIV PUSH20 0xFFFFFFFFFFFFFFFFFFFFFFFFFFFFFFFFFFFFFFFF AND DUP2 JUMP JUMPDEST PUSH2 0x268C DUP3 PUSH2 0xBEB JUMP JUMPDEST PUSH2 0x2695 DUP2 PUSH2 0x3214 JUMP JUMPDEST PUSH2 0x269F DUP4 DUP4 PUSH2 0x3331 JUMP JUMPDEST POP POP POP POP JUMP JUMPDEST PUSH32 0x589D473BA17C0F47D494622893831497BAD25919B9AFB8E33E9521B8963FCCDE PUSH2 0x26CF DUP2 PUSH2 0x3214 JUMP JUMPDEST PUSH1 0x0 DUP3 GT PUSH2 0x2712 JUMPI PUSH1 0x40 MLOAD PUSH32 0x8C379A000000000000000000000000000000000000000000000000000000000 DUP2 MSTORE PUSH1 0x4 ADD PUSH2 0x2709 SWAP1 PUSH2 0x55F4 JUMP JUMPDEST PUSH1 0x40 MLOAD DUP1 SWAP2 SUB SWAP1 REVERT JUMPDEST DUP2 PUSH1 0x2 DUP2 SWAP1 SSTORE POP DUP2 PUSH32 0xA0B1720FAC15AB5B6E184FA4D22F43E0E2594AE0373A61A3FC48AEFB84AB92F7 PUSH1 0x40 MLOAD PUSH1 0x40 MLOAD DUP1 SWAP2 SUB SWAP1 LOG2 POP POP JUMP JUMPDEST PUSH32 0x589D473BA17C0F47D494622893831497BAD25919B9AFB8E33E9521B8963FCCDE PUSH2 0x2774 DUP2 PUSH2 0x3214 JUMP JUMPDEST DUP4 PUSH1 0x5 DUP1 SLOAD SWAP1 POP DUP2 LT PUSH2 0x27BC JUMPI PUSH1 0x40 MLOAD PUSH32 0x8C379A000000000000000000000000000000000000000000000000000000000 DUP2 MSTORE PUSH1 0x4 ADD PUSH2 0x27B3 SWAP1 PUSH2 0x4C79 JUMP JUMPDEST PUSH1 0x40 MLOAD DUP1 SWAP2 SUB SWAP1 REVERT JUMPDEST DUP4 PUSH1 0x5 DUP7 DUP2 SLOAD DUP2 LT PUSH2 0x27D1 JUMPI PUSH2 0x27D0 PUSH2 0x4D05 JUMP JUMPDEST JUMPDEST SWAP1 PUSH1 0x0 MSTORE PUSH1 0x20 PUSH1 0x0 KECCAK256 SWAP1 PUSH1 0x7 MUL ADD PUSH1 0x5 ADD DUP2 SWAP1 SSTORE POP DUP3 PUSH1 0x5 DUP7 DUP2 SLOAD DUP2 LT PUSH2 0x27FB JUMPI PUSH2 0x27FA PUSH2 0x4D05 JUMP JUMPDEST JUMPDEST SWAP1 PUSH1 0x0 MSTORE PUSH1 0x20 PUSH1 0x0 KECCAK256 SWAP1 PUSH1 0x7 MUL ADD PUSH1 0x6 ADD DUP2 SWAP1 SSTORE POP DUP3 DUP5 DUP7 PUSH32 0x30DFFDEDAA3E3B4849298233F7CD71D229956E875AB09270498C96B7CF9181FD PUSH1 0x40 MLOAD PUSH1 0x40 MLOAD DUP1 SWAP2 SUB SWAP1 LOG4 POP POP POP POP POP JUMP JUMPDEST PUSH32 0x589D473BA17C0F47D494622893831497BAD25919B9AFB8E33E9521B8963FCCDE PUSH2 0x2870 DUP2 PUSH2 0x3214 JUMP JUMPDEST PUSH1 0x3 PUSH1 0x1 SWAP1 SLOAD SWAP1 PUSH2 0x100 EXP SWAP1 DIV PUSH1 0xFF AND PUSH2 0x28BF JUMPI PUSH1 0x40 MLOAD PUSH32 0x8C379A000000000000000000000000000000000000000000000000000000000 DUP2 MSTORE PUSH1 0x4 ADD PUSH2 0x28B6 SWAP1 PUSH2 0x5660 JUMP JUMPDEST PUSH1 0x40 MLOAD DUP1 SWAP2 SUB SWAP1 REVERT JUMPDEST PUSH1 0x0 PUSH1 0x3 PUSH1 0x1 PUSH2 0x100 EXP DUP2 SLOAD DUP2 PUSH1 0xFF MUL NOT AND SWAP1 DUP4 ISZERO ISZERO MUL OR SWAP1 SSTORE POP PUSH32 0xE72CB12952F056E3E7496019725F20A13108CA420F67F1EE9C9CDAB73FB8CE85 PUSH1 0x40 MLOAD PUSH1 0x40 MLOAD DUP1 SWAP2 SUB SWAP1 LOG1 POP JUMP JUMPDEST PUSH2 0x2911 PUSH2 0x306E JUMP JUMPDEST DUP2 PUSH1 0x5 DUP1 SLOAD SWAP1 POP DUP2 LT PUSH2 0x2959 JUMPI PUSH1 0x40 MLOAD PUSH32 0x8C379A000000000000000000000000000000000000000000000000000000000 DUP2 MSTORE PUSH1 0x4 ADD PUSH2 0x2950 SWAP1 PUSH2 0x4C79 JUMP JUMPDEST PUSH1 0x40 MLOAD DUP1 SWAP2 SUB SWAP1 REVERT JUMPDEST PUSH1 0x0 DUP4 SUB PUSH2 0x299C JUMPI PUSH1 0x40 MLOAD PUSH32 0x8C379A000000000000000000000000000000000000000000000000000000000 DUP2 MSTORE PUSH1 0x4 ADD PUSH2 0x2993 SWAP1 PUSH2 0x56CC JUMP JUMPDEST PUSH1 0x40 MLOAD DUP1 SWAP2 SUB SWAP1 REVERT JUMPDEST PUSH1 0x0 PUSH1 0x5 DUP5 DUP2 SLOAD DUP2 LT PUSH2 0x29B2 JUMPI PUSH2 0x29B1 PUSH2 0x4D05 JUMP JUMPDEST JUMPDEST SWAP1 PUSH1 0x0 MSTORE PUSH1 0x20 PUSH1 0x0 KECCAK256 SWAP1 PUSH1 0x7 MUL ADD SWAP1 POP DUP1 PUSH1 0x5 ADD SLOAD DUP4 GT PUSH2 0x2A08 JUMPI PUSH1 0x40 MLOAD PUSH32 0x8C379A000000000000000000000000000000000000000000000000000000000 DUP2 MSTORE PUSH1 0x4 ADD PUSH2 0x29FF SWAP1 PUSH2 0x5738 JUMP JUMPDEST PUSH1 0x40 MLOAD DUP1 SWAP2 SUB SWAP1 REVERT JUMPDEST PUSH1 0x0 DUP4 GT ISZERO PUSH2 0x2A63 JUMPI PUSH2 0x2A62 CALLER ADDRESS DUP6 DUP5 PUSH1 0x0 ADD PUSH1 0x0 SWAP1 SLOAD SWAP1 PUSH2 0x100 EXP SWAP1 DIV PUSH20 0xFFFFFFFFFFFFFFFFFFFFFFFFFFFFFFFFFFFFFFFF AND PUSH20 0xFFFFFFFFFFFFFFFFFFFFFFFFFFFFFFFFFFFFFFFF AND PUSH2 0x398B SWAP1 SWAP4 SWAP3 SWAP2 SWAP1 PUSH4 0xFFFFFFFF AND JUMP JUMPDEST JUMPDEST PUSH2 0x2A6D DUP5 DUP5 PUSH2 0x39E0 JUMP JUMPDEST POP POP POP POP JUMP JUMPDEST PUSH1 0x0 DUP3 PUSH1 0x5 DUP1 SLOAD SWAP1 POP DUP2 LT PUSH2 0x2ABD JUMPI PUSH1 0x40 MLOAD PUSH32 0x8C379A000000000000000000000000000000000000000000000000000000000 DUP2 MSTORE PUSH1 0x4 ADD PUSH2 0x2AB4 SWAP1 PUSH2 0x4C79 JUMP JUMPDEST PUSH1 0x40 MLOAD DUP1 SWAP2 SUB SWAP1 REVERT JUMPDEST PUSH2 0x2AC8 DUP5 DUP5 NUMBER PUSH2 0x1AFB JUMP JUMPDEST SWAP2 POP POP SWAP3 SWAP2 POP POP JUMP JUMPDEST PUSH32 0x589D473BA17C0F47D494622893831497BAD25919B9AFB8E33E9521B8963FCCDE PUSH2 0x2AFB DUP2 PUSH2 0x3214 JUMP JUMPDEST PUSH1 0x1 SLOAD DUP3 GT ISZERO PUSH2 0x2B40 JUMPI PUSH1 0x40 MLOAD PUSH32 0x8C379A000000000000000000000000000000000000000000000000000000000 DUP2 MSTORE PUSH1 0x4 ADD PUSH2 0x2B37 SWAP1 PUSH2 0x5588 JUMP JUMPDEST PUSH1 0x40 MLOAD DUP1 SWAP2 SUB SWAP1 REVERT JUMPDEST DUP2 PUSH1 0x0 DUP2 SWAP1 SSTORE POP DUP2 PUSH32 0x63B90B79F11A0F132BCB2C4A4DDD44ABDA45C1308A83B2919318DF7F5F8B7BE4 PUSH1 0x40 MLOAD PUSH1 0x40 MLOAD DUP1 SWAP2 SUB SWAP1 LOG2 POP POP JUMP JUMPDEST PUSH2 0x2B80 PUSH2 0x306E JUMP JUMPDEST PUSH1 0x0 PUSH1 0x5 PUSH1 0x0 DUP2 SLOAD DUP2 LT PUSH2 0x2B97 JUMPI PUSH2 0x2B96 PUSH2 0x4D05 JUMP JUMPDEST JUMPDEST SWAP1 PUSH1 0x0 MSTORE PUSH1 0x20 PUSH1 0x0 KECCAK256 SWAP1 PUSH1 0x7 MUL ADD SWAP1 POP PUSH1 0x0 PUSH20 0xFFFFFFFFFFFFFFFFFFFFFFFFFFFFFFFFFFFFFFFF AND DUP2 PUSH1 0x0 ADD PUSH1 0x0 SWAP1 SLOAD SWAP1 PUSH2 0x100 EXP SWAP1 DIV PUSH20 0xFFFFFFFFFFFFFFFFFFFFFFFFFFFFFFFFFFFFFFFF AND PUSH20 0xFFFFFFFFFFFFFFFFFFFFFFFFFFFFFFFFFFFFFFFF AND EQ PUSH2 0x2C3A JUMPI PUSH1 0x40 MLOAD PUSH32 0x8C379A000000000000000000000000000000000000000000000000000000000 DUP2 MSTORE PUSH1 0x4 ADD PUSH2 0x2C31 SWAP1 PUSH2 0x541E JUMP JUMPDEST PUSH1 0x40 MLOAD DUP1 SWAP2 SUB SWAP1 REVERT JUMPDEST PUSH1 0x0 CALLVALUE SWAP1 POP DUP2 PUSH1 0x5 ADD SLOAD DUP2 LT ISZERO PUSH2 0x2C86 JUMPI PUSH1 0x40 MLOAD PUSH32 0x8C379A000000000000000000000000000000000000000000000000000000000 DUP2 MSTORE PUSH1 0x4 ADD PUSH2 0x2C7D SWAP1 PUSH2 0x5738 JUMP JUMPDEST PUSH1 0x40 MLOAD DUP1 SWAP2 SUB SWAP1 REVERT JUMPDEST PUSH2 0x2C91 PUSH1 0x0 DUP3 PUSH2 0x39E0 JUMP JUMPDEST POP POP JUMP JUMPDEST PUSH32 0x589D473BA17C0F47D494622893831497BAD25919B9AFB8E33E9521B8963FCCDE PUSH2 0x2CBF DUP2 PUSH2 0x3214 JUMP JUMPDEST DUP4 PUSH1 0x5 DUP1 SLOAD SWAP1 POP DUP2 LT PUSH2 0x2D07 JUMPI PUSH1 0x40 MLOAD PUSH32 0x8C379A000000000000000000000000000000000000000000000000000000000 DUP2 MSTORE PUSH1 0x4 ADD PUSH2 0x2CFE SWAP1 PUSH2 0x4C79 JUMP JUMPDEST PUSH1 0x40 MLOAD DUP1 SWAP2 SUB SWAP1 REVERT JUMPDEST PUSH1 0x0 DUP5 GT PUSH2 0x2D4A JUMPI PUSH1 0x40 MLOAD PUSH32 0x8C379A000000000000000000000000000000000000000000000000000000000 DUP2 MSTORE PUSH1 0x4 ADD PUSH2 0x2D41 SWAP1 PUSH2 0x57A4 JUMP JUMPDEST PUSH1 0x40 MLOAD DUP1 SWAP2 SUB SWAP1 REVERT JUMPDEST DUP3 ISZERO PUSH2 0x2D59 JUMPI PUSH2 0x2D58 PUSH2 0x1ACC JUMP JUMPDEST JUMPDEST DUP4 PUSH1 0x5 DUP7 DUP2 SLOAD DUP2 LT PUSH2 0x2D6E JUMPI PUSH2 0x2D6D PUSH2 0x4D05 JUMP JUMPDEST JUMPDEST SWAP1 PUSH1 0x0 MSTORE PUSH1 0x20 PUSH1 0x0 KECCAK256 SWAP1 PUSH1 0x7 MUL ADD PUSH1 0x1 ADD SLOAD PUSH1 0x4 SLOAD PUSH2 0x2D8D SWAP2 SWAP1 PUSH2 0x4DDF JUMP JUMPDEST PUSH2 0x2D97 SWAP2 SWAP1 PUSH2 0x4D63 JUMP JUMPDEST PUSH1 0x4 DUP2 SWAP1 SSTORE POP DUP4 PUSH1 0x5 DUP7 DUP2 SLOAD DUP2 LT PUSH2 0x2DB2 JUMPI PUSH2 0x2DB1 PUSH2 0x4D05 JUMP JUMPDEST JUMPDEST SWAP1 PUSH1 0x0 MSTORE PUSH1 0x20 PUSH1 0x0 KECCAK256 SWAP1 PUSH1 0x7 MUL ADD PUSH1 0x1 ADD DUP2 SWAP1 SSTORE POP DUP4 DUP6 PUSH32 0x4B8FA3D6A87CB21D1BF4978BF60628AE358A28AC7F39DE1751A481C6DD957617 PUSH1 0x4 SLOAD PUSH1 0x40 MLOAD PUSH2 0x2DFA SWAP2 SWAP1 PUSH2 0x4401 JUMP JUMPDEST PUSH1 0x40 MLOAD DUP1 SWAP2 SUB SWAP1 LOG3 POP POP POP POP POP JUMP JUMPDEST PUSH1 0x5 DUP2 DUP2 SLOAD DUP2 LT PUSH2 0x2E19 JUMPI PUSH1 0x0 DUP1 REVERT JUMPDEST SWAP1 PUSH1 0x0 MSTORE PUSH1 0x20 PUSH1 0x0 KECCAK256 SWAP1 PUSH1 0x7 MUL ADD PUSH1 0x0 SWAP2 POP SWAP1 POP DUP1 PUSH1 0x0 ADD PUSH1 0x0 SWAP1 SLOAD SWAP1 PUSH2 0x100 EXP SWAP1 DIV PUSH20 0xFFFFFFFFFFFFFFFFFFFFFFFFFFFFFFFFFFFFFFFF AND SWAP1 DUP1 PUSH1 0x1 ADD SLOAD SWAP1 DUP1 PUSH1 0x2 ADD SLOAD SWAP1 DUP1 PUSH1 0x3 ADD SLOAD SWAP1 DUP1 PUSH1 0x4 ADD SLOAD SWAP1 DUP1 PUSH1 0x5 ADD SLOAD SWAP1 DUP1 PUSH1 0x6 ADD SLOAD SWAP1 POP DUP8 JUMP JUMPDEST PUSH1 0x0 DUP1 DUP4 PUSH1 0x5 DUP1 SLOAD SWAP1 POP DUP2 LT PUSH2 0x2EC6 JUMPI PUSH1 0x40 MLOAD PUSH32 0x8C379A000000000000000000000000000000000000000000000000000000000 DUP2 MSTORE PUSH1 0x4 ADD PUSH2 0x2EBD SWAP1 PUSH2 0x4C79 JUMP JUMPDEST PUSH1 0x40 MLOAD DUP1 SWAP2 SUB SWAP1 REVERT JUMPDEST PUSH1 0x0 PUSH1 0x6 PUSH1 0x0 DUP8 DUP2 MSTORE PUSH1 0x20 ADD SWAP1 DUP2 MSTORE PUSH1 0x20 ADD PUSH1 0x0 KECCAK256 PUSH1 0x0 DUP7 PUSH20 0xFFFFFFFFFFFFFFFFFFFFFFFFFFFFFFFFFFFFFFFF AND PUSH20 0xFFFFFFFFFFFFFFFFFFFFFFFFFFFFFFFFFFFFFFFF AND DUP2 MSTORE PUSH1 0x20 ADD SWAP1 DUP2 MSTORE PUSH1 0x20 ADD PUSH1 0x0 KECCAK256 SWAP1 POP PUSH1 0x0 JUMPDEST DUP2 PUSH1 0x3 ADD DUP1 SLOAD SWAP1 POP DUP2 LT ISZERO PUSH2 0x2FD2 JUMPI NUMBER DUP3 PUSH1 0x3 ADD DUP3 DUP2 SLOAD DUP2 LT PUSH2 0x2F43 JUMPI PUSH2 0x2F42 PUSH2 0x4D05 JUMP JUMPDEST JUMPDEST SWAP1 PUSH1 0x0 MSTORE PUSH1 0x20 PUSH1 0x0 KECCAK256 SWAP1 PUSH1 0x2 MUL ADD PUSH1 0x1 ADD SLOAD GT PUSH2 0x2F90 JUMPI DUP2 PUSH1 0x3 ADD DUP2 DUP2 SLOAD DUP2 LT PUSH2 0x2F70 JUMPI PUSH2 0x2F6F PUSH2 0x4D05 JUMP JUMPDEST JUMPDEST SWAP1 PUSH1 0x0 MSTORE PUSH1 0x20 PUSH1 0x0 KECCAK256 SWAP1 PUSH1 0x2 MUL ADD PUSH1 0x0 ADD SLOAD DUP5 PUSH2 0x2F8D SWAP2 SWAP1 PUSH2 0x4D63 JUMP JUMPDEST SWAP4 POP JUMPDEST DUP2 PUSH1 0x3 ADD DUP2 DUP2 SLOAD DUP2 LT PUSH2 0x2FA6 JUMPI PUSH2 0x2FA5 PUSH2 0x4D05 JUMP JUMPDEST JUMPDEST SWAP1 PUSH1 0x0 MSTORE PUSH1 0x20 PUSH1 0x0 KECCAK256 SWAP1 PUSH1 0x2 MUL ADD PUSH1 0x0 ADD SLOAD DUP6 PUSH2 0x2FC3 SWAP2 SWAP1 PUSH2 0x4D63 JUMP JUMPDEST SWAP5 POP DUP1 DUP1 PUSH1 0x1 ADD SWAP2 POP POP PUSH2 0x2F1D JUMP JUMPDEST POP POP POP SWAP3 POP SWAP3 SWAP1 POP JUMP JUMPDEST PUSH1 0x0 PUSH32 0x1FFC9A700000000000000000000000000000000000000000000000000000000 PUSH28 0xFFFFFFFFFFFFFFFFFFFFFFFFFFFFFFFFFFFFFFFFFFFFFFFFFFFFFFFF NOT AND DUP3 PUSH28 0xFFFFFFFFFFFFFFFFFFFFFFFFFFFFFFFFFFFFFFFFFFFFFFFFFFFFFFFF NOT AND EQ SWAP1 POP SWAP2 SWAP1 POP JUMP JUMPDEST PUSH1 0x0 PUSH32 0x2DD7BC7DEC4DCEEDDA775E58DD541E08A116C6C53815C0BD028192F7B626800 SWAP1 POP SWAP1 JUMP JUMPDEST PUSH2 0x3076 PUSH2 0x190F JUMP JUMPDEST ISZERO PUSH2 0x30AD JUMPI PUSH1 0x40 MLOAD PUSH32 0xD93C066500000000000000000000000000000000000000000000000000000000 DUP2 MSTORE PUSH1 0x4 ADD PUSH1 0x40 MLOAD DUP1 SWAP2 SUB SWAP1 REVERT JUMPDEST JUMP JUMPDEST PUSH1 0x0 DUP1 DUP4 PUSH20 0xFFFFFFFFFFFFFFFFFFFFFFFFFFFFFFFFFFFFFFFF AND DUP4 PUSH1 0x40 MLOAD PUSH2 0x30D6 SWAP1 PUSH2 0x57F5 JUMP JUMPDEST PUSH1 0x0 PUSH1 0x40 MLOAD DUP1 DUP4 SUB DUP2 DUP6 DUP8 GAS CALL SWAP3 POP POP POP RETURNDATASIZE DUP1 PUSH1 0x0 DUP2 EQ PUSH2 0x3113 JUMPI PUSH1 0x40 MLOAD SWAP2 POP PUSH1 0x1F NOT PUSH1 0x3F RETURNDATASIZE ADD AND DUP3 ADD PUSH1 0x40 MSTORE RETURNDATASIZE DUP3 MSTORE RETURNDATASIZE PUSH1 0x0 PUSH1 0x20 DUP5 ADD RETURNDATACOPY PUSH2 0x3118 JUMP JUMPDEST PUSH1 0x60 SWAP2 POP JUMPDEST POP SWAP2 POP SWAP2 POP DUP2 PUSH2 0x315D JUMPI PUSH1 0x40 MLOAD PUSH32 0x8C379A000000000000000000000000000000000000000000000000000000000 DUP2 MSTORE PUSH1 0x4 ADD PUSH2 0x3154 SWAP1 PUSH2 0x5856 JUMP JUMPDEST PUSH1 0x40 MLOAD DUP1 SWAP2 SUB SWAP1 REVERT JUMPDEST PUSH1 0x0 DUP2 MLOAD GT ISZERO PUSH2 0x31BB JUMPI DUP1 DUP1 PUSH1 0x20 ADD SWAP1 MLOAD DUP2 ADD SWAP1 PUSH2 0x317B SWAP2 SWAP1 PUSH2 0x588B JUMP JUMPDEST PUSH2 0x31BA JUMPI PUSH1 0x40 MLOAD PUSH32 0x8C379A000000000000000000000000000000000000000000000000000000000 DUP2 MSTORE PUSH1 0x4 ADD PUSH2 0x31B1 SWAP1 PUSH2 0x592A JUMP JUMPDEST PUSH1 0x40 MLOAD DUP1 SWAP2 SUB SWAP1 REVERT JUMPDEST JUMPDEST POP POP POP POP JUMP JUMPDEST PUSH2 0x31CE DUP4 DUP4 DUP4 PUSH1 0x1 PUSH2 0x3E0C JUMP JUMPDEST PUSH2 0x320F JUMPI DUP3 PUSH1 0x40 MLOAD PUSH32 0x5274AFE700000000000000000000000000000000000000000000000000000000 DUP2 MSTORE PUSH1 0x4 ADD PUSH2 0x3206 SWAP2 SWAP1 PUSH2 0x594A JUMP JUMPDEST PUSH1 0x40 MLOAD DUP1 SWAP2 SUB SWAP1 REVERT JUMPDEST POP POP POP JUMP JUMPDEST PUSH2 0x3225 DUP2 PUSH2 0x3220 PUSH2 0x3329 JUMP JUMPDEST PUSH2 0x3E76 JUMP JUMPDEST POP JUMP JUMPDEST PUSH1 0x0 DUP1 PUSH2 0x3233 PUSH2 0x3046 JUMP JUMPDEST SWAP1 POP PUSH2 0x323F DUP5 DUP5 PUSH2 0x1E9C JUMP JUMPDEST PUSH2 0x331D JUMPI PUSH1 0x1 DUP2 PUSH1 0x0 ADD PUSH1 0x0 DUP7 DUP2 MSTORE PUSH1 0x20 ADD SWAP1 DUP2 MSTORE PUSH1 0x20 ADD PUSH1 0x0 KECCAK256 PUSH1 0x0 ADD PUSH1 0x0 DUP6 PUSH20 0xFFFFFFFFFFFFFFFFFFFFFFFFFFFFFFFFFFFFFFFF AND PUSH20 0xFFFFFFFFFFFFFFFFFFFFFFFFFFFFFFFFFFFFFFFF AND DUP2 MSTORE PUSH1 0x20 ADD SWAP1 DUP2 MSTORE PUSH1 0x20 ADD PUSH1 0x0 KECCAK256 PUSH1 0x0 PUSH2 0x100 EXP DUP2 SLOAD DUP2 PUSH1 0xFF MUL NOT AND SWAP1 DUP4 ISZERO ISZERO MUL OR SWAP1 SSTORE POP PUSH2 0x32B9 PUSH2 0x3329 JUMP JUMPDEST PUSH20 0xFFFFFFFFFFFFFFFFFFFFFFFFFFFFFFFFFFFFFFFF AND DUP4 PUSH20 0xFFFFFFFFFFFFFFFFFFFFFFFFFFFFFFFFFFFFFFFF AND DUP6 PUSH32 0x2F8788117E7EFF1D82E926EC794901D17C78024A50270940304540A733656F0D PUSH1 0x40 MLOAD PUSH1 0x40 MLOAD DUP1 SWAP2 SUB SWAP1 LOG4 PUSH1 0x1 SWAP2 POP POP PUSH2 0x3323 JUMP JUMPDEST PUSH1 0x0 SWAP2 POP POP JUMPDEST SWAP3 SWAP2 POP POP JUMP JUMPDEST PUSH1 0x0 CALLER SWAP1 POP SWAP1 JUMP JUMPDEST PUSH1 0x0 DUP1 PUSH2 0x333C PUSH2 0x3046 JUMP JUMPDEST SWAP1 POP PUSH2 0x3348 DUP5 DUP5 PUSH2 0x1E9C JUMP JUMPDEST ISZERO PUSH2 0x3427 JUMPI PUSH1 0x0 DUP2 PUSH1 0x0 ADD PUSH1 0x0 DUP7 DUP2 MSTORE PUSH1 0x20 ADD SWAP1 DUP2 MSTORE PUSH1 0x20 ADD PUSH1 0x0 KECCAK256 PUSH1 0x0 ADD PUSH1 0x0 DUP6 PUSH20 0xFFFFFFFFFFFFFFFFFFFFFFFFFFFFFFFFFFFFFFFF AND PUSH20 0xFFFFFFFFFFFFFFFFFFFFFFFFFFFFFFFFFFFFFFFF AND DUP2 MSTORE PUSH1 0x20 ADD SWAP1 DUP2 MSTORE PUSH1 0x20 ADD PUSH1 0x0 KECCAK256 PUSH1 0x0 PUSH2 0x100 EXP DUP2 SLOAD DUP2 PUSH1 0xFF MUL NOT AND SWAP1 DUP4 ISZERO ISZERO MUL OR SWAP1 SSTORE POP PUSH2 0x33C3 PUSH2 0x3329 JUMP JUMPDEST PUSH20 0xFFFFFFFFFFFFFFFFFFFFFFFFFFFFFFFFFFFFFFFF AND DUP4 PUSH20 0xFFFFFFFFFFFFFFFFFFFFFFFFFFFFFFFFFFFFFFFF AND DUP6 PUSH32 0xF6391F5C32D9C69D2A47EA670B442974B53935D1EDC7FD64EB21E047A839171B PUSH1 0x40 MLOAD PUSH1 0x40 MLOAD DUP1 SWAP2 SUB SWAP1 LOG4 PUSH1 0x1 SWAP2 POP POP PUSH2 0x342D JUMP JUMPDEST PUSH1 0x0 SWAP2 POP POP JUMPDEST SWAP3 SWAP2 POP POP JUMP JUMPDEST PUSH1 0x0 PUSH1 0x3 PUSH1 0x2 SWAP1 SLOAD SWAP1 PUSH2 0x100 EXP SWAP1 DIV PUSH20 0xFFFFFFFFFFFFFFFFFFFFFFFFFFFFFFFFFFFFFFFF AND PUSH20 0xFFFFFFFFFFFFFFFFFFFFFFFFFFFFFFFFFFFFFFFF AND PUSH4 0x70A08231 ADDRESS PUSH1 0x40 MLOAD DUP3 PUSH4 0xFFFFFFFF AND PUSH1 0xE0 SHL DUP2 MSTORE PUSH1 0x4 ADD PUSH2 0x3490 SWAP2 SWAP1 PUSH2 0x594A JUMP JUMPDEST PUSH1 0x20 PUSH1 0x40 MLOAD DUP1 DUP4 SUB DUP2 DUP7 GAS STATICCALL ISZERO DUP1 ISZERO PUSH2 0x34AD JUMPI RETURNDATASIZE PUSH1 0x0 DUP1 RETURNDATACOPY RETURNDATASIZE PUSH1 0x0 REVERT JUMPDEST POP POP POP POP PUSH1 0x40 MLOAD RETURNDATASIZE PUSH1 0x1F NOT PUSH1 0x1F DUP3 ADD AND DUP3 ADD DUP1 PUSH1 0x40 MSTORE POP DUP2 ADD SWAP1 PUSH2 0x34D1 SWAP2 SWAP1 PUSH2 0x597A JUMP JUMPDEST SWAP1 POP DUP1 DUP3 GT ISZERO PUSH2 0x3581 JUMPI PUSH1 0x3 PUSH1 0x2 SWAP1 SLOAD SWAP1 PUSH2 0x100 EXP SWAP1 DIV PUSH20 0xFFFFFFFFFFFFFFFFFFFFFFFFFFFFFFFFFFFFFFFF AND PUSH20 0xFFFFFFFFFFFFFFFFFFFFFFFFFFFFFFFFFFFFFFFF AND PUSH4 0xA9059CBB DUP5 DUP4 PUSH1 0x40 MLOAD DUP4 PUSH4 0xFFFFFFFF AND PUSH1 0xE0 SHL DUP2 MSTORE PUSH1 0x4 ADD PUSH2 0x3538 SWAP3 SWAP2 SWAP1 PUSH2 0x59A7 JUMP JUMPDEST PUSH1 0x20 PUSH1 0x40 MLOAD DUP1 DUP4 SUB DUP2 PUSH1 0x0 DUP8 GAS CALL ISZERO DUP1 ISZERO PUSH2 0x3557 JUMPI RETURNDATASIZE PUSH1 0x0 DUP1 RETURNDATACOPY RETURNDATASIZE PUSH1 0x0 REVERT JUMPDEST POP POP POP POP PUSH1 0x40 MLOAD RETURNDATASIZE PUSH1 0x1F NOT PUSH1 0x1F DUP3 ADD AND DUP3 ADD DUP1 PUSH1 0x40 MSTORE POP DUP2 ADD SWAP1 PUSH2 0x357B SWAP2 SWAP1 PUSH2 0x588B JUMP JUMPDEST POP PUSH2 0x3623 JUMP JUMPDEST PUSH1 0x3 PUSH1 0x2 SWAP1 SLOAD SWAP1 PUSH2 0x100 EXP SWAP1 DIV PUSH20 0xFFFFFFFFFFFFFFFFFFFFFFFFFFFFFFFFFFFFFFFF AND PUSH20 0xFFFFFFFFFFFFFFFFFFFFFFFFFFFFFFFFFFFFFFFF AND PUSH4 0xA9059CBB DUP5 DUP5 PUSH1 0x40 MLOAD DUP4 PUSH4 0xFFFFFFFF AND PUSH1 0xE0 SHL DUP2 MSTORE PUSH1 0x4 ADD PUSH2 0x35DE SWAP3 SWAP2 SWAP1 PUSH2 0x59A7 JUMP JUMPDEST PUSH1 0x20 PUSH1 0x40 MLOAD DUP1 DUP4 SUB DUP2 PUSH1 0x0 DUP8 GAS CALL ISZERO DUP1 ISZERO PUSH2 0x35FD JUMPI RETURNDATASIZE PUSH1 0x0 DUP1 RETURNDATACOPY RETURNDATASIZE PUSH1 0x0 REVERT JUMPDEST POP POP POP POP PUSH1 0x40 MLOAD RETURNDATASIZE PUSH1 0x1F NOT PUSH1 0x1F DUP3 ADD AND DUP3 ADD DUP1 PUSH1 0x40 MSTORE POP DUP2 ADD SWAP1 PUSH2 0x3621 SWAP2 SWAP1 PUSH2 0x588B JUMP JUMPDEST POP JUMPDEST POP POP POP JUMP JUMPDEST PUSH1 0x0 DUP1 PUSH2 0x3633 PUSH2 0x3EC7 JUMP JUMPDEST SWAP1 POP DUP1 SWAP2 POP POP SWAP1 JUMP JUMPDEST PUSH2 0x3644 PUSH2 0x3EF2 JUMP JUMPDEST JUMP JUMPDEST PUSH32 0x0 PUSH20 0xFFFFFFFFFFFFFFFFFFFFFFFFFFFFFFFFFFFFFFFF AND ADDRESS PUSH20 0xFFFFFFFFFFFFFFFFFFFFFFFFFFFFFFFFFFFFFFFF AND EQ DUP1 PUSH2 0x36F3 JUMPI POP PUSH32 0x0 PUSH20 0xFFFFFFFFFFFFFFFFFFFFFFFFFFFFFFFFFFFFFFFF AND PUSH2 0x36DA PUSH2 0x3F32 JUMP JUMPDEST PUSH20 0xFFFFFFFFFFFFFFFFFFFFFFFFFFFFFFFFFFFFFFFF AND EQ ISZERO JUMPDEST ISZERO PUSH2 0x372A JUMPI PUSH1 0x40 MLOAD PUSH32 0xE07C8DBA00000000000000000000000000000000000000000000000000000000 DUP2 MSTORE PUSH1 0x4 ADD PUSH1 0x40 MLOAD DUP1 SWAP2 SUB SWAP1 REVERT JUMPDEST JUMP JUMPDEST PUSH32 0xCAB03BC4DBCC648CD59D6BBE9F848D1E9092F914016AA290EE92E18700D1E6F9 PUSH2 0x3756 DUP2 PUSH2 0x3214 JUMP JUMPDEST POP POP JUMP JUMPDEST DUP2 PUSH20 0xFFFFFFFFFFFFFFFFFFFFFFFFFFFFFFFFFFFFFFFF AND PUSH4 0x52D1902D PUSH1 0x40 MLOAD DUP2 PUSH4 0xFFFFFFFF AND PUSH1 0xE0 SHL DUP2 MSTORE PUSH1 0x4 ADD PUSH1 0x20 PUSH1 0x40 MLOAD DUP1 DUP4 SUB DUP2 DUP7 GAS STATICCALL SWAP3 POP POP POP DUP1 ISZERO PUSH2 0x37C2 JUMPI POP PUSH1 0x40 MLOAD RETURNDATASIZE PUSH1 0x1F NOT PUSH1 0x1F DUP3 ADD AND DUP3 ADD DUP1 PUSH1 0x40 MSTORE POP DUP2 ADD SWAP1 PUSH2 0x37BF SWAP2 SWAP1 PUSH2 0x59E5 JUMP JUMPDEST PUSH1 0x1 JUMPDEST PUSH2 0x3803 JUMPI DUP2 PUSH1 0x40 MLOAD PUSH32 0x4C9C8CE300000000000000000000000000000000000000000000000000000000 DUP2 MSTORE PUSH1 0x4 ADD PUSH2 0x37FA SWAP2 SWAP1 PUSH2 0x594A JUMP JUMPDEST PUSH1 0x40 MLOAD DUP1 SWAP2 SUB SWAP1 REVERT JUMPDEST PUSH32 0x360894A13BA1A3210667C828492DB98DCA3E2076CC3735A920A3CA505D382BBC PUSH1 0x0 SHL DUP2 EQ PUSH2 0x386A JUMPI DUP1 PUSH1 0x40 MLOAD PUSH32 0xAA1D49A400000000000000000000000000000000000000000000000000000000 DUP2 MSTORE PUSH1 0x4 ADD PUSH2 0x3861 SWAP2 SWAP1 PUSH2 0x4558 JUMP JUMPDEST PUSH1 0x40 MLOAD DUP1 SWAP2 SUB SWAP1 REVERT JUMPDEST PUSH2 0x3874 DUP4 DUP4 PUSH2 0x3F89 JUMP JUMPDEST POP POP POP JUMP JUMPDEST PUSH1 0x0 DUP1 PUSH1 0x0 DUP4 DUP6 MUL SWAP1 POP DUP5 ISZERO DUP5 DUP7 DUP4 DIV EQ OR SWAP3 POP PUSH2 0x3896 DUP4 PUSH2 0x3FFC JUMP JUMPDEST DUP2 MUL SWAP2 POP POP SWAP3 POP SWAP3 SWAP1 POP JUMP JUMPDEST PUSH1 0x0 DUP1 PUSH1 0x0 DUP4 GT SWAP2 POP DUP3 DUP5 DIV SWAP1 POP SWAP3 POP SWAP3 SWAP1 POP JUMP JUMPDEST PUSH1 0x0 DUP1 PUSH1 0x0 DUP4 DUP6 ADD SWAP1 POP DUP5 DUP2 LT ISZERO SWAP3 POP PUSH2 0x38D0 DUP4 PUSH2 0x3FFC JUMP JUMPDEST DUP2 MUL SWAP2 POP POP SWAP3 POP SWAP3 SWAP1 POP JUMP JUMPDEST PUSH32 0x0 PUSH20 0xFFFFFFFFFFFFFFFFFFFFFFFFFFFFFFFFFFFFFFFF AND ADDRESS PUSH20 0xFFFFFFFFFFFFFFFFFFFFFFFFFFFFFFFFFFFFFFFF AND EQ PUSH2 0x3961 JUMPI PUSH1 0x40 MLOAD PUSH32 0xE07C8DBA00000000000000000000000000000000000000000000000000000000 DUP2 MSTORE PUSH1 0x4 ADD PUSH1 0x40 MLOAD DUP1 SWAP2 SUB SWAP1 REVERT JUMPDEST JUMP JUMPDEST PUSH1 0x0 PUSH32 0xCD5ED15C6E187E77E9AEE88184C21F4F2182AB5827CB3B7E07FBEDCD63F03300 SWAP1 POP SWAP1 JUMP JUMPDEST PUSH2 0x3999 DUP5 DUP5 DUP5 DUP5 PUSH1 0x1 PUSH2 0x4008 JUMP JUMPDEST PUSH2 0x39DA JUMPI DUP4 PUSH1 0x40 MLOAD PUSH32 0x5274AFE700000000000000000000000000000000000000000000000000000000 DUP2 MSTORE PUSH1 0x4 ADD PUSH2 0x39D1 SWAP2 SWAP1 PUSH2 0x594A JUMP JUMPDEST PUSH1 0x40 MLOAD DUP1 SWAP2 SUB SWAP1 REVERT JUMPDEST POP POP POP POP JUMP JUMPDEST PUSH1 0x0 PUSH1 0x5 DUP4 DUP2 SLOAD DUP2 LT PUSH2 0x39F6 JUMPI PUSH2 0x39F5 PUSH2 0x4D05 JUMP JUMPDEST JUMPDEST SWAP1 PUSH1 0x0 MSTORE PUSH1 0x20 PUSH1 0x0 KECCAK256 SWAP1 PUSH1 0x7 MUL ADD SWAP1 POP PUSH1 0x0 PUSH1 0x6 PUSH1 0x0 DUP6 DUP2 MSTORE PUSH1 0x20 ADD SWAP1 DUP2 MSTORE PUSH1 0x20 ADD PUSH1 0x0 KECCAK256 PUSH1 0x0 CALLER PUSH20 0xFFFFFFFFFFFFFFFFFFFFFFFFFFFFFFFFFFFFFFFF AND PUSH20 0xFFFFFFFFFFFFFFFFFFFFFFFFFFFFFFFFFFFFFFFF AND DUP2 MSTORE PUSH1 0x20 ADD SWAP1 DUP2 MSTORE PUSH1 0x20 ADD PUSH1 0x0 KECCAK256 SWAP1 POP PUSH2 0x3A63 DUP5 PUSH2 0x1548 JUMP JUMPDEST PUSH1 0x0 DUP2 PUSH1 0x0 ADD SLOAD GT ISZERO PUSH2 0x3C0B JUMPI PUSH1 0x0 DUP1 PUSH2 0x3A8E DUP5 PUSH1 0x3 ADD SLOAD DUP5 PUSH1 0x0 ADD SLOAD PUSH2 0x3879 SWAP1 SWAP2 SWAP1 PUSH4 0xFFFFFFFF AND JUMP JUMPDEST SWAP2 POP SWAP2 POP DUP2 PUSH2 0x3AD2 JUMPI PUSH1 0x40 MLOAD PUSH32 0x8C379A000000000000000000000000000000000000000000000000000000000 DUP2 MSTORE PUSH1 0x4 ADD PUSH2 0x3AC9 SWAP1 PUSH2 0x5A84 JUMP JUMPDEST PUSH1 0x40 MLOAD DUP1 SWAP2 SUB SWAP1 REVERT JUMPDEST PUSH2 0x3AED PUSH8 0xDE0B6B3A7640000 DUP3 PUSH2 0x38A2 SWAP1 SWAP2 SWAP1 PUSH4 0xFFFFFFFF AND JUMP JUMPDEST DUP1 SWAP3 POP DUP2 SWAP4 POP POP POP DUP2 PUSH2 0x3B35 JUMPI PUSH1 0x40 MLOAD PUSH32 0x8C379A000000000000000000000000000000000000000000000000000000000 DUP2 MSTORE PUSH1 0x4 ADD PUSH2 0x3B2C SWAP1 PUSH2 0x5AF0 JUMP JUMPDEST PUSH1 0x40 MLOAD DUP1 SWAP2 SUB SWAP1 REVERT JUMPDEST PUSH1 0x0 DUP1 PUSH2 0x3B4F DUP6 PUSH1 0x1 ADD SLOAD DUP5 PUSH2 0x4083 SWAP1 SWAP2 SWAP1 PUSH4 0xFFFFFFFF AND JUMP JUMPDEST SWAP2 POP SWAP2 POP DUP2 PUSH2 0x3B93 JUMPI PUSH1 0x40 MLOAD PUSH32 0x8C379A000000000000000000000000000000000000000000000000000000000 DUP2 MSTORE PUSH1 0x4 ADD PUSH2 0x3B8A SWAP1 PUSH2 0x5B82 JUMP JUMPDEST PUSH1 0x40 MLOAD DUP1 SWAP2 SUB SWAP1 REVERT JUMPDEST PUSH1 0x0 DUP2 GT ISZERO PUSH2 0x3C06 JUMPI PUSH1 0x0 DUP1 PUSH2 0x3BB6 DUP4 DUP9 PUSH1 0x2 ADD SLOAD PUSH2 0x38B7 SWAP1 SWAP2 SWAP1 PUSH4 0xFFFFFFFF AND JUMP JUMPDEST SWAP2 POP SWAP2 POP DUP2 PUSH2 0x3BFA JUMPI PUSH1 0x40 MLOAD PUSH32 0x8C379A000000000000000000000000000000000000000000000000000000000 DUP2 MSTORE PUSH1 0x4 ADD PUSH2 0x3BF1 SWAP1 PUSH2 0x5BEE JUMP JUMPDEST PUSH1 0x40 MLOAD DUP1 SWAP2 SUB SWAP1 REVERT JUMPDEST DUP1 DUP8 PUSH1 0x2 ADD DUP2 SWAP1 SSTORE POP POP POP JUMPDEST POP POP POP POP JUMPDEST PUSH1 0x0 DUP4 GT ISZERO PUSH2 0x3C7E JUMPI PUSH1 0x0 DUP1 PUSH2 0x3C2E DUP6 DUP5 PUSH1 0x0 ADD SLOAD PUSH2 0x38B7 SWAP1 SWAP2 SWAP1 PUSH4 0xFFFFFFFF AND JUMP JUMPDEST SWAP2 POP SWAP2 POP DUP2 PUSH2 0x3C72 JUMPI PUSH1 0x40 MLOAD PUSH32 0x8C379A000000000000000000000000000000000000000000000000000000000 DUP2 MSTORE PUSH1 0x4 ADD PUSH2 0x3C69 SWAP1 PUSH2 0x5C5A JUMP JUMPDEST PUSH1 0x40 MLOAD DUP1 SWAP2 SUB SWAP1 REVERT JUMPDEST DUP1 DUP4 PUSH1 0x0 ADD DUP2 SWAP1 SSTORE POP POP POP JUMPDEST PUSH1 0x0 DUP1 PUSH2 0x3C98 DUP6 DUP6 PUSH1 0x4 ADD SLOAD PUSH2 0x38B7 SWAP1 SWAP2 SWAP1 PUSH4 0xFFFFFFFF AND JUMP JUMPDEST SWAP2 POP SWAP2 POP DUP2 PUSH2 0x3CDC JUMPI PUSH1 0x40 MLOAD PUSH32 0x8C379A000000000000000000000000000000000000000000000000000000000 DUP2 MSTORE PUSH1 0x4 ADD PUSH2 0x3CD3 SWAP1 PUSH2 0x5CC6 JUMP JUMPDEST PUSH1 0x40 MLOAD DUP1 SWAP2 SUB SWAP1 REVERT JUMPDEST DUP1 DUP5 PUSH1 0x4 ADD DUP2 SWAP1 SSTORE POP PUSH1 0x0 DUP1 PUSH2 0x3D03 DUP7 PUSH1 0x3 ADD SLOAD DUP7 PUSH1 0x0 ADD SLOAD PUSH2 0x3879 SWAP1 SWAP2 SWAP1 PUSH4 0xFFFFFFFF AND JUMP JUMPDEST SWAP2 POP SWAP2 POP DUP2 PUSH2 0x3D47 JUMPI PUSH1 0x40 MLOAD PUSH32 0x8C379A000000000000000000000000000000000000000000000000000000000 DUP2 MSTORE PUSH1 0x4 ADD PUSH2 0x3D3E SWAP1 PUSH2 0x5A84 JUMP JUMPDEST PUSH1 0x40 MLOAD DUP1 SWAP2 SUB SWAP1 REVERT JUMPDEST PUSH2 0x3D62 PUSH8 0xDE0B6B3A7640000 DUP3 PUSH2 0x38A2 SWAP1 SWAP2 SWAP1 PUSH4 0xFFFFFFFF AND JUMP JUMPDEST DUP1 SWAP3 POP DUP2 SWAP4 POP POP POP DUP2 PUSH2 0x3DAA JUMPI PUSH1 0x40 MLOAD PUSH32 0x8C379A000000000000000000000000000000000000000000000000000000000 DUP2 MSTORE PUSH1 0x4 ADD PUSH2 0x3DA1 SWAP1 PUSH2 0x5D58 JUMP JUMPDEST PUSH1 0x40 MLOAD DUP1 SWAP2 SUB SWAP1 REVERT JUMPDEST DUP1 DUP6 PUSH1 0x1 ADD DUP2 SWAP1 SSTORE POP DUP8 CALLER PUSH20 0xFFFFFFFFFFFFFFFFFFFFFFFFFFFFFFFFFFFFFFFF AND PUSH32 0x90890809C654F11D6E72A28FA60149770A0D11EC6C92319D6CEB2BB0A4EA1A15 DUP10 PUSH1 0x40 MLOAD PUSH2 0x3DFA SWAP2 SWAP1 PUSH2 0x4401 JUMP JUMPDEST PUSH1 0x40 MLOAD DUP1 SWAP2 SUB SWAP1 LOG3 POP POP POP POP POP POP POP POP JUMP JUMPDEST PUSH1 0x0 DUP1 PUSH4 0xA9059CBB PUSH1 0xE0 SHL SWAP1 POP PUSH1 0x40 MLOAD DUP2 PUSH1 0x0 MSTORE PUSH1 0x0 NOT PUSH1 0x60 SHR DUP7 AND PUSH1 0x4 MSTORE DUP5 PUSH1 0x24 MSTORE PUSH1 0x20 PUSH1 0x0 PUSH1 0x44 PUSH1 0x0 DUP1 DUP12 GAS CALL SWAP3 POP PUSH1 0x1 PUSH1 0x0 MLOAD EQ DUP4 AND PUSH2 0x3E68 JUMPI DUP4 DUP4 ISZERO AND ISZERO PUSH2 0x3E5B JUMPI RETURNDATASIZE PUSH1 0x0 DUP3 RETURNDATACOPY RETURNDATASIZE DUP2 REVERT JUMPDEST PUSH1 0x0 DUP8 EXTCODESIZE GT RETURNDATASIZE ISZERO AND DUP4 AND SWAP3 POP JUMPDEST DUP1 PUSH1 0x40 MSTORE POP POP SWAP5 SWAP4 POP POP POP POP JUMP JUMPDEST PUSH2 0x3E80 DUP3 DUP3 PUSH2 0x1E9C JUMP JUMPDEST PUSH2 0x3EC3 JUMPI DUP1 DUP3 PUSH1 0x40 MLOAD PUSH32 0xE2517D3F00000000000000000000000000000000000000000000000000000000 DUP2 MSTORE PUSH1 0x4 ADD PUSH2 0x3EBA SWAP3 SWAP2 SWAP1 PUSH2 0x5D78 JUMP JUMPDEST PUSH1 0x40 MLOAD DUP1 SWAP2 SUB SWAP1 REVERT JUMPDEST POP POP JUMP JUMPDEST PUSH1 0x0 PUSH32 0xF0C57E16840DF040F15088DC2F81FE391C3923BEC73E23A9662EFC9C229C6A00 PUSH1 0x0 SHL SWAP1 POP SWAP1 JUMP JUMPDEST PUSH2 0x3EFA PUSH2 0x40A8 JUMP JUMPDEST PUSH2 0x3F30 JUMPI PUSH1 0x40 MLOAD PUSH32 0xD7E6BCF800000000000000000000000000000000000000000000000000000000 DUP2 MSTORE PUSH1 0x4 ADD PUSH1 0x40 MLOAD DUP1 SWAP2 SUB SWAP1 REVERT JUMPDEST JUMP JUMPDEST PUSH1 0x0 PUSH2 0x3F60 PUSH32 0x360894A13BA1A3210667C828492DB98DCA3E2076CC3735A920A3CA505D382BBC PUSH1 0x0 SHL PUSH2 0x40C8 JUMP JUMPDEST PUSH1 0x0 ADD PUSH1 0x0 SWAP1 SLOAD SWAP1 PUSH2 0x100 EXP SWAP1 DIV PUSH20 0xFFFFFFFFFFFFFFFFFFFFFFFFFFFFFFFFFFFFFFFF AND SWAP1 POP SWAP1 JUMP JUMPDEST PUSH2 0x3F92 DUP3 PUSH2 0x40D2 JUMP JUMPDEST DUP2 PUSH20 0xFFFFFFFFFFFFFFFFFFFFFFFFFFFFFFFFFFFFFFFF AND PUSH32 0xBC7CD75A20EE27FD9ADEBAB32041F755214DBC6BFFA90CC0225B39DA2E5C2D3B PUSH1 0x40 MLOAD PUSH1 0x40 MLOAD DUP1 SWAP2 SUB SWAP1 LOG2 PUSH1 0x0 DUP2 MLOAD GT ISZERO PUSH2 0x3FEF JUMPI PUSH2 0x3FE9 DUP3 DUP3 PUSH2 0x419F JUMP JUMPDEST POP PUSH2 0x3FF8 JUMP JUMPDEST PUSH2 0x3FF7 PUSH2 0x4294 JUMP JUMPDEST JUMPDEST POP POP JUMP JUMPDEST PUSH1 0x0 DUP2 ISZERO ISZERO SWAP1 POP SWAP2 SWAP1 POP JUMP JUMPDEST PUSH1 0x0 DUP1 PUSH4 0x23B872DD PUSH1 0xE0 SHL SWAP1 POP PUSH1 0x40 MLOAD DUP2 PUSH1 0x0 MSTORE PUSH1 0x0 NOT PUSH1 0x60 SHR DUP8 AND PUSH1 0x4 MSTORE PUSH1 0x0 NOT PUSH1 0x60 SHR DUP7 AND PUSH1 0x24 MSTORE DUP5 PUSH1 0x44 MSTORE PUSH1 0x20 PUSH1 0x0 PUSH1 0x64 PUSH1 0x0 DUP1 DUP13 GAS CALL SWAP3 POP PUSH1 0x1 PUSH1 0x0 MLOAD EQ DUP4 AND PUSH2 0x406F JUMPI DUP4 DUP4 ISZERO AND ISZERO PUSH2 0x4062 JUMPI RETURNDATASIZE PUSH1 0x0 DUP3 RETURNDATACOPY RETURNDATASIZE DUP2 REVERT JUMPDEST PUSH1 0x0 DUP9 EXTCODESIZE GT RETURNDATASIZE ISZERO AND DUP4 AND SWAP3 POP JUMPDEST DUP1 PUSH1 0x40 MSTORE PUSH1 0x0 PUSH1 0x60 MSTORE POP POP SWAP6 SWAP5 POP POP POP POP POP JUMP JUMPDEST PUSH1 0x0 DUP1 PUSH1 0x0 DUP4 DUP6 SUB SWAP1 POP DUP5 DUP2 GT ISZERO SWAP3 POP PUSH2 0x409C DUP4 PUSH2 0x3FFC JUMP JUMPDEST DUP2 MUL SWAP2 POP POP SWAP3 POP SWAP3 SWAP1 POP JUMP JUMPDEST PUSH1 0x0 PUSH2 0x40B2 PUSH2 0x3628 JUMP JUMPDEST PUSH1 0x0 ADD PUSH1 0x8 SWAP1 SLOAD SWAP1 PUSH2 0x100 EXP SWAP1 DIV PUSH1 0xFF AND SWAP1 POP SWAP1 JUMP JUMPDEST PUSH1 0x0 DUP2 SWAP1 POP SWAP2 SWAP1 POP JUMP JUMPDEST PUSH1 0x0 DUP2 PUSH20 0xFFFFFFFFFFFFFFFFFFFFFFFFFFFFFFFFFFFFFFFF AND EXTCODESIZE SUB PUSH2 0x412E JUMPI DUP1 PUSH1 0x40 MLOAD PUSH32 0x4C9C8CE300000000000000000000000000000000000000000000000000000000 DUP2 MSTORE PUSH1 0x4 ADD PUSH2 0x4125 SWAP2 SWAP1 PUSH2 0x594A JUMP JUMPDEST PUSH1 0x40 MLOAD DUP1 SWAP2 SUB SWAP1 REVERT JUMPDEST DUP1 PUSH2 0x415B PUSH32 0x360894A13BA1A3210667C828492DB98DCA3E2076CC3735A920A3CA505D382BBC PUSH1 0x0 SHL PUSH2 0x40C8 JUMP JUMPDEST PUSH1 0x0 ADD PUSH1 0x0 PUSH2 0x100 EXP DUP2 SLOAD DUP2 PUSH20 0xFFFFFFFFFFFFFFFFFFFFFFFFFFFFFFFFFFFFFFFF MUL NOT AND SWAP1 DUP4 PUSH20 0xFFFFFFFFFFFFFFFFFFFFFFFFFFFFFFFFFFFFFFFF AND MUL OR SWAP1 SSTORE POP POP JUMP JUMPDEST PUSH1 0x60 PUSH1 0x0 PUSH2 0x41AD DUP5 DUP5 PUSH2 0x42D1 JUMP JUMPDEST SWAP1 POP DUP1 DUP1 ISZERO PUSH2 0x41E5 JUMPI POP PUSH1 0x0 PUSH2 0x41C1 PUSH2 0x42E7 JUMP JUMPDEST GT DUP1 PUSH2 0x41E4 JUMPI POP PUSH1 0x0 DUP5 PUSH20 0xFFFFFFFFFFFFFFFFFFFFFFFFFFFFFFFFFFFFFFFF AND EXTCODESIZE GT JUMPDEST JUMPDEST ISZERO PUSH2 0x41FA JUMPI PUSH2 0x41F2 PUSH2 0x42EF JUMP JUMPDEST SWAP2 POP POP PUSH2 0x428E JUMP JUMPDEST DUP1 ISZERO PUSH2 0x423D JUMPI DUP4 PUSH1 0x40 MLOAD PUSH32 0x9996B31500000000000000000000000000000000000000000000000000000000 DUP2 MSTORE PUSH1 0x4 ADD PUSH2 0x4234 SWAP2 SWAP1 PUSH2 0x594A JUMP JUMPDEST PUSH1 0x40 MLOAD DUP1 SWAP2 SUB SWAP1 REVERT JUMPDEST PUSH1 0x0 PUSH2 0x4247 PUSH2 0x42E7 JUMP JUMPDEST GT ISZERO PUSH2 0x425A JUMPI PUSH2 0x4255 PUSH2 0x430D JUMP JUMPDEST PUSH2 0x428C JUMP JUMPDEST PUSH1 0x40 MLOAD PUSH32 0xD6BDA27500000000000000000000000000000000000000000000000000000000 DUP2 MSTORE PUSH1 0x4 ADD PUSH1 0x40 MLOAD DUP1 SWAP2 SUB SWAP1 REVERT JUMPDEST POP JUMPDEST SWAP3 SWAP2 POP POP JUMP JUMPDEST PUSH1 0x0 CALLVALUE GT ISZERO PUSH2 0x42CF JUMPI PUSH1 0x40 MLOAD PUSH32 0xB398979F00000000000000000000000000000000000000000000000000000000 DUP2 MSTORE PUSH1 0x4 ADD PUSH1 0x40 MLOAD DUP1 SWAP2 SUB SWAP1 REVERT JUMPDEST JUMP JUMPDEST PUSH1 0x0 DUP1 PUSH1 0x0 DUP4 MLOAD PUSH1 0x20 DUP6 ADD DUP7 GAS DELEGATECALL SWAP1 POP SWAP3 SWAP2 POP POP JUMP JUMPDEST PUSH1 0x0 RETURNDATASIZE SWAP1 POP SWAP1 JUMP JUMPDEST PUSH1 0x60 PUSH1 0x40 MLOAD SWAP1 POP RETURNDATASIZE DUP2 MSTORE RETURNDATASIZE PUSH1 0x0 PUSH1 0x20 DUP4 ADD RETURNDATACOPY RETURNDATASIZE PUSH1 0x20 ADD DUP2 ADD PUSH1 0x40 MSTORE SWAP1 JUMP JUMPDEST PUSH1 0x40 MLOAD RETURNDATASIZE PUSH1 0x0 DUP3 RETURNDATACOPY RETURNDATASIZE DUP2 REVERT JUMPDEST PUSH1 0x0 PUSH1 0x40 MLOAD SWAP1 POP SWAP1 JUMP JUMPDEST PUSH1 0x0 DUP1 REVERT JUMPDEST PUSH1 0x0 DUP1 REVERT JUMPDEST PUSH1 0x0 PUSH32 0xFFFFFFFF00000000000000000000000000000000000000000000000000000000 DUP3 AND SWAP1 POP SWAP2 SWAP1 POP JUMP JUMPDEST PUSH2 0x4362 DUP2 PUSH2 0x432D JUMP JUMPDEST DUP2 EQ PUSH2 0x436D JUMPI PUSH1 0x0 DUP1 REVERT JUMPDEST POP JUMP JUMPDEST PUSH1 0x0 DUP2 CALLDATALOAD SWAP1 POP PUSH2 0x437F DUP2 PUSH2 0x4359 JUMP JUMPDEST SWAP3 SWAP2 POP POP JUMP JUMPDEST PUSH1 0x0 PUSH1 0x20 DUP3 DUP5 SUB SLT ISZERO PUSH2 0x439B JUMPI PUSH2 0x439A PUSH2 0x4323 JUMP JUMPDEST JUMPDEST PUSH1 0x0 PUSH2 0x43A9 DUP5 DUP3 DUP6 ADD PUSH2 0x4370 JUMP JUMPDEST SWAP2 POP POP SWAP3 SWAP2 POP POP JUMP JUMPDEST PUSH1 0x0 DUP2 ISZERO ISZERO SWAP1 POP SWAP2 SWAP1 POP JUMP JUMPDEST PUSH2 0x43C7 DUP2 PUSH2 0x43B2 JUMP JUMPDEST DUP3 MSTORE POP POP JUMP JUMPDEST PUSH1 0x0 PUSH1 0x20 DUP3 ADD SWAP1 POP PUSH2 0x43E2 PUSH1 0x0 DUP4 ADD DUP5 PUSH2 0x43BE JUMP JUMPDEST SWAP3 SWAP2 POP POP JUMP JUMPDEST PUSH1 0x0 DUP2 SWAP1 POP SWAP2 SWAP1 POP JUMP JUMPDEST PUSH2 0x43FB DUP2 PUSH2 0x43E8 JUMP JUMPDEST DUP3 MSTORE POP POP JUMP JUMPDEST PUSH1 0x0 PUSH1 0x20 DUP3 ADD SWAP1 POP PUSH2 0x4416 PUSH1 0x0 DUP4 ADD DUP5 PUSH2 0x43F2 JUMP JUMPDEST SWAP3 SWAP2 POP POP JUMP JUMPDEST PUSH2 0x4425 DUP2 PUSH2 0x43E8 JUMP JUMPDEST DUP2 EQ PUSH2 0x4430 JUMPI PUSH1 0x0 DUP1 REVERT JUMPDEST POP JUMP JUMPDEST PUSH1 0x0 DUP2 CALLDATALOAD SWAP1 POP PUSH2 0x4442 DUP2 PUSH2 0x441C JUMP JUMPDEST SWAP3 SWAP2 POP POP JUMP JUMPDEST PUSH1 0x0 PUSH20 0xFFFFFFFFFFFFFFFFFFFFFFFFFFFFFFFFFFFFFFFF DUP3 AND SWAP1 POP SWAP2 SWAP1 POP JUMP JUMPDEST PUSH1 0x0 PUSH2 0x4473 DUP3 PUSH2 0x4448 JUMP JUMPDEST SWAP1 POP SWAP2 SWAP1 POP JUMP JUMPDEST PUSH2 0x4483 DUP2 PUSH2 0x4468 JUMP JUMPDEST DUP2 EQ PUSH2 0x448E JUMPI PUSH1 0x0 DUP1 REVERT JUMPDEST POP JUMP JUMPDEST PUSH1 0x0 DUP2 CALLDATALOAD SWAP1 POP PUSH2 0x44A0 DUP2 PUSH2 0x447A JUMP JUMPDEST SWAP3 SWAP2 POP POP JUMP JUMPDEST PUSH1 0x0 DUP1 PUSH1 0x40 DUP4 DUP6 SUB SLT ISZERO PUSH2 0x44BD JUMPI PUSH2 0x44BC PUSH2 0x4323 JUMP JUMPDEST JUMPDEST PUSH1 0x0 PUSH2 0x44CB DUP6 DUP3 DUP7 ADD PUSH2 0x4433 JUMP JUMPDEST SWAP3 POP POP PUSH1 0x20 PUSH2 0x44DC DUP6 DUP3 DUP7 ADD PUSH2 0x4491 JUMP JUMPDEST SWAP2 POP POP SWAP3 POP SWAP3 SWAP1 POP JUMP JUMPDEST PUSH1 0x0 DUP2 SWAP1 POP SWAP2 SWAP1 POP JUMP JUMPDEST PUSH2 0x44F9 DUP2 PUSH2 0x44E6 JUMP JUMPDEST DUP2 EQ PUSH2 0x4504 JUMPI PUSH1 0x0 DUP1 REVERT JUMPDEST POP JUMP JUMPDEST PUSH1 0x0 DUP2 CALLDATALOAD SWAP1 POP PUSH2 0x4516 DUP2 PUSH2 0x44F0 JUMP JUMPDEST SWAP3 SWAP2 POP POP JUMP JUMPDEST PUSH1 0x0 PUSH1 0x20 DUP3 DUP5 SUB SLT ISZERO PUSH2 0x4532 JUMPI PUSH2 0x4531 PUSH2 0x4323 JUMP JUMPDEST JUMPDEST PUSH1 0x0 PUSH2 0x4540 DUP5 DUP3 DUP6 ADD PUSH2 0x4507 JUMP JUMPDEST SWAP2 POP POP SWAP3 SWAP2 POP POP JUMP JUMPDEST PUSH2 0x4552 DUP2 PUSH2 0x44E6 JUMP JUMPDEST DUP3 MSTORE POP POP JUMP JUMPDEST PUSH1 0x0 PUSH1 0x20 DUP3 ADD SWAP1 POP PUSH2 0x456D PUSH1 0x0 DUP4 ADD DUP5 PUSH2 0x4549 JUMP JUMPDEST SWAP3 SWAP2 POP POP JUMP JUMPDEST PUSH1 0x0 PUSH1 0x20 DUP3 DUP5 SUB SLT ISZERO PUSH2 0x4589 JUMPI PUSH2 0x4588 PUSH2 0x4323 JUMP JUMPDEST JUMPDEST PUSH1 0x0 PUSH2 0x4597 DUP5 DUP3 DUP6 ADD PUSH2 0x4433 JUMP JUMPDEST SWAP2 POP POP SWAP3 SWAP2 POP POP JUMP JUMPDEST PUSH1 0x0 DUP1 PUSH1 0x40 DUP4 DUP6 SUB SLT ISZERO PUSH2 0x45B7 JUMPI PUSH2 0x45B6 PUSH2 0x4323 JUMP JUMPDEST JUMPDEST PUSH1 0x0 PUSH2 0x45C5 DUP6 DUP3 DUP7 ADD PUSH2 0x4507 JUMP JUMPDEST SWAP3 POP POP PUSH1 0x20 PUSH2 0x45D6 DUP6 DUP3 DUP7 ADD PUSH2 0x4491 JUMP JUMPDEST SWAP2 POP POP SWAP3 POP SWAP3 SWAP1 POP JUMP JUMPDEST PUSH1 0x0 PUSH1 0x60 DUP3 ADD SWAP1 POP PUSH2 0x45F5 PUSH1 0x0 DUP4 ADD DUP7 PUSH2 0x43F2 JUMP JUMPDEST PUSH2 0x4602 PUSH1 0x20 DUP4 ADD DUP6 PUSH2 0x43F2 JUMP JUMPDEST PUSH2 0x460F PUSH1 0x40 DUP4 ADD DUP5 PUSH2 0x43F2 JUMP JUMPDEST SWAP5 SWAP4 POP POP POP POP JUMP JUMPDEST PUSH1 0x0 PUSH2 0x4622 DUP3 PUSH2 0x4468 JUMP JUMPDEST SWAP1 POP SWAP2 SWAP1 POP JUMP JUMPDEST PUSH2 0x4632 DUP2 PUSH2 0x4617 JUMP JUMPDEST DUP2 EQ PUSH2 0x463D JUMPI PUSH1 0x0 DUP1 REVERT JUMPDEST POP JUMP JUMPDEST PUSH1 0x0 DUP2 CALLDATALOAD SWAP1 POP PUSH2 0x464F DUP2 PUSH2 0x4629 JUMP JUMPDEST SWAP3 SWAP2 POP POP JUMP JUMPDEST PUSH1 0x0 DUP1 PUSH1 0x0 DUP1 PUSH1 0x80 DUP6 DUP8 SUB SLT ISZERO PUSH2 0x466F JUMPI PUSH2 0x466E PUSH2 0x4323 JUMP JUMPDEST JUMPDEST PUSH1 0x0 PUSH2 0x467D DUP8 DUP3 DUP9 ADD PUSH2 0x4640 JUMP JUMPDEST SWAP5 POP POP PUSH1 0x20 PUSH2 0x468E DUP8 DUP3 DUP9 ADD PUSH2 0x4433 JUMP JUMPDEST SWAP4 POP POP PUSH1 0x40 PUSH2 0x469F DUP8 DUP3 DUP9 ADD PUSH2 0x4433 JUMP JUMPDEST SWAP3 POP POP PUSH1 0x60 PUSH2 0x46B0 DUP8 DUP3 DUP9 ADD PUSH2 0x4433 JUMP JUMPDEST SWAP2 POP POP SWAP3 SWAP6 SWAP2 SWAP5 POP SWAP3 POP JUMP JUMPDEST PUSH1 0x0 DUP1 REVERT JUMPDEST PUSH1 0x0 DUP1 REVERT JUMPDEST PUSH1 0x0 PUSH1 0x1F NOT PUSH1 0x1F DUP4 ADD AND SWAP1 POP SWAP2 SWAP1 POP JUMP JUMPDEST PUSH32 0x4E487B7100000000000000000000000000000000000000000000000000000000 PUSH1 0x0 MSTORE PUSH1 0x41 PUSH1 0x4 MSTORE PUSH1 0x24 PUSH1 0x0 REVERT JUMPDEST PUSH2 0x470F DUP3 PUSH2 0x46C6 JUMP JUMPDEST DUP2 ADD DUP2 DUP2 LT PUSH8 0xFFFFFFFFFFFFFFFF DUP3 GT OR ISZERO PUSH2 0x472E JUMPI PUSH2 0x472D PUSH2 0x46D7 JUMP JUMPDEST JUMPDEST DUP1 PUSH1 0x40 MSTORE POP POP POP JUMP JUMPDEST PUSH1 0x0 PUSH2 0x4741 PUSH2 0x4319 JUMP JUMPDEST SWAP1 POP PUSH2 0x474D DUP3 DUP3 PUSH2 0x4706 JUMP JUMPDEST SWAP2 SWAP1 POP JUMP JUMPDEST PUSH1 0x0 PUSH8 0xFFFFFFFFFFFFFFFF DUP3 GT ISZERO PUSH2 0x476D JUMPI PUSH2 0x476C PUSH2 0x46D7 JUMP JUMPDEST JUMPDEST PUSH2 0x4776 DUP3 PUSH2 0x46C6 JUMP JUMPDEST SWAP1 POP PUSH1 0x20 DUP2 ADD SWAP1 POP SWAP2 SWAP1 POP JUMP JUMPDEST DUP3 DUP2 DUP4 CALLDATACOPY PUSH1 0x0 DUP4 DUP4 ADD MSTORE POP POP POP JUMP JUMPDEST PUSH1 0x0 PUSH2 0x47A5 PUSH2 0x47A0 DUP5 PUSH2 0x4752 JUMP JUMPDEST PUSH2 0x4737 JUMP JUMPDEST SWAP1 POP DUP3 DUP2 MSTORE PUSH1 0x20 DUP2 ADD DUP5 DUP5 DUP5 ADD GT ISZERO PUSH2 0x47C1 JUMPI PUSH2 0x47C0 PUSH2 0x46C1 JUMP JUMPDEST JUMPDEST PUSH2 0x47CC DUP5 DUP3 DUP6 PUSH2 0x4783 JUMP JUMPDEST POP SWAP4 SWAP3 POP POP POP JUMP JUMPDEST PUSH1 0x0 DUP3 PUSH1 0x1F DUP4 ADD SLT PUSH2 0x47E9 JUMPI PUSH2 0x47E8 PUSH2 0x46BC JUMP JUMPDEST JUMPDEST DUP2 CALLDATALOAD PUSH2 0x47F9 DUP5 DUP3 PUSH1 0x20 DUP7 ADD PUSH2 0x4792 JUMP JUMPDEST SWAP2 POP POP SWAP3 SWAP2 POP POP JUMP JUMPDEST PUSH1 0x0 DUP1 PUSH1 0x40 DUP4 DUP6 SUB SLT ISZERO PUSH2 0x4819 JUMPI PUSH2 0x4818 PUSH2 0x4323 JUMP JUMPDEST JUMPDEST PUSH1 0x0 PUSH2 0x4827 DUP6 DUP3 DUP7 ADD PUSH2 0x4491 JUMP JUMPDEST SWAP3 POP POP PUSH1 0x20 DUP4 ADD CALLDATALOAD PUSH8 0xFFFFFFFFFFFFFFFF DUP2 GT ISZERO PUSH2 0x4848 JUMPI PUSH2 0x4847 PUSH2 0x4328 JUMP JUMPDEST JUMPDEST PUSH2 0x4854 DUP6 DUP3 DUP7 ADD PUSH2 0x47D4 JUMP JUMPDEST SWAP2 POP POP SWAP3 POP SWAP3 SWAP1 POP JUMP JUMPDEST PUSH1 0x0 PUSH1 0x20 DUP3 DUP5 SUB SLT ISZERO PUSH2 0x4874 JUMPI PUSH2 0x4873 PUSH2 0x4323 JUMP JUMPDEST JUMPDEST PUSH1 0x0 PUSH2 0x4882 DUP5 DUP3 DUP6 ADD PUSH2 0x4640 JUMP JUMPDEST SWAP2 POP POP SWAP3 SWAP2 POP POP JUMP JUMPDEST PUSH1 0x0 DUP1 PUSH1 0x0 PUSH1 0x60 DUP5 DUP7 SUB SLT ISZERO PUSH2 0x48A4 JUMPI PUSH2 0x48A3 PUSH2 0x4323 JUMP JUMPDEST JUMPDEST PUSH1 0x0 PUSH2 0x48B2 DUP7 DUP3 DUP8 ADD PUSH2 0x4433 JUMP JUMPDEST SWAP4 POP POP PUSH1 0x20 PUSH2 0x48C3 DUP7 DUP3 DUP8 ADD PUSH2 0x4491 JUMP JUMPDEST SWAP3 POP POP PUSH1 0x40 PUSH2 0x48D4 DUP7 DUP3 DUP8 ADD PUSH2 0x4433 JUMP JUMPDEST SWAP2 POP POP SWAP3 POP SWAP3 POP SWAP3 JUMP JUMPDEST PUSH1 0x0 DUP1 PUSH1 0x40 DUP4 DUP6 SUB SLT ISZERO PUSH2 0x48F5 JUMPI PUSH2 0x48F4 PUSH2 0x4323 JUMP JUMPDEST JUMPDEST PUSH1 0x0 PUSH2 0x4903 DUP6 DUP3 DUP7 ADD PUSH2 0x4433 JUMP JUMPDEST SWAP3 POP POP PUSH1 0x20 PUSH2 0x4914 DUP6 DUP3 DUP7 ADD PUSH2 0x4433 JUMP JUMPDEST SWAP2 POP POP SWAP3 POP SWAP3 SWAP1 POP JUMP JUMPDEST PUSH1 0x0 DUP2 MLOAD SWAP1 POP SWAP2 SWAP1 POP JUMP JUMPDEST PUSH1 0x0 DUP3 DUP3 MSTORE PUSH1 0x20 DUP3 ADD SWAP1 POP SWAP3 SWAP2 POP POP JUMP JUMPDEST PUSH1 0x0 JUMPDEST DUP4 DUP2 LT ISZERO PUSH2 0x4958 JUMPI DUP1 DUP3 ADD MLOAD DUP2 DUP5 ADD MSTORE PUSH1 0x20 DUP2 ADD SWAP1 POP PUSH2 0x493D JUMP JUMPDEST PUSH1 0x0 DUP5 DUP5 ADD MSTORE POP POP POP POP JUMP JUMPDEST PUSH1 0x0 PUSH2 0x496F DUP3 PUSH2 0x491E JUMP JUMPDEST PUSH2 0x4979 DUP2 DUP6 PUSH2 0x4929 JUMP JUMPDEST SWAP4 POP PUSH2 0x4989 DUP2 DUP6 PUSH1 0x20 DUP7 ADD PUSH2 0x493A JUMP JUMPDEST PUSH2 0x4992 DUP2 PUSH2 0x46C6 JUMP JUMPDEST DUP5 ADD SWAP2 POP POP SWAP3 SWAP2 POP POP JUMP JUMPDEST PUSH1 0x0 PUSH1 0x20 DUP3 ADD SWAP1 POP DUP2 DUP2 SUB PUSH1 0x0 DUP4 ADD MSTORE PUSH2 0x49B7 DUP2 DUP5 PUSH2 0x4964 JUMP JUMPDEST SWAP1 POP SWAP3 SWAP2 POP POP JUMP JUMPDEST PUSH2 0x49C8 DUP2 PUSH2 0x43B2 JUMP JUMPDEST DUP2 EQ PUSH2 0x49D3 JUMPI PUSH1 0x0 DUP1 REVERT JUMPDEST POP JUMP JUMPDEST PUSH1 0x0 DUP2 CALLDATALOAD SWAP1 POP PUSH2 0x49E5 DUP2 PUSH2 0x49BF JUMP JUMPDEST SWAP3 SWAP2 POP POP JUMP JUMPDEST PUSH1 0x0 DUP1 PUSH1 0x0 DUP1 PUSH1 0x0 PUSH1 0xA0 DUP7 DUP9 SUB SLT ISZERO PUSH2 0x4A07 JUMPI PUSH2 0x4A06 PUSH2 0x4323 JUMP JUMPDEST JUMPDEST PUSH1 0x0 PUSH2 0x4A15 DUP9 DUP3 DUP10 ADD PUSH2 0x4491 JUMP JUMPDEST SWAP6 POP POP PUSH1 0x20 PUSH2 0x4A26 DUP9 DUP3 DUP10 ADD PUSH2 0x4433 JUMP JUMPDEST SWAP5 POP POP PUSH1 0x40 PUSH2 0x4A37 DUP9 DUP3 DUP10 ADD PUSH2 0x4433 JUMP JUMPDEST SWAP4 POP POP PUSH1 0x60 PUSH2 0x4A48 DUP9 DUP3 DUP10 ADD PUSH2 0x4433 JUMP JUMPDEST SWAP3 POP POP PUSH1 0x80 PUSH2 0x4A59 DUP9 DUP3 DUP10 ADD PUSH2 0x49D6 JUMP JUMPDEST SWAP2 POP POP SWAP3 SWAP6 POP SWAP3 SWAP6 SWAP1 SWAP4 POP JUMP JUMPDEST PUSH1 0x0 DUP2 SWAP1 POP SWAP2 SWAP1 POP JUMP JUMPDEST PUSH1 0x0 PUSH2 0x4A8B PUSH2 0x4A86 PUSH2 0x4A81 DUP5 PUSH2 0x4448 JUMP JUMPDEST PUSH2 0x4A66 JUMP JUMPDEST PUSH2 0x4448 JUMP JUMPDEST SWAP1 POP SWAP2 SWAP1 POP JUMP JUMPDEST PUSH1 0x0 PUSH2 0x4A9D DUP3 PUSH2 0x4A70 JUMP JUMPDEST SWAP1 POP SWAP2 SWAP1 POP JUMP JUMPDEST PUSH1 0x0 PUSH2 0x4AAF DUP3 PUSH2 0x4A92 JUMP JUMPDEST SWAP1 POP SWAP2 SWAP1 POP JUMP JUMPDEST PUSH2 0x4ABF DUP2 PUSH2 0x4AA4 JUMP JUMPDEST DUP3 MSTORE POP POP JUMP JUMPDEST PUSH1 0x0 PUSH1 0x20 DUP3 ADD SWAP1 POP PUSH2 0x4ADA PUSH1 0x0 DUP4 ADD DUP5 PUSH2 0x4AB6 JUMP JUMPDEST SWAP3 SWAP2 POP POP JUMP JUMPDEST PUSH1 0x0 DUP1 PUSH1 0x0 PUSH1 0x60 DUP5 DUP7 SUB SLT ISZERO PUSH2 0x4AF9 JUMPI PUSH2 0x4AF8 PUSH2 0x4323 JUMP JUMPDEST JUMPDEST PUSH1 0x0 PUSH2 0x4B07 DUP7 DUP3 DUP8 ADD PUSH2 0x4433 JUMP JUMPDEST SWAP4 POP POP PUSH1 0x20 PUSH2 0x4B18 DUP7 DUP3 DUP8 ADD PUSH2 0x4433 JUMP JUMPDEST SWAP3 POP POP PUSH1 0x40 PUSH2 0x4B29 DUP7 DUP3 DUP8 ADD PUSH2 0x4433 JUMP JUMPDEST SWAP2 POP POP SWAP3 POP SWAP3 POP SWAP3 JUMP JUMPDEST PUSH1 0x0 DUP1 PUSH1 0x0 PUSH1 0x60 DUP5 DUP7 SUB SLT ISZERO PUSH2 0x4B4C JUMPI PUSH2 0x4B4B PUSH2 0x4323 JUMP JUMPDEST JUMPDEST PUSH1 0x0 PUSH2 0x4B5A DUP7 DUP3 DUP8 ADD PUSH2 0x4433 JUMP JUMPDEST SWAP4 POP POP PUSH1 0x20 PUSH2 0x4B6B DUP7 DUP3 DUP8 ADD PUSH2 0x4433 JUMP JUMPDEST SWAP3 POP POP PUSH1 0x40 PUSH2 0x4B7C DUP7 DUP3 DUP8 ADD PUSH2 0x49D6 JUMP JUMPDEST SWAP2 POP POP SWAP3 POP SWAP3 POP SWAP3 JUMP JUMPDEST PUSH2 0x4B8F DUP2 PUSH2 0x4468 JUMP JUMPDEST DUP3 MSTORE POP POP JUMP JUMPDEST PUSH1 0x0 PUSH1 0xE0 DUP3 ADD SWAP1 POP PUSH2 0x4BAA PUSH1 0x0 DUP4 ADD DUP11 PUSH2 0x4B86 JUMP JUMPDEST PUSH2 0x4BB7 PUSH1 0x20 DUP4 ADD DUP10 PUSH2 0x43F2 JUMP JUMPDEST PUSH2 0x4BC4 PUSH1 0x40 DUP4 ADD DUP9 PUSH2 0x43F2 JUMP JUMPDEST PUSH2 0x4BD1 PUSH1 0x60 DUP4 ADD DUP8 PUSH2 0x43F2 JUMP JUMPDEST PUSH2 0x4BDE PUSH1 0x80 DUP4 ADD DUP7 PUSH2 0x43F2 JUMP JUMPDEST PUSH2 0x4BEB PUSH1 0xA0 DUP4 ADD DUP6 PUSH2 0x43F2 JUMP JUMPDEST PUSH2 0x4BF8 PUSH1 0xC0 DUP4 ADD DUP5 PUSH2 0x43F2 JUMP JUMPDEST SWAP9 SWAP8 POP POP POP POP POP POP POP POP JUMP JUMPDEST PUSH1 0x0 PUSH1 0x40 DUP3 ADD SWAP1 POP PUSH2 0x4C19 PUSH1 0x0 DUP4 ADD DUP6 PUSH2 0x43F2 JUMP JUMPDEST PUSH2 0x4C26 PUSH1 0x20 DUP4 ADD DUP5 PUSH2 0x43F2 JUMP JUMPDEST SWAP4 SWAP3 POP POP POP JUMP JUMPDEST PUSH32 0x696E76616C696420706964000000000000000000000000000000000000000000 PUSH1 0x0 DUP3 ADD MSTORE POP JUMP JUMPDEST PUSH1 0x0 PUSH2 0x4C63 PUSH1 0xB DUP4 PUSH2 0x4929 JUMP JUMPDEST SWAP2 POP PUSH2 0x4C6E DUP3 PUSH2 0x4C2D JUMP JUMPDEST PUSH1 0x20 DUP3 ADD SWAP1 POP SWAP2 SWAP1 POP JUMP JUMPDEST PUSH1 0x0 PUSH1 0x20 DUP3 ADD SWAP1 POP DUP2 DUP2 SUB PUSH1 0x0 DUP4 ADD MSTORE PUSH2 0x4C92 DUP2 PUSH2 0x4C56 JUMP JUMPDEST SWAP1 POP SWAP2 SWAP1 POP JUMP JUMPDEST PUSH32 0x7769746864726177206973207061757365640000000000000000000000000000 PUSH1 0x0 DUP3 ADD MSTORE POP JUMP JUMPDEST PUSH1 0x0 PUSH2 0x4CCF PUSH1 0x12 DUP4 PUSH2 0x4929 JUMP JUMPDEST SWAP2 POP PUSH2 0x4CDA DUP3 PUSH2 0x4C99 JUMP JUMPDEST PUSH1 0x20 DUP3 ADD SWAP1 POP SWAP2 SWAP1 POP JUMP JUMPDEST PUSH1 0x0 PUSH1 0x20 DUP3 ADD SWAP1 POP DUP2 DUP2 SUB PUSH1 0x0 DUP4 ADD MSTORE PUSH2 0x4CFE DUP2 PUSH2 0x4CC2 JUMP JUMPDEST SWAP1 POP SWAP2 SWAP1 POP JUMP JUMPDEST PUSH32 0x4E487B7100000000000000000000000000000000000000000000000000000000 PUSH1 0x0 MSTORE PUSH1 0x32 PUSH1 0x4 MSTORE PUSH1 0x24 PUSH1 0x0 REVERT JUMPDEST PUSH32 0x4E487B7100000000000000000000000000000000000000000000000000000000 PUSH1 0x0 MSTORE PUSH1 0x11 PUSH1 0x4 MSTORE PUSH1 0x24 PUSH1 0x0 REVERT JUMPDEST PUSH1 0x0 PUSH2 0x4D6E DUP3 PUSH2 0x43E8 JUMP JUMPDEST SWAP2 POP PUSH2 0x4D79 DUP4 PUSH2 0x43E8 JUMP JUMPDEST SWAP3 POP DUP3 DUP3 ADD SWAP1 POP DUP1 DUP3 GT ISZERO PUSH2 0x4D91 JUMPI PUSH2 0x4D90 PUSH2 0x4D34 JUMP JUMPDEST JUMPDEST SWAP3 SWAP2 POP POP JUMP JUMPDEST PUSH1 0x0 PUSH2 0x4DA2 DUP3 PUSH2 0x43E8 JUMP JUMPDEST SWAP2 POP PUSH32 0xFFFFFFFFFFFFFFFFFFFFFFFFFFFFFFFFFFFFFFFFFFFFFFFFFFFFFFFFFFFFFFFF DUP3 SUB PUSH2 0x4DD4 JUMPI PUSH2 0x4DD3 PUSH2 0x4D34 JUMP JUMPDEST JUMPDEST PUSH1 0x1 DUP3 ADD SWAP1 POP SWAP2 SWAP1 POP JUMP JUMPDEST PUSH1 0x0 PUSH2 0x4DEA DUP3 PUSH2 0x43E8 JUMP JUMPDEST SWAP2 POP PUSH2 0x4DF5 DUP4 PUSH2 0x43E8 JUMP JUMPDEST SWAP3 POP DUP3 DUP3 SUB SWAP1 POP DUP2 DUP2 GT ISZERO PUSH2 0x4E0D JUMPI PUSH2 0x4E0C PUSH2 0x4D34 JUMP JUMPDEST JUMPDEST SWAP3 SWAP2 POP POP JUMP JUMPDEST PUSH32 0x4E487B7100000000000000000000000000000000000000000000000000000000 PUSH1 0x0 MSTORE PUSH1 0x31 PUSH1 0x4 MSTORE PUSH1 0x24 PUSH1 0x0 REVERT JUMPDEST PUSH32 0x636C61696D206973207061757365640000000000000000000000000000000000 PUSH1 0x0 DUP3 ADD MSTORE POP JUMP JUMPDEST PUSH1 0x0 PUSH2 0x4E78 PUSH1 0xF DUP4 PUSH2 0x4929 JUMP JUMPDEST SWAP2 POP PUSH2 0x4E83 DUP3 PUSH2 0x4E42 JUMP JUMPDEST PUSH1 0x20 DUP3 ADD SWAP1 POP SWAP2 SWAP1 POP JUMP JUMPDEST PUSH1 0x0 PUSH1 0x20 DUP3 ADD SWAP1 POP DUP2 DUP2 SUB PUSH1 0x0 DUP4 ADD MSTORE PUSH2 0x4EA7 DUP2 PUSH2 0x4E6B JUMP JUMPDEST SWAP1 POP SWAP2 SWAP1 POP JUMP JUMPDEST PUSH1 0x0 PUSH2 0x4EB9 DUP3 PUSH2 0x43E8 JUMP JUMPDEST SWAP2 POP PUSH2 0x4EC4 DUP4 PUSH2 0x43E8 JUMP JUMPDEST SWAP3 POP DUP3 DUP3 MUL PUSH2 0x4ED2 DUP2 PUSH2 0x43E8 JUMP JUMPDEST SWAP2 POP DUP3 DUP3 DIV DUP5 EQ DUP4 ISZERO OR PUSH2 0x4EE9 JUMPI PUSH2 0x4EE8 PUSH2 0x4D34 JUMP JUMPDEST JUMPDEST POP SWAP3 SWAP2 POP POP JUMP JUMPDEST PUSH32 0x4E487B7100000000000000000000000000000000000000000000000000000000 PUSH1 0x0 MSTORE PUSH1 0x12 PUSH1 0x4 MSTORE PUSH1 0x24 PUSH1 0x0 REVERT JUMPDEST PUSH1 0x0 PUSH2 0x4F2A DUP3 PUSH2 0x43E8 JUMP JUMPDEST SWAP2 POP PUSH2 0x4F35 DUP4 PUSH2 0x43E8 JUMP JUMPDEST SWAP3 POP DUP3 PUSH2 0x4F45 JUMPI PUSH2 0x4F44 PUSH2 0x4EF0 JUMP JUMPDEST JUMPDEST DUP3 DUP3 DIV SWAP1 POP SWAP3 SWAP2 POP POP JUMP JUMPDEST PUSH32 0x696E76616C696420706172616D65746572730000000000000000000000000000 PUSH1 0x0 DUP3 ADD MSTORE POP JUMP JUMPDEST PUSH1 0x0 PUSH2 0x4F86 PUSH1 0x12 DUP4 PUSH2 0x4929 JUMP JUMPDEST SWAP2 POP PUSH2 0x4F91 DUP3 PUSH2 0x4F50 JUMP JUMPDEST PUSH1 0x20 DUP3 ADD SWAP1 POP SWAP2 SWAP1 POP JUMP JUMPDEST PUSH1 0x0 PUSH1 0x20 DUP3 ADD SWAP1 POP DUP2 DUP2 SUB PUSH1 0x0 DUP4 ADD MSTORE PUSH2 0x4FB5 DUP2 PUSH2 0x4F79 JUMP JUMPDEST SWAP1 POP SWAP2 SWAP1 POP JUMP JUMPDEST PUSH1 0x0 DUP2 SWAP1 POP SWAP2 SWAP1 POP JUMP JUMPDEST PUSH1 0x0 PUSH8 0xFFFFFFFFFFFFFFFF DUP3 AND SWAP1 POP SWAP2 SWAP1 POP JUMP JUMPDEST PUSH1 0x0 PUSH2 0x4FF5 PUSH2 0x4FF0 PUSH2 0x4FEB DUP5 PUSH2 0x4FBC JUMP JUMPDEST PUSH2 0x4A66 JUMP JUMPDEST PUSH2 0x4FC6 JUMP JUMPDEST SWAP1 POP SWAP2 SWAP1 POP JUMP JUMPDEST PUSH2 0x5005 DUP2 PUSH2 0x4FDA JUMP JUMPDEST DUP3 MSTORE POP POP JUMP JUMPDEST PUSH1 0x0 PUSH1 0x20 DUP3 ADD SWAP1 POP PUSH2 0x5020 PUSH1 0x0 DUP4 ADD DUP5 PUSH2 0x4FFC JUMP JUMPDEST SWAP3 SWAP2 POP POP JUMP JUMPDEST PUSH32 0x6F766572666C6F77000000000000000000000000000000000000000000000000 PUSH1 0x0 DUP3 ADD MSTORE POP JUMP JUMPDEST PUSH1 0x0 PUSH2 0x505C PUSH1 0x8 DUP4 PUSH2 0x4929 JUMP JUMPDEST SWAP2 POP PUSH2 0x5067 DUP3 PUSH2 0x5026 JUMP JUMPDEST PUSH1 0x20 DUP3 ADD SWAP1 POP SWAP2 SWAP1 POP JUMP JUMPDEST PUSH1 0x0 PUSH1 0x20 DUP3 ADD SWAP1 POP DUP2 DUP2 SUB PUSH1 0x0 DUP4 ADD MSTORE PUSH2 0x508B DUP2 PUSH2 0x504F JUMP JUMPDEST SWAP1 POP SWAP2 SWAP1 POP JUMP JUMPDEST PUSH32 0x776974686472617720686173206265656E20616C726561647920756E70617573 PUSH1 0x0 DUP3 ADD MSTORE PUSH32 0x6564000000000000000000000000000000000000000000000000000000000000 PUSH1 0x20 DUP3 ADD MSTORE POP JUMP JUMPDEST PUSH1 0x0 PUSH2 0x50EE PUSH1 0x22 DUP4 PUSH2 0x4929 JUMP JUMPDEST SWAP2 POP PUSH2 0x50F9 DUP3 PUSH2 0x5092 JUMP JUMPDEST PUSH1 0x40 DUP3 ADD SWAP1 POP SWAP2 SWAP1 POP JUMP JUMPDEST PUSH1 0x0 PUSH1 0x20 DUP3 ADD SWAP1 POP DUP2 DUP2 SUB PUSH1 0x0 DUP4 ADD MSTORE PUSH2 0x511D DUP2 PUSH2 0x50E1 JUMP JUMPDEST SWAP1 POP SWAP2 SWAP1 POP JUMP JUMPDEST PUSH32 0x776974686472617720686173206265656E20616C726561647920706175736564 PUSH1 0x0 DUP3 ADD MSTORE POP JUMP JUMPDEST PUSH1 0x0 PUSH2 0x515A PUSH1 0x20 DUP4 PUSH2 0x4929 JUMP JUMPDEST SWAP2 POP PUSH2 0x5165 DUP3 PUSH2 0x5124 JUMP JUMPDEST PUSH1 0x20 DUP3 ADD SWAP1 POP SWAP2 SWAP1 POP JUMP JUMPDEST PUSH1 0x0 PUSH1 0x20 DUP3 ADD SWAP1 POP DUP2 DUP2 SUB PUSH1 0x0 DUP4 ADD MSTORE PUSH2 0x5189 DUP2 PUSH2 0x514D JUMP JUMPDEST SWAP1 POP SWAP2 SWAP1 POP JUMP JUMPDEST PUSH32 0x696E76616C696420626C6F636B00000000000000000000000000000000000000 PUSH1 0x0 DUP3 ADD MSTORE POP JUMP JUMPDEST PUSH1 0x0 PUSH2 0x51C6 PUSH1 0xD DUP4 PUSH2 0x4929 JUMP JUMPDEST SWAP2 POP PUSH2 0x51D1 DUP3 PUSH2 0x5190 JUMP JUMPDEST PUSH1 0x20 DUP3 ADD SWAP1 POP SWAP2 SWAP1 POP JUMP JUMPDEST PUSH1 0x0 PUSH1 0x20 DUP3 ADD SWAP1 POP DUP2 DUP2 SUB PUSH1 0x0 DUP4 ADD MSTORE PUSH2 0x51F5 DUP2 PUSH2 0x51B9 JUMP JUMPDEST SWAP1 POP SWAP2 SWAP1 POP JUMP JUMPDEST PUSH32 0x656E6420626C6F636B206D7573742062652067726561746572207468616E2073 PUSH1 0x0 DUP3 ADD MSTORE PUSH32 0x7461727420626C6F636B00000000000000000000000000000000000000000000 PUSH1 0x20 DUP3 ADD MSTORE POP JUMP JUMPDEST PUSH1 0x0 PUSH2 0x5258 PUSH1 0x2A DUP4 PUSH2 0x4929 JUMP JUMPDEST SWAP2 POP PUSH2 0x5263 DUP3 PUSH2 0x51FC JUMP JUMPDEST PUSH1 0x40 DUP3 ADD SWAP1 POP SWAP2 SWAP1 POP JUMP JUMPDEST PUSH1 0x0 PUSH1 0x20 DUP3 ADD SWAP1 POP DUP2 DUP2 SUB PUSH1 0x0 DUP4 ADD MSTORE PUSH2 0x5287 DUP2 PUSH2 0x524B JUMP JUMPDEST SWAP1 POP SWAP2 SWAP1 POP JUMP JUMPDEST PUSH32 0x6D756C7469706C696572206F766572666C6F7700000000000000000000000000 PUSH1 0x0 DUP3 ADD MSTORE POP JUMP JUMPDEST PUSH1 0x0 PUSH2 0x52C4 PUSH1 0x13 DUP4 PUSH2 0x4929 JUMP JUMPDEST SWAP2 POP PUSH2 0x52CF DUP3 PUSH2 0x528E JUMP JUMPDEST PUSH1 0x20 DUP3 ADD SWAP1 POP SWAP2 SWAP1 POP JUMP JUMPDEST PUSH1 0x0 PUSH1 0x20 DUP3 ADD SWAP1 POP DUP2 DUP2 SUB PUSH1 0x0 DUP4 ADD MSTORE PUSH2 0x52F3 DUP2 PUSH2 0x52B7 JUMP JUMPDEST SWAP1 POP SWAP2 SWAP1 POP JUMP JUMPDEST PUSH32 0x636C61696D20686173206265656E20616C726561647920706175736564000000 PUSH1 0x0 DUP3 ADD MSTORE POP JUMP JUMPDEST PUSH1 0x0 PUSH2 0x5330 PUSH1 0x1D DUP4 PUSH2 0x4929 JUMP JUMPDEST SWAP2 POP PUSH2 0x533B DUP3 PUSH2 0x52FA JUMP JUMPDEST PUSH1 0x20 DUP3 ADD SWAP1 POP SWAP2 SWAP1 POP JUMP JUMPDEST PUSH1 0x0 PUSH1 0x20 DUP3 ADD SWAP1 POP DUP2 DUP2 SUB PUSH1 0x0 DUP4 ADD MSTORE PUSH2 0x535F DUP2 PUSH2 0x5323 JUMP JUMPDEST SWAP1 POP SWAP2 SWAP1 POP JUMP JUMPDEST PUSH32 0x4E6F7420656E6F756768207374616B696E6720746F6B656E2062616C616E6365 PUSH1 0x0 DUP3 ADD MSTORE POP JUMP JUMPDEST PUSH1 0x0 PUSH2 0x539C PUSH1 0x20 DUP4 PUSH2 0x4929 JUMP JUMPDEST SWAP2 POP PUSH2 0x53A7 DUP3 PUSH2 0x5366 JUMP JUMPDEST PUSH1 0x20 DUP3 ADD SWAP1 POP SWAP2 SWAP1 POP JUMP JUMPDEST PUSH1 0x0 PUSH1 0x20 DUP3 ADD SWAP1 POP DUP2 DUP2 SUB PUSH1 0x0 DUP4 ADD MSTORE PUSH2 0x53CB DUP2 PUSH2 0x538F JUMP JUMPDEST SWAP1 POP SWAP2 SWAP1 POP JUMP JUMPDEST PUSH32 0x696E76616C6964207374616B696E6720746F6B656E2061646472657373000000 PUSH1 0x0 DUP3 ADD MSTORE POP JUMP JUMPDEST PUSH1 0x0 PUSH2 0x5408 PUSH1 0x1D DUP4 PUSH2 0x4929 JUMP JUMPDEST SWAP2 POP PUSH2 0x5413 DUP3 PUSH2 0x53D2 JUMP JUMPDEST PUSH1 0x20 DUP3 ADD SWAP1 POP SWAP2 SWAP1 POP JUMP JUMPDEST PUSH1 0x0 PUSH1 0x20 DUP3 ADD SWAP1 POP DUP2 DUP2 SUB PUSH1 0x0 DUP4 ADD MSTORE PUSH2 0x5437 DUP2 PUSH2 0x53FB JUMP JUMPDEST SWAP1 POP SWAP2 SWAP1 POP JUMP JUMPDEST PUSH32 0x696E76616C6964207769746864726177206C6F636B656420626C6F636B730000 PUSH1 0x0 DUP3 ADD MSTORE POP JUMP JUMPDEST PUSH1 0x0 PUSH2 0x5474 PUSH1 0x1E DUP4 PUSH2 0x4929 JUMP JUMPDEST SWAP2 POP PUSH2 0x547F DUP3 PUSH2 0x543E JUMP JUMPDEST PUSH1 0x20 DUP3 ADD SWAP1 POP SWAP2 SWAP1 POP JUMP JUMPDEST PUSH1 0x0 PUSH1 0x20 DUP3 ADD SWAP1 POP DUP2 DUP2 SUB PUSH1 0x0 DUP4 ADD MSTORE PUSH2 0x54A3 DUP2 PUSH2 0x5467 JUMP JUMPDEST SWAP1 POP SWAP2 SWAP1 POP JUMP JUMPDEST PUSH32 0x416C726561647920656E64656400000000000000000000000000000000000000 PUSH1 0x0 DUP3 ADD MSTORE POP JUMP JUMPDEST PUSH1 0x0 PUSH2 0x54E0 PUSH1 0xD DUP4 PUSH2 0x4929 JUMP JUMPDEST SWAP2 POP PUSH2 0x54EB DUP3 PUSH2 0x54AA JUMP JUMPDEST PUSH1 0x20 DUP3 ADD SWAP1 POP SWAP2 SWAP1 POP JUMP JUMPDEST PUSH1 0x0 PUSH1 0x20 DUP3 ADD SWAP1 POP DUP2 DUP2 SUB PUSH1 0x0 DUP4 ADD MSTORE PUSH2 0x550F DUP2 PUSH2 0x54D3 JUMP JUMPDEST SWAP1 POP SWAP2 SWAP1 POP JUMP JUMPDEST PUSH32 0x737461727420626C6F636B206D75737420626520736D616C6C6572207468616E PUSH1 0x0 DUP3 ADD MSTORE PUSH32 0x20656E6420626C6F636B00000000000000000000000000000000000000000000 PUSH1 0x20 DUP3 ADD MSTORE POP JUMP JUMPDEST PUSH1 0x0 PUSH2 0x5572 PUSH1 0x2A DUP4 PUSH2 0x4929 JUMP JUMPDEST SWAP2 POP PUSH2 0x557D DUP3 PUSH2 0x5516 JUMP JUMPDEST PUSH1 0x40 DUP3 ADD SWAP1 POP SWAP2 SWAP1 POP JUMP JUMPDEST PUSH1 0x0 PUSH1 0x20 DUP3 ADD SWAP1 POP DUP2 DUP2 SUB PUSH1 0x0 DUP4 ADD MSTORE PUSH2 0x55A1 DUP2 PUSH2 0x5565 JUMP JUMPDEST SWAP1 POP SWAP2 SWAP1 POP JUMP JUMPDEST PUSH32 0x696E76616C696420706172616D65746572000000000000000000000000000000 PUSH1 0x0 DUP3 ADD MSTORE POP JUMP JUMPDEST PUSH1 0x0 PUSH2 0x55DE PUSH1 0x11 DUP4 PUSH2 0x4929 JUMP JUMPDEST SWAP2 POP PUSH2 0x55E9 DUP3 PUSH2 0x55A8 JUMP JUMPDEST PUSH1 0x20 DUP3 ADD SWAP1 POP SWAP2 SWAP1 POP JUMP JUMPDEST PUSH1 0x0 PUSH1 0x20 DUP3 ADD SWAP1 POP DUP2 DUP2 SUB PUSH1 0x0 DUP4 ADD MSTORE PUSH2 0x560D DUP2 PUSH2 0x55D1 JUMP JUMPDEST SWAP1 POP SWAP2 SWAP1 POP JUMP JUMPDEST PUSH32 0x636C61696D20686173206265656E20616C726561647920756E70617573656400 PUSH1 0x0 DUP3 ADD MSTORE POP JUMP JUMPDEST PUSH1 0x0 PUSH2 0x564A PUSH1 0x1F DUP4 PUSH2 0x4929 JUMP JUMPDEST SWAP2 POP PUSH2 0x5655 DUP3 PUSH2 0x5614 JUMP JUMPDEST PUSH1 0x20 DUP3 ADD SWAP1 POP SWAP2 SWAP1 POP JUMP JUMPDEST PUSH1 0x0 PUSH1 0x20 DUP3 ADD SWAP1 POP DUP2 DUP2 SUB PUSH1 0x0 DUP4 ADD MSTORE PUSH2 0x5679 DUP2 PUSH2 0x563D JUMP JUMPDEST SWAP1 POP SWAP2 SWAP1 POP JUMP JUMPDEST PUSH32 0x6465706F736974206E6F7420737570706F727420455448207374616B696E6700 PUSH1 0x0 DUP3 ADD MSTORE POP JUMP JUMPDEST PUSH1 0x0 PUSH2 0x56B6 PUSH1 0x1F DUP4 PUSH2 0x4929 JUMP JUMPDEST SWAP2 POP PUSH2 0x56C1 DUP3 PUSH2 0x5680 JUMP JUMPDEST PUSH1 0x20 DUP3 ADD SWAP1 POP SWAP2 SWAP1 POP JUMP JUMPDEST PUSH1 0x0 PUSH1 0x20 DUP3 ADD SWAP1 POP DUP2 DUP2 SUB PUSH1 0x0 DUP4 ADD MSTORE PUSH2 0x56E5 DUP2 PUSH2 0x56A9 JUMP JUMPDEST SWAP1 POP SWAP2 SWAP1 POP JUMP JUMPDEST PUSH32 0x6465706F73697420616D6F756E7420697320746F6F20736D616C6C0000000000 PUSH1 0x0 DUP3 ADD MSTORE POP JUMP JUMPDEST PUSH1 0x0 PUSH2 0x5722 PUSH1 0x1B DUP4 PUSH2 0x4929 JUMP JUMPDEST SWAP2 POP PUSH2 0x572D DUP3 PUSH2 0x56EC JUMP JUMPDEST PUSH1 0x20 DUP3 ADD SWAP1 POP SWAP2 SWAP1 POP JUMP JUMPDEST PUSH1 0x0 PUSH1 0x20 DUP3 ADD SWAP1 POP DUP2 DUP2 SUB PUSH1 0x0 DUP4 ADD MSTORE PUSH2 0x5751 DUP2 PUSH2 0x5715 JUMP JUMPDEST SWAP1 POP SWAP2 SWAP1 POP JUMP JUMPDEST PUSH32 0x696E76616C696420706F6F6C2077656967687400000000000000000000000000 PUSH1 0x0 DUP3 ADD MSTORE POP JUMP JUMPDEST PUSH1 0x0 PUSH2 0x578E PUSH1 0x13 DUP4 PUSH2 0x4929 JUMP JUMPDEST SWAP2 POP PUSH2 0x5799 DUP3 PUSH2 0x5758 JUMP JUMPDEST PUSH1 0x20 DUP3 ADD SWAP1 POP SWAP2 SWAP1 POP JUMP JUMPDEST PUSH1 0x0 PUSH1 0x20 DUP3 ADD SWAP1 POP DUP2 DUP2 SUB PUSH1 0x0 DUP4 ADD MSTORE PUSH2 0x57BD DUP2 PUSH2 0x5781 JUMP JUMPDEST SWAP1 POP SWAP2 SWAP1 POP JUMP JUMPDEST PUSH1 0x0 DUP2 SWAP1 POP SWAP3 SWAP2 POP POP JUMP JUMPDEST POP JUMP JUMPDEST PUSH1 0x0 PUSH2 0x57DF PUSH1 0x0 DUP4 PUSH2 0x57C4 JUMP JUMPDEST SWAP2 POP PUSH2 0x57EA DUP3 PUSH2 0x57CF JUMP JUMPDEST PUSH1 0x0 DUP3 ADD SWAP1 POP SWAP2 SWAP1 POP JUMP JUMPDEST PUSH1 0x0 PUSH2 0x5800 DUP3 PUSH2 0x57D2 JUMP JUMPDEST SWAP2 POP DUP2 SWAP1 POP SWAP2 SWAP1 POP JUMP JUMPDEST PUSH32 0x455448207472616E736665722063616C6C206661696C65640000000000000000 PUSH1 0x0 DUP3 ADD MSTORE POP JUMP JUMPDEST PUSH1 0x0 PUSH2 0x5840 PUSH1 0x18 DUP4 PUSH2 0x4929 JUMP JUMPDEST SWAP2 POP PUSH2 0x584B DUP3 PUSH2 0x580A JUMP JUMPDEST PUSH1 0x20 DUP3 ADD SWAP1 POP SWAP2 SWAP1 POP JUMP JUMPDEST PUSH1 0x0 PUSH1 0x20 DUP3 ADD SWAP1 POP DUP2 DUP2 SUB PUSH1 0x0 DUP4 ADD MSTORE PUSH2 0x586F DUP2 PUSH2 0x5833 JUMP JUMPDEST SWAP1 POP SWAP2 SWAP1 POP JUMP JUMPDEST PUSH1 0x0 DUP2 MLOAD SWAP1 POP PUSH2 0x5885 DUP2 PUSH2 0x49BF JUMP JUMPDEST SWAP3 SWAP2 POP POP JUMP JUMPDEST PUSH1 0x0 PUSH1 0x20 DUP3 DUP5 SUB SLT ISZERO PUSH2 0x58A1 JUMPI PUSH2 0x58A0 PUSH2 0x4323 JUMP JUMPDEST JUMPDEST PUSH1 0x0 PUSH2 0x58AF DUP5 DUP3 DUP6 ADD PUSH2 0x5876 JUMP JUMPDEST SWAP2 POP POP SWAP3 SWAP2 POP POP JUMP JUMPDEST PUSH32 0x455448207472616E73666572206F7065726174696F6E20646964206E6F742073 PUSH1 0x0 DUP3 ADD MSTORE PUSH32 0x7563636565640000000000000000000000000000000000000000000000000000 PUSH1 0x20 DUP3 ADD MSTORE POP JUMP JUMPDEST PUSH1 0x0 PUSH2 0x5914 PUSH1 0x26 DUP4 PUSH2 0x4929 JUMP JUMPDEST SWAP2 POP PUSH2 0x591F DUP3 PUSH2 0x58B8 JUMP JUMPDEST PUSH1 0x40 DUP3 ADD SWAP1 POP SWAP2 SWAP1 POP JUMP JUMPDEST PUSH1 0x0 PUSH1 0x20 DUP3 ADD SWAP1 POP DUP2 DUP2 SUB PUSH1 0x0 DUP4 ADD MSTORE PUSH2 0x5943 DUP2 PUSH2 0x5907 JUMP JUMPDEST SWAP1 POP SWAP2 SWAP1 POP JUMP JUMPDEST PUSH1 0x0 PUSH1 0x20 DUP3 ADD SWAP1 POP PUSH2 0x595F PUSH1 0x0 DUP4 ADD DUP5 PUSH2 0x4B86 JUMP JUMPDEST SWAP3 SWAP2 POP POP JUMP JUMPDEST PUSH1 0x0 DUP2 MLOAD SWAP1 POP PUSH2 0x5974 DUP2 PUSH2 0x441C JUMP JUMPDEST SWAP3 SWAP2 POP POP JUMP JUMPDEST PUSH1 0x0 PUSH1 0x20 DUP3 DUP5 SUB SLT ISZERO PUSH2 0x5990 JUMPI PUSH2 0x598F PUSH2 0x4323 JUMP JUMPDEST JUMPDEST PUSH1 0x0 PUSH2 0x599E DUP5 DUP3 DUP6 ADD PUSH2 0x5965 JUMP JUMPDEST SWAP2 POP POP SWAP3 SWAP2 POP POP JUMP JUMPDEST PUSH1 0x0 PUSH1 0x40 DUP3 ADD SWAP1 POP PUSH2 0x59BC PUSH1 0x0 DUP4 ADD DUP6 PUSH2 0x4B86 JUMP JUMPDEST PUSH2 0x59C9 PUSH1 0x20 DUP4 ADD DUP5 PUSH2 0x43F2 JUMP JUMPDEST SWAP4 SWAP3 POP POP POP JUMP JUMPDEST PUSH1 0x0 DUP2 MLOAD SWAP1 POP PUSH2 0x59DF DUP2 PUSH2 0x44F0 JUMP JUMPDEST SWAP3 SWAP2 POP POP JUMP JUMPDEST PUSH1 0x0 PUSH1 0x20 DUP3 DUP5 SUB SLT ISZERO PUSH2 0x59FB JUMPI PUSH2 0x59FA PUSH2 0x4323 JUMP JUMPDEST JUMPDEST PUSH1 0x0 PUSH2 0x5A09 DUP5 DUP3 DUP6 ADD PUSH2 0x59D0 JUMP JUMPDEST SWAP2 POP POP SWAP3 SWAP2 POP POP JUMP JUMPDEST PUSH32 0x75736572207374416D6F756E74206D756C206163634D6574614E6F6465506572 PUSH1 0x0 DUP3 ADD MSTORE PUSH32 0x5354206F766572666C6F77000000000000000000000000000000000000000000 PUSH1 0x20 DUP3 ADD MSTORE POP JUMP JUMPDEST PUSH1 0x0 PUSH2 0x5A6E PUSH1 0x2B DUP4 PUSH2 0x4929 JUMP JUMPDEST SWAP2 POP PUSH2 0x5A79 DUP3 PUSH2 0x5A12 JUMP JUMPDEST PUSH1 0x40 DUP3 ADD SWAP1 POP SWAP2 SWAP1 POP JUMP JUMPDEST PUSH1 0x0 PUSH1 0x20 DUP3 ADD SWAP1 POP DUP2 DUP2 SUB PUSH1 0x0 DUP4 ADD MSTORE PUSH2 0x5A9D DUP2 PUSH2 0x5A61 JUMP JUMPDEST SWAP1 POP SWAP2 SWAP1 POP JUMP JUMPDEST PUSH32 0x6163635354206469762031206574686572206F766572666C6F77000000000000 PUSH1 0x0 DUP3 ADD MSTORE POP JUMP JUMPDEST PUSH1 0x0 PUSH2 0x5ADA PUSH1 0x1A DUP4 PUSH2 0x4929 JUMP JUMPDEST SWAP2 POP PUSH2 0x5AE5 DUP3 PUSH2 0x5AA4 JUMP JUMPDEST PUSH1 0x20 DUP3 ADD SWAP1 POP SWAP2 SWAP1 POP JUMP JUMPDEST PUSH1 0x0 PUSH1 0x20 DUP3 ADD SWAP1 POP DUP2 DUP2 SUB PUSH1 0x0 DUP4 ADD MSTORE PUSH2 0x5B09 DUP2 PUSH2 0x5ACD JUMP JUMPDEST SWAP1 POP SWAP2 SWAP1 POP JUMP JUMPDEST PUSH32 0x6163635354207375622066696E69736865644D6574614E6F6465206F76657266 PUSH1 0x0 DUP3 ADD MSTORE PUSH32 0x6C6F770000000000000000000000000000000000000000000000000000000000 PUSH1 0x20 DUP3 ADD MSTORE POP JUMP JUMPDEST PUSH1 0x0 PUSH2 0x5B6C PUSH1 0x23 DUP4 PUSH2 0x4929 JUMP JUMPDEST SWAP2 POP PUSH2 0x5B77 DUP3 PUSH2 0x5B10 JUMP JUMPDEST PUSH1 0x40 DUP3 ADD SWAP1 POP SWAP2 SWAP1 POP JUMP JUMPDEST PUSH1 0x0 PUSH1 0x20 DUP3 ADD SWAP1 POP DUP2 DUP2 SUB PUSH1 0x0 DUP4 ADD MSTORE PUSH2 0x5B9B DUP2 PUSH2 0x5B5F JUMP JUMPDEST SWAP1 POP SWAP2 SWAP1 POP JUMP JUMPDEST PUSH32 0x757365722070656E64696E674D6574614E6F6465206F766572666C6F77000000 PUSH1 0x0 DUP3 ADD MSTORE POP JUMP JUMPDEST PUSH1 0x0 PUSH2 0x5BD8 PUSH1 0x1D DUP4 PUSH2 0x4929 JUMP JUMPDEST SWAP2 POP PUSH2 0x5BE3 DUP3 PUSH2 0x5BA2 JUMP JUMPDEST PUSH1 0x20 DUP3 ADD SWAP1 POP SWAP2 SWAP1 POP JUMP JUMPDEST PUSH1 0x0 PUSH1 0x20 DUP3 ADD SWAP1 POP DUP2 DUP2 SUB PUSH1 0x0 DUP4 ADD MSTORE PUSH2 0x5C07 DUP2 PUSH2 0x5BCB JUMP JUMPDEST SWAP1 POP SWAP2 SWAP1 POP JUMP JUMPDEST PUSH32 0x75736572207374416D6F756E74206F766572666C6F7700000000000000000000 PUSH1 0x0 DUP3 ADD MSTORE POP JUMP JUMPDEST PUSH1 0x0 PUSH2 0x5C44 PUSH1 0x16 DUP4 PUSH2 0x4929 JUMP JUMPDEST SWAP2 POP PUSH2 0x5C4F DUP3 PUSH2 0x5C0E JUMP JUMPDEST PUSH1 0x20 DUP3 ADD SWAP1 POP SWAP2 SWAP1 POP JUMP JUMPDEST PUSH1 0x0 PUSH1 0x20 DUP3 ADD SWAP1 POP DUP2 DUP2 SUB PUSH1 0x0 DUP4 ADD MSTORE PUSH2 0x5C73 DUP2 PUSH2 0x5C37 JUMP JUMPDEST SWAP1 POP SWAP2 SWAP1 POP JUMP JUMPDEST PUSH32 0x706F6F6C207374546F6B656E416D6F756E74206F766572666C6F770000000000 PUSH1 0x0 DUP3 ADD MSTORE POP JUMP JUMPDEST PUSH1 0x0 PUSH2 0x5CB0 PUSH1 0x1B DUP4 PUSH2 0x4929 JUMP JUMPDEST SWAP2 POP PUSH2 0x5CBB DUP3 PUSH2 0x5C7A JUMP JUMPDEST PUSH1 0x20 DUP3 ADD SWAP1 POP SWAP2 SWAP1 POP JUMP JUMPDEST PUSH1 0x0 PUSH1 0x20 DUP3 ADD SWAP1 POP DUP2 DUP2 SUB PUSH1 0x0 DUP4 ADD MSTORE PUSH2 0x5CDF DUP2 PUSH2 0x5CA3 JUMP JUMPDEST SWAP1 POP SWAP2 SWAP1 POP JUMP JUMPDEST PUSH32 0x66696E69736865644D6574614E6F6465206469762031206574686572206F7665 PUSH1 0x0 DUP3 ADD MSTORE PUSH32 0x72666C6F77000000000000000000000000000000000000000000000000000000 PUSH1 0x20 DUP3 ADD MSTORE POP JUMP JUMPDEST PUSH1 0x0 PUSH2 0x5D42 PUSH1 0x25 DUP4 PUSH2 0x4929 JUMP JUMPDEST SWAP2 POP PUSH2 0x5D4D DUP3 PUSH2 0x5CE6 JUMP JUMPDEST PUSH1 0x40 DUP3 ADD SWAP1 POP SWAP2 SWAP1 POP JUMP JUMPDEST PUSH1 0x0 PUSH1 0x20 DUP3 ADD SWAP1 POP DUP2 DUP2 SUB PUSH1 0x0 DUP4 ADD MSTORE PUSH2 0x5D71 DUP2 PUSH2 0x5D35 JUMP JUMPDEST SWAP1 POP SWAP2 SWAP1 POP JUMP JUMPDEST PUSH1 0x0 PUSH1 0x40 DUP3 ADD SWAP1 POP PUSH2 0x5D8D PUSH1 0x0 DUP4 ADD DUP6 PUSH2 0x4B86 JUMP JUMPDEST PUSH2 0x5D9A PUSH1 0x20 DUP4 ADD DUP5 PUSH2 0x4549 JUMP JUMPDEST SWAP4 SWAP3 POP POP POP JUMP INVALID LOG2 PUSH5 0x6970667358 0x22 SLT KECCAK256 PUSH28 0xF1453DFD54E21F2958E6E6F75FD0C071E57A4002FE7FB7E250A5668 0xAF DUP2 SWAP9 PUSH5 0x736F6C6343 STOP ADDMOD AND STOP CALLER "},"methodIdentifiers":{"ADMIN_ROLE()":"75b238fc","DEFAULT_ADMIN_ROLE()":"a217fddf","ETH_PID()":"bfc3ebba","MetaNode()":"d22f1d80","MetaNodePerBlock()":"9ea96e66","UPGRADE_INTERFACE_VERSION()":"ad3cb1cc","UPGRADE_ROLE()":"b908afa8","addPool(address,uint256,uint256,uint256,bool)":"b6d9d919","claim(uint256)":"379607f5","claimPaused()":"ab5e124a","deposit(uint256,uint256)":"e2bbb158","depositETH()":"f6326fb3","endBlock()":"083c6323","getMultiplier(uint256,uint256)":"8dbb1e3a","getRoleAdmin(bytes32)":"248a9ca3","grantRole(bytes32,address)":"2f2ff15d","hasRole(bytes32,address)":"91d14854","initialize(address,uint256,uint256,uint256)":"4ec81af1","massUpdatePools()":"630b5ba1","pauseClaim()":"8ff095f9","pauseWithdraw()":"6155e3de","paused()":"5c975abb","pendingMetaNode(uint256,address)":"ea5c219d","pendingMetaNodeByBlockNumber(uint256,address,uint256)":"6325d5bc","pool(uint256)":"fe313112","poolLength()":"081e3eda","proxiableUUID()":"52d1902d","renounceRole(bytes32,address)":"36568abe","revokeRole(bytes32,address)":"d547741f","setEndBlock(uint256)":"c713aa94","setMetaNode(address)":"61a9a03d","setMetaNodePerBlock(uint256)":"d7bc1769","setPoolWeight(uint256,uint256,bool)":"fad07ece","setStartBlock(uint256)":"f35e4a6e","stakingBalance(uint256,address)":"11548234","startBlock()":"48cd4cb1","supportsInterface(bytes4)":"01ffc9a7","totalPoolWeight()":"02559004","unpauseClaim()":"de065caa","unpauseWithdraw()":"5bb6d007","unstake(uint256,uint256)":"9e2c8a5b","updatePool(uint256)":"51eb05a6","updatePool(uint256,uint256,uint256)":"d86c0444","upgradeToAndCall(address,bytes)":"4f1ef286","user(uint256,address)":"37849b3c","withdraw(uint256)":"2e1a7d4d","withdrawAmount(uint256,address)":"ff423357","withdrawPaused()":"2f3ffb9f"}},"storageLayout":{"storage":[{"astId":6346,"contract":"contracts/MetaNodeStake.sol:MetaNodeStake","label":"startBlock","offset":0,"slot":"0","type":"t_uint256"},{"astId":6348,"contract":"contracts/MetaNodeStake.sol:MetaNodeStake","label":"endBlock","offset":0,"slot":"1","type":"t_uint256"},{"astId":6350,"contract":"contracts/MetaNodeStake.sol:MetaNodeStake","label":"MetaNodePerBlock","offset":0,"slot":"2","type":"t_uint256"},{"astId":6352,"contract":"contracts/MetaNodeStake.sol:MetaNodeStake","label":"withdrawPaused","offset":0,"slot":"3","type":"t_bool"},{"astId":6354,"contract":"contracts/MetaNodeStake.sol:MetaNodeStake","label":"claimPaused","offset":1,"slot":"3","type":"t_bool"},{"astId":6357,"contract":"contracts/MetaNodeStake.sol:MetaNodeStake","label":"MetaNode","offset":2,"slot":"3","type":"t_contract(IERC20)1636"},{"astId":6359,"contract":"contracts/MetaNodeStake.sol:MetaNodeStake","label":"totalPoolWeight","offset":0,"slot":"4","type":"t_uint256"},{"astId":6363,"contract":"contracts/MetaNodeStake.sol:MetaNodeStake","label":"pool","offset":0,"slot":"5","type":"t_array(t_struct(Pool)6328_storage)dyn_storage"},{"astId":6370,"contract":"contracts/MetaNodeStake.sol:MetaNodeStake","label":"user","offset":0,"slot":"6","type":"t_mapping(t_uint256,t_mapping(t_address,t_struct(User)6344_storage))"}],"types":{"t_address":{"encoding":"inplace","label":"address","numberOfBytes":"20"},"t_array(t_struct(Pool)6328_storage)dyn_storage":{"base":"t_struct(Pool)6328_storage","encoding":"dynamic_array","label":"struct MetaNodeStake.Pool[]","numberOfBytes":"32"},"t_array(t_struct(UnstakeRequest)6333_storage)dyn_storage":{"base":"t_struct(UnstakeRequest)6333_storage","encoding":"dynamic_array","label":"struct MetaNodeStake.UnstakeRequest[]","numberOfBytes":"32"},"t_bool":{"encoding":"inplace","label":"bool","numberOfBytes":"1"},"t_contract(IERC20)1636":{"encoding":"inplace","label":"contract IERC20","numberOfBytes":"20"},"t_mapping(t_address,t_struct(User)6344_storage)":{"encoding":"mapping","key":"t_address","label":"mapping(address => struct MetaNodeStake.User)","numberOfBytes":"32","value":"t_struct(User)6344_storage"},"t_mapping(t_uint256,t_mapping(t_address,t_struct(User)6344_storage))":{"encoding":"mapping","key":"t_uint256","label":"mapping(uint256 => mapping(address => struct MetaNodeStake.User))","numberOfBytes":"32","value":"t_mapping(t_address,t_struct(User)6344_storage)"},"t_struct(Pool)6328_storage":{"encoding":"inplace","label":"struct MetaNodeStake.Pool","members":[{"astId":6315,"contract":"contracts/MetaNodeStake.sol:MetaNodeStake","label":"stTokenAddress","offset":0,"slot":"0","type":"t_address"},{"astId":6317,"contract":"contracts/MetaNodeStake.sol:MetaNodeStake","label":"poolWeight","offset":0,"slot":"1","type":"t_uint256"},{"astId":6319,"contract":"contracts/MetaNodeStake.sol:MetaNodeStake","label":"lastRewardBlock","offset":0,"slot":"2","type":"t_uint256"},{"astId":6321,"contract":"contracts/MetaNodeStake.sol:MetaNodeStake","label":"accMetaNodePerST","offset":0,"slot":"3","type":"t_uint256"},{"astId":6323,"contract":"contracts/MetaNodeStake.sol:MetaNodeStake","label":"stTokenAmount","offset":0,"slot":"4","type":"t_uint256"},{"astId":6325,"contract":"contracts/MetaNodeStake.sol:MetaNodeStake","label":"minDepositAmount","offset":0,"slot":"5","type":"t_uint256"},{"astId":6327,"contract":"contracts/MetaNodeStake.sol:MetaNodeStake","label":"unstakeLockedBlocks","offset":0,"slot":"6","type":"t_uint256"}],"numberOfBytes":"224"},"t_struct(UnstakeRequest)6333_storage":{"encoding":"inplace","label":"struct MetaNodeStake.UnstakeRequest","members":[{"astId":6330,"contract":"contracts/MetaNodeStake.sol:MetaNodeStake","label":"amount","offset":0,"slot":"0","type":"t_uint256"},{"astId":6332,"contract":"contracts/MetaNodeStake.sol:MetaNodeStake","label":"unlockBlocks","offset":0,"slot":"1","type":"t_uint256"}],"numberOfBytes":"64"},"t_struct(User)6344_storage":{"encoding":"inplace","label":"struct MetaNodeStake.User","members":[{"astId":6335,"contract":"contracts/MetaNodeStake.sol:MetaNodeStake","label":"stAmount","offset":0,"slot":"0","type":"t_uint256"},{"astId":6337,"contract":"contracts/MetaNodeStake.sol:MetaNodeStake","label":"finishedMetaNode","offset":0,"slot":"1","type":"t_uint256"},{"astId":6339,"contract":"contracts/MetaNodeStake.sol:MetaNodeStake","label":"pendingMetaNode","offset":0,"slot":"2","type":"t_uint256"},{"astId":6343,"contract":"contracts/MetaNodeStake.sol:MetaNodeStake","label":"requests","offset":0,"slot":"3","type":"t_array(t_struct(UnstakeRequest)6333_storage)dyn_storage"}],"numberOfBytes":"128"},"t_uint256":{"encoding":"inplace","label":"uint256","numberOfBytes":"32"}}}}}}