{
  "_format": "hh-sol-artifact-1",
  "contractName": "TestEthReceiverFalse",
  "sourceName": "contracts/TestEthReceiverFalse.sol",
  "abi": [
    {
      "stateMutability": "payable",
      "type": "fallback"
    },
    {
      "inputs": [
        {
          "internalType": "address",
          "name": "stake",
          "type": "address"
        }
      ],
      "name": "depositToStake",
      "outputs": [],
      "stateMutability": "payable",
      "type": "function"
    },
    {
      "inputs": [
        {
          "internalType": "address",
          "name": "stake",
          "type": "address"
        },
        {
          "internalType": "uint256",
          "name": "pid",
          "type": "uint256"
        }
      ],
      "name": "doWithdraw",
      "outputs": [],
      "stateMutability": "nonpayable",
      "type": "function"
    },
    {
      "inputs": [
        {
          "internalType": "address",
          "name": "stake",
          "type": "address"
        },
        {
          "internalType": "uint256",
          "name": "pid",
          "type": "uint256"
        },
        {
          "internalType": "uint256",
          "name": "amount",
          "type": "uint256"
        }
      ],
      "name": "requestUnstake",
      "outputs": [],
      "stateMutability": "nonpayable",
      "type": "function"
    },
    {
      "stateMutability": "payable",
      "type": "receive"
    }
  ],
  "bytecode": "0x608060405234801561001057600080fd5b5061054c806100206000396000f3fe6080604052600436106100385760003560e01c80633381114b146100ca578063e37b6b04146100f3578063f46e21a61461010f5761005b565b3661005b57610051676c60a2f5ae2d162d60c01b610138565b6000805260206000f35b60003660606100746798f44e86354e40cf60c01b610138565b61008867299655c2f87eea7360c01b610138565b61009c67057b77fb0282f9fd60c01b610138565b60006040516020016100ae919061034f565b6040516020818303038152906040529050915050805190602001f35b3480156100d657600080fd5b506100f160048036038101906100ec9190610403565b61013b565b005b61010d60048036038101906101089190610443565b6101e6565b005b34801561011b57600080fd5b5061013660048036038101906101319190610470565b610286565b005b50565b61014f67b119e9f0c7d8352360c01b610138565b61016367e489b2b76c8d098b60c01b610138565b610177675a7da9b0e41cabe860c01b610138565b8173ffffffffffffffffffffffffffffffffffffffff16632e1a7d4d826040518263ffffffff1660e01b81526004016101b091906104d2565b600060405180830381600087803b1580156101ca57600080fd5b505af11580156101de573d6000803e3d6000fd5b505050505050565b6101fa674c4d0a2c1ee9f7c860c01b610138565b61020e6735028f080d51b9e160c01b610138565b6102226753a9eda8fe46bf2360c01b610138565b8073ffffffffffffffffffffffffffffffffffffffff1663f6326fb3346040518263ffffffff1660e01b81526004016000604051808303818588803b15801561026a57600080fd5b505af115801561027e573d6000803e3d6000fd5b505050505050565b61029a67d996f6af07b5db7760c01b610138565b6102ae67f44c567013cafad260c01b610138565b6102c26794b2247110174c5f60c01b610138565b8273ffffffffffffffffffffffffffffffffffffffff16639e2c8a5b83836040518363ffffffff1660e01b81526004016102fd9291906104ed565b600060405180830381600087803b15801561031757600080fd5b505af115801561032b573d6000803e3d6000fd5b50505050505050565b60008115159050919050565b61034981610334565b82525050565b60006020820190506103646000830184610340565b92915050565b600080fd5b600073ffffffffffffffffffffffffffffffffffffffff82169050919050565b600061039a8261036f565b9050919050565b6103aa8161038f565b81146103b557600080fd5b50565b6000813590506103c7816103a1565b92915050565b6000819050919050565b6103e0816103cd565b81146103eb57600080fd5b50565b6000813590506103fd816103d7565b92915050565b6000806040838503121561041a5761041961036a565b5b6000610428858286016103b8565b9250506020610439858286016103ee565b9150509250929050565b6000602082840312156104595761045861036a565b5b6000610467848285016103b8565b91505092915050565b6000806000606084860312156104895761048861036a565b5b6000610497868287016103b8565b93505060206104a8868287016103ee565b92505060406104b9868287016103ee565b9150509250925092565b6104cc816103cd565b82525050565b60006020820190506104e760008301846104c3565b92915050565b600060408201905061050260008301856104c3565b61050f60208301846104c3565b939250505056fea2646970667358221220677e5a8a6cc70e19984ec52d749eb36921472fe8a0eb316ab4a072b9cc1778f964736f6c63430008160033",
  "linkReferences": {},
  "deployedLinkReferences": {}
}