{
  "_format": "hh-sol-artifact-1",
  "contractName": "TestEthReceiver",
  "sourceName": "contracts/TestEthReceiver.sol",
  "abi": [
    {
      "stateMutability": "payable",
      "type": "fallback"
    },
    {
      "inputs": [
        {
          "internalType": "address",
          "name": "stake",
          "type": "address"
        }
      ],
      "name": "depositToStake",
      "outputs": [],
      "stateMutability": "payable",
      "type": "function"
    },
    {
      "inputs": [
        {
          "internalType": "address",
          "name": "stake",
          "type": "address"
        },
        {
          "internalType": "uint256",
          "name": "pid",
          "type": "uint256"
        }
      ],
      "name": "doWithdraw",
      "outputs": [],
      "stateMutability": "nonpayable",
      "type": "function"
    },
    {
      "inputs": [
        {
          "internalType": "address",
          "name": "stake",
          "type": "address"
        },
        {
          "internalType": "uint256",
          "name": "pid",
          "type": "uint256"
        },
        {
          "internalType": "uint256",
          "name": "amount",
          "type": "uint256"
        }
      ],
      "name": "requestUnstake",
      "outputs": [],
      "stateMutability": "nonpayable",
      "type": "function"
    },
    {
      "stateMutability": "payable",
      "type": "receive"
    }
  ],
  "bytecode": "0x608060405234801561001057600080fd5b5061054d806100206000396000f3fe6080604052600436106100385760003560e01c80633381114b146100cb578063e37b6b04146100f4578063f46e21a6146101105761005c565b3661005c57610051678b9bde9470fc599460c01b610139565b600160005260206000f35b6000366060610075679d17ed908e6c3e8260c01b610139565b61008967325b7f6a8fd966e960c01b610139565b61009d675ae483e145e6d50860c01b610139565b60016040516020016100af9190610350565b6040516020818303038152906040529050915050805190602001f35b3480156100d757600080fd5b506100f260048036038101906100ed9190610404565b61013c565b005b61010e60048036038101906101099190610444565b6101e7565b005b34801561011c57600080fd5b5061013760048036038101906101329190610471565b610287565b005b50565b61015067dca8c75bca866b0360c01b610139565b6101646771c271237264550f60c01b610139565b61017867fdc3376011d3d68c60c01b610139565b8173ffffffffffffffffffffffffffffffffffffffff16632e1a7d4d826040518263ffffffff1660e01b81526004016101b191906104d3565b600060405180830381600087803b1580156101cb57600080fd5b505af11580156101df573d6000803e3d6000fd5b505050505050565b6101fb675925b39146f24dc460c01b610139565b61020f67135fe7dff2a2f99d60c01b610139565b61022367c04576ea21316f3160c01b610139565b8073ffffffffffffffffffffffffffffffffffffffff1663f6326fb3346040518263ffffffff1660e01b81526004016000604051808303818588803b15801561026b57600080fd5b505af115801561027f573d6000803e3d6000fd5b505050505050565b61029b67199842cb69fcc56160c01b610139565b6102af675b621a06c8d421ab60c01b610139565b6102c367793c847f933861e060c01b610139565b8273ffffffffffffffffffffffffffffffffffffffff16639e2c8a5b83836040518363ffffffff1660e01b81526004016102fe9291906104ee565b600060405180830381600087803b15801561031857600080fd5b505af115801561032c573d6000803e3d6000fd5b50505050505050565b60008115159050919050565b61034a81610335565b82525050565b60006020820190506103656000830184610341565b92915050565b600080fd5b600073ffffffffffffffffffffffffffffffffffffffff82169050919050565b600061039b82610370565b9050919050565b6103ab81610390565b81146103b657600080fd5b50565b6000813590506103c8816103a2565b92915050565b6000819050919050565b6103e1816103ce565b81146103ec57600080fd5b50565b6000813590506103fe816103d8565b92915050565b6000806040838503121561041b5761041a61036b565b5b6000610429858286016103b9565b925050602061043a858286016103ef565b9150509250929050565b60006020828403121561045a5761045961036b565b5b6000610468848285016103b9565b91505092915050565b60008060006060848603121561048a5761048961036b565b5b6000610498868287016103b9565b93505060206104a9868287016103ef565b92505060406104ba868287016103ef565b9150509250925092565b6104cd816103ce565b82525050565b60006020820190506104e860008301846104c4565b92915050565b600060408201905061050360008301856104c4565b61051060208301846104c4565b939250505056fea26469706673582212209b1e9b980f5c8f23502a3aabb33b4559f4ee80d4c8bb6b3f02393ae820ba570c64736f6c63430008160033",
  "linkReferences": {},
  "deployedLinkReferences": {}
}